:10000000D08400206D7E0000517D0000537D0000F3
:10001000557D0000577D0000597D00000000000064
:100020000000000000000000000000005B7D0000F8
:100030005D7D0000000000005F7D0000617D00002C
:10004000AD7E0000B17E0000B57E0000B97E0000EC
:10005000BD7E0000C17E0000C57E0000C97E00009C
:10006000CD7E0000D17E0000D57E0000D97E00004C
:10007000DD7E0000E17E0000E57E0000E97E0000FC
:10008000ED7E0000F17E0000F57E0000F97E0000AC
:10009000877D0000017F0000057F0000097F0000D0
:1000A0000D7F0000117F0000157F0000197F000008
:1000B0001D7F0000217F0000257F0000297F0000B8
:1000C0002D7F0000317F0000357F0000397F000068
:1000D0003D7F0000417F0000457F0000497F000018
:1000E000697D0000517F0000557F0000597F0000AE
:1000F0005D7F0000617F0000657F0000697F000078
:100100006D7F0000717F0000757F0000797F000027
:100110007D7F0000817F0000857F0000897F0000D7
:100120008D7F0000917F0000957F0000997F000087
:100130009D7F0000A17F0000A57F0000A97F000037
:10014000AD7F0000B17F0000B57F0000B97F0000E7
:10015000BD7F0000C17F0000C57F0000C97F000097
:10016000CD7F0000D17F0000D57F0000D97F000047
:10017000DD7F0000E17F0000E57F0000E97F0000F7
:10018000ED7F00002DE9F04FA1B017461C4601ADF0
:100190006860A9600020E86211AE4FF00A096FF0B4
:1001A000004802E0E86A401CE862387818B9E86A5A
:1001B00021B0BDE8F08F252807D100206861A86133
:1001C000E86128626862A8620CE017F8011BA86861
:1001D0006A689047A8600028E4D14FF0FF30E7E755
:1001E00040F0010017F8011F2029F9D023290DD074
:1001F0002B2904D02D2906D030290AD00CE040F05C
:10020000020080B2EEE740F00400FAE740F0080098
:10021000F7E740F01000F4E72A290DD12268111DFC
:10022000216011686963002904D54942696340F07F
:10023000040080B27F1C10E00021696307E0696B55
:10024000414503D009FB0121303969637F1C3A78AD
:10025000A2F13001C9B20A29F1D339782E291CBF85
:100260004FF0FF3129631BD117F8011F2A2906D14E
:100270002268111D2160116829637F1C10E0002194
:10028000296307E0296B414503D009FB012130397F
:1002900029637F1C3A78A2F13001C9B20A29F1D34F
:1002A000288739780FF6D83000F00EFE08B117F81D
:1002B000010B8DF83E009DF83E00682804D1387887
:1002C00068280AD1622005E06C2806D138786C28AD
:1002D00003D171208DF83E007F1C11A828613A7867
:1002E0001046253825D01C3877D0001F022874D935
:1002F000133800F09E8009386FD0801E00F03681E0
:10030000401E00F0DF80401E022866D9001F00F06A
:10031000D980401F36D0401E00F08B80401E23D075
:10032000C01E0CD0801E00F08480C01E00F08180B2
:1003300024E16869411C69612521815528E1216812
:10034000081D20600868E8602A6B002A08D4002194
:1003500000F0D6FD00281ABFE968401A286B01E0BA
:1003600000F0FAFDA86113E12168081D206008680B
:100370000021CDE9000111A8E860782100A800F073
:1003800097F905E19DF83E0062281FD068280DD03E
:100390006A2812D06C2802D071280ED074282168E7
:1003A000081D20600868E96A0160F1E0E86A2268D7
:1003B000111D216011680880EAE0E86AC11723680E
:1003C0001A1D22601A68C2E90001E1E0E86A2268A9
:1003D000111D216011680870DAE02068C01D20F04E
:1003E00007002060034603F108002060D3E9000104
:1003F000CDE90001002904D56869411C69612D21FE
:100400000DE0288F810704D56869411C69612B21A3
:1004100005E0C00704D56869411C69612021815548
:10042000686911A94018E860114600A800F0CFF9EA
:10043000AEE09DF83E006C280FD0712801D06A28EC
:100440000BD12068C01D20F007002060034603F197
:1004500008002060D3E9000104E02168081D206045
:1004600008680021CDE900019DF83E0068280CD005
:10047000622806D0742801D07A280CD1DDE9000169
:1004800006E0DDE90001C0B202E0DDE9000180B272
:100490000021CDE9000195F83800000760D5DDE9BD
:1004A000000109B900285BD042F02000782857D11C
:1004B0006869411C6961302181556869411C696125
:1004C00082554DE09DF83E0062280CD0682810D07F
:1004D0006A281AD06C2824D0712816D0742820D00D
:1004E0007A280CD01DE02168081D206091F90000D9
:1004F0001BE02168081D2060B1F9000015E02168AB
:10050000081D20600868002110E02068C01D20F050
:1005100007002060034603F108002060D3E90001D2
:1005200004E02168081D20600868C117CDE90001BA
:10053000DDE9000100290EDB288F810704D56869F9
:10054000411C69612B210AE0C00709D56869411C7B
:100550006961202103E06869411C69612D21815591
:10056000686911A94018E860114607E76869411CED
:1005700069612268111D21601168DEE66869411C0D
:100580006961252181551AB16869411C69618255EB
:100590007F1C686B6969401A296A401AA969401A68
:1005A000696A401AE969401AA96AA0EB010A95F83C
:1005B0003800400711D420208DF84000BAF1010F17
:1005C0000BDBD346012210A900A800F03FFC002855
:1005D0007FF403AEBBF1010BF4D16A6911A900A845
:1005E00000F034FC00287FF4F8AD30208DF8400096
:1005F000D5F820B0BBF1010F0ADB012210A900A839
:1006000000F024FC00287FF4E8ADBBF1010BF4D12D
:10061000AA69E96800A800F019FC00287FF4DDADA4
:1006200030208DF84000D5F824B0BBF1010F0ADB73
:10063000012210A900A800F009FC00287FF4CDAD2C
:10064000BBF1010BF4D1EA69A869E968411800A877
:1006500000F0FCFB00287FF4C0AD30208DF8400096
:10066000D5F828B0BBF1010F0ADB012210A900A8C0
:1006700000F0ECFB00287FF4B0ADBBF1010BF4D12E
:1006800095F8380040077FF590AD20208DF84000A8
:10069000BAF1010FFFF689AD012210A900A800F000
:1006A000D5FB00287FF499ADBAF1010AF4D17CE5BD
:1006B0002DE9FA4786B00546686900909DF8180054
:1006C0006F2808BF082705D040F02000782814BF05
:1006D0000A2710273C24D5E90001064689469DF8E3
:1006E0001820642A01D0692A04D1002902DA76424E
:1006F00069EB4909B9F1000F0DD166B9686B50B9C2
:10070000082F3FD195F83C0000073BD5641E0098A8
:100710003021215436E0A4F101084446F817CDE910
:10072000047030464946DDE9042300F03FFCCDE982
:100730000201B246DDE90223DDE90401A0FB026902
:100740005046801B3030C0B23A2803D39DF81810B1
:1007500051390818009908F80100DDE90269B9F17A
:10076000000F00D126B12869009961188842D2D3C0
:10077000082F07D195F83C00000703D50098205CAE
:100780003028C3D1C4F13C00E861009961182961A7
:10079000696B884207DA081A6862A88F4FF6EF7112
:1007A0000840A88710E000290ED595F83C1001F00C
:1007B0001401102908D1A96BAA69891A6A6A891AD1
:1007C0000C1A012CA8BF6C6208B0BDE8F0872DE9B7
:1007D000F24F8EB0054604AFD5E90001CDE9020124
:1007E0009DF8380040F020008DF8000061280BD003
:1007F000686B002848BF062005D405D19DF800008D
:10080000672801D1012068636968C1F30A5040F28A
:10081000FF72904225D0012819DA284600F054FCD6
:10082000012814DB002400209DF80010612940D12C
:100830002A69511C29613021117029694A1C2A61D9
:100840009DF83820612A0CBF782258222DE040F212
:10085000FE316A6861F31E526A60441A4FF0FF303D
:10086000E2E7080301D1286870B10320E8619DF830
:1008700038006138C0B21A2811D30FF21061032278
:10088000286900F043FC9EE10320E8619DF83800F0
:100890006138C0B21A2805D30FF2F851EFE70FF212
:1008A000E851ECE70FF2E851E9E70A70A969891C01
:1008B000A96110B90026B0467BE19DF800006128CF
:1008C00040F09780686B00284CBF2126461C36B24A
:1008D000771CD5E900ABDDE902010022002300F01E
:1008E0004DFC3ABF8BF00040CDE902A0CDE902AB50
:1008F000A4F104088DF810200DF11109012F33DB4C
:10090000DDE902010022002300F050FC2CD21C2162
:1009100002A800F063FCDDE9020100F0EBFC0446F4
:10092000FF1F012F09DB00F011FD02460B46DDE938
:10093000020100F023FDCDE9020109F207000721C1
:10094000012C0BDB491E5EBF04F00F0200F8012DE5
:100950002411F5D502E0002200F8012D491EFAD538
:1009600000F20709012FCBDA0DF11100A9EB00010C
:100970000DF11107B142B8BF0E4636B2002E31D488
:100980003046884206DA04A941184978082928BF68
:100990000F2100D2002104AA821800E0761E401E1A
:1009A00012F801398B42F9D00F2904D104A941185A
:1009B0004A78521C4A70002803D504AF761C08F10F
:1009C000040836B2701E0DD4C1190A783032D2B282
:1009D0003A2A03D39DF838303A3B9A1801F8012996
:1009E000401EF2D5686B002840F1E380701E6863FA
:1009F000DFE0DDE902010022002300F0BFFB05D2A9
:100A0000DDE9020181F00041CDE9020124B247F2A3
:100A1000975060436D4990FBF1F80FFA88F8C8F1E0
:100A200007040027DFF8A891012C19DBDDE902ABF0
:100A3000E00707D5504659463A464B4600F05EFD62
:100A400082468B466410384649463A464B4600F08B
:100A500055FD07468946002CEAD1CDE902AB21E0DD
:100A600064429246DFF86CB114D0E00707D55046D7
:100A700059463A464B4600F041FD82468B4664108B
:100A8000384649463A464B4600F038FD0746894607
:100A9000002CEAD1DDE9020152465B4600F000FE7F
:100AA000CDE902019DF8000066280CBF08F10A009C
:100AB0000620696B4618142EA8BF132630208DF827
:100AC00010000DF11104444F012E2FDBDDE902016E
:100AD00000F026FC04F1080104220A23B0FBF3F421
:100AE00003FB1400303001F8010DB4FBF3F003FBFD
:100AF0001043303301F8013D521EEED101F10804DC
:100B0000083E012EE0DBDDE9020100F009FC00F007
:100B100027FC02460B46DDE9020100F02FFC002213
:100B20003B4600F0EBFCCDE90201CFE70DF11100EF
:100B3000201A0DF111079DF81110302906D1401E21
:100B4000A8F1010817F8011F3029F8D09DF800100E
:100B5000662904BF0FFA88F808F1010103D065295E
:100B60000CBF012100216A6B8E1836B2B042B8BFAB
:100B7000064636B2002E1CD43146814204DAC85DE6
:100B8000352828BF392000D23020CA19521E00E073
:100B9000761E491E12F801398342F9D0392802D154
:100BA000C85D401CC855002903D57F1E761C08F17E
:100BB00001080FFA88F0009033B23A469DF83810D9
:100BC000284600F00BF80FB0BDE8F08FA0860100BA
:100BD000000024400000F03F84D797412DE9F04306
:100BE00085B00546894617461E46BDF93040D5F802
:100BF0003480012E02DA01260FF29C2749F02000F2
:100C000066280AD0672840F086806FF003018C4286
:100C1000C0F28780444580F28480641C66280CD032
:100C200095F83C00000702D44645B8BFB04624B250
:100C3000B8EB040848BF4FF000082869E96924B2FE
:100C4000012C25DA4A1C30230B54B8F1010F03DACA
:100C500095F83C10090702D52E211154521CEA6167
:100C600018EB040FB8BFC8F1000424B26142A962B6
:100C7000A044B045B8BF464636B22E623246394629
:100C8000EB69181800F042FAA8EB0600E862C6E02B
:100C90000818A64218DA3246394600F037FAE969F0
:100CA0007118E961A01BA862B8F1010F03DA95F889
:100CB0003C00000705D528692E220A54286A401CEA
:100CC0002862C5F82C80AAE02246394600F01EFAB8
:100CD000E8692018E861361BB8F1010F03DA95F8CE
:100CE0003C10090704D5411CE96129692E224254B0
:100CF00036B2B045B8BF464636B23246E119E86969
:100D00002B69C01800F002FAE8693018E861A8EB16
:100D10000600A86283E0B9F1610F16D14FF07009A7
:100D200018E0464504DA95F83C10090758BFB0466C
:100D3000B8F1010848BF4FF00008B9F1670F14BFC0
:100D40004FF045094FF0650904E0B9F1410F08BFC4
:100D50004FF05009E9694A1C286917F8013B0B5408
:100D6000B8F1010F03DA95F83C10090702D52E21DE
:100D70001154521CEA61B8F1010F11DB761E36B234
:100D8000B045B8BF464636B232463946EB69181808
:100D900000F0BCF9E8693018E861A8EB0600A86229
:100DA000E8692969471807F8019B002C5CBF2B20D4
:100DB00007F8010B03D52D2007F8010B644200262C
:100DC0000DF1080824B2012C0EDB0A22214600A8EE
:100DD00000F089FD019808F8010B009C761C24B2F4
:100DE000012CF2DA022E06DA49F02000652804BF51
:100DF000302007F8010B1EB9302007F8010B09E07D
:100E0000012E07DB761E02A8305C303007F8010B9C
:100E1000012EF7DAE86929694018381A286295F82E
:100E20003C0000F0140010280DD1A869E9690818E9
:100E3000A96A0818296A0818E96A0818A96B88427B
:100E4000BCBF081A686205B0BDE8F08370B50446FF
:100E50000D4616460020002E10D015F8011BE06844
:100E6000A2689047E060002802D14FF0FF3070BDCB
:100E7000206B401C20630020761EEED170BD000068
:100E8000686A6C747A4C00006E616E004E414E00D0
:100E9000696E6600494E4600300010B450F8041BDD
:100EA00081B102681218001D50F8043BDC0744BFF2
:100EB000A9F10104E31852F8044B43F8044B091F4D
:100EC000F9D1EBE710BC70470278C9B28A421AB177
:100ED0001CBF10F8012FF9E718BF0020704750F829
:100EE000041B61B150F8042BD30744BFA9F10103DF
:100EF0009A18002342F8043B091FFAD1EFE7704724
:100F0000C9B2830706D0521E22D310F8013B994282
:100F1000F7D11FE0083A13D302F1040241EA01219C
:100F200041EA014150F8043B121F21BF4B40A3F19D
:100F3000013C2CEA030C1CF0803FF3D0C9B2001F27
:100F4000083210F8013B521E28BF91EA030FF8D86F
:100F500018BF0120401E704700F10103810704D033
:100F600010F8011B89B18107FAD10268B2F1013191
:100F7000914311F0803F04BF50F8042FF6E710F8BA
:100F8000011B11B110F8011BFBE7C01A7047026882
:100F9000531C03601170704713F0004C03D55B4283
:100FA000524263F100039CEA210C15D11B4229D166
:100FB00009424CD12AB18446B0FBF2F002FB10C2C8
:100FC000704700F097BCFCD30022002370470B0051
:100FD000020000210020704710B5644603D3494247
:100FE000404261F10001FFF7E1FF640004D3494290
:100FF000404261F10001244203D55B42524263F159
:10100000000310BD904271EB030CE0D370B5B1FA50
:1010100081F4B3FA83F52C1BA340C4F1200532FA06
:1010200005F63343A2405FF00046E64002E05B086D
:101030005FEA3202841A71EB030524BF2046294679
:101040007641F4D302000B003000002170BD012A6C
:10105000B9D970B5140C20D0B1FA81F4B2FA82F586
:10106000C4F120046419B4F12006D6D3B2405FF075
:101070000044F440002502E052085FEA3303C61A38
:1010800071EB020E24BF3046714664416D41F3D3CB
:1010900002000B002000290070BD0C46B1FBF2F1EC
:1010A00002FB11452D0445EA1045B5FBF2F402FBA5
:1010B000145580B240EA0545B5FBF2F002FB105230
:1010C00040EA044070BD000070B4416801F0004285
:1010D00001210D4B44681C40446001D104686CB18F
:1010E00004684568E60F46EA45054560640004600B
:1010F000491EEC02F4D544682340436043681A4318
:101100004260084670BC7047FFFF0F004AB38B0770
:1011100007D0521E11F8013B00F8013B21D08B078C
:10112000F7D183071ED1103A07D330B4B1E8381095
:10113000103AA0E83810F9D230BC530724BFB1E808
:101140000810A0E8081044BF51F8043B40F8043BE5
:10115000D20724BF31F8022B20F8022B44BF0B78B2
:1011600003707047083A07D3B1E80810083A40F80E
:10117000043B40F804CBF7D25307E4E74FF4001CDC
:101180001CEB410F94BF1CEB430F09E041EA030C39
:1011900050EA4C0C52EA0C0C03D2994208BF904220
:1011A000704714BF8B428242704700004FF4001C0E
:1011B0001CEB410F94BF1CEB430F09E041EA030C09
:1011C00050EA4C0C52EA0C0C03D28B4208BF82420C
:1011D000704714BF994290427047000070B50446B2
:1011E0000D466068C0F30A5040F2FF71884209D191
:1011F0006068000302D12068002801D0022070BD81
:10120000012070BD30B92046FFF75EFF012801DBE9
:10121000002070BD012D0EDB40F2FF71091A8D42D6
:1012200009D36068002847BF00202F4900202F49BC
:10123000C4E90001E4E74142A942616806DA2C4AA8
:101240001140401941EA0050606049E001F000415E
:1012500062681203120B42F480126260401E45194C
:1012600005F13500352803D361600020206070BD92
:10127000002215F11F0F05DA203522686068206012
:1012800000206060684213D0521E9241D243C0F1E8
:10129000200325689D4055EAD2722568C5406668DE
:1012A00006FA03F32B432360636823FA00F06060BF
:1012B000606808436060B2F1004F03D80AD120781B
:1012C000C00707D52068401C2060206810B96068FE
:1012D000401CB9E76068884202D12068002897D096
:1012E0004FF0FF3070BD00BF0000F0FF0000F07F46
:1012F000FFFF0F80F446400D40EAC120490006D2AE
:1013000000F013F8004248BF6FF00040604700F063
:101310000CF84FF0004188428CBF084640426047BD
:10132000400D40EAC12049000CD240F00040490D78
:10133000A1F58061491C05D4D1F11F0154BFC840FB
:10134000C01770474FF0000070470000010040F1E7
:101350000880F446404200F004F851F00041604734
:10136000010009D0B0FA80F18840C91CC1F5846140
:10137000090501EBD02140057047000070B44FF023
:10138000004591EA030F44BF6B4000F0BEBA841AD7
:1013900071EB030604D26E40001BB1411219734178
:1013A0004FF4001C1CEB410F34BF7CEB430684E080
:1013B0000C0DA4EB1356362E7DDC012E43DC45EAE2
:1013C000C32343EA525312BFD20292025B082405A0
:1013D00045EAC12141EA5051D2EBC020994125D4C0
:1013E00007D1B0FA80F610FA06F164D0002020365A
:1013F00008E0B1FA81F6B140C6F1200220FA02F20B
:101400001143B0404FEAF474B4EB465434F0010693
:101410004FEA74040AD8D6F50016760D04F000449D
:10142000F04061FA06F25040F1404840C00A40EAFC
:10143000415021F0004128BF5FEA500550F1000003
:1014400044EBD12137E045EAC323DB0A45EAC12159
:10145000C90AB6F120050EDD42EA0242120CC5F1BE
:10146000200603FA06F6EB4042EA06056D42984173
:1014700061F100010DE062FA06F5F240554063FAB1
:1014800006FC82EA0C02F3405A406D42904161EB47
:10149000030111F4801F05D1641E620502D06D00A6
:1014A0004041494121F48011430875F1004350F156
:1014B000000041EB045170BC70471CEB410F15D28A
:1014C00023F0004352EA43060BD04FEA4C0CBCEB2E
:1014D000410F04D80C0D661E342EB7DDEBE7801AE1
:1014E000994150EA410608BF0021E4E708BF1CEB20
:1014F000430F28BF6FF00001DDE70000B0B581EABF
:10150000030C0CF0004C40F2FF7515EA11541DBF9E
:1015100015EA1357AC42AF4239E0E41923EA4553C8
:1015200043F48013C90241F0004141EA505EC70212
:101530001100A7FB020200284FF00000EEFB012083
:101540004FF00001E3FB072118BF42F001024018F1
:1015500000214941E3FB0E01A4F580640F0302D290
:1015600052004041494154F101046CDD470872F1D9
:10157000004250F1000051EB0451A1F580115CBF15
:1015800041EA0C01B0BD4CEA05510020B0BD05EAAE
:101590001357AC4214BFAF4241E050EA410E1CBFAA
:1015A00052EA430E02E061460020B0BD24423C44B2
:1015B0001BD15FEA070EF6D0090302BF01460020E7
:1015C000AEF1140EB1FA81F7AEEB070401FA07FE93
:1015D0000C37C7F1200100FA07F7C8404EEA000EA9
:1015E00023EA455343F48013A2E733F00043B3FAF0
:1015F00083F704BFB2FA82FE77440B3FE41BB7F1D6
:10160000200E2FBF02FA0EF3BB40C7F1200E22FAC4
:101610000EFE38BF43EA0E03BA40641C82E750EA6C
:10162000410E14BF52EA430E6FF000014FF4001751
:1016300017EB430F8ABF194617EB410FB5E74CEA8A
:1016400005510020B0BDD4F10104B4F120070FDA38
:10165000C4F12007520828BF42F0010210FA07F532
:1016600001FA07F7E1BF2A43E0403843E1400FE0C9
:10167000352C98DCC7F1200452EA400220FA07F228
:1016800018BF42F0010231FA07F0A1400A430021DD
:1016900072F1004250F1000051EB0C01B0BD0000AE
:1016A000F0B540F2FF7581EA030C0CF0004C15EA2E
:1016B00011541DBF15EA1357AC42AF42E5E0BC41DF
:1016C000C1F31301C3F31303801A994143F4801348
:1016D00004D2641E4000494180185941C90241EAC0
:1016E0005051B1FBF3F603FB1611A2FB0675D7EBC5
:1016F000C020A94102D2761E80185941C90241EA90
:101700005051B1FBF3FE03FB1E11A2FB0E75D7EB8C
:10171000C020A94103D2AEF1010E801859418902BF
:1017200041EA9051760546EA8E2EB1FBF3F603FBB3
:101730001611A2FB0675D7EB8020A94102D2761EB6
:1017400080185941C90241EA50514EEA060EB1FBD8
:10175000F3F603FB1611A2FB0675D7EBC020A941D7
:1017600002D2761E80185941C90241EA5051B1FB9C
:10177000F3F703FB1711A2FB0735D3EBC020A941F8
:1017800067F100070CBF004247F0010766F3D52759
:101790004FEA1E31B80814F5806412DDBD0775F1FB
:1017A000004250EB0E5051EB045111F5801F5CBF0D
:1017B00041EA0C01F0BD4CF07F6141F0E0410020B6
:1017C000F0BDBD076D0840EA0E5041F48011D4F120
:1017D0000104B4F120060ADAC4F120060200E04058
:1017E00001FA06F3E1401843B24015430EE0342CF1
:1017F00013DCC6F1200445EA40056D0820FA06F224
:10180000154321FA06F0A1400D43002175F1004275
:1018100050F1000051EB0C01F0BD00205FEA0C011B
:10182000F0BDCFB992185B41B3FA83F704BFB2FAA7
:1018300082F6BF190B3FB7F120062FBF02FA06F35D
:10184000BB40C7F1200622FA06F638BF3343BA4040
:101850001CB1E419641E33E77F4231F00041B1FA54
:1018600081F404BFB0FA80F6A4190B3CB4F1200651
:101870002FBF00FA06F1A140C4F1200620FA06F6B7
:1018800038BF3143A0403C1B1AE7AC421ABF05EAFF
:101890001357AF4212E050EA41061CBF52EA43061A
:1018A000BFE750EA4107304661461CBF41EA055197
:1018B000F0BD52EA430C08BFC143F0BD00204FF415
:1018C000001616EB410F98BF16EB430F08BF16EB3F
:1018D000410F24BFC14305E016EB430F0CBF614627
:1018E0004CEA0551F0BD91FBF2F303FB1211C0E984
:1018F000003170477047000070B44FF0004591EA26
:10190000030C44BF6B40FFF742BD841A71EB030622
:1019100003D2001BB141121973414FF4001C1CEBA0
:10192000410F34BF7CEB430443E00C0DA4EB135692
:10193000352E50DC45EAC323DB0A45EAC121C91232
:10194000B6F120050DDD63FA05F6EB4086EA0305E6
:10195000124218BF45F00105C01851F100010CD228
:1019600013E062FA06F5F2405540F3415A40B340A5
:10197000F3405A408018594107D349085FEA3000C4
:101980005FEA350528BF45F0010501F580114208E1
:1019900075F1004250F1000041EB045170BC4FF46E
:1019A000001C1CEB410F38BF70470020090D0905D2
:1019B00070471CEB410F10D252EA43060BD0BCEB30
:1019C000410F05D80C0DAB43661E342EB5DD02E089
:1019D000AB438018594170BC704770BC7047000021
:1019E00010B40022002303E09BB21C5CA2185B1C15
:1019F0009BB289B28B42F7D31000C0B210BC7047C3
:101A0000DFF8240B0088002829D0DFF8200B0078AD
:101A1000012824D1DFF8100B0088401EDFF8081BD6
:101A20000880DFF8040B0088002818D1DFF8000BCD
:101A30000078032808D3DFF8FC0A00210170DFF8E2
:101A4000F00A0021017006E0DFF8E40A0078401C8B
:101A5000DFF8DC1A0870DFF8D40A00210170704743
:101A60001FB586B000249DF81B009DF81A1011F0D8
:101A70000F0150EA01209DF8191050EA01309DF83D
:101A8000181011F0030150EA01509DF81C1011F0DC
:101A90007F0150EA8150019004208DF80800002059
:101AA0008DF809009DF81D008DF80A009DF80A20A8
:101AB0000DF11E010DF10B0000F0D6FD00A9DFF8BD
:101AC000780A00F01CFF042805D1641C42F2107053
:101AD000A4B28442F2D10AB010BD00B585B0DFF8DF
:101AE0005C0A0078002800F0D980DFF8540A0F2142
:101AF0008170DFF84C0A0121C170DFF8440ADFF879
:101B0000441A09780171DFF8400A008809282BD2AD
:101B1000DFF82C0A00210170DFF8240A002141704F
:101B2000DFF81C0ADFF8201A09884171DFF8100A73
:101B30004279DFF8181ADFF8180A00F095FD00A8BE
:101B4000DFF8FC191022FFF7EEFA00A80FC8FFF724
:101B500087FFDFF8D409DFF8FC1909880180DFF876
:101B6000DC090021017099E0DFF8EC090078002819
:101B700027D0DFF8CC0901210170DFF8C40900216A
:101B80004170DFF8BC0908214171DFF8B4094279DE
:101B9000DFF8B819DFF8B80900F066FD00A8DFF833
:101BA000A0191022FFF7BFFA00A80FC8FFF758FFCF
:101BB000DFF8A80908210180DFF89C0900210170E5
:101BC0006CE0DFF8980900880830DFF87C19098894
:101BD00088422DDADFF8680902210170DFF8600918
:101BE0004078401CDFF858194870DFF85409082184
:101BF0004171DFF84C094279DFF860090088DFF8AD
:101C00004C194118DFF8480900F02EFD00A8DFF854
:101C100030191022FFF787FA00A80FC8FFF720FF3E
:101C2000DFF8380900880830DFF83019088035E01F
:101C3000DFF80C0903210170DFF804094078401C2B
:101C4000DFF8FC184870DFF800090088DFF80C198D
:101C50000988401ADFF8E8184871DFF8E40842798B
:101C6000DFF8F8080088DFF8E4184118DFF8E0082A
:101C700000F0FAFC00A8DFF8C8181022FFF753FAAA
:101C800000A80FC8FFF7ECFEDFF89C08DFF8C418C7
:101C900009880180DFF8A4080021017005B000BDAB
:101CA0000FB480B59DF81600C0B2B0281CD1DFF883
:101CB00084180978022917D1DFF8880802780FF60E
:101CC000F001DFF89C0800F083FFDFF89818088027
:101CD000DFF890080188DFF8880801F032F9DFF8B2
:101CE00054080321017048E0C0B2B1281CD1DFF8CC
:101CF00044180978032917D1DFF8480802780FF64D
:101D0000CC01DFF85C0800F063FFDFF858180880AA
:101D1000DFF850080188DFF8480801F012F9DFF811
:101D200014080421017028E0C0B2B22825D1DFF8E0
:101D300004080078042820D1DFF808080078009013
:101D4000DFF824080388DFF8240802880FF6A001D2
:101D5000DFF80C0800F03CFFDFF808180880DFF817
:101D600004080188DFF8F80701F0EBF8DFF8FC075A
:101D70000088401CDFF8F4170880DFF8B007002166
:101D80000170DFF8A40700210180DFF8A40700211B
:101D9000017001BC5DF814FB80B5DFF8B007AA2123
:101DA0000170DFF8A807AA214170DFF8A007DFF86B
:101DB000941709788170DFF89407B021C17004216D
:101DC000DFF88807FFF70CFEDFF880170871DFF8EF
:101DD000780705210180DFF8640701210170DFF831
:101DE00074074FF47A710180DFF840070121017018
:101DF000DFF8500702780FF61801DFF8640700F0EB
:101E0000E7FEDFF860170880DFF858070188DFF881
:101E1000500701F096F801BD80B5DFF83007AA2120
:101E20000170DFF82807AA214170DFF82007DFF8EA
:101E3000141709788170DFF81407B121C1700421EB
:101E4000DFF80807FFF7CCFDDFF800170871DFF8AF
:101E5000F80605210180DFF8E40601210170DFF8B2
:101E6000F40641F288310180DFF8C00601210170DB
:101E7000DFF8D00602780FF2B471DFF8E40600F064
:101E8000A7FEDFF8E0160880DFF8D8060188DFF843
:101E9000D00601F056F801BD10B582B0DFF8D016BB
:101EA000DFF8C4060088DFF8C426128890420FD2FB
:101EB000DFF890060078401CDFF888160870DFF81D
:101EC000AC0601210180DFF86C060221017085E07B
:101ED000DFF898060088DFF890261288904202D238
:101EE0004FF480720AE0DFF88C060068DFF878268D
:101EF0001288521E4FF480735A43821ADFF86C0620
:101F000000884FF4807303FB0010B0F5807112F16C
:101F10000904DFF83806AA230370DFF83006AA2385
:101F20004370DFF82806DFF81C361B788370DFF873
:101F30001C06B223C370DFF81406DFF82C361B88AA
:101F40000371DFF80806DFF824361B884371DFF8D9
:101F5000FC058271DFF8F40592B2130AC37192B2E4
:101F6000DFF8140600F080FB611E89B2DFF8DC05A3
:101F7000FFF736FDA4B2DFF8D415611801F8010CA3
:101F8000DFF8C4050480DFF8D00501210170DFF817
:101F9000AC0501210170DFF8BC054FF4FA61018046
:101FA000DFF8880501210170DFF8980500780090BE
:101FB000DFF8B4050388DFF8B40502880FF28C61FE
:101FC000DFF89C0500F004FEDFF898150880DFF8C4
:101FD00094050188DFF8880500F0B3FF13BD80B5D4
:101FE000DFF850050078002804D0DFF848050078B5
:101FF000012800D13EE0DFF87C050068002804D10C
:10200000DFF830050021017034E0DFF83805007892
:10201000DFF86815097BDFF86425527B5118884288
:1020200004DBDFF810050021017023E0DFF8040570
:102030000078022806D1DFF8F4040078002801D1E6
:10204000FFF7AAFEDFF8EC040078032806D1DFF8DA
:10205000DC040078002801D1FFF7DEFEDFF8D404AD
:102060000078042806D1DFF8C4040078002801D1E4
:10207000FFF712FF01BD80B5DFF8040500880528D1
:1020800001D200202CE0DFF8FC040078AA2804D15B
:10209000DFF8F0044078AA2801D0002020E0DFF823
:1020A000E4048078DFF8E0140978884201D0002049
:1020B00016E0DFF8CC040088411E89B2DFF8C404C2
:1020C000FFF78EFCDFF8B8140988DFF8B824891808
:1020D00011F8011CC0B2814201D0002000E00120B3
:1020E00002BD80B5FFF7C7FF012862D1DFF8940475
:1020F000C078C0B2B02808D1DFF89004B0210180C8
:10210000DFF88C040021018053E0C0B2B12808D16F
:10211000DFF87804B1210180DFF874040021018028
:1021200047E0C0B2B22840D1DFF858040079DFF8A8
:1021300038140880DFF84C044079DFF83014088048
:10214000DFF840048079DFF83C14C97950EA0120B7
:10215000DFF840140880DFF83C04008840F20111E9
:10216000884226D2DFF800040088DFF800140988CE
:1021700088421ED3DFF818040088401CDFF8EC13F7
:10218000098888420CD0DFF808040088DFF8DC13E7
:10219000098888420DD1DFF8F403B221018008E0FC
:1021A000DFF8E803B221018003E0DFF8E00300215B
:1021B000018001BD0FB400B583B00598000A10F08E
:1021C0000F008DF802000598800D10F07F008DF84B
:1021D00004000598000D10F003008DF8000005982C
:1021E000000B8DF801009DF80400DFF89C130978BE
:1021F000884240F091809DF802000F2840F08C80CA
:102200009DF8000000280FD19DF81A200DF11B0148
:10221000DFF8700300F028FA9DF81A00DFF8601369
:102220000880FFF75EFF77E09DF80000012812D1DB
:102230009DF81A200DF11B01D24800F015FAD6487E
:10224000012101709DF80100D44908709DF81A0021
:10225000D349088060E09DF80000022829D1CE48CB
:102260000078012858D19DF80100CC490978491C13
:10227000884251D1CA4800889DF81A100818B0F554
:10228000967F49DC9DF81A200DF11B01C448008897
:10229000BC4BC01800F0E8F9C0480078401CBF49AA
:1022A0000870BF4800889DF81A100818BC490880BB
:1022B00032E09DF8000003282ED1B74800780128AD
:1022C0002AD19DF80100B5490978491C884223D1DB
:1022D000B34800889DF81A100818B0F5967F1BDCEB
:1022E0009DF81A200DF11B01AD480088A54BC018C0
:1022F00000F0BAF9AA4800889DF81A100818A049F9
:102300000880FFF7EEFEA44800210170A3480021D9
:102310000170A3480021018007BC5DF814FB00B5E3
:1023200085B000208DF8000000208DF801000F20FE
:102330008DF80200944800788DF8030001208DF894
:10234000040005208DF8050055208DF80600552065
:102350008DF807008C4800788DF80800B0208DF8C3
:10236000090004210DF10600FFF73AFB8DF80A0081
:1023700000A80FC8FFF774FB05B000BD00B585B01D
:1023800000208DF8000000208DF801000F208DF84E
:1023900002007D4800788DF8030001208DF80400CC
:1023A00005208DF8050055208DF8060055208DF884
:1023B0000700754800788DF80800B1208DF80900F5
:1023C00004210DF10600FFF70BFB8DF80A0000A8B1
:1023D0000FC8FFF745FB05B000BD00B585B0002074
:1023E0008DF8000000208DF801000F208DF802000C
:1023F000654800788DF8030001208DF80400062060
:102400008DF8050055208DF8060055208DF8070041
:102410005D4800788DF80800B2208DF80900534817
:1024200000888DF80A0005210DF10600FFF7D8FAA3
:102430008DF80B0000A80FC8FFF712FB05B000BD18
:1024400010B5082400F0B5FD002000F09DFD02212C
:10245000182000F0C7FD04000221202000F0C2FD7A
:102460000400012000F090FD00F0B3FD10BD70B538
:10247000474800883D490988884230D044483B4954
:1024800009880180474C394800884FF48071464ADA
:1024900001FB0025002602E02D1D241D361D3D48B0
:1024A0000088B6B286420CD200F083FD2168280075
:1024B00000F0F0FD00F08DFD286821688842EBD027
:1024C0000DE02A48008828490988884207D100F091
:1024D00070FDAA21354800F007FE00F07AFD70BDBE
:1024E00080B504E0FFF71BFF284800210180274842
:1024F0000088B028F6D025480088B12807D1FFF71A
:102500009FFFFFF73BFF214800210180EFE71F48B5
:102510000088B228EBD1FFF7AAFFFFF75EFF1B4848
:1025200000210180E3E70000A4800020BF8000209C
:10253000C0800020C680002000640040C1800020D0
:1025400010800020BE800020A6800020907800200F
:1025500016800020A2800020C2800020A8800020D9
:10256000587D0020B28000209C8000209E800020AA
:102570000000020848800020987800202080002079
:10258000AA800020BC790020C7800020AE800020F7
:10259000B0800020A0800020C3800020C4800020E4
:1025A000AC800020C479002000FF000800C00008B3
:1025B0005265706C7920626F6F7420636F6D6D610E
:1025C0006E642066726F6D3A25640A005265706C05
:1025D0007920657261736520666C61736820636F32
:1025E0006D6D616E642066726F6D3A25640A00003D
:1025F0005265706C79207061636B202564206F6672
:102600002025642066726F6D3A25640A0000000080
:1026100053656E6420626F6F7420636F6D6D616EC1
:102620006420746F3A25640A0000000053656E64EC
:1026300020657261736520666C61736820636F6DDD
:102640006D616E6420746F3A25640A0053656E6490
:10265000207061636B202564206F662025642074E0
:102660006F3A25640A00000010B504002000FEF750
:102670004DFD200010BD000080B5DFF83415884204
:102680000AD101215FF0007000F04EFE00215FF0E2
:10269000007000F049FE09E001215FF0806000F069
:1026A00043FE00215FF0806000F03EFE01BD10B4EB
:1026B00000220023046834F002040460046854F02B
:1026C0000104046000E05B1C4268D20703D44FF6AB
:1026D000FF729342F7D14268D20701D400226AE028
:1026E0008A79012A04D1026852F08002026003E074
:1026F000026832F080020260CA79012A04D10268BD
:1027000052F04002026003E0026832F040020260D0
:102710000A7A012A04D1026852F02002026003E022
:10272000026832F0200202604A7A012A04D102686B
:1027300052F01002026003E0026832F01002026000
:102740008A7A012A04D1026852F00802026003E08A
:10275000026832F008020260CA7A012A04D10268D3
:1027600052F00402026003E0026832F004020260E8
:102770008A78CB781B0653EA82720B7952EA0342BD
:102780004B7952EA03520988491E1143C16101681D
:10279000490849000160002300E05B1C4168C9074B
:1027A00003D54FF6FF718B42F7D14068C00701D5C2
:1027B000002200E001221000C0B210BC704710B42B
:1027C00000210122837A9A401100DFF8E823126881
:1027D00052F00102DFF8DC331A60DFF8DC23126804
:1027E0008A43DFF8D4331A60027B002A19D1DFF85C
:1027F000CC2312688A43DFF8C4331A60C288438846
:1028000053EA0242837ADFF8B84344F83320827AED
:10281000DFF8AC3313EBC2028388048854EA034325
:102820005360027B012A19D1DFF8902312680A4312
:10283000DFF888331A600288438853EA0242837AB9
:10284000DFF87C4344F83320827ADFF8743313EBEB
:10285000C2028388C48854EA03435360C27A002AC0
:1028600007D1DFF8602312688A43DFF858331A6013
:1028700006E0DFF8502312680A43DFF848331A6095
:102880000289002A06D1DFF8402312688A43DFF864
:1028900038331A600289012A06D1DFF82C23126826
:1028A0000A43DFF824331A60407B012806D1DFF8A1
:1028B000080300680843DFF800130860DFF8F4023B
:1028C000006840084000DFF8EC12086010BC704758
:1028D000002181710021C17100210172002141722A
:1028E000002181720021C172002181700021C1701C
:1028F000032101710221417101210180704730B42F
:10290000002283685B0101D500220AE0826812017F
:1029100001D5012205E08268D20001D5022200E043
:102920000422D2B2042A75D0D2B210EB0213D3F82B
:10293000803113F00103D2B210EB0214C4F88031DD
:102940000B7A002B0FD1D2B210EB0213D3F88031E7
:102950000C684D7A55EA44542343D2B210EB02146A
:10296000C4F8803110E0D2B210EB0213D3F88031FA
:102970004C680D7A55EAC4044D7A2C432343D2B2F5
:1029800010EB0214C4F880318B7A13F00F038B72B2
:10299000D2B210EB0213D3F884311B091B01D2B25F
:1029A00010EB0214C4F88431D2B210EB0213D3F846
:1029B00084318C7A2343D2B210EB0214C4F88431F0
:1029C0008B7B4C7B240454EA03630C7B53EA042383
:1029D000CC7A2343D2B210EB0214C4F888318B7C3A
:1029E0004C7C240454EA03630C7C53EA0423C97B23
:1029F0001943D2B210EB0213C3F88C11D2B210EB10
:102A00000211D1F8801151F00101D2B210EB021085
:102A1000C0F880111000C0B230BC7047C9B210EBD2
:102A20000113D3F8B03113F004031372137A002B9F
:102A300007D1C9B210EB0113D3F8B0315B0D1360AD
:102A400006E0C9B210EB0113D3F8B031DB085360D4
:102A5000C9B210EB0113D3F8B03113F00203537273
:102A6000C9B210EB0113D3F8B43113F00F03937212
:102A7000C9B210EB0113D3F8B4311B0AD374C9B235
:102A800010EB0113D3F8B831D372C9B210EB0113B4
:102A9000D3F8B8311B0A1373C9B210EB0113D3F882
:102AA000B8311B0C5373C9B210EB0113D3F8B83112
:102AB0001B0E9373C9B210EB0113D3F8BC31D3735F
:102AC000C9B210EB0113D3F8BC311B0A1374C9B29D
:102AD00010EB0113D3F8BC311B0C5374C9B210EBCB
:102AE0000113D3F8BC311B0E9374C9B2002904D171
:102AF000C16851F02001C16003E0016951F020017B
:102B000001617047D2B2002A03D04269114341618A
:102B100003E0426932EA01014161704701291DD099
:102B200004291ED008291FD0202920D0402921D0D7
:102B3000B1F5807F27D0B1F5007F27D0B1F5806F48
:102B400027D0B1F5006F27D0B1F5004F29D0B1F5EE
:102B5000803F12D0B1F5003F12D027E01B498160C1
:102B600024E00821C16021E01021C1601EE008219D
:102B700001611BE01021016118E00821416015E0AE
:102B80001021416012E0042141600FE00421416006
:102B90000CE00421416009E00021816104214160D1
:102BA00004E00021816104214160FFE770470000DB
:102BB00000640040006600401C6600400C66004057
:102BC00040660040046600401466004001010100B8
:102BD0000CB41CB5044604A80190009401AB0A464D
:102BE00000A9074878441830FDF7CCFA0099002274
:102BF0000A7000285CBF0098001B16BC5DF80CFB37
:102C00008FE3FFFF10B5040000F0C0FDE4B2E02147
:102C1000DFF8642301FB0421C1F8D400E4B2E02012
:102C2000DFF8541300FB0410002180F8CE10E4B24A
:102C3000E020D14900FB0410D0F8D40000281FD0B8
:102C4000E4B2E020CC4900FB0410012180F8DE1042
:102C5000E4B2E020C84900FB0410002180F8DF1036
:102C6000E4B2E020C44900FB0410002180F8C81041
:102C7000E4B2E020C04900FB04100021A0F8CC1011
:102C800010BD10B582B004002000C0B200F02CF9D5
:102C9000E4B2E020B84900FB041090F8D800E4B298
:102CA000E021B54A01FB042191F8D910090451EA49
:102CB0000060E4B2E021B04A01FB042191F8DA108F
:102CC00050EA0120E4B2E021AB4A01FB042191F873
:102CD000DB10084300F075FD009042F22832A7494E
:102CE000E4B2E020A44B00FB0430D0F8D40000F0A4
:102CF000B2FCE4B2E020A04900FB0410B0F8DC20F4
:102D000000A9E4B2E0209C4B00FB0430D0F8D400D2
:102D100000F0DBFC40B200281AD100229849E4B24E
:102D2000E020954B00FB0430D0F8D40000F009FD02
:102D3000E4B2E020904900FB0410012180F8CE109D
:102D4000E4B2E0208C4900FB0410002180F8DF1081
:102D500013BDF8B500232DE0DBB2E025864E05FB60
:102D60000365B5F8CA5080B24519DBB2E026824F40
:102D700006FB037680B2075DAF55401C158980B213
:102D8000A842E9D3DBB2E0247B4D04FB0354B4F842
:102D9000CA400419DBB2E025774E05FB0365A5F8B0
:102DA000CA40DBB2E024744D04FB0354022584F8CE
:102DB000CE505B1CDBB2012B31D28C8ADBB2E0251A
:102DC0006D4E05FB0365B5F8DC50AC42F1D1002433
:102DD00000E0641CE4B2042C0FD24D68E4B2E600BB
:102DE000F540E4B2DBB2E026634F06FB0376A6199A
:102DF00096F8D860EDB2AE42EBD0DBB2E0255E4E85
:102E000005FB036595F8CE50012DD2D1E4B2042C18
:102E1000CFD11489652CB5D254680020AEE71000DC
:102E200000F0FCFDF1BD38B504000322E4B2E0205F
:102E3000514900FB0410B0F8CC10002000F0D1FC88
:102E40000500002D1DD0E4B2E0204B4900FB04102A
:102E5000B0F8CC20E4B2E020474900FB041010F1A8
:102E60006401280000F0D7FE2900E4B2E020424AC5
:102E700000FB0420D0F8D40000F05BFB280000F039
:102E8000CDFD31BD80B53C4890F8CE00022807D179
:102E90003C49394800F0DBFF3748012180F8CE106B
:102EA000354890F8DE00002803D10020FFF7AAFE85
:102EB00019E0314890F8CE00002803D10020FFF738
:102EC000E0FE10E02C4890F8CE0001280BD12A48F3
:102ED00090F8C800012806D10020FFF7A4FF26487B
:102EE000002180F8C81001BDC0B2002828D1C0B2AE
:102EF000E021214A01FB002142F22832A1F8DC2026
:102F0000C0B2E0211C4A01FB0021C02281F8D82078
:102F1000C0B2E021184A01FB0021A82281F8D92083
:102F2000C0B2E021144A01FB0021022281F8DA201C
:102F3000C0B2E021104A01FB0020642180F8DB10C0
:102F4000704710B50C4A92F8CE20012A13D1002206
:102F500007E092B2084BD31892B2145C83F8644035
:102F6000521C92B289B28A42F3D30348A0F8CC1023
:102F70000020FFF758FF10BDE87A0020F43F000062
:102F8000532D0000B27B0020C0B2002808D0DFF82B
:102F9000DC01006850F48060DFF8D011086007E0C1
:102FA000DFF8C801006830F48060DFF8C011086005
:102FB0007047DFF8BC010068002809D5DFF8B401CC
:102FC000DFF8B4110160DFF8AC01DFF8B011016087
:102FD0007047DFF89C01006850F00040DFF8901166
:102FE0000860704738B5040000250820C9B20029E0
:102FF00001D100250DE0C9B2012902D14FF480753D
:1030000007E0C9B2022902D14FF4007501E04FF484
:10301000407500F0B7F8C0B2082839D1DFF8500188
:10302000006830F44070DFF848110860DFF84001B4
:1030300000682843DFF838110860DFF834010068C1
:1030400030F0F800DFF828110860DFF8240100688C
:1030500054F002010843DFF818110860DFF810018E
:10306000006850F48030DFF80811086000F08AF83A
:10307000DFF8FC10096831F00201DFF8F42011607C
:10308000DFF8EC10096831F0F801DFF8E420116096
:10309000C0B232BD70B504000D00082600F072F811
:1030A0000600F6B2082E1CD13148006830F440709A
:1030B0002F4908602E4800684FF4007108432C49DE
:1030C00008602B48006850F001002949086025601D
:1030D00000F058F8060026480068400840002449DF
:1030E00008603000C0B270BD70B504000D00082645
:1030F00000F048F80600F6B2082E1CD11C48006803
:1031000030F440701A490860194800684FF4807123
:103110000843174908601648006850F00100144938
:103120000860258000F02EF806001148006840086D
:1031300040000F4908603000C0B270BD082010493F
:103140000968C90301D501200CE00D480068C006DC
:1031500001D5052006E00A480068800701D5072050
:1031600000E00820C0B2704700000000003C0240B0
:10317000103C0240043C024023016745AB89EFCD7F
:103180000C3C024080B508208DF80000FFF7D6FF08
:103190008DF8000003E0FFF7D1FF8DF800009DF8E7
:1031A00000000128F7D09DF8000002BD0022DFF8E2
:1031B00098311B681A0032F0EC6208430243DFF8D2
:1031C000880102607047F0B400210022002302242D
:1031D00000250226DFF870713F6817F00C073900F0
:1031E000002904D0042906D0082908D035E0DFF8EA
:1031F0006011016034E0DFF85C11016030E0DFF85D
:103200004C110968C1F38055DFF84011096811F0CD
:103210003F06002D0BD0DFF83C11B1FBF6F1DFF8D3
:103220002C211268C2F3881202FB01F30AE0DFF8D6
:103230002011B1FBF6F1DFF814211268C2F38812F5
:1032400002FB01F3DFF804110968C1F30141491CD5
:103250004C00B3FBF4F1016002E0DFF8F410016010
:10326000DFF8E410096811F0F0010909DFF8E8203F
:103270008A5C0168D14041603349096811F4E0512A
:10328000890ADFF8D4208A5C4168D14081602E49E8
:10329000096811F46041490BDFF8BC208A5C416881
:1032A000D140C160F0BC7047C9B2002905D02B499C
:1032B000096808432949086005E02849096831EA96
:1032C0000000264908607047C9B2002905D024498A
:1032D000096808432249086005E02149096831EA84
:1032E00000001F4908607047C9B2002905D01D4978
:1032F000096808431B49086005E01A49096831EA72
:103300000000184908607047C9B2002905D0164965
:10331000096808431449086005E01349096831EA5F
:103320000000114908607047C9B2002905D00F4953
:10333000096808430D49086005E00C49096831EA4D
:1033400000000A490860704708380240043802400B
:103350000024F40040787D01240000203038024031
:1033600040380240443802401038024020380240C1
:103370002DE9F84304000E006568288800F01CFA67
:103380002189C0F3032080B28000083081420EDB27
:10339000288800F011FAC0F3032080B2800000B248
:1033A000414209B2200000F0F0FA002803D02000CA
:1033B00000F034FBBBE0D4F80490310015F11000AC
:1033C00000F0F0FD0700B9F8000000F0F5F98046C4
:1033D000B9F8020000F0F0F9002200230021DFF824
:1033E000A4C3DCF8009002E04A46D9F80C90B9F189
:1033F000000F45D00023B9F812C080B284451CD11B
:10340000FFB2002F07D1B9F1000F0DD0D9F800C0DD
:10341000BCF1000F08D0D9F800C0D5F810E0F44591
:1034200002D0FFB2002F08D00123002905D199F85E
:1034300010C05FEA4C7C00D44946DBB2002BD3D0ED
:10344000B9F814301FFA88F84345CDD119F10403B7
:10345000002B09D0D9F80430002B05D0D9F804305E
:10346000D5F80CC06345BFD1002A09D0D9F80C00AB
:10347000D060C4480068C9F80C00C248C0F8009089
:10348000B9F1000F00D18946B9F1000F03D170687E
:103490002969884248D17FF00701200000F075FAC1
:1034A000002803D0200000F0B9FA40E0B9F1000F85
:1034B00015D0D9F8180000280DD01FFA88F8CDF8DB
:1034C000008015F10C0322004946D9F81C00D9F8F8
:1034D0001840A0472BE0200000F0A0FA27E0FFB240
:1034E000002F1DD15FF0704000F077F9296910EAD4
:1034F00001065FF0604000F070F9864210D0288825
:1035000000F05AF9C0F3032080B2800010F10801E6
:1035100009B2200000F039FA0321200000F01DFE5E
:10352000200000F07BFA02E0200000F077FABDE80E
:10353000F18380B5838A021D00F001F802BDF8B561
:1035400004000D0016001F00300000F049FE0028A6
:1035500002D17FF0030007E000903B009BB23200F5
:103560002900200000F001F8F2BD2DE9F04784B0F9
:1035700004000D00160099460C9F608A00280DD1AA
:10358000628A2100200000F066F882464FFA8AFA2B
:10359000BAF1000F02D0504640B259E0082128008D
:1035A00000F0F3F9002810D000220821012000F0DB
:1035B00018F98046B8F1000F02D15FF0FF3047E004
:1035C0002900404600F07AFA00E0A846D8F804A0A6
:1035D000608A00F0EBF8AAF80000484680B200F0DC
:1035E000E5F8AAF802000020AAF80600002C02D094
:1035F0002068002802D117F104090EE020687968DC
:10360000884209D0A84504D0404600F007FA5FF090
:1036100000087FF008001BE0A146B8F8080000F0A1
:10362000C5F8AAF80400029711200190A07A009032
:10363000E37A32004946404600F0C0FE8246A84583
:1036400004D0404600F0EAF95FF00008504640B26E
:1036500004B0BDE8F08710B400244A4B1B6803E0B7
:10366000984200D10124DB68002BF9D1002901D157
:10367000002100E00968016092B2002A19D14FF4DC
:10368000805240490B6802E0521C3E490B68002BF7
:103690000AD047F6FF7192B28A4205D0598A92B297
:1036A0009142F1D0DB68F2E7002B02D07FF00A00F4
:1036B00009E04282E4B2002C04D132490968C160B9
:1036C00030490860002010BC704770B504000D0040
:1036D0001600608A002809D1628A21002000FFF7C5
:1036E000BAFF40B2002801D040B21AE0002D01D14B
:1036F000002000E028686060A682207C50F0040072
:1037000020742048006800E0C068002803D084428C
:10371000FAD1002005E01B480068E0601948046009
:10372000002070BD1849002901D1002101E016498F
:103730000968416000218182017C11F0FB01017464
:1037400070478161C261704780B50E490968814246
:1037500005D10C490968C9680A4A11600DE0094998
:10376000096808E0CA68002A04D0CA68824201D108
:10377000C268CA60C9680029F4D10100012000F0C4
:103780001AFF01BD98800020F43F000010B5012011
:1037900000F0FFFE0400002C06D0202200212000B3
:1037A00000F026FFFF20E072200010BD80B2010A69
:1037B00051EA002080B2704780B580B2FFF7F6FF73
:1037C00002BD10F47F41090251EA0061020A12F4BD
:1037D0007F42114351EA1060704780B5FFF7F1FF57
:1037E00002BDF8B50E0014000027C0B2002805D0B5
:1037F000022805D003D3032814D014E0143714375B
:103800000E37E4B2002C5FD0022C7CD07BD3032C8B
:1038100040F08980052000F0BCFE0500002D04D199
:10382000002050E0EDE700204DE02C7300202860E0
:10383000BFB278191030C01C8008800068602E81EB
:10384000B6B2BFB2F81C30F00300D0F5BE608642BD
:1038500001DA300005E0F81C4FF6FC710840D0F5A5
:10386000BE6068810120E8812F00B6B26889361AEF
:103870000AE04FF4BE61418110F110014160012165
:10388000C1814189761A0700012E17DB052000F05F
:1038900080FE002804D1280000F0C0F8002012E0CB
:1038A00004730021417300210160386006813100FA
:1038B00089B2B1F5BE6FDCD23100DCE70120E881CE
:1038C000002068732800F2BD17F113004FF6FC7159
:1038D0000840B6B2F11C31F00301081880B200F0C4
:1038E00080FF0500002D01D10020ECE7BFB2781960
:1038F0001030C01C8008800068602E816E8100201E
:1039000028602C73DAE7042000F043FE0500002D48
:1039100001D10020D7E7002068602E816E81002051
:1039200028602C73CAE70020CDE738B504000D00ED
:103930002089ADB2854227D2ADB22089281A05E090
:1039400061896D1A21894118218124686189ADB28C
:10395000A942F5D3207B00280BD16089ADB2854206
:1039600007D06068001B291889B2200000F0C3FE50
:1039700004006581608920812068002802D02068C9
:1039800000F04CF80020206031BD10B409B20029CD
:1039900001D0002801D100203AE009B2002908D561
:1039A00009B24C424289A4B2A24201D201202FE0C6
:1039B00000E00C00027B436892B2002A02D092B26F
:1039C000032A0CD109B24A42446812194260426883
:1039D00010F11004A24214D24360012018E092B208
:1039E000022A02D092B2012A16D109B2002911D5B9
:1039F0004289A4B2A2420DD309B24A424368D21806
:103A0000426042898A184281028989180181002016
:103A100010BC70470120FBE70120F9E738B500280A
:103A200001D1002026E0002503E000F04CFE6D1CD3
:103A3000200000281CD0C189491EC18189B20029FB
:103A400014D10468017B89B2032904D10100052047
:103A500000F0B1FDEBE789B2012902D089B2022959
:103A6000E3D10100042000F0A6FDE0E70020E0E73C
:103A70002800C0B232BD002101E0491C00680028C6
:103A8000FBD10800C0B27047002802D0C189491C90
:103A9000C1817047002801D0002900D10DE004E069
:103AA00002890B899A18028100680268002AF7D1FE
:103AB00002890B899A1802810160704710B50C00C9
:103AC0002100FFF7E7FF2000FFF7DEFF10BD2DE923
:103AD000F04104000D0000260027002C05D0002D29
:103AE00003D020892989884202D27FF0090044E06E
:103AF0006089B6B2801B6989BFB2C91B884203DBEB
:103B00006889B0EB070802E06089B0EB06081FFA8D
:103B100088F84246BFB268683918B6B26068301893
:103B2000FEF7A2FD18EB060618EB07076089B6B290
:103B3000864201D1002624686889BFB2874201D33A
:103B400000272D68002D09D068892989884205D170
:103B50002868002802D07FF008000EE0002C09D071
:103B600060892189884205D12068002802D07FF031
:103B7000080002E0002DBBD10020BDE8F0812DE956
:103B8000F84380460C0017000025B8F1000F01D162
:103B900000203EE0002C01D100203AE00026B8F1E0
:103BA000000F01D0002C01D1002032E01DE0B8F858
:103BB0000A00B0EB0309BFB21FFA89F94F4500D2E2
:103BC000B9461FFA89F94A469BB2D8F80400191879
:103BD000B6B23019FEF748FD19EB050519EB0606DC
:103BE000B7EB09070023D8F80080BFB2002F0ED032
:103BF000B8F1000F0BD09BB2002BD8D0B8F80A0058
:103C00009BB28342D3D3B8F80A001B1AEBE7280013
:103C100080B2BDE8F2832DE9F04104000D001700E9
:103C20005FF00008002C01D1002026E0002D01D11A
:103C3000002022E0002C05D0002D03D0208992B274
:103C4000904202D27FF0090017E012E03E00608946
:103C5000B6B2B04200D26689B6B232001FFA88F816
:103C600018EB05016068FEF7FFFCBF1B16EB0808A8
:103C70002468BFB2002FE9D10020BDE8F081000028
:103C80004181BC4901600021C1808180704710B42E
:103C9000C288521C438992FBF3F403FB14228388ED
:103CA0009A420BD0C288521C438992FBF3F403FB67
:103CB0001422C280C288006820F8121010BC70471D
:103CC0008188C288914201D100200BE08188491C83
:103CD000428991FBF2F302FB131181808188006815
:103CE00030F81100704780B56421A348FFF7C8FF82
:103CF00001BD80B5010089B29F48FFF7C8FF01BD33
:103D000080B59D48FFF7DCFF02BD0278AA2A02D1E8
:103D10004278AA2A01D0002009E08279C07952EACB
:103D2000002089B2884201D0002000E001207047C5
:103D30009248008880B2AA2814D1002080B21428AA
:103D400021D280B28E4931F8101080B28D4A02F82B
:103D5000101080B28B4A12EB400289B2090A5170EE
:103D6000401CEBE700200BE080B28649002201F8FE
:103D7000102080B2834911EB400100224A70401CA0
:103D800080B21428F0D3804828210180704738B5CC
:103D90000400FFF70EF90020FFF7F6F802213020AB
:103DA000FFF720F90120FFF7EFF8FFF712F9FFF70F
:103DB00000F9AA217148FFF797F900250BE0EDB251
:103DC00014EB4500B0F80B10EDB26D4810EB450058
:103DD000FFF78AF96D1CEDB2142DF0D3FFF7F9F857
:103DE00031BD80B50100B1F8090041F60172801AB9
:103DF00006D0401E0CD00E3819D0401E1ED025E033
:103E000062480021017049F60170FFF772FF1DE062
:103E10005F480E22FDF77AF95C48012101705D4888
:103E20000021016049F60270FFF763FF0EE0FFF723
:103E30007FFF49F61070FFF75CFF07E00800FFF70F
:103E4000A6FF49F61170FFF754FFFFE701BD38B533
:103E500004000D0029882000FFF757FF002802D139
:103E60000020288004E02000FFF7BBFF002028800E
:103E700031BD10B492B2130A5340AA240470AA248C
:103E80004470012484700024C47000240471002450
:103E900044710B2484710024C4710372427292B283
:103EA000120A82720B20088010BC704730B4364B67
:103EB0001B880B33427292B2120A8272002406E00F
:103EC000A4B22218A4B22F4D655DD572641C2E4A8F
:103ED0001288A4B29442F3D3427A012404E0A4B23B
:103EE00025186D7A6A40641CA4B29BB2B3F109052F
:103EF000AC42F4DBAA240470AA2444700124847028
:103F00000024C470002404710024447183719BB2A6
:103F10001C0AC47102720B8030BC704780B51E4809
:103F200090F8C80000280DD1FFF7EAFE80B201002A
:103F300049F60172891A012905D90F390ED0491E97
:103F400001D001BDFDE7020092B214491448FFF709
:103F500090FF1148012180F8C810F2E7020092B2E8
:103F60000E490F48FFF7A2FF0B48012180F8C81047
:103F7000E7E70000907C002030800020000004086B
:103F800002000408607F0020B4800020C68000206A
:103F90002080002048800020E87A0020B47B0020A8
:103FA0004C7B002010B40268D343002B01D0002AC0
:103FB00001D101201CE091F82D309B0701D4002095
:103FC00016E04B689A4201D1002011E000688B682E
:103FD00018404B688C682340984208D1886832EAC0
:103FE00000008968C943884201D1012000E0002017
:103FF00010BC7047000000002DE9FE4304000D00D6
:1040000066683088FFF7D8FBC0F3032000B2870052
:104010003FB2794209B22000FFF7B7FC002802D175
:104020002089042803D22000FFF7F8FC42E06068F2
:104030000078C0B2082840F08C805FF001085FF083
:104040007040FFF7CAFB316910EA01095FF0604078
:10405000FFF7C3FB814501D15FF00008290016F18D
:104060001000FFF79FFF002801D05FF00008B8F1B3
:10407000000F03D12000FFF7D1FC1BE020890828A6
:10408000D1D3200000F058FC002803D02000FFF717
:10409000C5FC0FE022212000FFF777FC002844D068
:1040A000390009B22000FFF770FC002804D020007E
:1040B000FFF7B4FCBDE8F783002221890220FFF757
:1040C00090FB8046B8F1000FF1D021004046FFF789
:1040D000FEFC0028EBD1D8F804603FB2794209B267
:1040E0004046FFF752FC0028E1D12000FFF796FC84
:1040F00044466068F1683269F26031610021017004
:10410000002141803089FFF757FB50F47F4080B297
:10411000FFF74CFB308100207081390009B220008C
:10412000FFF733FC002808D013E07FF021012000C6
:10413000FFF72BFC0028DCD0B9E7029501200190A5
:1041400000200090FF23002216F10C01200000F057
:1041500035F92000FFF762FCACE780B50A00D2B267
:10416000032100F008F801BD80B50A00D2B20B218E
:1041700000F001F801BD2DE9F04383B00700884647
:104180009146002224210120FFF72BFB0400002C84
:1041900024D07D68666886F8008086F8019000204B
:1041A000B0800020F0801C22796860680830FEF73B
:1041B0005BFA002070806189300000F0B6FB7080EF
:1041C0000120019000200090FF2315F10C02002136
:1041D000200000F091F92000FFF720FCBDE8F783F4
:1041E00038B50400BF48056800E02D68002D0ED0EA
:1041F000280000F043FC0028F7D02068A968084098
:104200006968AA6811408842EFD128000DE0B648DD
:104210000068002805D0B448006800F02FFC002892
:1042200001D1002001E0B048006832BD2DE9F04125
:1042300004000E0065682888FFF7BEFA80B2000B04
:10424000C0B2042804D02000FFF7E8FB0020B3E050
:104250002888FFF7B1FAC0F30327BFB2BF00688810
:10426000FFF7AAFA01006089BFB2B84203D32089E0
:1042700089B2884204D22000FFF7D0FB00209BE0E7
:1042800089B22000FFF751FB5FF0010837003800CA
:1042900000F0F4FB002811D0381D00280ED07868FB
:1042A00000280BD028697968884206D0390015F1BA
:1042B0001000FFF777FE002800D00DE0B8F1000FE6
:1042C00004D05FF000088748076800E03F68B74205
:1042D00000D13F68002FDAD1310015F10C00FFF753
:1042E00061FE00280CD15FF07040FFF776FAE968B4
:1042F00010EA01085FF06040FFF76FFA804504D1D3
:104300002000FFF78BFB002056E0002F04D1200097
:10431000FFF784FB00204FE0EF8843F6FF70FFF7C4
:1043200045FA074208D0200000F0F1FC0400002C00
:1043300001D1002040E065686C4806606C4805606B
:104340003100200000F072FE00282ED12889FFF7EE
:1043500033FAC0B2C0B2012806D0112809D1310009
:104360002000FFF705F820E031002000FFF744FEB1
:104370001BE0310015F11000FFF714FE002811D1E9
:104380005FF07040FFF729FA296910EA01065FF033
:104390006040FFF722FA864204D0656002212000C7
:1043A000FFF7DBFE2000FFF739FB504800210160DA
:1043B0004F48002101600020BDE8F0812DE9F84F51
:1043C00005000E0017009B460B9CDDF83080002F87
:1043D0006DD05FF0140914212800FFF7D6FA0028E9
:1043E00002D07FF001007BE0D5F804A0BAF8080005
:1043F000FFF7E2F9C0B25FFA8BFB50EA0B2080B204
:10440000FFF7D4F9AAF80800BAF80800FFF7D4F9C2
:10441000E4B280B2000A54EA002080B2FFF7C6F985
:10442000AAF80800002F01D1002000E03868CAF87F
:1044300010001FFA89F9042099FBF0F09DF828106C
:1044400051EA002050F4804080B2FFF7AFF9AAF89B
:1044500000002889FFF7AAF9AAF802000020AAF8AC
:10446000060024480088FFF7A1F9AAF804002148B3
:104470000088401C1F490880002E02D030680028A8
:104480000AD118F10400002801D1002001E0D8F879
:104490000400CAF80C0006E0002E01D1002000E064
:1044A0003068CAF80C000020AAF80A0003E0D5F82A
:1044B00004A01AF11007B8F8240000280AD0B8F8B0
:1044C00024002989884205D23A004146280000F09C
:1044D000F1FC05E03A0029004046D8F8143098472E
:1044E000BDE8F28F74800020788000204C8000208E
:1044F00050800020B68000202DE9FE4306000F000A
:10450000904699460A9D0B9C4046FFF769FE00289D
:1045100002D17FF003000BE00290E4B20194EDB20F
:1045200000954B46DBB2424639003000FFF746FFAC
:10453000BDE8FE83002100E0491C89B20629FBD3B7
:10454000234880088000002118E089B2214B53F8ED
:104550002130036089B21F4B43F8210089B20FF26A
:10456000780333F811301818521C89B20FF2740313
:1045700033F8113092B29A42E7D3491C89B2062926
:1045800006D289B2134A002342F821300022ECE718
:104590007047C0B2062801D300200BE0C0B20D491D
:1045A00051F82010002904D0C0B20A4A0B6842F822
:1045B000203008007047002908D0C0B2054A52F8E0
:1045C00020200A60C0B2034A42F820107047000061
:1045D00053000020F87F00201C002000200008006D
:1045E000100000060400050005001E000200060081
:1045F00010B5040010000A000100200000F05AFD70
:10460000200010BD0188B14A12688918884216D06E
:104610000A79002A13D1AE4A126891420FD0AD4AEE
:1046200012688A4201D1AB4A10600A880280098868
:10463000A64A12688918A54A1268821A4A804188D7
:10464000A24A12688918814212D00A79002A0FD131
:10465000A04A1268824201D19E4A116002880A80F3
:1046600000889A4A12688018984A1268891A41800C
:104670007047994880088000944908609348006812
:104680004FF48051018000214180002101718F4849
:10469000006810F580508E4908608D48006801213F
:1046A00001718B4800684FF4805101808848006890
:1046B0004FF4805141808948012101708548834928
:1046C00009680160704780B5002813D07F490968E8
:1046D000884203D37E490968884200D30AE008383B
:1046E000002101717B490968884201D2794908603B
:1046F000FFF788FF01BD70B4C91C4FF6FC72114072
:1047000089B20C2900D20C2141F2010289B29142F6
:1047100001D3002063E06D4A1268904203D36C4AD3
:104720001268904200D35AE0B0F10802674B1B6850
:10473000D31A14889BB2E41A083CA4B289B28C4202
:1047400001D200204BE089B2A4B2A14247D0158823
:104750005E4E3668AD192E79002E1FD12C88C918EF
:1047600008315C4E3668AE4205D189B2574D2D688E
:104770004D19584E356089B2544D2D684D1900269B
:104780002E712C806B8011802A88B2F5805F26D034
:104790002A884E4B1B68D218518020E0A4B289B2FF
:1047A00011F11405AC421AD3C918083189B2474C2B
:1047B00024680D19474C2468A54201D2454C256058
:1047C00000242C7114882C806B8011802A88B2F50B
:1047D000805F04D02A883D4B1B68D218518070BC82
:1047E000704710B480B2002801D100206BE0C01CDB
:1047F0004FF6FC71084080B20C2800D20C2041F228
:10480000010180B2884201D300205CE0314909688F
:104810002E4A1268891A03E089B22C4A1268895A12
:1048200089B280B2D0F5805291424BDA89B2274AE0
:1048300012688A181379002BEED1138889B25B1A9B
:10484000083B80B28342E7D3138889B25B1A083BE6
:1048500080B210F11404A34217D34018083080B27C
:104860001A4B1B68C31800241C7114881C805980C3
:104870001080012111711988B1F5805F07D0198866
:10488000124B1B68C918488001E0012010711148C3
:104890000068824213D107E00E48006800880B4987
:1048A000096840180B4908600A4800680079002828
:1048B00005D008480068064909688842ECD112F121
:1048C000080000E0002010BC704700006480002059
:1048D000688000206C8000209F620020C88000203B
:1048E00010B5002208E003781B02401C0478234323
:1048F000401C9BB29A18891E89B20229F3D289B250
:10490000012903D3007803029BB29A1890B210EBEE
:104910001242100C0004002802D090B210EB124298
:10492000100080B2FEF742FF10BD80B589B2FFF7DC
:10493000D7FFC04380B202BD70B505000026002439
:1049400017E069896868FFF7CBFF8619B0B210EBF2
:1049500016466889022190FBF1F202FB1102002A3F
:1049600006D0D4F10104F0B2C6F3072151EA0026C3
:104970002D68002DE5D1E4B2002C04D0F0B2C6F3CE
:10498000072151EA0026F04380B270BDF8B504005B
:10499000069E079D0898002767600027A7600027EC
:1049A000E760002784F82D7000272762E661214E1A
:1049B000367884F830601F4E3678761C1D4F3E7076
:1049C0002061200000F00DF82000A847002801D049
:1049D000002005E0184800682060174804602000A7
:1049E000F2BD70B5040015001E00200000F009F8AB
:1049F0002900200000F013F83100200000F008F832
:104A000070BD002901D1002100E0096841607047B4
:104A1000002901D1002100E00968C1607047002928
:104A200001D1002100E009688160704703490860F6
:104A300070470000C980002074800020788000202A
:104A400080B590F82D10C9070CD490F82D1051F0B6
:104A5000010180F82D1090F82D10890602D5011D56
:104A600001F00BF801BD90F82D10C90705D590F89D
:104A70002D1011F0FE0180F82D10704790F82D00D8
:104A800010F00100704700002DE9F04104000D0016
:104A90000026002D606840688188002913D167686E
:104AA00000686060142214F108017868FDF7DCFDED
:104AB00001213800FFF758FB3800FEF7DCFF8619AC
:104AC0003800FEF7ABFF676809E07868B84607680A
:104AD0004046FEF7D0FF86194046FEF79FFF002FA5
:104AE000F3D12900200000F073F8DFF838050088C2
:104AF000801BDFF8301508803000BDE8F081F8B584
:104B000004000D000026002000210027DFF81025FA
:104B100012680AE0C37F92F81FC0634500D31000FB
:104B20001368002B00D011001268002A18D05369B6
:104B3000D4F80CC0634509D19369D4F810C063451B
:104B400004D19389B4F804C0634501D0012300E087
:104B50000023002BE4D07F1C0028DBD11000DFE70E
:104B6000002802D0FFF790FF8619AE4201DA022F2B
:104B7000C9DA3000F2BD70B504000D000220FFF765
:104B800008FD0600002E0DD129002000FFF7B7FF19
:104B9000A84203DB0220FFF7FCFC0600002E01D137
:104BA000002014E0202200213000FFF721FD032027
:104BB000F077DFF86C0400683060DFF864040660AA
:104BC0001422210016F10800FDF74EFD300070BDE3
:104BD00080B5DFF84C241268824204D1DFF840141B
:104BE00002680A6001E002680A6001000220FFF723
:104BF000E2FC01BD2DE9F84305000C000026012769
:104C0000D4F80490B9F80200FEF7D6FD8046B9F852
:104C10000000FEF7D1FD1FFA88F8C0F3032080B230
:104C2000B8EB8008B9F80600FEF7C6FDC004C00C5A
:104C300080B2C100606800220260818018EB01012F
:104C4000C1806A6808E0002E04D0F2888B889A42FE
:104C500000D000270A680E00002A25D051688388FA
:104C6000B1F804C063452AD20260002E1BD08388AD
:104C7000B6F806C0634503D38988C388994210D229
:104C80002000FEF7F8FEDFF89C130988C0B2081A6E
:104C9000DFF8901308802000FEF7C0FE0020BDE87A
:104CA000F283346000E06C60002A12D1002E0FD035
:104CB0003460F188828891420BD0002709E0828815
:104CC0008B889A42DCD08288CB889A42BBD2D7E7C5
:104CD0006C60A97FC90718D5002F14D0696849688E
:104CE0008988002901D000270DE00600026801E054
:104CF00006000268002A05D05068F1888288914237
:104D0000F6D00027002F3800C9E70020C7E72DE9BB
:104D1000F0470400002566683088FEF74DFDC0F3BB
:104D2000032080B28000142805D02000FEF776FE14
:104D30000020BDE8F087F088FEF73EFDC004C00CFF
:104D400080B25FEAC0087088FEF736FD0700308841
:104D5000FEF732FDBFB2C0F3032080B2B7EB80098B
:104D60002000FEF788FE8246AE4800885FFA8AFA85
:104D70001AEB00000B2810DB5FFA8AFA514630006C
:104D8000FFF7BDFE002807D0A64800885FFA8AFA20
:104D90001AEB00000B2800DBC7E7A148076801E019
:104DA0003D003F68002F10D07869F168884209D132
:104DB000B8693169884205D1B889B188884201D182
:104DC000012000E000200028EAD0002F09D15FFA7E
:104DD0008AFA51463000FFF7CEFE0700002F10D1AF
:104DE000A3E7F088FEF7E8FCC0040AD1F889FEF7D3
:104DF000E3FCC00405D01422310017F10800FDF7D0
:104E000033FC884800885FFA8AFA1AEB000085496B
:104E10000880F088FEF7D0FC800406D4B87F50F0FC
:104E20000100B87719EB0800B88321003800FFF7BC
:104E3000E1FE00283CD0B88B1430B8837868406815
:104E4000D0F8008078684668142217F10801300015
:104E5000FDF70AFCB88BFEF7A9FC70800020F080FB
:104E60000020708114213000FFF75FFD70817C68A5
:104E70000CE0D8F804607FF013014046FEF785FD92
:104E800041462000FEF706FED6F80080B8F1000F7C
:104E9000EFD129003800FFF79BFE2000FEF7EBFD65
:104EA00060490988C0B2081A5E490880200040E7BE
:104EB00000203EE72DE9F74F82B00398808CADF8D3
:104EC00000001425022200210220FEF78AFC0400C3
:104ED000002C02D15FF0FF309EE0BDF80000608141
:104EE0002081514880088000606066681422029822
:104EF00041683000FDF7B8FBF088FEF75DFC8146A5
:104F00005FEAC947FF0C19F40050ADF8040002989D
:104F10000089B0F1140ABDF800001438082190FB94
:104F2000F1F0ADF8020011E021004046FEF7C6FDA9
:104F3000049A41460398039B5B6998474046FEF7F5
:104F40006DFDBAEB0B0ABDF80200C7191FFA8AFA09
:104F5000BAF1000F5CD0BDF8000014381FFA8AFACD
:104F6000504502DB5FF0010801E05FF000085FFAE6
:104F700088F8BDF80400F904C90C51EA00091FFAC9
:104F800088F8B8F1000F01D159F400591FFA88F8D8
:104F9000B8F1000F01D0D34604E0BDF8020080B2A2
:104FA0005FEAC00B2B009BB25A4692B216F1140175
:104FB0000298FEF7E4FD4519484680B2FEF7F6FB7D
:104FC000F0801BF1140080B2FEF7F0FB708000202F
:104FD000708114213000FFF7A8FC70811FFA88F857
:104FE000B8F1000F05D01AF1140189B22000FEF7C4
:104FF0009CFC002200210220FEF7F3FB8046B8F162
:10500000000F91D12000FEF709FD5FF0FF3003E0B3
:105010002000FEF703FD002005B0BDE8F08F000082
:1050200054800020B8800020B37200202DE9F8439E
:105030000400002566683089FEF7BEFBC7B25FF04A
:1050400000081B48D0F8009027E099F8100000B243
:105050003FB2B8421ED1D9F8140000281AD016F178
:105060000C0322004946D9F81800D9F814C0E047CB
:1050700000280FD000240125B8F1000F0AD0D9F87C
:105080000C00C8F80C000A480068C9F80C00084871
:10509000C0F80090C846D9F80C90EDB2002D02D1AE
:1050A000B9F1000FD1D12800C0B2BDE8F2830000F1
:1050B0007C80002062F30F2262F31F42401810F040
:1050C000030308D0C91A1FD3DB0748BF00F8012D1E
:1050D00028BF20F8022D130030B4144615461039AD
:1050E00028BF20E93C00FAD8490728BF20E90C0076
:1050F00048BF40F8042D890028BF20F8022D48BF82
:1051000000F8012D30BC7047C91818BF00F8012DF8
:10511000CB0728BF00F8012D7047000038B5040008
:1051200008E0250024686868FEF778FC2900032061
:10513000FFF741FA002CF4D131BD10B5002455E041
:10514000E4B21420DFF8341800FB0410C07B401CCC
:10515000E4B21421DFF8242801FB0421C873E4B26F
:105160001420DFF8181800FB0410807B022808D1F7
:10517000E4B21420DFF8041800FB0410C07BF02810
:1051800011D2E4B21420DFF8F41700FB0410807B86
:1051900001282AD1E4B21420DFF8E01700FB041044
:1051A000C07B022821D3E4B21420DFF8D01700FB23
:1051B00004100068002810D0E4B21420DFF8BC17F7
:1051C00000FB04100068FFF7A9FFE4B21420DFF829
:1051D000AC1700FB041000210160E4B21420DFF8DA
:1051E0009C1700FB041000218173641CE4B20A2C9C
:1051F000A6D310BD2DE9F04704000A200A220A2395
:105200000025002600275FF00A0C5FF0000E002C3E
:1052100020D0DFF86C572D785FF01408DFF85C972A
:1052200008FB0595AD7B022D14D12568DFF850876A
:1052300098F800805FF01409DFF840A709FB08A880
:10524000D8F80480454505D1DFF8340790F900000F
:1052500040B200E1002514E0EDB25FF01408DFF881
:105260001C9708FB059898F80F80FFB2B84507D344
:105270002A00EDB21427DFF8048707FB0587FF7BC0
:105280006D1CEDB20A2D80F08E805BB20A2B0DD121
:10529000EDB25FF01408DFF8E49608FB059898F883
:1052A0000E80B8F1000F01D12B00E9E7EDB25FF0FD
:1052B0001408DFF8C89608FB059898F80E80B8F136
:1052C000010F4DD1002C12D0D4F80080EDB25FF068
:1052D0001409DFF8A8A609FB05A9D9F80490C84568
:1052E00005D1DFF89C060570280040B2B3E0EDB2AE
:1052F0005FF01408DFF8849608FB0598D8F8008062
:10530000B8F1000F17D0EDB25FF01408DFF86C961B
:1053100008FB059898F80F805FFA8EFEF045AFD332
:10532000AC46EDB25FF0140EDFF850860EFB058E32
:105330009EF80FE0A4E7EDB25FF01408DFF83C96AA
:1053400008FB059898F80F80F6B2B04598D328006E
:10535000EDB21426DFF8248606FB0586F67B8FE780
:10536000EDB25FF01408DFF8149608FB059898F882
:105370000E80B8F1020F83D1002C3FF46DAFD4F84A
:105380000080EDB25FF01409DFF8F0A509FB05A974
:10539000D9F80490C8457FF45FAFDFF8E4050570E5
:1053A000280040B257E05BB20A2B15D111F003017F
:1053B000012913D15BB20A2B13DA1D00EDB21420C0
:1053C000DFF8B81500FB051000218173002C35D0E3
:1053D000002C2BD100202AE08907EBD55FF0FF30AD
:1053E00039E052B20A2A01DA1500E7E740B20A288A
:1053F00001DA0500E2E74FFA8CFCBCF10A0F12DA81
:105400006546EDB21420DFF8741500FB0510006846
:10541000FFF784FEEDB21420DFF8601500FB0510E5
:1054200000210160CAE75FF0FF3014E02068EDB2B0
:105430001421DFF8482501FB05214860EDB2142056
:10544000DFF8381500FB05100021C173DFF83005C7
:105450000570280040B2BDE8F087F8B504000D00E3
:105460006E68062009E0401EC0B2C0B2C15C815522
:10547000C0B28119C0B2875C8F71C0B20128F2D26C
:105480004FF40060FEF792F9B08129002000A26974
:105490009047F2BD2DE9F04104000E0015001F00F9
:1054A000002E15D03068002812D021003000FEF701
:1054B00079FD00280CD15FF07040FEF78EF931685D
:1054C00010EA01085FF06040FEF787F9804502D1DD
:1054D0007FF009005BE03900C9B23000FFF78AFEB7
:1054E000060076B2002E02D5300040B24FE076B210
:1054F0001420DFF8881400FB06100221817376B2B5
:105500001420DFF8781400FB0610046106200BE07D
:10551000401EC0B276B21421DFF8602401FB0621E0
:105520004118C0B2425D0A72C0B20128F0D276B210
:105530001420DFF8481400FB06100021C1731CE0A2
:1055400076B21420DFF8341400FB0610016876B23E
:105550001420DFF8282400FB06200A6802604F6848
:105560000320FFF728F82B0014F127023900200050
:10557000FFF773FF3800FEF751FA76B21420DFF818
:10558000FC1300FB061000680028D9D10020BDE8FC
:10559000F08138B5002810D0496801F20E04E268A5
:1055A00083681A40436885682B409A4205D10023DE
:1055B0008A1D14F10C01FFF76DFF31BD2DE9F04399
:1055C00083B004000D001600002C00F0B380708939
:1055D0002A2803D23000FEF721FAABE0776807F201
:1055E0000E08B8F800900120FEF7E0F8814517D1C9
:1055F000B8F8049040F20460FEF7D8F881450FD166
:10560000B8F802904FF40060FEF7D0F8814507D15A
:10561000B7F80C9040F60600FEF7C8F8814503D0B5
:105620003000FEF7FBF985E04146200000F034FB36
:10563000042218F10E0100A8FDF716F8042218F153
:10564000180101A8FDF710F86068002802D15FF08A
:10565000000908E001986168884202D15FF0010901
:1056600001E05FF000095FFA89F9B9F1000F07D096
:10567000012318F1080200A92000FFF70BFF06E044
:10568000002318F1080200A92000FFF703FFB8F873
:105690000600FEF78BF8012802D0022846D046E02B
:1056A0005FFA89F9B9F1000F3FD00220FEF77EF8CA
:1056B000A8F8060018F1180018F10E010422FBF7F3
:1056C00025FD0422211D18F10E00FCF7CDFF062058
:1056D000216A002906D0216A0979002902D00FF237
:1056E000284101E018F1080117E0401EC0B210EB9C
:1056F0000802C0B210EB08031B7A9374C0B2C0B2A8
:10570000425CC255C0B210EB0802C0B2435D1372D6
:10571000C0B2C219C0B2435D9371C0B20128E4D2D5
:1057200031002000A2699047FFE700E0FFE730006A
:10573000FEF774F9BDE8F783F0B583B004000D00FF
:1057400016000E212800FEF720F9002802D07FF075
:1057500001000FE0002721003000FEF723FC0028A5
:1057600009D00FF2A4373B0014F1270229002000D2
:10577000FFF773FEFEBD5FF07040FEF72EF8316854
:1057800010EA01075FF06040FEF727F887421DD15D
:1057900001208DF8000000208DF801005E208DF8BA
:1057A00002003068FEF719F8000C10F07F008DF849
:1057B00003003068FEF711F8000A8DF80400306825
:1057C000FEF70BF88DF8050000AFCCE73068A16854
:1057D00008406168A2681140884204D0E06800284F
:1057E00007D004F20C062A003100200000F004F873
:1057F000C0E77FF00300BDE72DE9F84307008846C6
:10580000160007F227095FF0FF3439004046FEF723
:10581000C9FB002814D15FF07040FDF7DEFFD8F817
:10582000001010EA01055FF06040FDF7D6FF8542E9
:1058300006D0B8F1000F03D0D8F80000002802D13C
:105840007FF0090097E001214046FFF7D3FC0500F7
:105850006DB2002D02D5280040B28CE06DB214204C
:10586000464900FB0510807B002806D16DB214204C
:10587000424900FB0510012181736DB214203F499C
:1058800000FB0510807B012801D0002E04D1414689
:10589000380000F0F2F80400002E6AD06DB2142037
:1058A000364900FB0510807B02280DD16DB2142013
:1058B000324900FB051010F108034A463100380058
:1058C000FFF7CBFD040054E06DB214202B4900FB20
:1058D0000510807B01284CD10020370000E03F6894
:1058E000002F03D0397B0129F9D00120002812D0E4
:1058F000002239890320FDF774FF0700002F0ED026
:1059000031003800FEF7E3F8002808D03800FEF731
:1059100085F8002703E037003800FEF7B5F8002FC0
:1059200027D00320FEF735FE00281FD0002101609C
:1059300047606DB21421114A01FB05210968002955
:105940000CD06DB214210D4A01FB0521096800E05D
:1059500009680A68002AFBD1086005E06DB21421CD
:10596000064A01FB05210860002402E03800FEF72A
:1059700055F8200040B2BDE8F2830000C87B00204B
:10598000C58000202DE9FB4F050093460C9E0E9F1D
:105990000F9C5FF0000900222A210320FDF721FF60
:1059A0008046B8F1000F02D15FF0FF3063E0D8F815
:1059B000049009F20E0A200080B2FDF7F7FEAAF863
:1059C00006000620296A002906D0296A09790029DB
:1059D00002D00FF2341B1CE01BE0401EC0B210EBE3
:1059E0000A01C0B2029A825C0A72C0B210EB0A01CC
:1059F000C0B20D9A825C8A74C0B2C0B210F80B10AB
:105A000000F80910C0B210EB0901C0B2019A825C23
:105A10008A71C0B20128E0D21AF10E0031000422CE
:105A2000FBF774FB1AF1180039000422FBF76EFB38
:105A30000120FDF7BBFEAAF800004FF40060FDF75F
:105A4000B5FEAAF8020040F20460FDF7AFFEAAF826
:105A5000040040F60600FDF7A9FEA9F80C00414637
:105A60002800AA69904781464046FDF7D7FF5FF0BE
:105A70000008484640B2BDE8FE8F00B585B001225F
:105A8000039202910FF288010191011D009110F122
:105A900027030FF2740210F12701FFF773FF05B01F
:105AA00000BD38B504000D0060688089FDF77EFEFA
:105AB00080B2B0F5006F04D040F60601884215D0E0
:105AC0001BE021002800FFF764FD7FF00D0120009E
:105AD000FDF75BFF002804D02000FDF79FFF0024A6
