:10000000608300206D8100005D7E00005F7E000047
:10001000617E0000637E0000657E0000000000003D
:10002000000000000000000000000000677E0000EB
:10003000697E0000000000006B7E00006D7E000005
:10004000AD810000B1810000B5810000B9810000E0
:10005000BD810000C1810000C5810000C981000090
:10006000CD810000D1810000D5810000D981000040
:10007000DD810000E1810000E5810000E9810000F0
:10008000ED810000F1810000F5810000F9810000A0
:100090004380000001820000058200000982000008
:1000A0000D820000118200001582000019820000FC
:1000B0001D820000218200002582000029820000AC
:1000C0002D8200003182000035820000398200005C
:1000D0003D820000937E0000DB7E0000237F000055
:1000E000757E000051820000558200005982000098
:1000F0005D8200006182000065820000698200006C
:100100006D8200007182000075820000798200001B
:100110006B7F0000B37F00008582000089820000B1
:100120008D8200009182000095820000998200007B
:100130009D820000A1820000A5820000A98200002B
:10014000AD820000B1820000B5820000B9820000DB
:10015000BD820000C1820000C5820000FB7F00005C
:10016000CD820000D1820000D5820000D98200003B
:10017000DD820000E1820000E5820000E9820000EB
:10018000ED82000040B2002809D540B210F00F0007
:10019000DFF8042D8018090100F8041C04E040B2C7
:1001A000DFF8F82C09018154704780B5B0F1807FE9
:1001B00001D3012013E00002000A401EDFF8E01C1A
:1001C00008600F215FF0FF30FFF7DCFFDFF8D40C91
:1001D00000210160DFF8D00C07210160002002BD82
:1001E00000B585B000F0C3FE042000F0C2FF00A8F7
:1001F00000F0E9FF01984FF47A71B0FBF1F0FFF7DE
:10020000D4FF00215FF0FF30FFF7BCFF0121DFF8D2
:100210009C0C01F049F80121DFF8940C01F054F82E
:10022000012144F2300001F05FF805B000BD80B557
:100230004FF4A06000F064FF25208DF8000000203E
:100240008DF8010000208DF8020001208DF80300D8
:1002500000A800F05AFF26208DF8000000208DF83D
:10026000010000208DF8020001208DF8030000A895
:1002700000F04BFF27208DF8000000208DF80100D2
:1002800000208DF8020001208DF8030000A800F086
:100290003CFF34208DF8000000208DF80100002084
:1002A0008DF8020001208DF8030000A800F02DFF5A
:1002B00035208DF8000000208DF8010000208DF819
:1002C000020001208DF8030000A800F01EFF472067
:1002D0008DF8000000208DF8010000208DF802004C
:1002E00001208DF8030000A800F00FFF14208DF806
:1002F000000000208DF8010000208DF80200012090
:100300008DF8030000A800F000FF01BD1CB500241B
:100310004FF40070009001208DF8040000208DF84B
:10032000060001208DF8070002208DF8050000A9C5
:10033000DFF8800B01F01CF800224FF40071DFF8A9
:10034000740B01F082F8DFF8700B040000E0641E0B
:10035000002CFCD14FF40040009001208DF80400E7
:1003600000208DF8060001208DF8070002208DF88E
:10037000050000A9DFF8440B00F0FAFF072209216D
:10038000DFF83C0B01F068F807220A21DFF8300B98
:1003900001F062F84FF4C060009002208DF8040074
:1003A00000208DF8060001208DF8070002208DF84E
:1003B000050000A9DFF8080B00F0DAFF072205218D
:1003C000DFF8000B01F048F807220621DFF8F40AF5
:1003D00001F042F86020009002208DF80400002017
:1003E0008DF8060001208DF8070002208DF8050029
:1003F00000A9DFF8D00A00F0BBFF08220C21DFF8CB
:10040000B40A01F029F808220221DFF8B80A01F045
:1004100023F84FF48050009002208DF80400002053
:100420008DF8060001208DF8070002208DF80500E8
:1004300000A9DFF8800A00F09BFF04200090022052
:100440008DF8040000208DF8060001208DF80700CB
:1004500002208DF8050000A9DFF8680A00F088FF87
:1004600007220821DFF85C0A00F0F6FF07220921C5
:10047000DFF8500A00F0F0FF4FF4407000900220C7
:100480008DF8040000208DF8060001208DF807008B
:1004900002208DF8050000A9DFF8280A00F068FFA7
:1004A0004FF40040009001208DF8040000208DF8EA
:1004B000060001208DF8070002208DF8050000A934
:1004C000DFF8040A00F054FF4FF40041DFF8F809A8
:1004D00000F0B9FF08220A21DFF8D80900F0BCFFBC
:1004E00008220B21DFF8CC0900F0B6FF4FF4406082
:1004F000009002208DF8040000208DF806000120F5
:100500008DF8070002208DF8050000A9DFF8A40986
:1005100000F02EFF4FF40050009001208DF80400F1
:1005200000208DF8060001208DF8070002208DF8CC
:10053000050000A9DFF87C0900F01AFF4FF4005114
:10054000DFF8700900F07FFF08220E21DFF86C0948
:1005500000F082FF08220921DFF8600900F07CFF2B
:100560004FF48440009002208DF8040000208DF8A4
:10057000060001208DF8070002208DF8050000A973
:10058000DFF8380900F0F4FE4FF48060009001209D
:100590008DF8040000208DF8060001208DF807007A
:1005A00002208DF8050000A9DFF8100900F0E0FE38
:1005B0004FF48061DFF8040900F045FF09220B21A8
:1005C000DFF8FC0800F048FF09220C21DFF8F008F2
:1005D00000F042FF4FF4C050009002208DF804005C
:1005E00000208DF8060002208DF8050001208DF80E
:1005F000070000A9DFF8C80800F0BAFE70200090DC
:1006000000208DF8040002208DF8050000208DF8F0
:10061000070000A9DFF8A80800F0AAFE4CF2C0000D
:10062000009000208DF8040002208DF805000020C5
:100630008DF8070000A9DFF8940800F099FE4FF448
:10064000A070009000208DF8040002208DF80500B5
:1006500000208DF8070000A9DFF8580800F088FE98
:1006600044F29840009000208DF8040002208DF89C
:10067000050000208DF8070000A9DFF8480800F009
:1006800077FE4FF43B50009000208DF804000220CC
:100690008DF8050000208DF8070000A9DFF8280874
:1006A00000F066FE4EF60370009000208DF8040006
:1006B00002208DF8050000208DF8070000A9DFF862
:1006C000100800F055FE41F2C410009000208DF893
:1006D000040002208DF8050000208DF8070000A915
:1006E000DFF8D80700F044FE0120009001208DF8CB
:1006F000040000208DF8060001208DF8070002207C
:100700008DF8050000A9DFF8AC0700F031FE4FF4CA
:100710000060009001208DF8040000208DF8060094
:1007200001208DF8070002208DF8050000A9DFF8F0
:10073000940700F01DFE41F21200009001208DF898
:10074000040000208DF8060001208DF8070002202B
:100750008DF8050000A9DFF8700700F009FE41F2EE
:10076000B800009001208DF8040000208DF80600EC
:1007700001208DF8070002208DF8050000A9DFF8A0
:10078000500700F0F5FD40F63B00009001208DF889
:10079000040000208DF8060001208DF807000220DB
:1007A0008DF8050000A9DFF8140700F0E1FD4FF413
:1007B0000050009001208DF8040000208DF8060004
:1007C00001208DF8070002208DF8050000A9DFF850
:1007D000EC0600F0CDFD0420009001208DF804000F
:1007E00000208DF8060001208DF8070002208DF80A
:1007F000050000A9DFF8D00600F0BAFD0420009043
:1008000001208DF8040000208DF8060001208DF8ED
:10081000070002208DF8050000A9DFF8B40600F0FB
:10082000A7FD0820009001208DF8040000208DF81D
:10083000060001208DF8070002208DF8050000A9B0
:10084000DFF8840600F094FD0320009001208DF86D
:10085000040000208DF8060001208DF8070002201A
:100860008DF8050000A9DFF85C0600F081FD80200E
:10087000009001208DF8040000208DF80600012072
:100880008DF8070002208DF8050000A9DFF8240686
:1008900000F06EFD4FF48070009001208DF8040090
:1008A00000208DF8060001208DF8070002208DF849
:1008B000050000A9DFF8100600F05AFD13BD00B5D1
:1008C00085B04FF4964000900020ADF80400002061
:1008D000ADF806000020ADF808000020ADF80C00CF
:1008E0000C20ADF80A0000A9DFF8E80500F0F4FDDF
:1008F000012240F22551DFF8DC0500F065FE012100
:10090000DFF8D00500F04AFE00A9DFF8CC0500F0C2
:10091000E3FD012240F22551DFF8BC0500F054FE52
:100920000121DFF8B40500F039FE00A9DFF8AC05BD
:1009300000F0D2FD012240F22551DFF8A00500F0C1
:1009400043FE0121DFF8940500F028FE00A9DFF83E
:10095000900500F0C1FD012240F22551DFF880052D
:1009600000F032FE0121DFF8780500F017FE00A943
:10097000DFF8700500F0B0FD012240F22551DFF8EC
:10098000640500F021FE0121DFF8580500F006FEA5
:1009900000A9DFF8540500F09FFD012240F2255127
:1009A000DFF8440500F010FE0121DFF83C0500F0FF
:1009B000F5FD05B000BD00B587B0DFF8300500F0EB
:1009C00083FE00A800F0ACFF00208DF80600012097
:1009D0008DF8070000208DF8080000208DF8090030
:1009E00000208DF80A0001208DF80B0000208DF802
:1009F000020000208DF803000C208DF80400012077
:100A00008DF805000F20ADF8000000A9DFF8DC0428
:100A100000F075FE00208DF8160000208DF81700FC
:100A200001208DF818000020ADF80C000020ADF872
:100A30000E000020ADF810000020ADF812000020DC
:100A4000ADF8140001208DF8190003A800F0DFFEB6
:100A500001220221DFF8940401F07CF807B000BD08
:100A600000B58BB001215FF4003000F03DFC0322A3
:100A70000621DFF85C0400F0EFFC4020009002202B
:100A80008DF8040000208DF8060001208DF8070085
:100A900002208DF8050000A9DFF8340400F068FC9E
:100AA00040F2E73003907720ADF808000020ADF861
:100AB00010000020ADF80A0002A9DFF8340401F0AC
:100AC000AFF86020ADF814000120ADF8160000204A
:100AD000ADF8200005A9DFF8180401F0F6F80821A8
:100AE000DFF80C0401F078F90121DFF8040401F0CB
:100AF000D0F80121DFF8F80301F0D9F801215FF403
:100B0000802000F0F1FB03220921DFF8C00300F090
:100B1000A3FC4FF40070009002208DF80400002028
:100B20008DF8060001208DF8070002208DF80500E1
:100B300000A9E64800F01CFC40F2E7300390772063
:100B4000ADF808000020ADF810000020ADF80A0054
:100B500002A9DFF8A00301F063F86020ADF81400EB
:100B60000120ADF816000020ADF8200005A9E148ED
:100B700001F0ABF80821DF4801F02EF90121DD4832
:100B800001F087F80121DB4801F091F801215FF4C1
:100B9000803000F0A9FB03220521CB4800F05CFC6B
:100BA0002020009002208DF8040000208DF806001F
:100BB00001208DF8070002208DF8050000A9C24829
:100BC00000F0D6FB40F2E73003907720ADF8080044
:100BD0000020ADF810000020ADF80A0002A9C648B8
:100BE00001F01EF86020ADF814000120ADF81600E9
:100BF0000020ADF8200005A9BF4801F066F80821E3
:100C0000BD4801F0E9F80121BB4801F042F801219B
:100C1000B94801F04CF80121012000F065FB0122E8
:100C20000E21A94800F018FC4FF4804000900220EB
:100C30008DF8040000208DF8060001208DF80700D3
:100C400002208DF8050000A99F4800F091FB40F2BA
:100C5000E73003907720ADF808000020ADF81000D1
:100C60000020ADF80A0002A9A44800F0D9FF6020D6
:100C7000ADF814000120ADF816000020ADF82000FA
:100C800005A99E4801F060F808219C4801F0ADF8E4
:100C900001219A4800F0FDFF0121984801F018F960
:100CA0000121964801F003F80BB000BD00B589B0F2
:100CB0000121022000F008FB3020009002208DF876
:100CC000040001208DF8060001208DF807000220A5
:100CD0008DF8050000A97D4800F04AFB022204219E
:100CE0007A4800F0B9FB02220521784800F0B4FBF5
:100CF0004FF4347003900020ADF808000020ADF8E8
:100D000010000020ADF80A0002A97D4800F088FF1D
:100D10000023002201217A4801F0EBF805A801F038
:100D2000A6F80620ADF81C0005A9754801F067F883
:100D30000021734800F0A9FF0121714800F0B7FFBE
:100D40000121042000F0C0FA4FF44050009002202E
:100D50008DF8040001208DF8060001208DF80700B1
:100D600002208DF8050000A9564800F001FB022280
:100D70000C21544800F070FB02220D21514800F074
:100D80006BFB4FF4347003900020ADF80800002096
:100D9000ADF810000020ADF80A0002A9594800F093
:100DA0003FFF002300220121564801F0A2F805A8C8
:100DB00001F05DF80620ADF81C0005A9514801F0CE
:100DC0001EF800214F4800F060FF01214D4800F05F
:100DD0006EFF0121012000F077FA4FF400400090EF
:100DE00002208DF8040001208DF8060001208DF806
:100DF000070002208DF8050000A9314800F0B8FA7C
:100E00000820009002208DF8040001208DF80600D3
:100E100001208DF8070002208DF8050000A92B485D
:100E200000F0A6FA01220F21254800F015FB01224F
:100E30000321264800F010FB4FF43470039000208B
:100E4000ADF808000020ADF810000020ADF80A0051
:100E500002A95FF0804000F0E3FE002300220121A0
:100E60005FF0804001F045F805A801F000F8062089
:100E7000ADF81C0005A95FF0804000F0C0FF002124
:100E80005FF0804000F001FF01215FF0804000F042
:100E90000EFF09B000BD000018ED00E000E400E026
:100EA00014E000E018E000E010E000E07F006400E3
:100EB00000001E1200080240FFFFF500001802406B
:100EC00000000240000C02400010024000040240FA
:100ED000001402400010014000440040004800405F
:100EE000004C0040005000400014014000640040ED
:100EF0000044014000480140004001400000014022
:100F0000000400400008004080B5FFF769F9FFF7D2
:100F1000FDF9FFF7D4FCFFF74EFDFFF7A1FDFFF74A
:100F200086F9FFF7C3FE01BD80B56848006850F040
:100F30000100664908606648002101606348006856
:100F400064490840614908606348644901605F483A
:100F5000006830F480205D4908606148002101602C
:100F600000F058F85F485FF00061016001BD30B4E7
:100F700000200021022200230224554D2D6815F087
:100F80000C052800002804D0042806D0082808D022
:100F90002FE05548554901602EE0534854490160FF
:100FA0002AE04D480068C0F380534B48006810F0B9
:100FB0003F04002B09D04E48B0FBF4F046490968C5
:100FC000C1F3881101FB00F108E04848B0FBF4F0E0
:100FD00041490968C1F3881101FB00F13E480068EE
:100FE000C0F30140401C4200B1FBF2F03E490860F2
:100FF00002E03D483D49016035480068C0F30310F8
:101000003C49405C3849096831FA00F036490860CB
:1010100030BC704782B000200190002000902B4827
:10102000006850F48030294908602848006810F4AE
:10103000003000900198401C01900098002803D1D6
:101040000198B0F5A06FF0D120480068800302D568
:101050000120009001E0002000900098012832D18A
:101060001B481B49096801601948006850F400409A
:10107000174908601648006850F4A05014490860E9
:1010800015481D4901601148006850F080700F49F3
:1010900008600E4800688001FBD5184840F20371D3
:1010A00001600B4800688008800009490860084812
:1010B000006850F00200064908600548006810F01A
:1010C0000C000828F9D102B0704700000038024037
:1010D00008380240FFFFF6FE0438024010300024BA
:1010E0000C38024008ED00E0200000200024F4004D
:1010F00040787D0110000020193C4005003C024072
:101100002449084324490860704710B40021002294
:101110000F23C478002C1FD01F49096811F4E06127
:10112000D1F5E061090AD1F10402DBB20B4141784B
:10113000914082781A40114309010278174BD1542B
:1011400001784911164A0123007810F01F0013FAA4
:1011500000F042F821000AE001784911114A012308
:10116000007810F01F0013FA00F042F8210010BCC4
:101170007047042806D10C48006850F004000A4962
:10118000086005E00848006830F00400064908607F
:10119000704700000000FA050CED00E000E400E0FC
:1011A00000E100E080E100E010E000E00022DFF874
:1011B00098311B681A0032F0EC6208430243DFF8F2
:1011C000880102607047F0B400210022002302244D
:1011D00000250226DFF870713F6817F00C07390010
:1011E000002904D0042906D0082908D035E0DFF80A
:1011F0006011016034E0DFF85C11016030E0DFF87D
:101200004C110968C1F38055DFF84011096811F0ED
:101210003F06002D0BD0DFF83C11B1FBF6F1DFF8F3
:101220002C211268C2F3881202FB01F30AE0DFF8F6
:101230002011B1FBF6F1DFF814211268C2F3881215
:1012400002FB01F3DFF804110968C1F30141491CF5
:101250004C00B3FBF4F1016002E0DFF8F410016030
:10126000DFF8E410096811F0F0010909DFF8E8205F
:101270008A5C0168D14041603349096811F4E0514A
:10128000890ADFF8D4208A5C4168D14081602E4908
:10129000096811F46041490BDFF8BC208A5C4168A1
:1012A000D140C160F0BC7047C9B2002905D02B49BC
:1012B000096808432949086005E02849096831EAB6
:1012C0000000264908607047C9B2002905D02449AA
:1012D000096808432249086005E02149096831EAA4
:1012E00000001F4908607047C9B2002905D01D4998
:1012F000096808431B49086005E01A49096831EA92
:101300000000184908607047C9B2002905D0164985
:10131000096808431449086005E01349096831EA7F
:101320000000114908607047C9B2002905D00F4973
:10133000096808430D49086005E00C49096831EA6D
:1013400000000A490860704708380240043802402B
:101350000024F40040787D01000000203038024075
:1013600040380240443802401038024020380240E1
:1013700030B400220023002400252A0047E0012386
:1013800093400C681C409C4240D103680324150024
:10139000EDB26D00AC40A343036003680C79150007
:1013A000EDB26D00AC40234303600B79012B02D0FA
:1013B0000B79022B1AD1836803241500EDB26D005E
:1013C000AC40A343836083684C791500EDB26D0097
:1013D000AC4023438360436801249440A3434360AB
:1013E00043688C799440A4B223434360C3680324C8
:1013F0001500EDB26D00AC40A343C360C368CC7967
:101400001500EDB26D00AC402343C360521C102A9E
:10141000B5D330BC70470022006980B2084201D0C9
:10142000012200E000221000C0B270470022406993
:1014300080B2084201D0012200E000221000C0B2B8
:1014400070470183704741837047D2B2002A01D0B0
:10145000018300E041837047F0B400230024D2B23E
:1014600011F00705EDB2AD00AA40130089B2CA1011
:1014700010EB820289B2CD1010EB85052D6A0F2684
:1014800011F00707FFB2BF00BE40B543156289B235
:10149000CA1010EB8202126A1A43140089B2C910F2
:1014A00010EB81000462F0BC704710B450F8041BCC
:1014B00081B102681218001D50F8043BDC0744BFDC
:1014C000A9F10104E31852F8044B43F8044B091F37
:1014D000F9D1EBE710BC70477FB504000D00002088
:1014E000002100220023AE89002E208A30F44050D3
:1014F000E98808432082A08927490840A9882A89C9
:1015000011436A8911430843A081A08A30F44070D6
:10151000A9890843A08200A8FFF755FE1C48844211
:1015200002D01C48844201D1039900E00299A089AD
:10153000000407D5192000FB01F029684900B0FB21
:10154000F1F206E0192000FB01F029688900B0FBE8
:10155000F1F26420B2FBF0F000010109642303FB07
:101560001123A189090408D5D90032316422B1FBC5
:10157000F2F111F00701084307E01901323164224A
:10158000B1FBF2F111F00F01084320817FBD000093
:101590000010014000140140F3E9FFFFC9B2002927
:1015A00004D0818951F40051818104E081894DF694
:1015B000FF72114081817047C905C90D8180704754
:1015C0008088C005C00D7047F0B4002300240025BA
:1015D000002640F66A1789B2B94206000800C0B278
:1015E0004309DBB289B211F01F04012010FA04F59F
:1015F000012B01D10C3604E0022B01D1103600E0A2
:101600001436D2B2002A03D030682843306002E09A
:101610003068A8433060F0BC704700224FF400737C
:1016200089B299420088084201D0012200E00022DC
:101630001000C0B2704789B28A0589B2C9430180DF
:10164000704770B4002300240025002240F66A167B
:1016500089B2B1420A00D2B25509EDB289B211F095
:101660001F04012212FA04F4012D02D182891440D0
:1016700006E0022D02D1028A144001E0828A144061
:1016800089B20B0A9BB2012111FA03F300880340CF
:10169000002C03D0002B01D0012200E0002210001A
:1016A000C0B270BC704750F8041B61B150F8042BF5
:1016B000D30744BFA9F101039A18002342F8043B61
:1016C000091FFAD1EFE7704780B5DFF8341588427B
:1016D0000AD101215FF00070FFF726FE00215FF0C4
:1016E0000070FFF721FE09E001215FF08060FFF745
:1016F0001BFE00215FF08060FFF716FE01BD10B4F5
:1017000000220023046834F002040460046854F0EA
:101710000104046000E05B1C4268D20703D44FF66A
:10172000FF729342F7D14268D20701D400226AE0E7
:101730008A79012A04D1026852F08002026003E033
:10174000026832F080020260CA79012A04D102687C
:1017500052F04002026003E0026832F04002026090
:101760000A7A012A04D1026852F02002026003E0E2
:10177000026832F0200202604A7A012A04D102682B
:1017800052F01002026003E0026832F010020260C0
:101790008A7A012A04D1026852F00802026003E04A
:1017A000026832F008020260CA7A012A04D1026893
:1017B00052F00402026003E0026832F004020260A8
:1017C0008A78CB781B0653EA82720B7952EA03427D
:1017D0004B7952EA03520988491E1143C1610168DD
:1017E000490849000160002300E05B1C4168C9070B
:1017F00003D54FF6FF718B42F7D14068C00701D582
:10180000002200E001221000C0B210BC704710B4EA
:1018100000210122837A9A401100DFF8E823126840
:1018200052F00102DFF8DC331A60DFF8DC231268C3
:101830008A43DFF8D4331A60027B002A19D1DFF81B
:10184000CC2312688A43DFF8C4331A60C288438805
:1018500053EA0242837ADFF8B84344F83320827AAD
:10186000DFF8AC3313EBC2028388048854EA0343E5
:101870005360027B012A19D1DFF8902312680A43D2
:10188000DFF888331A600288438853EA0242837A79
:10189000DFF87C4344F83320827ADFF8743313EBAB
:1018A000C2028388C48854EA03435360C27A002A80
:1018B00007D1DFF8602312688A43DFF858331A60D3
:1018C00006E0DFF8502312680A43DFF848331A6055
:1018D0000289002A06D1DFF8402312688A43DFF824
:1018E00038331A600289012A06D1DFF82C231268E6
:1018F0000A43DFF824331A60407B012806D1DFF861
:10190000080300680843DFF800130860DFF8F402FA
:10191000006840084000DFF8EC12086010BC704717
:10192000002181710021C1710021017200214172E9
:10193000002181720021C172002181700021C170DB
:10194000032101710221417101210180704730B4EE
:10195000002283685B0101D500220AE0826812013F
:1019600001D5012205E08268D20001D5022200E003
:101970000422D2B2042A75D0D2B210EB0213D3F8EB
:10198000803113F00103D2B210EB0214C4F880319D
:101990000B7A002B0FD1D2B210EB0213D3F88031A7
:1019A0000C684D7A55EA44542343D2B210EB02142A
:1019B000C4F8803110E0D2B210EB0213D3F88031BA
:1019C0004C680D7A55EAC4044D7A2C432343D2B2B5
:1019D00010EB0214C4F880318B7A13F00F038B7272
:1019E000D2B210EB0213D3F884311B091B01D2B21F
:1019F00010EB0214C4F88431D2B210EB0213D3F806
:101A000084318C7A2343D2B210EB0214C4F88431AF
:101A10008B7B4C7B240454EA03630C7B53EA042342
:101A2000CC7A2343D2B210EB0214C4F888318B7CF9
:101A30004C7C240454EA03630C7C53EA0423C97BE2
:101A40001943D2B210EB0213C3F88C11D2B210EBCF
:101A50000211D1F8801151F00101D2B210EB021045
:101A6000C0F880111000C0B230BC7047C9B210EB92
:101A70000113D3F8B03113F004031372137A002B5F
:101A800007D1C9B210EB0113D3F8B0315B0D13606D
:101A900006E0C9B210EB0113D3F8B031DB08536094
:101AA000C9B210EB0113D3F8B03113F00203537233
:101AB000C9B210EB0113D3F8B43113F00F039372D2
:101AC000C9B210EB0113D3F8B4311B0AD374C9B2F5
:101AD00010EB0113D3F8B831D372C9B210EB011374
:101AE000D3F8B8311B0A1373C9B210EB0113D3F842
:101AF000B8311B0C5373C9B210EB0113D3F8B831D2
:101B00001B0E9373C9B210EB0113D3F8BC31D3731E
:101B1000C9B210EB0113D3F8BC311B0A1374C9B25C
:101B200010EB0113D3F8BC311B0C5374C9B210EB8A
:101B30000113D3F8BC311B0E9374C9B2002904D130
:101B4000C16851F02001C16003E0016951F020013A
:101B500001617047D2B2002A03D04269114341614A
:101B600003E0426932EA01014161704701291DD059
:101B700004291ED008291FD0202920D0402921D097
:101B8000B1F5807F27D0B1F5007F27D0B1F5806F08
:101B900027D0B1F5006F27D0B1F5004F29D0B1F5AE
:101BA000803F12D0B1F5003F12D027E01B49816081
:101BB00024E00821C16021E01021C1601EE008215D
:101BC00001611BE01021016118E00821416015E06E
:101BD0001021416012E0042141600FE004214160C6
:101BE0000CE00421416009E0002181610421416091
:101BF00004E00021816104214160FFE7704700009B
:101C000000640040006600401C6600400C66004016
:101C10004066004004660040146600400101010077
:101C2000002203881A00634B98420ED0674B9842FB
:101C30000BD0B0F1804F08D05F4B984205D05F4B7E
:101C4000984202D05E4B984204D14FF68F731A40EF
:101C50004B881A435B4B984207D05B4B984204D0A9
:101C60004FF6FF431A400B891A4302804A68C2624A
:101C70000A8802854F4A904202D0544A904201D1CC
:101C8000897A018601218182704741627047406AEA
:101C90007047C9B2002904D0018851F08001018049
:101CA00004E001884FF67F72114001807047C9B28D
:101CB000002904D0018851F00101018004E001886D
:101CC0004FF6FE7211400180704770B4002300246B
:101CD0000022058C4FF6FE7635400584058C2C00DD
:101CE00085882A00058B2B004FF68F752B404FF609
:101CF000FC752B400D882B434FF6FD752C408D89CC
:101D00002C434D882C432B4DA84202D02F4DA84286
:101D100013D14FF6F7752C40CD892C434FF6FB7548
:101D20002C408D882C434FF6FF652A404FF6FF5517
:101D30002A400D8A2A434D8A2A4382800383896878
:101D40004163048470BC704770B4002300240022F7
:101D5000058C4EF6FF7635400584058C2C00858871
:101D60002A00858B2B0048F6FF752B404FF6FF4568
:101D70002B400D8853EA05234DF6FF752C408D89C5
:101D800054EA05344D8854EA05340A4DA84202D07D
:101D90000E4DA84205D14BF6FF752A400D8A52EA36
:101DA00085128280838389680164048470BC7047D3
:101DB0000000000000000140000400400008004056
:101DC000000C0040001000400014004000040140DE
:101DD00041637047016470470022038B1A004FF67D
:101DE000F7731A400A43028370470022838B1A005C
:101DF0004FF2FF731A4052EA01228283704738B5CE
:101E000004000D00288800280AD12B89AA88698837
:101E1000200000F08DF8E988200000F033F825E07C
:101E2000288804280AD12B89AA886988200000F014
:101E30009BF8E988200000F02EF817E02888082891
:101E40000AD12B89AA886988200000F0AEF8E988B9
:101E5000200000F02AF809E02B89AA886988200070
:101E600000F0C4F8E988200000F028F831BD002116
:101E7000018000214180012181800021C180002159
:101E800001817047028B4FF6F3731A400283028B75
:101E9000114301837047028B4FF2FF331A400283D4
:101EA000028B52EA012101837047828B4FF6F37354
:101EB0001A408283828B114381837047828B4FF259
:101EC000FF331A408283828B52EA0121818370475B
:101ED000C9B2002906D0B0F8441051F40041A0F86E
:101EE000441005E0B0F844104904490CA0F844102F
:101EF0007047F0B400240025002607893C00078BBA
:101F00003D00078C3E004FF6F8773C400C434FF6FF
:101F1000FC410D4040F201110D434FF6DD710E40C2
:101F200052EA03110E43048105830684F0BC704716
:101F3000F0B400240025068C4FF6FE773E40068460
:101F4000068B3400068C35004FF60C76344052EA8E
:101F5000031214434FF6F572154051F001010D4381
:101F600004830584F0BC7047F0B4002500260024EB
:101F7000078C4FF6EF7C1CEA07070784078B3D00B0
:101F8000078C3E0009010C0040F6FF410D4055EA68
:101F9000033555EA02254FF65F710E4054F01001EB
:101FA0000E4305830684F0BC7047F0B4002600247D
:101FB0000025078C4FF6FF6C1CEA07070784878B08
:101FC0003E00078C3C0009020D004FF60C710E40DC
:101FD00052EA03110E434FF2FF510C404FF480714F
:101FE00029430C4386830484F0BC7047F0B4002579
:101FF00000260024078C4EF6FF7C1CEA07070784A6
:10200000878B3D00078C3E0009030C0040F6FF4122
:102010000D4055EA022555EA033545F6FF710E409D
:1020200054F480510E4385830684F0BC70470268E7
:10203000531C0360117070472DE9F04FA1B0174693
:102040001C4601AD6860A9600020E86211AE4FF047
:102050000A096FF0004802E0E86A401CE86238783C
:1020600018B9E86A21B0BDE8F08F252807D1002013
:102070006861A861E86128626862A8620CE017F8EC
:10208000011BA8686A689047A8600028E4D14FF057
:10209000FF30E7E740F0010017F8011F2029F9D0D1
:1020A00023290DD02B2904D02D2906D030290AD080
:1020B0000CE040F0020080B2EEE740F00400FAE7E6
:1020C00040F00800F7E740F01000F4E72A290DD1AE
:1020D0002268111D216011686963002904D54942F5
:1020E000696340F0040080B27F1C10E00021696346
:1020F00007E0696B414503D009FB01213039696371
:102100007F1C3A78A2F13001C9B20A29F1D339789B
:102110002E291CBF4FF0FF3129631BD117F8011F77
:102120002A2906D12268111D2160116829637F1CAC
:1021300010E00021296307E0296B414503D009FB2A
:102140000121303929637F1C3A78A2F13001C9B2EC
:102150000A29F1D3288739780FF6D83000F0F8FD36
:1021600008B117F8010B8DF83E009DF83E00682875
:1021700004D1387868280AD1622005E06C2806D19D
:1021800038786C2803D171208DF83E007F1C11A88F
:1021900028613A781046253825D01C3877D0001FA2
:1021A000022874D9133800F09E8009386FD0801E41
:1021B00000F03681401E00F0DF80401E022866D904
:1021C000001F00F0D980401F36D0401E00F08B80E9
:1021D000401E23D0C01E0CD0801E00F08480C01E84
:1021E00000F0818024E16869411C696125218155E5
:1021F00028E12168081D20600868E8602A6B002A31
:1022000008D4002100F0B0FD00281ABFE968401A88
:10221000286B01E000F0D4FDA86113E12168081DDE
:10222000206008680021CDE9000111A8E86078214C
:1022300000A800F097F905E19DF83E0062281FD044
:1022400068280DD06A2812D06C2802D071280ED0D0
:1022500074282168081D20600868E96A0160F1E0BF
:10226000E86A2268111D216011680880EAE0E86AC6
:10227000C11723681A1D22601A68C2E90001E1E053
:10228000E86A2268111D216011680870DAE0206890
:10229000C01D20F007002060034603F10800206005
:1022A000D3E90001CDE90001002904D56869411C8A
:1022B00069612D210DE0288F810704D56869411CD3
:1022C00069612B2105E0C00704D56869411C69617B
:1022D00020218155686911A94018E860114600A8BD
:1022E00000F0CFF9AEE09DF83E006C280FD07128C9
:1022F00001D06A280BD12068C01D20F007002060A3
:10230000034603F108002060D3E9000104E02168DE
:10231000081D206008680021CDE900019DF83E00FD
:1023200068280CD0622806D0742801D07A280CD1F5
:10233000DDE9000106E0DDE90001C0B202E0DDE90F
:10234000000180B20021CDE9000195F838000007B6
:1023500060D5DDE9000109B900285BD042F020001A
:10236000782857D16869411C6961302181556869B5
:10237000411C696182554DE09DF83E0062280CD0F9
:10238000682810D06A281AD06C2824D0712816D05A
:10239000742820D07A280CD01DE02168081D206008
:1023A00091F900001BE02168081D2060B1F90000D0
:1023B00015E02168081D20600868002110E02068F1
:1023C000C01D20F007002060034603F108002060D4
:1023D000D3E9000104E02168081D20600868C117E6
:1023E000CDE90001DDE9000100290EDB288F81071E
:1023F00004D56869411C69612B210AE0C00709D531
:102400006869411C6961202103E06869411C6961B8
:102410002D218155686911A94018E860114607E728
:102420006869411C69612268111D21601168DEE63E
:102430006869411C6961252181551AB16869411C8F
:10244000696182557F1C686B6969401A296A401A64
:10245000A969401A696A401AE969401AA96AA0EB99
:10246000010A95F83800400711D420208DF840006B
:10247000BAF1010F0BDBD346012210A900A800F02E
:102480003FFC00287FF403AEBBF1010BF4D16A6975
:1024900011A900A800F034FC00287FF4F8AD30202A
:1024A0008DF84000D5F820B0BBF1010F0ADB012206
:1024B00010A900A800F024FC00287FF4E8ADBBF1CF
:1024C000010BF4D1AA69E96800A800F019FC002802
:1024D0007FF4DDAD30208DF84000D5F824B0BBF19D
:1024E000010F0ADB012210A900A800F009FC002856
:1024F0007FF4CDADBBF1010BF4D1EA69A869E968BD
:10250000411800A800F0FCFB00287FF4C0AD30208B
:102510008DF84000D5F828B0BBF1010F0ADB01228D
:1025200010A900A800F0ECFB00287FF4B0ADBBF1CF
:10253000010BF4D195F8380040077FF590AD2020CD
:102540008DF84000BAF1010FFFF689AD012210A904
:1025500000A800F0D5FB00287FF499ADBAF1010A7C
:10256000F4D17CE52DE9FA4786B00546686900900C
:102570009DF818006F2808BF082705D040F02000FC
:10258000782814BF0A2710273C24D5E90001064605
:1025900089469DF81820642A01D0692A04D10029AF
:1025A00002DA764269EB4909B9F1000F0DD166B93B
:1025B000686B50B9082F3FD195F83C0000073BD518
:1025C000641E00983021215436E0A4F101084446ED
:1025D000F817CDE9047030464946DDE9042300F0E0
:1025E00015FCCDE90201B246DDE90223DDE9040173
:1025F000A0FB02695046801B3030C0B23A2803D39A
:102600009DF8181051390818009908F80100DDE903
:102610000269B9F1000F00D126B12869009961184B
:102620008842D2D3082F07D195F83C00000703D584
:102630000098205C3028C3D1C4F13C00E8610099C7
:1026400061182961696B884207DA081A6862A88FE5
:102650004FF6EF710840A88710E000290ED595F8D5
:102660003C1001F01401102908D1A96BAA69891A3C
:102670006A6A891A0C1A012CA8BF6C6208B0BDE8FE
:10268000F0872DE9F24F8EB0054604AFD5E9000181
:10269000CDE902019DF8380040F020008DF80000DF
:1026A00061280BD0686B002848BF062005D405D1EF
:1026B0009DF80000672801D1012068636968C1F3B3
:1026C0000A5040F2FF72904225D0012819DA2846BC
:1026D00000F02AFC012814DB002400209DF80010E3
:1026E000612940D12A69511C296130211170296961
:1026F0004A1C2A619DF83820612A0CBF7822582292
:102700002DE040F2FE316A6861F31E526A60441A9D
:102710004FF0FF30E2E7080301D1286870B10320D1
:10272000E8619DF838006138C0B21A2811D30FF261
:1027300010610322286900F019FC9EE10320E86182
:102740009DF838006138C0B21A2805D30FF2F8514D
:10275000EFE70FF2E851ECE70FF2E851E9E70A7012
:10276000A969891CA96110B90026B0467BE19DF8D2
:102770000000612840F09780686B00284CBF21263C
:10278000461C36B2771CD5E900ABDDE90201002218
:10279000002300F023FC3ABF8BF00040CDE902A0FB
:1027A000CDE902ABA4F104088DF810200DF1110958
:1027B000012F33DBDDE902010022002300F026FCBB
:1027C0002CD21C2102A800F039FCDDE9020100F046
:1027D000C1FC0446FF1F012F09DB00F0E7FC0246A5
:1027E0000B46DDE9020100F0F9FCCDE9020109F236
:1027F00007000721012C0BDB491E5EBF04F00F020E
:1028000000F8012D2411F5D502E0002200F8012D79
:10281000491EFAD500F20709012FCBDA0DF111009C
:10282000A9EB00010DF11107B142B8BF0E4636B257
:10283000002E31D43046884206DA04A9411849787E
:10284000082928BF0F2100D2002104AA821800E025
:10285000761E401E12F801398B42F9D00F2904D19F
:1028600004A941184A78521C4A70002803D504AFC5
:10287000761C08F1040836B2701E0DD4C1190A780E
:102880003032D2B23A2A03D39DF838303A3B9A1804
:1028900001F80129401EF2D5686B002840F1E38061
:1028A000701E6863DFE0DDE902010022002300F012
:1028B00095FB05D2DDE9020181F00041CDE902017D
:1028C00024B247F2975060436D4990FBF1F80FFA3C
:1028D00088F8C8F107040027DFF8A891012C19DB5C
:1028E000DDE902ABE00707D5504659463A464B466C
:1028F00000F034FD82468B466410384649463A461D
:102900004B4600F02BFD07468946002CEAD1CDE965
:1029100002AB21E064429246DFF86CB114D0E007CC
:1029200007D5504659463A464B4600F017FD8246B9
:102930008B466410384649463A464B4600F00EFD39
:1029400007468946002CEAD1DDE9020152465B4682
:1029500000F0D6FDCDE902019DF8000066280CBF0D
:1029600008F10A000620696B4618142EA8BF13262A
:1029700030208DF810000DF11104444F012E2FDB93
:10298000DDE9020100F0FCFB04F1080104220A2346
:10299000B0FBF3F403FB1400303001F8010DB4FB7D
:1029A000F3F003FB1043303301F8013D521EEED12A
:1029B00001F10804083E012EE0DBDDE9020100F030
:1029C000DFFB00F0FDFB02460B46DDE9020100F0F3
:1029D00005FC00223B4600F0C1FCCDE90201CFE737
:1029E0000DF11100201A0DF111079DF81110302979
:1029F00006D1401EA8F1010817F8011F3029F8D0B0
:102A00009DF80010662904BF0FFA88F808F101014B
:102A100003D065290CBF012100216A6B8E1836B2E4
:102A2000B042B8BF064636B2002E1CD431468142B1
:102A300004DAC85D352828BF392000D23020CA19F1
:102A4000521E00E0761E491E12F801398342F9D069
:102A5000392802D1C85D401CC855002903D57F1E06
:102A6000761C08F101080FFA88F0009033B23A465C
:102A70009DF83810284600F00BF80FB0BDE8F08F35
:102A8000A0860100000024400000F03F84D7974159
:102A90002DE9F04385B00546894617461E46BDF927
:102AA0003040D5F83480012E02DA01260FF29C273F
:102AB00049F0200066280AD0672840F086806FF031
:102AC00003018C42C0F28780444580F28480641CFC
:102AD00066280CD095F83C00000702D44645B8BFE4
:102AE000B04624B2B8EB040848BF4FF0000828698C
:102AF000E96924B2012C25DA4A1C30230B54B8F1C1
:102B0000010F03DA95F83C10090702D52E21115464
:102B1000521CEA6118EB040FB8BFC8F1000424B2DC
:102B20006142A962A044B045B8BF464636B22E62A3
:102B300032463946EB69181800F018FAA8EB06007F
:102B4000E862C6E00818A64218DA3246394600F0B4
:102B50000DFAE9697118E961A01BA862B8F1010FCB
:102B600003DA95F83C00000705D528692E220A549F
:102B7000286A401C2862C5F82C80AAE02246394603
:102B800000F0F4F9E8692018E861361BB8F1010F8C
:102B900003DA95F83C10090704D5411CE96129695D
:102BA0002E22425436B2B045B8BF464636B23246FF
:102BB000E119E8692B69C01800F0D8F9E869301804
:102BC000E861A8EB0600A86283E0B9F1610F16D1B5
:102BD0004FF0700918E0464504DA95F83C100907F3
:102BE00058BFB046B8F1010848BF4FF00008B9F12E
:102BF000670F14BF4FF045094FF0650904E0B9F1C4
:102C0000410F08BF4FF05009E9694A1C286917F8BD
:102C1000013B0B54B8F1010F03DA95F83C1009079A
:102C200002D52E211154521CEA61B8F1010F11DBBB
:102C3000761E36B2B045B8BF464636B23246394641
:102C4000EB69181800F092F9E8693018E861A8EB10
:102C50000600A862E8692969471807F8019B002C5B
:102C60005CBF2B2007F8010B03D52D2007F8010BC3
:102C7000644200260DF1080824B2012C0EDB0A2262
:102C8000214600A800F05FFD019808F8010B009CA8
:102C9000761C24B2012CF2DA022E06DA49F020006A
:102CA000652804BF302007F8010B1EB9302007F853
:102CB000010B09E0012E07DB761E02A8305C3030E4
:102CC00007F8010B012EF7DAE86929694018381A6C
:102CD000286295F83C0000F0140010280DD1A86976
:102CE000E9690818A96A0818296A0818E96A081819
:102CF000A96B8842BCBF081A686205B0BDE8F083C2
:102D000070B504460D4616460020002E10D015F86A
:102D1000011BE068A2689047E060002802D14FF0F4
:102D2000FF3070BD206B401C20630020761EEED16A
:102D300070BD0000686A6C747A4C00006E616E00B1
:102D40004E414E00696E6600494E4600300000005C
:102D50000278C9B28A421AB11CBF10F8012FF9E7F4
:102D600018BF002070470000C9B2830706D0521E6A
:102D700022D310F8013B9942F7D11FE0083A13D350
:102D800002F1040241EA012141EA014150F8043B09
:102D9000121F21BF4B40A3F1013C2CEA030C1CF095
:102DA000803FF3D0C9B2001F083210F8013B521E19
:102DB00028BF91EA030FF8D818BF0120401E7047C2
:102DC00000F10103810704D010F8011B89B18107CC
:102DD000FAD10268B2F10131914311F0803F04BF92
:102DE00050F8042FF6E710F8011B11B110F8011B81
:102DF000FBE7C01A7047000013F0004C03D55B429C
:102E0000524263F100039CEA210C15D11B4229D1E7
:102E100009424CD12AB18446B0FBF2F002FB10C249
:102E2000704700F097BCFCD30022002370470B00D2
:102E3000020000210020704710B5644603D34942C8
:102E4000404261F10001FFF7E1FF640004D3494211
:102E5000404261F10001244203D55B42524263F1DA
:102E6000000310BD904271EB030CE0D370B5B1FAD2
:102E700081F4B3FA83F52C1BA340C4F1200532FA88
:102E800005F63343A2405FF00046E64002E05B08EF
:102E90005FEA3202841A71EB030524BF20462946FB
:102EA0007641F4D302000B003000002170BD012AEE
:102EB000B9D970B5140C20D0B1FA81F4B2FA82F508
:102EC000C4F120046419B4F12006D6D3B2405FF0F7
:102ED0000044F440002502E052085FEA3303C61ABA
:102EE00071EB020E24BF3046714664416D41F3D34D
:102EF00002000B002000290070BD0C46B1FBF2F16E
:102F000002FB11452D0445EA1045B5FBF2F402FB26
:102F1000145580B240EA0545B5FBF2F002FB1052B1
:102F200040EA044070BD000070B4416801F0004206
:102F300001210D4B44681C40446001D104686CB110
:102F400004684568E60F46EA45054560640004608C
:102F5000491EEC02F4D544682340436043681A4399
:102F60004260084670BC7047FFFF0F004AB38B07F2
:102F700007D0521E11F8013B00F8013B21D08B070E
:102F8000F7D183071ED1103A07D330B4B1E8381017
:102F9000103AA0E83810F9D230BC530724BFB1E88A
:102FA0000810A0E8081044BF51F8043B40F8043B67
:102FB000D20724BF31F8022B20F8022B44BF0B7834
:102FC00003707047083A07D3B1E80810083A40F890
:102FD000043B40F804CBF7D25307E4E74FF4001C5E
:102FE0001CEB410F94BF1CEB430F09E041EA030CBB
:102FF00050EA4C0C52EA0C0C03D2994208BF9042A2
:10300000704714BF8B428242704700004FF4001C8F
:103010001CEB410F94BF1CEB430F09E041EA030C8A
:1030200050EA4C0C52EA0C0C03D28B4208BF82428D
:10303000704714BF994290427047000070B5044633
:103040000D466068C0F30A5040F2FF71884209D112
:103050006068000302D12068002801D0022070BD02
:10306000012070BD30B92046FFF75EFF012801DB6B
:10307000002070BD012D0EDB40F2FF71091A8D4258
:1030800009D36068002847BF00202F4900202F493E
:10309000C4E90001E4E74142A942616806DA2C4A2A
:1030A0001140401941EA0050606049E001F00041E0
:1030B00062681203120B42F480126260401E4519CE
:1030C00005F13500352803D361600020206070BD14
:1030D000002215F11F0F05DA203522686068206094
:1030E00000206060684213D0521E9241D243C0F16A
:1030F000200325689D4055EAD2722568C540666860
:1031000006FA03F32B432360636823FA00F0606040
:10311000606808436060B2F1004F03D80AD120789C
:10312000C00707D52068401C2060206810B960687F
:10313000401CB9E76068884202D12068002897D017
:103140004FF0FF3070BD00BF0000F0FF0000F07FC7
:10315000FFFF0F80F446400D40EAC120490006D22F
:1031600000F013F8004248BF6FF00040604700F0E5
:103170000CF84FF0004188428CBF0846404260473F
:10318000400D40EAC12049000CD240F00040490DFA
:10319000A1F58061491C05D4D1F11F0154BFC8407D
:1031A000C01770474FF0000070470000010040F169
:1031B0000880F446404200F004F851F000416047B6
:1031C000010009D0B0FA80F18840C91CC1F58461C2
:1031D000090501EBD02140057047000070B44FF0A5
:1031E000004591EA030F44BF6B4000F0BEBA841A59
:1031F00071EB030604D26E40001BB14112197341FA
:103200004FF4001C1CEB410F34BF7CEB430684E001
:103210000C0DA4EB1356362E7DDC012E43DC45EA63
:10322000C32343EA525312BFD20292025B08240521
:1032300045EAC12141EA5051D2EBC020994125D441
:1032400007D1B0FA80F610FA06F164D000202036DB
:1032500008E0B1FA81F6B140C6F1200220FA02F28C
:103260001143B0404FEAF474B4EB465434F0010615
:103270004FEA74040AD8D6F50016760D04F000441F
:10328000F04061FA06F25040F1404840C00A40EA7E
:10329000415021F0004128BF5FEA500550F1000085
:1032A00044EBD12137E045EAC323DB0A45EAC121DB
:1032B000C90AB6F120050EDD42EA0242120CC5F140
:1032C000200603FA06F6EB4042EA06056D429841F5
:1032D00061F100010DE062FA06F5F240554063FA33
:1032E00006FC82EA0C02F3405A406D42904161EBC9
:1032F000030111F4801F05D1641E620502D06D0028
:103300004041494121F48011430875F1004350F1D7
:10331000000041EB045170BC70471CEB410F15D20B
:1033200023F0004352EA43060BD04FEA4C0CBCEBAF
:10333000410F04D80C0D661E342EB7DDEBE7801A62
:10334000994150EA410608BF0021E4E708BF1CEBA1
:10335000430F28BF6FF00001DDE70000B0B581EA40
:10336000030C0CF0004C40F2FF7515EA11541DBF20
:1033700015EA1357AC42AF4239E0E41923EA45534A
:1033800043F48013C90241F0004141EA505EC70294
:103390001100A7FB020200284FF00000EEFB012005
:1033A0004FF00001E3FB072118BF42F00102401873
:1033B00000214941E3FB0E01A4F580640F0302D212
:1033C00052004041494154F101046CDD470872F15B
:1033D000004250F1000051EB0451A1F580115CBF97
:1033E00041EA0C01B0BD4CEA05510020B0BD05EA30
:1033F0001357AC4214BFAF4241E050EA410E1CBF2C
:1034000052EA430E02E061460020B0BD24423C4433
:103410001BD15FEA070EF6D0090302BF0146002068
:10342000AEF1140EB1FA81F7AEEB070401FA07FE14
:103430000C37C7F1200100FA07F7C8404EEA000E2A
:1034400023EA455343F48013A2E733F00043B3FA71
:1034500083F704BFB2FA82FE77440B3FE41BB7F157
:10346000200E2FBF02FA0EF3BB40C7F1200E22FA46
:103470000EFE38BF43EA0E03BA40641C82E750EAEE
:10348000410E14BF52EA430E6FF000014FF40017D3
:1034900017EB430F8ABF194617EB410FB5E74CEA0C
:1034A00005510020B0BDD4F10104B4F120070FDABA
:1034B000C4F12007520828BF42F0010210FA07F5B4
:1034C00001FA07F7E1BF2A43E0403843E1400FE04B
:1034D000352C98DCC7F1200452EA400220FA07F2AA
:1034E00018BF42F0010231FA07F0A1400A4300215F
:1034F00072F1004250F1000051EB0C01B0BD000030
:10350000F0B540F2FF7581EA030C0CF0004C15EAAF
:1035100011541DBF15EA1357AC42AF42E5E0BC4160
:10352000C1F31301C3F31303801A994143F48013C9
:1035300004D2641E4000494180185941C90241EA41
:103540005051B1FBF3F603FB1611A2FB0675D7EB46
:10355000C020A94102D2761E80185941C90241EA11
:103560005051B1FBF3FE03FB1E11A2FB0E75D7EB0E
:10357000C020A94103D2AEF1010E80185941890241
:1035800041EA9051760546EA8E2EB1FBF3F603FB35
:103590001611A2FB0675D7EB8020A94102D2761E38
:1035A00080185941C90241EA50514EEA060EB1FB5A
:1035B000F3F603FB1611A2FB0675D7EBC020A94159
:1035C00002D2761E80185941C90241EA5051B1FB1E
:1035D000F3F703FB1711A2FB0735D3EBC020A9417A
:1035E00067F100070CBF004247F0010766F3D527DB
:1035F0004FEA1E31B80814F5806412DDBD0775F17D
:10360000004250EB0E5051EB045111F5801F5CBF8E
:1036100041EA0C01F0BD4CF07F6141F0E041002037
:10362000F0BDBD076D0840EA0E5041F48011D4F1A1
:103630000104B4F120060ADAC4F120060200E040D9
:1036400001FA06F3E1401843B24015430EE0342C72
:1036500013DCC6F1200445EA40056D0820FA06F2A5
:10366000154321FA06F0A1400D43002175F10042F7
:1036700050F1000051EB0C01F0BD00205FEA0C019D
:10368000F0BDCFB992185B41B3FA83F704BFB2FA29
:1036900082F6BF190B3FB7F120062FBF02FA06F3DF
:1036A000BB40C7F1200622FA06F638BF3343BA40C2
:1036B0001CB1E419641E33E77F4231F00041B1FAD6
:1036C00081F404BFB0FA80F6A4190B3CB4F12006D3
:1036D0002FBF00FA06F1A140C4F1200620FA06F639
:1036E00038BF3143A0403C1B1AE7AC421ABF05EA81
:1036F0001357AF4212E050EA41061CBF52EA43069C
:10370000BFE750EA4107304661461CBF41EA055118
:10371000F0BD52EA430C08BFC143F0BD00204FF496
:10372000001616EB410F98BF16EB430F08BF16EBC0
:10373000410F24BFC14305E016EB430F0CBF6146A8
:103740004CEA0551F0BD91FBF2F303FB1211C0E905
:10375000003170477047000070B44FF0004591EAA7
:10376000030C44BF6B40FFF742BD841A71EB0306A4
:1037700003D2001BB141121973414FF4001C1CEB22
:10378000410F34BF7CEB430443E00C0DA4EB135614
:10379000352E50DC45EAC323DB0A45EAC121C912B4
:1037A000B6F120050DDD63FA05F6EB4086EA030568
:1037B000124218BF45F00105C01851F100010CD2AA
:1037C00013E062FA06F5F2405540F3415A40B34027
:1037D000F3405A408018594107D349085FEA300046
:1037E0005FEA350528BF45F0010501F58011420863
:1037F00075F1004250F1000041EB045170BC4FF4F0
:10380000001C1CEB410F38BF70470020090D090553
:1038100070471CEB410F10D252EA43060BD0BCEBB1
:10382000410F05D80C0DAB43661E342EB5DD02E00A
:10383000AB438018594170BC704770BC70470000A2
:1038400038B5040008E025002468686800F013FE1D
:103850002900032000F081FF002CF4D131BD10B508
:10386000002455E0E4B21420DFF8341800FB041003
:10387000C07B401CE4B21421DFF8242801FB0421A2
:10388000C873E4B21420DFF8181800FB0410807B22
:10389000022808D1E4B21420DFF8041800FB041059
:1038A000C07BF02811D2E4B21420DFF8F41700FB3B
:1038B0000410807B01282AD1E4B21420DFF8E0173D
:1038C00000FB0410C07B022821D3E4B21420DFF8EF
:1038D000D01700FB04100068002810D0E4B21420B8
:1038E000DFF8BC1700FB04100068FFF7A9FFE4B283
:1038F0001420DFF8AC1700FB041000210160E4B2D3
:103900001420DFF89C1700FB041000218173641C55
:10391000E4B20A2CA6D310BD2DE9F04704000A201A
:103920000A220A230025002600275FF00A0C5FF018
:10393000000E002C20D0DFF86C572D785FF01408B3
:10394000DFF85C9708FB0595AD7B022D14D1256847
:10395000DFF8508798F800805FF01409DFF840A77F
:1039600009FB08A8D8F80480454505D1DFF83407DD
:1039700090F9000040B200E1002514E0EDB25FF0E4
:103980001408DFF81C9708FB059898F80F80FFB221
:10399000B84507D32A00EDB21427DFF8048707FBE8
:1039A0000587FF7B6D1CEDB20A2D80F08E805BB227
:1039B0000A2B0DD1EDB25FF01408DFF8E49608FB96
:1039C000059898F80E80B8F1000F01D12B00E9E7B7
:1039D000EDB25FF01408DFF8C89608FB059898F878
:1039E0000E80B8F1010F4DD1002C12D0D4F8008018
:1039F000EDB25FF01409DFF8A8A609FB05A9D9F814
:103A00000490C84505D1DFF89C060570280040B237
:103A1000B3E0EDB25FF01408DFF8849608FB059878
:103A2000D8F80080B8F1000F17D0EDB25FF014089D
:103A3000DFF86C9608FB059898F80F805FFA8EFE09
:103A4000F045AFD3AC46EDB25FF0140EDFF8508610
:103A50000EFB058E9EF80FE0A4E7EDB25FF01408B0
:103A6000DFF83C9608FB059898F80F80F6B2B04551
:103A700098D32800EDB21426DFF8248606FB0586CD
:103A8000F67B8FE7EDB25FF01408DFF8149608FBC1
:103A9000059898F80E80B8F1020F83D1002C3FF4FE
:103AA0006DAFD4F80080EDB25FF01409DFF8F0A537
:103AB00009FB05A9D9F80490C8457FF45FAFDFF88A
:103AC000E4050570280040B257E05BB20A2B15D11F
:103AD00011F00301012913D15BB20A2B13DA1D0087
:103AE000EDB21420DFF8B81500FB0510002181733A
:103AF000002C35D0002C2BD100202AE08907EBD5F3
:103B00005FF0FF3039E052B20A2A01DA1500E7E728
:103B100040B20A2801DA0500E2E74FFA8CFCBCF15A
:103B20000A0F12DA6546EDB21420DFF8741500FBB7
:103B300005100068FFF784FEEDB21420DFF8601571
:103B400000FB051000210160CAE75FF0FF3014E0C0
:103B50002068EDB21421DFF8482501FB05214860FB
:103B6000EDB21420DFF8381500FB05100021C173F9
:103B7000DFF830050570280040B2BDE8F087F8B5E1
:103B800004000D006E68062009E0401EC0B2C0B2FD
:103B9000C15C8155C0B28119C0B2875C8F71C0B25F
:103BA0000128F2D24FF4006000F0F4FDB08129004A
:103BB0002000A2699047F2BD2DE9F04104000E00FB
:103BC00015001F00002E15D03068002812D02100EB
:103BD000300000F0FBFD00280CD15FF0704000F0D9
:103BE000F0FD316810EA01085FF0604000F0E9FD87
:103BF000804502D17FF009005BE03900C9B2300096
:103C0000FFF78AFE060076B2002E02D5300040B2E1
:103C10004FE076B21420DFF8881400FB0610022172
:103C2000817376B21420DFF8781400FB061004616B
:103C300006200BE0401EC0B276B21421DFF86024EB
:103C400001FB06214118C0B2425D0A72C0B20128D0
:103C5000F0D276B21420DFF8481400FB06100021E1
:103C6000C1731CE076B21420DFF8341400FB061098
:103C7000016876B21420DFF8282400FB06200A68C9
:103C800002604F68032000F068FD2B0014F127024A
:103C900039002000FFF773FF380000F0ECFB76B22C
:103CA0001420DFF8FC1300FB061000680028D9D1AF
:103CB0000020BDE8F08138B5002810D0496801F235
:103CC0000E04E26883681A40436885682B409A4274
:103CD00005D100238A1D14F10C01FFF76DFF31BDE2
:103CE0002DE9F04383B004000D001600002C00F015
:103CF000B38070892A2803D2300000F0BCFBABE00F
:103D0000776807F20E08B8F80090012000F042FD35
:103D1000814517D1B8F8049040F2046000F03AFDF4
:103D200081450FD1B8F802904FF4006000F032FDE9
:103D3000814507D1B7F80C9040F6060000F02AFD47
:103D4000814503D0300000F096FB85E0414620001D
:103D500000F026FE042218F10E0100A800F083FEF8
:103D6000042218F1180101A800F07DFE6068002807
:103D700002D15FF0000908E001986168884202D131
:103D80005FF0010901E05FF000095FFA89F9B9F11C
:103D9000000F07D0012318F1080200A92000FFF747
:103DA0000BFF06E0002318F1080200A92000FFF72E
:103DB00003FFB8F8060000F0EDFC012802D002284D
:103DC00046D046E05FFA89F9B9F1000F3FD00220F2
:103DD00000F0E0FCA8F8060018F1180018F10E0138
:103DE0000422FFF7C3F80422211D18F10E0000F091
:103DF0003AFE0620216A002906D0216A09790029A5
:103E000002D00FF2284101E018F1080117E0401E2E
:103E1000C0B210EB0802C0B210EB08031B7A937417
:103E2000C0B2C0B2425CC255C0B210EB0802C0B210
:103E3000435D1372C0B2C219C0B2435D9371C0B288
:103E40000128E4D231002000A2699047FFE700E09A
:103E5000FFE7300000F00FFBBDE8F783F0B583B05B
:103E600004000D0016000E21280000F0BBFA002807
:103E700002D07FF001000FE000272100300000F0A9
:103E8000A5FC002809D00FF2A4373B0014F127024B
:103E900029002000FFF773FEFEBD5FF0704000F0C8
:103EA00090FC316810EA01075FF0604000F089FC87
:103EB00087421DD101208DF8000000208DF80100FF
:103EC0005E208DF80200306800F07BFC000C10F0E2
:103ED0007F008DF80300306800F073FC000A8DF855
:103EE0000400306800F06DFC8DF8050000AFCCE7F1
:103EF0003068A16808406168A2681140884204D017
:103F0000E068002807D004F20C062A0031002000E7
:103F100000F004F8C0E77FF00300BDE72DE9F843A7
:103F200007008846160007F227095FF0FF343900C2
:103F3000404600F04BFC002814D15FF0704000F0C8
:103F400040FCD8F8001010EA01055FF0604000F076
:103F500038FC854206D0B8F1000F03D0D8F8000035
:103F6000002802D17FF0090097E001214046FFF7C9
:103F7000D3FC05006DB2002D02D5280040B28CE0C4
:103F80006DB21420464900FB0510807B002806D145
:103F90006DB21420424900FB0510012181736DB2FE
:103FA00014203F4900FB0510807B012801D0002E22
:103FB00004D14146380000F0F2F80400002E6AD027
:103FC0006DB21420364900FB0510807B02280DD10C
:103FD0006DB21420324900FB051010F108034A4667
:103FE00031003800FFF7CBFD040054E06DB214201F
:103FF0002B4900FB0510807B01284CD100203700A5
:1040000000E03F68002F03D0397B0129F9D001205F
:10401000002812D000223989032000F00FF9070090
:10402000002F0ED03100380000F07EFA002808D0B2
:10403000380000F020FA002703E03700380000F0D5
:1040400050FA002F27D0032000F075FB00281FD066
:104050000021016047606DB21421114A01FB052166
:10406000096800290CD06DB214210D4A01FB05210D
:10407000096800E009680A68002AFBD1086005E0C9
:104080006DB21421064A01FB05210860002402E0FC
:10409000380000F0F0F9200040B2BDE8F2830000E3
:1040A00050790020527F00202DE9FB4F05009346F8
:1040B0000C9E0E9F0F9C5FF0000900222A21032016
:1040C00000F0BCF88046B8F1000F02D15FF0FF307D
:1040D00063E0D8F8049009F20E0A200080B200F0E4
:1040E00059FBAAF806000620296A002906D0296A89
:1040F0000979002902D00FF2341B1CE01BE0401E9E
:10410000C0B210EB0A01C0B2029A825C0A72C0B25D
:1041100010EB0A01C0B20D9A825C8A74C0B2C0B2C0
:1041200010F80B1000F80910C0B210EB0901C0B272
:10413000019A825C8A71C0B20128E0D21AF10E00A5
:1041400031000422FEF712FF1AF118003900042290
:10415000FEF70CFF012000F01DFBAAF800004FF451
:10416000006000F017FBAAF8020040F2046000F0C3
:1041700011FBAAF8040040F6060000F00BFBA9F8BA
:104180000C0041462800AA6990478146404600F04D
:1041900072F95FF00008484640B2BDE8FE8F00B5F6
:1041A00085B00122039202910FF288010191011D55
:1041B000009110F127030FF2740210F12701FFF7AD
:1041C00073FF05B000BD38B504000D00606880893C
:1041D00000F0E0FA80B2B0F5006F04D040F60601BE
:1041E000884215D01BE021002800FFF764FD7FF016
:1041F0000D01200000F0F6F8002804D0200000F0A7
:104200003AF9002403E02900200000F059FC0AE0FC
:10421000220015F127012800FFF762FD03E02000CE
:1042200000F029F90024002032BD0000FFFFFFFF4D
:10423000FFFF00000000000000000000F8B50E00C5
:1042400014000027C0B2002805D0022805D003D3EF
:10425000032814D014E0143714370E37E4B2002CBE
:104260005FD0022C7CD07BD3032C40F089800520CA
:1042700000F061FA0500002D04D1002050E0EDE7C8
:1042800000204DE02C7300202860BFB27819103058
:10429000C01C8008800068602E81B6B2BFB2F81CD6
:1042A00030F00300D0F5BE60864201DA300005E050
:1042B000F81C4FF6FC710840D0F5BE606881012003
:1042C000E8812F00B6B26889361A0AE04FF4BE6161
:1042D000418110F1100141600121C1814189761AAB
:1042E0000700012E17DB052000F025FA002804D175
:1042F000280000F0C0F8002012E004730021417390
:104300000021016038600681310089B2B1F5BE6FCD
:10431000DCD23100DCE70120E8810020687328004E
:10432000F2BD17F113004FF6FC710840B6B2F11C54
:1043300031F00301081880B200F035FE0500002DB1
:1043400001D10020ECE7BFB278191030C01C800802
:10435000800068602E816E81002028602C73DAE76F
:10436000042000F0E8F90500002D01D10020D7E776
:10437000002068602E816E81002028602C73CAE7BF
:104380000020CDE738B504000D002089ADB285428C
:1043900027D2ADB22089281A05E061896D1A2189DA
:1043A0004118218124686189ADB2A942F5D3207BEF
:1043B00000280BD16089ADB2854207D06068001B30
:1043C000291889B2200000F078FD04006581608919
:1043D00020812068002802D0206800F04CF80020DE
:1043E000206031BD10B409B2002901D0002801D1EC
:1043F00000203AE009B2002908D509B24C424289AE
:10440000A4B2A24201D201202FE000E00C00027B06
:10441000436892B2002A02D092B2032A0CD109B2A8
:104420004A42446812194260426810F11004A242E4
:1044300014D24360012018E092B2022A02D092B254
:10444000012A16D109B2002911D54289A4B2A2428B
:104450000DD309B24A424368D218426042898A1891
:104460004281028989180181002010BC7047012017
:10447000FBE70120F9E738B5002801D1002026E04C
:10448000002503E000F001FD6D1C200000281CD079
:10449000C189491EC18189B2002914D10468017BF8
:1044A00089B2032904D10100052000F056F9EBE799
:1044B00089B2012902D089B20229E3D10100042086
:1044C00000F04BF9E0E70020E0E72800C0B232BD81
:1044D000002101E0491C00680028FBD10800C0B29F
:1044E0007047002802D0C189491CC181704700284B
:1044F00001D0002900D10DE004E002890B899A184F
:10450000028100680268002AF7D102890B899A1893
:1045100002810160704710B50C002100FFF7E7FF32
:104520002000FFF7DEFF10BD2DE9F04104000D0073
:1045300000260027002C05D0002D03D020892989D2
:10454000884202D27FF0090044E06089B6B2801B45
:104550006989BFB2C91B884203DB6889B0EB0708D1
:1045600002E06089B0EB06081FFA88F84246BFB245
:1045700068683918B6B26068301800F074FA18EB41
:10458000060618EB07076089B6B2864201D10026FD
:1045900024686889BFB2874201D300272D68002DA7
:1045A00009D068892989884205D12868002802D065
:1045B0007FF008000EE0002C09D060892189884234
:1045C00005D12068002802D07FF0080002E0002D0D
:1045D000BBD10020BDE8F0812DE9F84380460C00F6
:1045E00017000025B8F1000F01D100203EE0002C9B
:1045F00001D100203AE00026B8F1000F01D0002CD4
:1046000001D1002032E01DE0B8F80A00B0EB030948
:10461000BFB21FFA89F94F4500D2B9461FFA89F98E
:104620004A469BB2D8F804001918B6B2301900F007
:104630001AFA19EB050519EB0606B7EB0907002373
:10464000D8F80080BFB2002F0ED0B8F1000F0BD009
:104650009BB2002BD8D0B8F80A009BB28342D3D3C8
:10466000B8F80A001B1AEBE7280080B2BDE8F28315
:104670002DE9F04104000D0017005FF00008002C48
:1046800001D1002026E0002D01D1002022E0002CE5
:1046900005D0002D03D0208992B2904202D27FF043
:1046A000090017E012E03E006089B6B2B04200D2C5
:1046B0006689B6B232001FFA88F818EB0501606807
:1046C00000F0D1F9BF1B16EB08082468BFB2002F19
:1046D000E9D10020BDE8F081002100E0491C89B249
:1046E0000629FBD3234880088000002118E089B206
:1046F000214B53F82130036089B21F4B43F821004E
:1047000089B20FF2780333F811301818521C89B2AD
:104710000FF2740333F8113092B29A42E7D3491C76
:1047200089B2062906D289B2134A002342F8213001
:104730000022ECE77047C0B2062801D300200BE04E
:10474000C0B20D4951F82010002904D0C0B20A4A65
:104750000B6842F8203008007047002908D0C0B22A
:10476000054A52F820200A60C0B2034A42F82010DD
:104770007047000033000020C47E00201C00200091
:1047800020000800100000060400050005001E00BF
:104790000200060080B2010A51EA002080B2704790
:1047A00080B580B2FFF7F6FF02BD10F47F41090229
:1047B00051EA0061020A12F47F42114351EA10608B
:1047C000704780B5FFF7F1FF02BD000010B402682A
:1047D000D343002B01D0002A01D101201CE091F825
:1047E0002D309B0701D4002016E04B689A4201D17E
:1047F000002011E000688B6818404B688C682340EB
:10480000984208D1886832EA00008968C943884222
:1048100001D1012000E0002010BC70470000000022
:1048200010B504000120C0B200280ED0206A007A22
:10483000012803D3200000F043F809E0200000F035
:104840002CF8206A6421017202E0200000F038F8A0
:1048500010BD38B505000C0095F82B0095F82C100C
:1048600050EA01204A490818FFF79FFFFFF7A9FF08
:10487000296A497A08184AF6FE1161F31F40444933
:10488000884201D210F57E404249884201D3B0F5FA
:104890007E40FFF78AFF206031BD00B585B0012161
:1048A0000391016A02913C490191016A009110F162
:1048B00027033A4A10F12701FFF7F6FB05B000BDC8
:1048C00070B50400256A0026200000F063FC002873
:1048D00002D0200000F053FC002060600020A060A7
:1048E0000020E060002D0FD10A2000F05CFB0500E5
:1048F000002D02D15FF0FF301FE00A2200212800C6
:1049000000F04DFC25620CE0002028710020E880BA
:104910000020687104220021280000F040FC0020E3
:10492000287229002000FFF794FF687A401C687203
:10493000200000F003F8300040B270BD10B4016AEE
:1049400001220A7100224A71026A002A02D0026A18
:10495000527A00E0002290F82C3090F82A4024048B
:1049600054EA036390F8294053EA042390F82B009B
:10497000184310180A22B0FBF2F302FB1300C880A0
:10498000487A0B2802D34FF41670C88010BC7047C9
:104990000001FEA900FFFEA9344200002C420000E5
:1049A00030B585B004000D00206A002859D0206A77
:1049B0000079002855D094F827008DF8000094F86D
:1049C00028008DF8010094F829008DF8020094F871
:1049D0002A008DF8030094F82B008DF8040094F859
:1049E0002C008DF80500042215F10E0102A800F03C
:1049F0003AF8042215F1180103A800F034F8206AEF
:104A00000079012807D0206A0079022819D1206A8C
:104A10004079002815D10298216A096888420CD093
:104A20000398216A096888421BD1062215F1080102
:104A300000A800F0BFFB002813D02000FFF740FFC4
:104A40000FE00298216A096888420AD1062215F10E
:104A5000080100A800F0AEFB002802D02000FFF7FC
:104A6000DFFE05B030BD10B504002000FEF77EFA71
:104A7000200010BD38B50400BF48056800E02D686F
:104A8000002D0ED0280000F085FB0028F7D020680C
:104A9000A96808406968AA6811408842EFD12800D7
:104AA0000DE0B6480068002805D0B448006800F062
:104AB00071FB002801D1002001E0B048006832BD40
:104AC0002DE9F04104000E0065682888FFF768FEB4
:104AD00080B2000BC0B2042804D02000FFF7CBFC4A
:104AE0000020B3E02888FFF75BFEC0F30327BFB2C6
:104AF000BF006888FFF754FE01006089BFB2B8426A
:104B000003D3208989B2884204D22000FFF7B3FC86
:104B100000209BE089B22000FFF734FC5FF0010821
:104B20003700380000F036FB002811D0381D00286F
:104B30000ED0786800280BD028697968884206D0A2
:104B4000390015F11000FFF741FE002800D00DE0FC
:104B5000B8F1000F04D05FF000088748076800E054
:104B60003F68B74200D13F68002FDAD1310015F11C
:104B70000C00FFF72BFE00280CD15FF07040FFF710
:104B800020FEE96810EA01085FF06040FFF719FEB7
:104B9000804504D12000FFF76EFC002056E0002F76
:104BA00004D12000FFF767FC00204FE0EF8843F6B8
:104BB000FF70FFF7EFFD074208D0200000F06FFC08
:104BC0000400002C01D1002040E065686C480660BC
:104BD0006C4805603100200000F0F0FD00282ED167
:104BE0002889FFF7DDFDC0B2C0B2012806D0112828
:104BF00009D13100200000F025FE20E03100200026
:104C000001F010F81BE0310015F11000FFF7DEFD98
:104C1000002811D15FF07040FFF7D3FD296910EA39
:104C200001065FF06040FFF7CCFD864204D065606E
:104C30000221200001F0A7F82000FFF71CFC5048DB
:104C4000002101604F48002101600020BDE8F08193
:104C50002DE9F84F05000E0017009B460B9CDDF870
:104C60003080002F6DD05FF0140914212800FFF769
:104C7000B9FB002802D07FF001007BE0D5F804A04A
:104C8000BAF80800FFF78CFDC0B25FFA8BFB50EA60
:104C90000B2080B2FFF77EFDAAF80800BAF80800E2
:104CA000FFF77EFDE4B280B2000A54EA002080B231
:104CB000FFF770FDAAF80800002F01D1002000E0E6
:104CC0003868CAF810001FFA89F9042099FBF0F03F
:104CD0009DF8281051EA002050F4804080B2FFF780
:104CE00059FDAAF800002889FFF754FDAAF8020030
:104CF0000020AAF8060024480088FFF74BFDAAF818
:104D0000040021480088401C1F490880002E02D062
:104D1000306800280AD118F10400002801D10020D1
:104D200001E0D8F80400CAF80C0006E0002E01D11A
:104D3000002000E03068CAF80C000020AAF80A0041
:104D400003E0D5F804A01AF11007B8F824000028F1
:104D50000AD0B8F824002989884205D23A00414691
:104D6000280000F06FFC05E03A0029004046D8F822
:104D700014309847BDE8F28F087F00200C7F002098
:104D8000E87E0020EC7E0020287F00202DE9FE43F5
:104D900006000F00904699460A9D0B9C4046FFF77F
:104DA00069FE002802D17FF003000BE00290E4B21C
:104DB0000194EDB200954B46DBB24246390030001B
:104DC000FFF746FFBDE8FE830188B14A12688918E3
:104DD000884216D00A79002A13D1AE4A126891424D
:104DE0000FD0AD4A12688A4201D1AB4A10600A88DE
:104DF00002800988A64A12688918A54A1268821A90
:104E00004A804188A24A12688918814212D00A79E0
:104E1000002A0FD1A04A1268824201D19E4A116035
:104E200002880A8000889A4A12688018984A126894
:104E3000891A418070479948800880009449086029
:104E4000934800684FF48051018000214180002187
:104E500001718F48006810F580508E4908608D48B8
:104E60000068012101718B4800684FF48051018076
:104E7000884800684FF480514180894801210170C1
:104E80008548834909680160704780B5002813D0C0
:104E90007F490968884203D37E490968884200D364
:104EA0000AE00838002101717B490968884201D273
:104EB00079490860FFF788FF01BD70B4C91C4FF63F
:104EC000FC72114089B20C2900D20C2141F201027E
:104ED00089B2914201D3002063E06D4A126890428A
:104EE00003D36C4A1268904200D35AE0B0F1080232
:104EF000674B1B68D31A14889BB2E41A083CA4B20F
:104F000089B28C4201D200204BE089B2A4B2A14206
:104F100047D015885E4E3668AD192E79002E1FD108
:104F20002C88C91808315C4E3668AE4205D189B26A
:104F3000574D2D684D19584E356089B2544D2D6826
:104F40004D1900262E712C806B8011802A88B2F5B5
:104F5000805F26D02A884E4B1B68D218518020E0F3
:104F6000A4B289B211F11405AC421AD3C9180831A0
:104F700089B2474C24680D19474C2468A54201D2D8
:104F8000454C256000242C7114882C806B80118086
:104F90002A88B2F5805F04D02A883D4B1B68D2185E
:104FA000518070BC704710B480B2002801D100203D
:104FB0006BE0C01C4FF6FC71084080B20C2800D298
:104FC0000C2041F2010180B2884201D300205CE054
:104FD000314909682E4A1268891A03E089B22C4ABD
:104FE0001268895A89B280B2D0F5805291424BDA68
:104FF00089B2274A12688A181379002BEED11388D8
:1050000089B25B1A083B80B28342E7D3138889B226
:105010005B1A083B80B210F11404A34217D3401866
:10502000083080B21A4B1B68C31800241C71148806
:105030001C8059801080012111711988B1F5805FA1
:1050400007D01988124B1B68C918488001E001205D
:10505000107111480068824213D107E00E480068C1
:1050600000880B49096840180B4908600A48006825
:105070000079002805D00848006806490968884278
:10508000ECD112F1080000E0002010BC70470000D5
:10509000F87E0020FC7E0020007F00207F62002040
:1050A000597F0020F8B50400069E079D0898002748
:1050B00067600027A7600027E760002784F82D704D
:1050C00000272762E661214E367884F830601F4E53
:1050D0003678761C1D4F3E702061200000F00DF8E0
:1050E0002000A847002801D0002005E018480068EB
:1050F0002060174804602000F2BD70B50400150060
:105100001E00200000F009F82900200000F013F82C
:105110003100200000F008F870BD002901D1002105
:1051200000E0096841607047002901D1002100E0DA
:105130000968C1607047002901D1002100E00968B9
:105140008160704703490860704700005A7F002063
:10515000087F00200C7F002080B590F82D10C90733
:105160000CD490F82D1051F0010180F82D1090F81A
:105170002D10890602D5011DFFF711F801BD90F829
:105180002D10C90705D590F82D1011F0FE0180F8FB
:105190002D10704790F82D0010F00100704710B5E9
:1051A000040010000A000100200000F02FFE200083
:1051B00010BD00000300002013F0030F09D0521EA1
:1051C00022BF13F8010B11F801CBB0EB0C00F3D0A8
:1051D0007047121F22BF53F8040B51F804CB6045EF
:1051E000F7D0121D0AD200BA9CFA8CFCB0EB0C006E
:1051F00038BF6FF0000088BF01207047521E22BFE9
:1052000013F8010B11F801CBB0EB0C00F6D0521CD7
:1052100008BF1046704700002DE9F04104000D0062
:105220000026002D606840688188002913D16768D6
:1052300000686060142214F108017868FFF713FC1D
:105240000121380000F0A6FD3800FFF741F986196A
:105250003800FFF710F9676809E07868B846076812
:105260004046FFF735F986194046FFF704F9002F4D
:10527000F3D12900200000F073F8DFF8380500882A
:10528000801BDFF8301508803000BDE8F081F8B5EC
:1052900004000D000026002000210027DFF8102563
:1052A00012680AE0C37F92F81FC0634500D3100064
:1052B0001368002B00D011001268002A18D053691F
:1052C000D4F80CC0634509D19369D4F810C0634584
:1052D00004D19389B4F804C0634501D0012300E0F0
:1052E0000023002BE4D07F1C0028DBD11000DFE777
:1052F000002802D0FFF790FF8619AE4201DA022F94
:10530000C9DA3000F2BD70B504000D000220FFF7CD
:1053100012FA0600002E0DD129002000FFF7B7FF7A
:10532000A84203DB0220FFF706FA0600002E01D197
:10533000002014E0202200213000FFF730FF03207E
:10534000F077DFF86C0400683060DFF86404066012
:105350001422210016F10800FFF785FB300070BD14
:1053600080B5DFF84C241268824204D1DFF8401483
:1053700002680A6001E002680A6001000220FFF78B
:10538000ECF901BD2DE9F84305000C0000260127CA
:10539000D4F80490B9F80200FFF702FA8046B9F891
:1053A0000000FFF7FDF91FFA88F8C0F3032080B270
:1053B000B8EB8008B9F80600FFF7F2F9C004C00C9A
:1053C00080B2C100606800220260818018EB010198
:1053D000C1806A6808E0002E04D0F2888B889A4267
:1053E00000D000270A680E00002A25D05168838863
:1053F000B1F804C063452AD20260002E1BD0838816
:10540000B6F806C0634503D38988C388994210D291
:105410002000FFF75DF8DFF89C130988C0B2081A76
:10542000DFF8901308802000FFF725F80020BDE882
:10543000F283346000E06C60002A12D1002E0FD09D
:105440003460F188828891420BD0002709E082887D
:105450008B889A42DCD08288CB889A42BBD2D7E72D
:105460006C60A97FC90718D5002F14D069684968F6
:105470008988002901D000270DE00600026801E0BC
:1054800006000268002A05D05068F188828891429F
:10549000F6D00027002F3800C9E70020C7E72DE924
:1054A000F0470400002566683088FFF779F9C0F3FB
:1054B000032080B28000142805D02000FEF7DBFF17
:1054C0000020BDE8F087F088FFF76AF9C004C00C3F
:1054D00080B25FEAC0087088FFF762F90700308881
:1054E000FFF75EF9BFB2C0F3032080B2B7EB8009CB
:1054F0002000FEF7EDFF8246AE4800885FFA8AFA88
:105500001AEB00000B2810DB5FFA8AFA51463000D4
:10551000FFF7BDFE002807D0A64800885FFA8AFA88
:105520001AEB00000B2800DBC7E7A148076801E081
:105530003D003F68002F10D07869F168884209D19A
:10554000B8693169884205D1B889B188884201D1EA
:10555000012000E000200028EAD0002F09D15FFAE6
:105560008AFA51463000FFF7CEFE0700002F10D117
:10557000A3E7F088FFF714F9C0040AD1F889FFF710
:105580000FF9C00405D01422310017F10800FFF70D
:105590006AFA884800885FFA8AFA1AEB000085499F
:1055A0000880F088FFF7FCF8800406D4B87F50F03C
:1055B0000100B87719EB0800B88321003800FFF725
:1055C000E1FE00283CD0B88B1430B883786840687E
:1055D000D0F8008078684668142217F1080130007E
:1055E000FFF741FAB88BFFF7D5F870800020F08004
:1055F000002070811421300000F060FC70817C6814
:105600000CE0D8F804607FF013014046FEF7EAFE94
:1056100041462000FEF76BFFD6F80080B8F1000F7E
:10562000EFD129003800FFF79BFE2000FEF750FF66
:1056300060490988C0B2081A5E490880200040E726
:1056400000203EE72DE9F74F82B00398808CADF83B
:1056500000001425022200210220FEF7EFFD0400C5
:10566000002C02D15FF0FF309EE0BDF800006081A9
:10567000208151488008800060606668142202988A
:1056800041683000FFF7EFF9F088FFF789F88146AD
:105690005FEAC947FF0C19F40050ADF80400029806
:1056A0000089B0F1140ABDF800001438082190FBFD
:1056B000F1F0ADF8020011E021004046FEF72BFFAB
:1056C000049A41460398039B5B6998474046FEF75E
:1056D000D2FEBAEB0B0ABDF80200C7191FFA8AFA0C
:1056E000BAF1000F5CD0BDF8000014381FFA8AFA36
:1056F000504502DB5FF0010801E05FF000085FFA4F
:1057000088F8BDF80400F904C90C51EA00091FFA31
:1057100088F8B8F1000F01D159F400591FFA88F840
:10572000B8F1000F01D0D34604E0BDF8020080B20A
:105730005FEAC00B2B009BB25A4692B216F11401DD
:105740000298FEF749FF4519484680B2FFF722F854
:10575000F0801BF1140080B2FFF71CF8708000206D
:1057600070811421300000F0A9FB70811FFA88F8C5
:10577000B8F1000F05D01AF1140189B22000FEF72C
:1057800001FE002200210220FEF758FD8046B8F1FC
:10579000000F91D12000FEF76EFE5FF0FF3003E0B6
:1057A0002000FEF768FE002005B0BDE8F08F000085
:1057B000F07E00202A7F0020937200202DE9F8431C
:1057C0000400002566683089FEF7EAFFC7B25FF083
:1057D00000081B48D0F8009027E099F8100000B2AC
:1057E0003FB2B8421ED1D9F8140000281AD016F1E1
:1057F0000C0322004946D9F81800D9F814C0E04734
:1058000000280FD000240125B8F1000F0AD0D9F8E4
:105810000C00C8F80C000A480068C9F80C000848D9
:10582000C0F80090C846D9F80C90EDB2002D02D116
:10583000B9F1000FD1D12800C0B2BDE8F283000059
:10584000107F00202DE9F84304000E0065682888C9
:10585000FEF7A6FF2189C0F3032080B28000083044
:1058600081420EDB2888FEF79BFFC0F3032080B245
:10587000800000B2414209B22000FEF7B3FD0028CB
:1058800003D02000FEF7F7FDBBE0D4F80490310010
:1058900015F11000FEF79AFF0700B9F80000FEF7B7
:1058A0007FFF8046B9F80200FEF77AFF002200234E
:1058B0000021DFF84CC3DCF8009002E04A46D9F83A
:1058C0000C90B9F1000F45D00023B9F812C080B296
:1058D00084451CD1FFB2002F07D1B9F1000F0DD0C4
:1058E000D9F800C0BCF1000F08D0D9F800C0D5F835
:1058F00010E0F44502D0FFB2002F08D001230029A8
:1059000005D199F810C05FEA4C7C00D44946DBB25F
:10591000002BD3D0B9F814301FFA88F84345CDD105
:1059200019F10403002B09D0D9F80430002B05D05D
:10593000D9F80430D5F80CC06345BFD1002A09D08E
:10594000D9F80C00D060AE480068C9F80C00AC482B
:10595000C0F80090B9F1000F00D18946B9F1000FED
:1059600003D170682969884248D17FF0070120007F
:10597000FEF738FD002803D02000FEF77CFD40E054
:10598000B9F1000F15D0D9F8180000280DD01FFA72
:1059900088F8CDF8008015F10C0322004946D9F8AB
:1059A0001C00D9F81840A0472BE02000FEF763FD4B
:1059B00027E0FFB2002F1DD15FF07040FEF701FF1E
:1059C000296910EA01065FF06040FEF7FAFE8642A0
:1059D00010D02888FEF7E4FEC0F3032080B28000D8
:1059E00010F1080109B22000FEF7FCFC03212000A1
:1059F00000F0C9F92000FEF73EFD02E02000FEF7AE
:105A00003AFDBDE8F18380B5838A021D00F001F8FC
:105A100002BDF8B504000D0016001F003000FFF7AE
:105A200029F8002802D17FF0030007E000903B0036
:105A30009BB232002900200000F001F8F2BD2DE9F0
:105A4000F04784B004000D00160099460C9F608A50
:105A500000280DD1628A2100200000F066F88246FD
:105A60004FFA8AFABAF1000F02D0504640B259E01C
:105A700008212800FEF7B6FC002810D000220821DB
:105A80000120FEF7DBFB8046B8F1000F02D15FF08A
:105A9000FF3047E029004046FEF73DFD00E0A84604
:105AA000D8F804A0608AFEF775FEAAF80000484600
:105AB00080B2FEF76FFEAAF802000020AAF80600E6
:105AC000002C02D02068002802D117F104090EE052
:105AD00020687968884209D0A84504D04046FEF77E
