:020000040800F2
:1000000020F700209BDE0008C5DA0008C7DA0008E8
:10001000CFDA0008D7DA0008DFDA000800000000B5
:10002000000000000000000000000000E7DA000807
:10003000E9DA000800000000EBDA0008EDDA000859
:10004000CBDE0008CFDE0008D3DE0008D7DE0008D4
:10005000DBDE0008DFDE0008E3DE0008E7DE000884
:10006000EBDE0008EFDE0008F3DE0008F7DE000834
:10007000FBDE0008FFDE000811DB000807DF0008D8
:100080000BDF00083FDB000813DF000817DF000864
:1000900037DD00081FDF000823DF000827DF000826
:1000A0002BDF00082FDF000833DF000837DF0008F0
:1000B000F5DA00083FDF000843DF000847DF0008EB
:1000C0004BDF00084FDF000853DF000857DF000850
:1000D0005BDF000821DC000897DB000867DF000811
:1000E0006BDF00086FDF000873DF0008000000000E
:1000F0000000000000000000000000000000000000
:10010000000000000000000077DF00087BDF00082F
:10011000ADDC000883DF000887DF00088BDF000804
:100120008FDF000893DF000897DF00089BDF0008DF
:100130006DDB0008A3DF0008A7DF0008ABDF0008C5
:10014000AFDF000863DD0008B7DF0008BBDF000891
:100150007CB504000D006068DFF8941B0860DFF8D0
:10016000900B0068008801F0A7F9C0F3032080B26B
:10017000616811EB8000DFF87C1B0860DFF8700B12
:100180000068008801F098F9C0F3032080B2800075
:1001900000B2414209B2200001F0BAFA002802D1AF
:1001A0002089142803D2200001F0FCFA2DE2290056
:1001B000DFF83C0B0068103001F04EFC00280FD136
:1001C0005FF0704001F089F905005FF0604001F0D8
:1001D00084F9DFF81C1B096809692940814203D1B1
:1001E000200001F0DFFA10E2DFF8080B00688089D8
:1001F00001F062F980B2000BC0B27FF0030101FB95
:1002000000F109B2200001F083FA002803D0200099
:1002100001F0C8FAF9E1DFF8DC0A0068008801F0B3
:100220004BF9DFF8D01A09680880DFF8C80A0068BF
:10023000408801F041F9DFF8BC1A09684880DFF80E
:10024000B40A0068406801F048F9DFF8A81A0968A4
:100250004860DFF8A41A0860DFF8980A0068806830
:1002600001F03BF9DFF88C1A09688860DFF88C1A16
:100270000860DFF8800A0068C08901F01DF9DFF826
:10028000741A0968C881DFF86C0A0068808901F077
:1002900013F910F03F00DFF8681A0870DFF8600A01
:1002A00000780321084201D0012000E000202189CC
:1002B0004018DFF8501A08800021DFF84C0A056862
:1002C00001E02900ED68002D30D0287C0028287C32
:1002D0000A28287C0128288CDFF8182A126812883E
:1002E0009042EED1288BDFF80C2A12685288904297
:1002F000E7D16868DFF8F8291268D2689042E0D147
:100300002868DFF8EC29126812699042D9D1E868B0
:10031000A842002908D0E868C860DFF8EC09006846
:10032000E860DFF8E4090560E868A842002D58D1CC
:10033000DFF8D809056800E0ED68002D24D0287C9E
:100340000A28288CDFF8AC19096809888842F3D19B
:10035000288BDFF8A019096849888842ECD16868C1
:10036000DFF88C190968C9688842E5D12868DFF888
:100370008019096809698842DED1280000F0E9F98E
:10038000200001F00FFA40E10021DFF88409006845
:1003900001E00100C068002823D0002809D00268CD
:1003A000002A06D00268DFF848391B681B699A42A8
:1003B000EFD1028BDFF83C391B685B889A42E8D1A9
:1003C000002908D0C268CA60DFF844190968C16012
:1003D000DFF83C19086000F019F9200001F0E2F99B
:1003E00013E1002D00F0E680DFF82809002101600C
:1003F000DFF8200921898181DFF8180961688160AF
:10040000DFF810094460DFF80C09DFF8E818096824
:100410000161DFF8040900210160DFF80009002113
:100420000170E86F002818D0D5F88400002808D0A3
:100430000023EA6F29006869D5F88460B047060098
:1004400006E00026E86F002802D0E86F01F0AAF964
:1004500076B2002E2BD10020E867DFF8C4080560D3
:10046000280000F09DF90600DFF8B40800210160C3
:100470007FF0040076B2864200F08D80DFF89C08A1
:100480000078000717D5D5F89000002805D07FF038
:1004900005016869D5F8902090472900DFF86808C1
:1004A00001F0EEFC2900022001F0A7FD73E020001E
:1004B00001F078F9A9E0DFF864080078C00609D5F2
:1004C0002900DFF8440801F0DBFC2900022001F0DC
:1004D00094FD60E00026B5F86C0001280DD3D5F836
:1004E0008000002808D0B5F86C2029006869D5F88C
:1004F00080309847060000E00026DFF81C080068FE
:1005000000282FD0DFF8F8070078000709D5DFF8BA
:1005100008080068407B50F00100DFF8FC1709680C
:100520004873D5F8840000280AD00023DFF8E807D4
:10053000026829006869D5F88440A04706000AE0EF
:100540000026DFF8D4070068002804D0DFF8C807C9
:10055000006801F027F976B2002E03D0DFF8B80763
:100560000068E867DFF8B407007880060DD5D5F895
:100570008400002808D00023002229006869D5F8EB
:100580008440A047060000E0002676B2002E02D18B
:10059000280001F0ECFFDFF87C074068002834D029
:1005A000DFF87007406801F0FDF8DFF86807002108
:1005B00041602AE0DFF83C070068808900F07CFF9A
:1005C00040071FD4DFF82C07006800880190DFF88F
:1005D0002407006840880090DFF81407006810F1D5
:1005E0000C03DFF80C07006810F11002DFF80807B1
:1005F0000068DFF8101709880918DFF8000700689D
:1006000002F050F9200001F0CDF873BD30B583B091
:100610000400DFF8EC060078C00622D5DFF8D40627
:10062000006800880190DFF8CC06006840880090E0
:10063000DFF8BC06006810F10C03DFF8B4060068B0
:1006400010F11002DFF8B0060068DFF8B81609886C
:100650000918DFF8A8060068401C02F023F9002002
:100660003EBDDFF89C0600788007F8D5607C01F07D
:100670008FFB0500002D02D15FF0FF30F0E7DFF8BF
:10068000700600681030002801D1002003E0DFF878
:100690006006006800692860208B2883DFF8500618
:1006A00000680C30002801D1002003E0DFF840068C
:1006B0000068C0686860DFF83C060068008828842D
:1006C00003202874DFF830060068401C6862686AFE
:1006D000E862DFF820060068C089A5F85C00B5F87C
:1006E0005C00A5F85400DFF810060068401E28667C
:1006F00060696861E069E861208940F29911084009
:100700002881DFF804060068E860DFF8FC05056072
:10071000280000F061FE291D288F01F013FC2887B6
:1007200001200190002000901223002200212800C7
:1007300001F0D6FC040064B2002C06D00021280091
:1007400001F044FA200040B28AE7280001F00FFFD0
:1007500086E710B50400DFF8A0050068DFF8A415EF
:1007600009880818616A401A012807DBDFF8880544
:100770000068DFF89015098808186062DFF88405C2
:100780000088012808D394F8220050F0020084F871
:100790002200200001F0EBFE200001F0E8FE10BD79
:1007A00030B583B0040000210020DFF85425127812
:1007B000520733D5207C022807D1DFF840050068B6
:1007C000A26D904212D1012110E0DFF82C050068E3
:1007D000626A801A002809D4DFF81C050068626A82
:1007E000801A228D801A012800DA0121C9B200295D
:1007F00012D0207C0028DFF82405007850F0080093
:10080000DFF81815087094F8220010F0FE0084F844
:1008100022007FF005006AE2002068E2DFF8E004D1
:100820000078800710D5207C02280DD0207C03287A
:100830000AD094F8220050F0020084F82200200030
:1008400001F095FE002052E2DFF83C0C00682063C6
:10085000002084F89D00200000F0BEFD207C0228CE
:1008600014D0C0F04382042800F01B81C0F0A780A0
:10087000062800F09681C0F02781082800F0DB816F
:10088000C0F00F81092800F01D822FE2DFF8FC0B79
:10089000007810F0120012286BD1A06F0069406838
:1008A00000F01BFEDFF854140968401C814260D13F
:1008B000B4F86E00401CA4F86E00DFF83C04006839
:1008C000401C6062606AE062DFF830040068E06447
:1008D000DFF820040068C089A4F85C00DFF8180481
:1008E0000068401E206604202074211D208F01F026
:1008F00029FB2087208F0A214843A4F85400B4F82C
:100900005200012803D1208F80B2400000E0208FE8
:10091000A4F85200B4F870000128B4F87000401E2A
:10092000A4F87000A06F0168A167A16F002903D12E
:100930005FF0FF31E18604E00021E186002184F8C8
:100940004A1001F0C4F9D4F88800002806D000222B
:1009500021006069D4F88830984700E0002094F8BE
:10096000220050F0020084F82200200001F0FFFD78
:1009700024E0DFF8180B0078C0061FD5DFF87403F9
:10098000006800880190DFF86C03006840880090E0
:10099000DFF85C03006810F10C03DFF85403006813
:1009A00010F11002DFF850030068DFF858130988CF
:1009B0000918DFF84803006801F074FF96E1DFF8DA
:1009C000CC0A0078C0065DD5CC480068E16C401ABE
:1009D000401E00283CD4C9480068A16D401A012877
:1009E00036DA04202074E0690028E069002805D088
:1009F000002221006069E369984700E0002040B2CE
:100A0000002806D00121200001F0E0F87FF004006A
:100A10006DE1B4F85250200000F084F9ADB2012D20
:100A200003D1208F80B2400000E0208FA4F8520054
:100A3000BA480078800633D594F8220050F00200BE
:100A400084F82200200001F092FD0720207427E0A6
:100A5000A848006800880190A64800684088009077
:100A6000A348006810F10C03A148006810F11002BF
:100A7000A1480068A34909880918A048006801F046
:100A800011FF0DE0DFF8040A0078800708D59A48C6
:100A90000068616A491E884202D1200001F065FFAA
:100AA00024E1200000F03EF99C48007880060AD539
:100AB00094F8220050F0020084F82200200001F097
:100AC00056FD0720207411E1200000F02BF9934817
:100AD0000078800658D5DFF8B4090078C00647D5FD
:100AE00086480068A16D884242D194F8220050F0F7
:100AF000020084F82200200001F039FD200001F0FE
:100B0000A2F981480068A04205D17F480068C0680A
:100B10007D49086022E0DFF878097B4909680160B7
:100B200006E0DFF86C090068C068DFF86419086047
:100B3000DFF85C090068002810D0DFF8540900686D
:100B4000C0680028EDD0DFF848090068C068A042FE
:100B5000E7D1DFF83C090068E168C1600020E0608F
:100B60000A20207469480068E0606848046017E063
:100B700094F8220050F0020084F82200200001F0D6
:100B8000F6FC082020740BE0DFF800090078C006AE
:100B900006D55A480068A16D884201D1062020740C
:100BA000A4E0200000F0BEF85C480078800641D543
:100BB00094F8220050F0020084F82200200001F096
:100BC000D6FC200001F03FF94F480068A04205D153
:100BD0004D480068C0684C49086022E0DFF8B00862
:100BE00049490968016006E0DFF8A4080068C068A8
:100BF000DFF89C180860DFF898080068002810D01B
:100C0000DFF88C080068C0680028EDD0DFF88008A5
:100C10000068C068A042E7D1DFF874080068E168A6
:100C2000C1600020E0600A20207438480068E0605D
:100C3000364804605AE0200000F074F8DFF84C08F1
:100C40000078C0063DD52D480068A16D884238D196
:100C5000200001F0F8F82C480068A04205D12A488D
:100C60000068C0682849086022E0DFF824082649A7
:100C70000968016006E0DFF818080068C068DFF85E
:100C800010180860DFF808080068002810D0DFF8A6
:100C900000080068C0680028EDD0DFF8F40700689D
:100CA000C068A042E7D1DFF8E8070068E168C160EA
:100CB0000020E0600A20207414480068E0601348B7
:100CC000046013E0200000F02DF8DFF8C007007882
:100CD000C0060AD509480068A16D884205D10F48B1
:100CE000007850F010000D490870FFE700203EBD6D
:100CF000B8EE0020B4EE0020BCEE0020C0EE0020D4
:100D000001EF0020E8EE0020A8EE0020ACEE00206D
:100D1000A4EE0020DCED0020C4EE002002EF002055
:100D2000C8EE0020F8B504000025DFF86007007861
:100D3000C00640F1DE81B4F85C00616E0818216ED7
:100D4000DFF850271268891A00291AD4216EDFF8BB
:100D500044271268914206D1616EDFF87826126846
:100D6000891A00290DD4616EDFF868261268914255
:100D700020D1B4F85C10DFF820271268D2899142A4
:100D800018D2DFF814170968C989A4F85C10DFF8D5
:100D9000041709682166DFF83C1609686166B4F833
:100DA0005C10012906D394F89C10012902D300217C
:100DB00084F89C10E16CDFF81C26126891425ED129
:100DC0000021A4F86C10616EB4F85C2051188142C7
:100DD00040F0338194F85000401C84F8500094F89F
:100DE00050000328C0F02981A06F002800F0258161
:100DF00094F82200400731D4200001F0B6FDB4F889
:100E00005C00B4F85210884207D2B4F85C000221AA
:100E100090FBF1F0A4F8540006E0B4F8520002216F
:100E200090FBF1F0A4F85400B4F85400218FB0EB1B
:100E3000410F04DA208F80B24000A4F85400B4F8C7
:100E40005400218F032202FB0100A4F8520094F801
:100E5000220050F0040084F82200EEE0B4F85200C2
:100E6000B4F85210228F511889B2884280F0E58080
:100E7000B4F85200218F0818A4F85200DDE0DFF822
:100E800054050068E16C401A401E002800F1B28051
:100E9000DFF840050068A16D401A012880F2AA80A1
:100EA00094F82200400709D594F8220010F0FB00C6
:100EB00084F82200B4F85400A4F85200002084F80A
:100EC0004A00B4F94400B4F9461011EBE000A4F86C
:100ED0004800DFF800050068E16C401AA4F86C00D7
:100EE000B4F86E00B4F86C100818A4F86E00002076
:100EF00084F85000DFF8DC040068E064207C0428FB
:100F000046D3B4F85200B4F8541088420FD2B4F863
:100F10005200B4F85210228F511889B2884237D249
:100F2000B4F85200218F0818A4F8520030E0B4F849
:100F30005200218F228F5143B4F8522091FBF2F1DD
:100F40000818B4F8521080B2814221D2A4F852009D
:100F50001EE0A66FA06F0068A067706800F05DFCDF
:100F6000B4F8701080B28142B4F87070706800F00C
:100F700054FC381AA4F87000300000F0A8FEB4F851
:100F80007000002804D0A06F002801D1606F0028F5
:100F9000A06F002821D0A06F0069406800F09DFA82
:100FA0000600A06F0069808900F086FAC00709D4A6
:100FB000A06F0069808900F07FFAC0F3400010F054
:100FC000010000E00120A16F898940188019DFF835
:100FD00004140968401A0128BBDBA06F002803D164
:100FE0005FF0FF30E08601E00020E086002084F81A
:100FF000340022E00020A4F86C001EE0666F606FF1
:1010000000686067706800F008FCB4F8701080B287
:101010008142B4F87070706800F0FFFB381AA4F8D1
:101020007000300000F053FEB4F87000002804D0C7
:10103000A06F002801D1606F0028606F002827D0C2
:10104000606F0069406800F048FA0600606F006950
:10105000808900F031FAC00709D4606F0069808987
:1010600000F02AFAC0F3400010F0010000E0012077
:10107000DFF860130968891B626F92898018081A6B
:10108000002805D4D3480068A16D401A0128B5DBBB
:10109000E06B00282DD0206CCE490968401A00284A
:1010A00027D5DFF8E4030068E16B401A00B2B4F919
:1010B0004410B0EBE100B4F844104118A4F8441017
:1010C00000B2002801D500B2404200B2B4F9461087
:1010D000B0EBA100B4F846104018A4F84600B4F9EB
:1010E0004400B4F9461011EBE000A4F848000020D9
:1010F000E063DFF8A80300880128C0F04F81606A30
:10110000DFF890130968401A401E002856D4606A20
:10111000DFF880130968401ADFF880130988401A45
:10112000401C01284ADA606ADFF868130968401A2F
:10113000DFF86C134E68DFF868134968002947F63A
:10114000FF718842DFF858134968498981421BDAE8
:10115000DFF84C13496809898142DFF84413496874
:101160000989091A05E07289801A31810022728189
:10117000366872898242F6DB414209B2300000F0E3
:10118000C7FA002807D006E0414209B2C4484068C7
:1011900000F0BEFA0028C24871688160C0488089AA
:1011A000616ABC4A1268891A401ABD498881606A1E
:1011B000B8490860BA49096948600EE0B548006856
:1011C000616A401A002808D594F8220050F0020005
:1011D00084F82200200001F0CAF9AE480068616A74
:1011E000401A002800F1D080AA480068616A401ABD
:1011F000218D401A401C012880F2C680606AA549F2
:101200000968884240F0B6800125A54800698089B8
:1012100000F052F9C00709D4A1480069808900F0A4
:101220004BF9C0F3400010F0010000E001209C49A0
:101230008989401899490880208D984909888842F1
:1012400052D297480069808900F036F9C00716D558
:1012500093480069808900F02FF9060090480069E2
:10126000808900F029F94FF6C071314010F03E003E
:10127000084380B200F01AF98949096988818848D1
:10128000218D818186480069808900F015F98007E9
:1012900004D583488089401E81498881804881899E
:1012A0007F48406800F0F3F97D480069808900F0CC
:1012B00003F9C00709D47A480069808900F0FCF876
:1012C000C0F3400010F0010000E00120744989895A
:1012D0004018724908806F480068704909880818EA
:1012E000616A228D511888426A4800686B490988F2
:1012F00008186062208D694909888842208D6749F5
:101300000988401A2085200000F0B8FC6448406835
:101310000089012806D36248406862490860604835
:10132000002141605E480069808900F0C5F8C0076F
:1013300005D55D48007850F020005B49087094F8AE
:101340002200C0070FD594F8220010F0FE0084F8A8
:10135000220094F8220050F0020084F822002000BD
:1013600001F005F905E094F8220050F0010084F83E
:1013700022002BE094F8220050F0020084F82200B2
:10138000200001F0F4F821E094F8220050F002006F
:1013900084F82200200001F0EAF817E03D480068D8
:1013A000616A401A002808D43A480068616A401A05
:1013B000218D401A401C012808DB94F8220050F0CF
:1013C000020084F82200200001F0D1F82800C0B209
:1013D000F2BD0000C0EE002038B504002E480068C1
:1013E00000F214052C480068808900F065F880B28E
:1013F000000BC0B2062845D327480068808900F05A
:101400005BF880B2000B401F8000002100E0491C07
:1014100089B280B2814235D289B24A5DD2B2002A05
:1014200003D0022A02D0F2D321E02BE089B24A197C
:101430005278042A04D180B289B20A1D904200DA9F
:1014400020E089B24A19927889B24B19DB7853EAC5
:10145000022240F2B55392B29A4202D292B2002ACC
:1014600002D140F2B452FFE72287091DD0E789B2CA
:101470004A195278002A05D00A0092B252195278BD
:101480005118C5E731BD00009CEE002001EF00209F
:10149000B0EE0020BCEE0020B4EE0020E8EE00200C
:1014A000DCED0020C4EE002002EF002080B2010A33
:1014B00051EA002080B2704780B580B2FFF7F6FF96
:1014C00002BD10F47F41090251EA0061020A12F4E0
:1014D0007F42114351EA1060704780B5FFF7F1FF7A
:1014E00002BDF8B50E0014000027C0B2002805D0D8
:1014F000022805D003D3032817D017E01437143778
:101500000E37E4B2002C00F08A80022C00F0AD808F
:10151000C0F0AB80032C40F0B880082000F055FDEF
:101520000500002D04D1002078E0EAE7002075E0F6
:101530002C7300202860BFB278191030C01C8008BE
:101540008000686068680421B0FBF1F202FB1102C0
:10155000002A2E81B6B240F2DC50BFB2F91C31F045
:101560000301401A864201DA300006E040F2DC5006
:10157000F91C4FF6FC721140401A688105F2EC50DC
:1015800069896A688918884240F2DC50BFB2F91C48
:1015900031F00301401A01280120E8812F00B6B282
:1015A0006889361A17E040F2DC51418110F11001D0
:1015B000416041680422B1FBF2F303FB1213002BDC
:1015C00005F2EC516A896B68D21891420121C18100
:1015D0004189761A0700012E1BDB082000F0F5FC7C
:1015E000002804D1280000F0DDF8002016E0047384
:1015F000002141730021016038604FF6FF718E4277
:101600000681310040F2DC5289B29142CBD23100E6
:10161000CBE70120E881002068732800F2BD17F1B4
:1016200013004FF6FC710840B6B2F11C31F0030113
:10163000081880B201F0F2FA0500002D01D1002057
:10164000ECE7BFB278191030C01C800880006860D9
:101650002E816E81002028602C7368680421B0FB05
:10166000F1F202FB1102002AD3E7072000F0ADFCE3
:101670000500002D01D10020D0E7002068602E81F8
:101680006E81002028602C73C3E70020C6E738B5C0
:1016900004000D00002C207B032807D0207B0128AC
:1016A00004D0207B002801D0207B02282089ADB205
:1016B00085422CD2ADB22089281A09E061896D1AC1
:1016C0004FF6FF7188422189411821812468002C3E
:1016D0006189ADB2A942F1D3207B00280CD1608989
:1016E000ADB2854208D06068001B291889B220007D
:1016F00001F013FA0400002C6581608920812068C4
:10170000002802D0206800F04DF80020206031BD94
:1017100010B4002809B2002901D0002801D100200E
:101720003AE009B2002908D509B24C424289A4B274
:10173000A24201D201202FE000E00C00027B4368AE
:1017400092B2002A02D092B2032A0CD109B24A42C4
:10175000446812194260426810F11004A24214D287
:101760004360012018E092B2022A02D092B2012A0C
:1017700016D109B2002911D54289A4B2A2420DD3D3
:1017800009B24A424368D218426042898A184281AB
:10179000028989180181002010BC70470120FBE7F5
:1017A0000120F9E738B5002802D10028002033E0F5
:1017B000017B002907D0017B012904D0017B02298C
:1017C00001D0017B0329002503E001F081F96D1CA4
:1017D000200000281ED0C1890129C189491EC1816C
:1017E00089B2002914D10468017B89B2032904D18C
:1017F0000100082000F001FCE9E789B2012902D0CC
:1018000089B20229E1D10100072000F0F6FBDEE7F2
:101810000020DEE72800C0B232BD002101E0491CF3
:1018200000680028FBD10800C0B27047002802D031
:10183000C189491CC1817047002801D0002900D10D
:1018400012E004E002890B899A180281006802689C
:10185000002AF7D1028943899A420268002A028944
:101860000B899A1802810160704710B50C002100A5
:10187000FFF7E2FF2000FFF7D9FF10BD2DE9F0418F
:1018800004000D0000260027002C05D0002D03D0F9
:1018900020892989884202D27FF009004BE0002C80
:1018A0006089B6B2801B6989BFB2C91B884203DB5D
:1018B0006889B0EB070802E06089B0EB06081FFA00
:1018C00088F84246BFB268683918B6B26068301806
:1018D00001F03EFA18EB060618EB07076089B6B26E
:1018E000B0426089B6B2864201D100262468688978
:1018F000BFB2B8426889BFB2874201D300272D68C2
:10190000002D09D068892989884205D128680028D6
:1019100002D07FF008000EE0002C09D060892189F8
:10192000884205D12068002802D07FF0080002E03C
:10193000002DB4D10020BDE8F0812DE9F8438046A8
:101940000C0017000025B8F1000F01D100203EE087
:10195000002C01D100203AE00026B8F1000F01D0A0
:10196000002C01D1002032E01DE0B8F80A00B0EBF5
:101970000309BFB21FFA89F94F4500D2B9461FFAD1
:1019800089F94A469BB2D8F804001918B6B2301942
:1019900001F0DEF919EB050519EB0606B7EB0907AF
:1019A0000023D8F80080BFB2002F0ED0B8F1000F8E
:1019B0000BD09BB2002BD8D0B8F80A009BB2834260
:1019C000D3D3B8F80A001B1AEBE7280080B2BDE8B1
:1019D000F2832DE9F84304000D001600B0465FF0D5
:1019E0000009002C01D1002034E0002D01D100209D
:1019F00030E0002C05D0002D03D02089B6B2B042D3
:101A000002D27FF0090025E014E0002C47466089EF
:101A1000BFB2B84200D26789BFB23A001FFA89F953
:101A200019EB0501606801F093F9B8EB070817EBB3
:101A3000090924681FFA88F8B8F1000FE5D11FFAE8
:101A400088F8B8F1000F04D11FFA89F9B6B2B14590
:101A5000FFD00020BDE8F28310B40268D343002B0E
:101A600001D0002A01D101201CE091F82A309B0707
:101A700001D4002016E04B689A4201D1002011E009
:101A800000688B6818404B688C682340984208D1E6
:101A9000886832EA00008968C943884201D1012080
:101AA00000E0002010BC70470000000038B50400C2
:101AB000207C00280AD0012842D002284CD00328DC
:101AC00056D004285FD0072868D072E00025DFF8E0
:101AD00050040068A04207D1DFF844040068C068E1
:101AE000DFF83C14086023E0DFF83804DFF8301436
:101AF0000968016006E0DFF82C040068C068DFF8C0
:101B000024140860DFF81C040068002810D0DFF8F7
:101B100014040068C0680028EDD0DFF808040068ED
:101B2000C068A042E7D1DFF8FC030068E168C1604B
:101B30000020E0602100022000F05FFA00243AE07B
:101B400000252100DFF8E00300F09AF921000320CE
:101B500000F053FA00242EE000252100DFF8CC032A
:101B600000F08EF92100022000F047FA002422E064
:101B70000121200000F0A7FA05006DB2002D01D16F
:101B80000520207417E00121200000F09CFA0500D8
:101B90006DB2002D01D1052020740CE00121200040
:101BA00000F091FA05006DB2002D01D109202074DA
:101BB00001E000250024002C05D06DB2002D02D1DB
:101BC000200000F0D4FC280040B232BD2DE9F04FD7
:101BD00085B004000D00207C0A2809D12100DFF81F
:101BE000500300F04DF92100022000F006FA42E017
:101BF000A66D676A002C01D1002000E020680290E9
:101C0000201D002801D1002000E060680390B4F896
:101C10001880B4F82090D4F890A0D4F814B0210023
:101C2000DFF8080300F02CF9A06F002802D0A06FA5
:101C300000F040F8606F002802D0606F00F03AF8C2
:101C40002100022000F0D9F95046002803D07FF08F
:101C500004015846D047002D0DD01FFA89F9CDF860
:101C600004901FFA88F8CDF8008003AB02AA39006F
:101C7000300000F017FE05B0BDE8F08F416A028D1C
:101C80005118C26A8A1A038FD21A002A04D4028D0C
:101C90004285C06A081A0CE0416AC26A891A0129A1
:101CA00002DB0021418503E0C16A426A891A41854D
:101CB0000020704738B5002404E0056800F007F8FC
:101CC000041928000028F8D12000C0B232BD38B570
:101CD00004000025002C0AD06068002803D060684A
:101CE000FFF760FD05002100042000F086F92800C0
:101CF000C0B232BD80B5002A04D01000FFF752FDFB
:101D0000002002BD5BB2002BFAD10800FFF7CEFE27
:101D1000F7E770B57F24002300228449096814E0A6
:101D20004D7CC0B2A8420FD34D7CE4B2AC420BD381
:101D3000804D2D680E6BAD1B9D4205D37D4A126808
:101D40000B6BD31A0A004C7CC9680029E8D1002A21
:101D500003D001211000FFF739FF70BD10B500223C
:101D60000020734909680BE0724B1B680C6B1B1B4E
:101D7000934204D36F4800680A6B821A0800C9684E
:101D80000029F1D1002802D00121FFF71FFF10BD6B
:101D900038B50500022000F018F90400002C0FD11E
:101DA000FFF7DCFF022000F010F90400002C07D13F
:101DB0002800C0B2FFF7ADFF022000F006F90400D2
:101DC000002C3ED0A0220021200000F0C8FF4020BF
:101DD000607441F21C10A4F86E000020A4F870009A
:101DE00040F66830208540F6683060850020A0729B
:101DF000FF20E0724FF4067020873C20A4F84800D2
:101E00000020A4F844003C20A4F846005FF0FF3016
:101E1000E0860120A4F8520000F078F86066A06522
:101E2000E064A066434800682063002084F8340022
:101E30004148C4F884004148C4F89400002084F864
:101E40009D00200032BD10B50400207C002816D073
:101E5000207C0A2813D0207C012810D0E06F0028B5
:101E600004D0E06FFFF79EFC0020E067606FFFF793
:101E700021FFA06FFFF71EFF00206067A06710BD65
:101E800010B50C000168A14203D10168C968016066
:101E90001AE024490068086004E022480068C0682D
:101EA000204908601F48006800280DD01D480068C0
:101EB000C0680028F1D01B480068C068A042ECD17F
:101EC00018480068E168C1600020E0602000FFF76A
:101ED000BAFF207C0A280FD0207C01280CD094F86F
:101EE0002200C00708D594F8220050F0020084F8C0
:101EF0002200200000F03BFB207C012803D0606F13
:101F00000028A06F00280020207410BD0C48006835
:101F10000849096808180A490860094800687047B4
:101F2000A0EE0020B0EE0020A4EE0020A8EE0020DD
:101F3000ACEE00209CEE0020F51C000800DD6D00DA
:101F40006C00002010B50400080000F023FF0028FA
:101F500009D0018D002906D0008D2838A4B280B2A6
:101F6000844200D30400200080B210BD002100E0B4
:101F7000491C89B20929FBD3294880088000002127
:101F800018E089B2274B53F82130036089B2254B02
:101F900043F8210089B20FF2900333F8113018187A
:101FA000521C89B20FF2940333F8113092B29A4264
:101FB000E7D3491C89B2092906D289B2194A0023FC
:101FC00042F821300022ECE77047C0B2092801D363
:101FD000002011E0C0B2134951F8201000290AD0A6
:101FE000C0B2104A0B6842F820300420B1FBF0F276
:101FF00002FB1012002A0800704700290ED00422AC
:10200000B1FBF2F303FB1213002BC0B2054A52F8E6
:1020100020200A60C0B2034A42F820107047000036
:102020007B000020BCEB00201C002000A000200052
:102030001400200008001000EC050000040001005E
:102040000A0001000C0005001E0005000A00000047
:10205000F8B5040016001F004D68208BFFF726FA24
:102060002880208CFFF722FA68806F60606AFFF793
:1020700028FAA860A889FFF71FFA4FF6C071084038
:1020800050F0100080B2FFF711FAA881608DFFF7C1
:102090000DFAE88100206882A889FFF70DFA042173
:1020A00096FBF1F1491D10F03F0050EA013080B27B
:1020B000FFF7FCF9A88100202882606A618D08186A
:1020C000E0622800F2BD00B583B000220192012237
:1020D00000920B00DBB20022002100F001F80EBDDF
:1020E0002DE9FE4F82B00600BDF80C0000280BD190
:1020F0009DF83C00002807D19DF8100003210842FC
:1021000002D17FF00900DCE0BDF80C00002805D109
:102110000298002802D07FF00900D2E0B6F86E00E5
:10212000BDF80C10884208D296F8220050F08000CA
:1021300086F822005FF0FF30C3E0BDF80C70029813
:1021400000909DF83C00C00701D5042000E000206D
:102150009DF83C10890701D50C2100E0002111EB0E
:102160000009B06E0190B6F870801FFA88F8B8F1D7
:10217000120F05D24FF6FD701FFA88F8804508D37C
:1021800096F8220050F0800086F822005FF0FF30C1
:1021900097E01FFA88F8B8F1000F05D0B06F00285B
:1021A00001D1706F002805E0B06F002802D1706F78
:1021B0000028FFD00025AB46AA4600244DE0DBF8FE
:1021C00004004068CBF81000308BFFF76FF9DBF8A4
:1021D00010100880308CFFF769F9DBF81010488088
:1021E0000198FFF76EF9DBF810104860DBF810007B
:1021F00000214182DBF810008089FFF75DF94FF67E
:10220000C07108409DF81010084380B2FFF74EF9E6
:10221000DBF8101088819DF83C008BF80E00DBF88D
:1022200010008089FFF748F95FFA89F9042199FBCA
:10223000F1F1491D10F03F0050EA013080B2FFF784
:1022400035F9DBF8101088813F1B0198A4B22018E3
:102250000190A4B2009820180090BAF1000F03D0AA
:10226000BFB2012FC0F0BD80308F5FFA89F9B0EBAB
:102270000900BFB2B84205DA308F5FFA89F9B0EBD6
:10228000090400E03C000420FFF79FFE8346BBF1F9
:10229000000F19D196F8220050F0800086F8220035
:1022A000BAF1000F02D05046FFF704FDB6F87000F7
:1022B000002804D0B06F002801D1706F00285FF0B3
:1022C000FF3005B0BDE8F08F0020CBF80000002003
:1022D000CBF80400BAF1000F01D1DA4602E0002D7C
:1022E000C5F800B05D469DF83800C00730D5002223
:1022F0005FFA89F919EB040189B20020FFF7F1F8C0
:10230000CBF804000028C5D0DBF804004089A4B253
:102310005FFA89F919EB04018842DBF80400FFF742
:102320007CFA10EB0808029800280BD0A4B2220017
:1023300000995FFA89F9DBF80400406819EB0000A6
:1023400000F006FDDBF804004068CBF8080031E03F
:1023500000225FFA89F9494689B20020FFF7C1F8E7
:10236000CBF80400002895D0DBF80400FFF755FAFD
:1023700010EB0808BFB2012F1CD30122210089B243
:102380000320FFF7AEF8002807D1DBF80400FFF7C1
:1023900009FA0020CBF804007CE718F10108009945
:1023A00041600099CBF808100100DBF80400FFF74A
:1023B00043FA00201FFA88F8B8F1130F05D24FF640
:1023C000FD701FFA88F8804500D363E7ABF80C4036
:1023D0001421DBF80400FFF79BF900283FF4EFAE6F
:1023E00058E7706F002801D1002505E0756F00E007
:1023F0002D6828680028FBD1002D69D028698089C4
:10240000FFF75AF8C00708D428698089FFF754F805
:10241000C0F3400010F0010000E00120A98940183D
:10242000002855D028698089FFF746F80321084223
:102430004ED19DF810000321084249D1308FA9895F
:10244000BAF80C205118884242DBA87B9AF80E108B
:1024500088423DD15FFA89F919F11400414209B26D
:10246000DAF80400FFF754F900287FF413AFDAF824
:102470000400408900280CD1DAF80400DAF80410CE
:102480000968CAF8041000210160B8F10108FFF7DB
:1024900089F9DAF80400002804D0DAF80400408949
:1024A0000128FFD2DAF804106868FFF7C5F9A88997
:1024B000BAF80C100818A881DAF800002860D34593
:1024C00001D1AB46AC8951460420FFF796FD06E0EA
:1024D000002D02D1C6F874A001E0C5F800A09DF857
:1024E00010000321084204D0BDF80C00401CADF8D8
:1024F0000C009DF81000C00705D596F8220050F09A
:10250000200086F82200B06EBDF80C100818B066E6
:10251000B6F86E00BDF80C10401AA6F86E00A6F8CA
:102520007080B6F87000002804D0B06F002801D188
:10253000706F0028BBF1000F17D0A4B2012C14D388
:10254000DBF81000002810D09DF8380080070CD46C
:10255000DBF810008089FEF7AFFF50F0080080B272
:10256000FEF7A4FFDBF8101088810020A9E62DE912
:10257000F04383B004005FF00008C7480068A04241
:1025800001D10020A4E0B4F85C00B4F852108842F5
:1025900002D2B4F85C5001E0B4F85250676FA66FF5
:1025A000002E04D000E0366830680028FBD194F893
:1025B000220080073FD5002F09D038694068FEF718
:1025C0008CFFE16C401AB9890818854233D2002289
:1025D0005FFA88F818F1140189B20120FEF781FF33
:1025E0000500002D02D17FF0010071E094F8220077
:1025F00010F0FC0084F82200A06DFEF762FF0300DB
:102600005FFA88F8424629002000FFF721FD060006
:1026100006200190A07A0090E37A221D2100280074
:1026200000F04EFD2800FFF7BDF8002050E0380014
:10263000FFF74DFB676F002F2BD038694068FEF71E
:102640004CFFE16C401AB9890818854221D33869DA
:102650008089FEF731FF4007A06F00280FD094F863
:10266000220040060BD4606F00280AD0606F00681B
:10267000002804D1606F8089218F884201D3012016
:1026800000E00020002825D194F82200A021084273
:1026900020D1002F15D094F89C00002811D1386962
:1026A0004068FEF71AFFE16C401AB9890818B4F8BF
:1026B0005C10814205D20020C4F89800012084F803
:1026C0009C0094F8220010F07F0084F82200002083
:1026D000BDE8FE8338686067207C022810D0386926
:1026E0008089FEF7E9FE50F0100080B2FEF7DEFEB2
:1026F0003969888194F8220010F0FC0084F82200E7
:102700002100380000F069F838694068FEF7E5FEFE
:10271000804638698089FEF7CFFEC00708D4386943
:102720008089FEF7C9FEC0F3400010F0010000E010
:102730000120B989401810EB0800A16D091A002981
:1027400000D5A06538698089FEF7B6FEC00708D4B9
:1027500038698089FEF7B0FEC0F3400010F0010038
:1027600000E00120B98940180128FFF660AF002081
:102770003860A06F002802D1A7673E005AE7386989
:102780004068FEF7AAFE804630694068FEF7A5FE65
:10279000B8EB000000281DD504F2780801E0D8F855
:1027A0000080D8F8000000280ED0D8F8000000699A
:1027B0004068FEF792FE814638694068FEF78DFE5C
:1027C000B9EB00000028EAD4D8F800003860C8F857
:1027D00000702FE7376036682CE77CB504000D00E9
:1027E000686AFEF76EFE21698860688DFEF75EFEFE
:1027F0002169C881686A698D0818E862206900F259
:102800001406A07BC00704D52448FEF75AFE3060AA
:10281000361D002D02D0286800280BD1281D00F09D
:10282000B9FA002837D0011D002901D1002000E0AD
:1028300040682860B5F936005FF0FF31884201D169
:102840000020E886E86B002807D115480068E86397
:1028500020694068FEF741FE286420696168496884
:10286000401A61684989091A626851816168098959
:10287000081A616808816068216941602069002147
:10288000018206200190A87A0090EB7A2A1D290087
:10289000606800F015FC73BDC8EE0020B4050402AA
:1028A0009CEE00202DE9F04F83B082468B46160047
:1028B0001F000C9C0D9D002214210120FEF711FE2B
:1028C0008046B8F1000F4ED0B8F80A001428D8F8A6
:1028D0000490200080B2FEF7E9FDA9F8000028006E
:1028E00080B2FEF7E3FDA9F802005046FEF7E9FDCD
:1028F000C9F804005846FEF7E4FDC9F80800B9F825
:102900000C00FEF7D9FD4FF6C071084050F01400DE
:1029100080B2FEF7CBFDA9F80C0040F66830FEF758
:10292000C5FDA9F80E000020A9F81200B9F80C00A6
:10293000FEF7C2FD10F03F0050F4A04080B2FEF759
:10294000B5FDA9F80C000020A9F8100006200190A0
:1029500000200090FF233A003100404600F0B0FB19
:102960004046FEF71FFFBDE8F78FF8B50400A06FE3
:10297000002823D0A56F2868A06704F2740600E041
:102980003668306800280CD0306800694068FEF76F
:10299000A4FD070028694068FEF79FFD381A00284B
:1029A000EED430682860356094F84A00401C84F802
:1029B0004A000020E0632000FFF7D9FDF1BD10B40C
:1029C00050F8041B81B102681218001D50F8043B36
:1029D000DC0744BFA9F10104E31852F8044B43F8A3
:1029E000044B091FF9D1EBE710BC7047DFF84C131B
:1029F00009688842DFF8481309688842017900298C
:102A0000018840F6014291420188DFF830231268C4
:102A10008918884218D00A79002A15D1DFF82023B6
:102A20001268914210D0DFF81C2312688A4201D14B
:102A3000C44A10600A8802800988C04A126889184E
:102A4000BE4A1268821A4A804188BC4A12688918B4
:102A5000814212D00A79002A0FD1BA4A1268824202
:102A600001D1B84A116002880A800088B34A12680E
:102A70008018B24A1268891A41807047B2488008AB
:102A80008000AE490860AD4800684FF440610180A5
:102A90000021418000210171A848006800F6004033
:102AA000A7490860A648006801210171A448006890
:102AB0004FF440610180A24800684FF440614180BA
:102AC000A248012101709F489C4909680160704734
:102AD00080B5002820D010F003010029974909682B
:102AE000884203D3964909688842FFD3934909680D
:102AF000884203D392490968884200D30CE0083821
:102B000001790029002101718E490968884201D2AA
:102B10008C490860FFF76AFF01BD70B4C91C4FF60D
:102B2000FC72114089B20C2900D20C2140F60142FE
:102B300089B2914201D300206EE0804A126890422F
:102B400003D37F4A12689042FFD37C4A12689042B6
:102B500003D37B4A1268904200D35DE0B0F10802D3
:102B6000764B1B68D31A14889BB2E41A083CA4B2B3
:102B700089B28C42A4B289B28C4201D200204BE0CF
:102B800089B2A4B2A14247D015886C4E3668AD19FF
:102B90002E79002E1FD12C88C9180831694E36684D
:102BA000AE4205D189B2654D2D684D19654E35602F
:102BB00089B2624D2D684D1900262E712C806B80D4
:102BC00011802A88B2F5406F26D02A885B4B1B689B
:102BD000D218518020E0A4B289B211F11405AC42A0
:102BE0001AD3C918083189B2544C24680D19554CB0
:102BF0002468A54201D2534C256000242C7114880E
:102C00002C806B8011802A88B2F5406F04D02A880E
:102C10004A4B1B68D218518070BC704730B480B2E8
:102C2000002801D1002086E0C01C4FF6FC7108404E
:102C300080B20C2800D20C2040F6014180B28842BC
:102C400001D3002077E03F4909683C4A1268891A9D
:102C500003E089B2394A1268895A89B280B2D0F544
:102C60004062914266DA89B2344A12688A1813794E
:102C7000002BEED1138889B25B1A083B80B28342E5
:102C8000E7D3138889B25B1A083B80B210F11404B1
:102C9000A34217D3431808339BB2284C24681C194D
:102CA000002525711588258061801380012111710F
:102CB0002188B1F5406F07D02188204C246809197C
:102CC0004B8001E0012111711E4909688A421DD122
:102CD00007E01C4909680988184B1B68C918194B7B
:102CE0001960184909680979002905D0154909684A
:102CF000134B1B689942ECD112490968104B1B68B1
:102D0000994203D00F490968097900290C490968DB
:102D100080B280180830814212F108000421B0FB13
:102D2000F1F303FB1103002B12F00300002812F152
:102D3000080000E0002030BC7047000074EE002066
:102D400078EE00207CEE0020677D0020FEEE002063
:102D500010B50400200000F0D1F9200010BD10B51E
:102D6000040010000A000100200000F0FFF920001C
:102D700010BD50F8041B61B150F8042BD30744BFB9
:102D8000A9F101039A18002342F8043B091FFAD164
:102D9000EFE7704738B50400C648056800E02D68C5
:102DA000002D0ED0280000F0B4FA0028F7D02068DB
:102DB000A96808406968AA6811408842EFD12800D4
:102DC0000DE0BD480068002805D0BB48006800F051
:102DD000A0FA002801D1002001E0B748006832BD08
:102DE0002DE9F04104000E0065682888FEF764FBB9
:102DF00080B2000BC0B2042804D02000FEF7D2FC41
:102E00000020BAE02888FEF757FBC0F30327BFB2C3
:102E1000BF006888FEF750FB01006089BFB2B8426E
:102E200003D3208989B2884204D22000FEF7BAFC7D
:102E30000020A2E089B22000FEF729FC5FF0010823
:102E40003700380000F065FA002811D0381D00283E
:102E50000ED0786800280BD028697968884206D09F
:102E6000390015F11000FEF7F7FD002800D00DE045
:102E7000B8F1000F04D05FF000088E48076800E04A
:102E80003F68B74200D13F68002FDAD1310015F119
:102E90000C00FEF7E1FD00280CD15FF07040FEF75A
:102EA0001CFBE96810EA01085FF06040FEF715FBC3
:102EB000804504D12000FEF775FC00205DE0002F66
:102EC00004D12000FEF76EFC002056E0EF8843F6A8
:102ED000FF70FEF7EBFA074208D0200000F07AFB03
:102EE0000400002C01D1002047E065686F480660AF
:102EF0006F4805603100200000F0FCFC002835D14F
:102F00002889FEF7D9FAC0B2C0B201280DD0062830
:102F100006D011280ED13100200000F02FFD25E051
:102F200031002000FDF714F920E03100200000F00E
:102F30001BFF1BE0310015F11000FEF78DFD00288E
:102F400011D15FF07040FEF7C8FA296910EA010656
:102F50005FF06040FEF7C1FA864204D0656002214E
:102F6000200000F0B8FF2000FEF71CFC4F480021B5
:102F700001604F48002101600020BDE8F0812DE98B
:102F8000F84F05000E0017009B460B9CDDF83080C3
:102F9000002F6FD05FF0140914212800FEF7B8FB52
:102FA000002802D07FF001007DE0D5F804A06889F8
:102FB0001428BAF80800FEF77FFAC0B25FFA8BFB5C
:102FC00050EA0B2080B2FEF771FAAAF80800BAF8AE
:102FD0000800FEF771FAE4B280B2000A54EA002059
:102FE00080B2FEF763FAAAF80800002F01D1002092
:102FF00000E03868CAF810001FFA89F9042099FB2C
:10300000F0F09DF8281051EA002050F4804080B282
:10301000FEF74CFAAAF800002889FEF747FAAAF84A
:1030200002000020AAF8060024480088FEF73EFAB5
:10303000AAF8040021480088401C20490880002E7E
:1030400002D0306800280AD118F10400002801D10C
:10305000002001E0D8F80400CAF80C0006E0002EB9
:1030600001D1002000E03068CAF80C000020AAF866
:103070000A0003E0D5F804A01AF11007B8F82800F8
:1030800000280AD0B8F828002989884205D23A00D9
:103090004146280000F071FB05E03A002900404657
:1030A000D8F814309847BDE8F28F000064EE002095
:1030B00068EE002084EE002088EE0020E2EE002082
:1030C0002DE9FE4306000F00904699460A9D0B9C91
:1030D0004046FFF75FFE002802D17FF003000BE0BF
:1030E0000290E4B20194EDB200954B46DBB2424649
:1030F00039003000FFF743FFBDE8FE834AB38B077A
:1031000007D0521E11F8013B00F8013B21D08B077C
:10311000F7D183071ED1103A07D330B4B1E8381085
:10312000103AA0E83810F9D230BC530724BFB1E8F8
:103130000810A0E8081044BF51F8043B40F8043BD5
:10314000D20724BF31F8022B20F8022B44BF0B78A2
:1031500003707047083A07D3B1E80810083A40F8FE
:10316000043B40F804CBF7D25307E4E762F30F22A5
:1031700062F31F42401810F0030308D0C91A1FD38E
:10318000DB0748BF00F8012D28BF20F8022D1300EF
:1031900030B414461546103928BF20E93C00FAD84F
:1031A000490728BF20E90C0048BF40F8042D8900DA
:1031B00028BF20F8022D48BF00F8012D30BC704711
:1031C000C91818BF00F8012DCB0728BF00F8012D42
:1031D00070470268531C036011707047F8B5040013
:1031E000069E079D0898002767600027A7600027B4
:1031F000E760002784F82A70E661374E367884F855
:103200002D60354E3678761C334F3E70206120009D
:1032100000F00DF82000A847002801D0002005E0AC
:103220002E48006820602D4804602000F2BD70B573
:10323000040015001E00200000F009F829002000FD
:1032400000F03FF83100200000F034F870BD70B598
:1032500004000D0028686168884224D02148006875
:1032600004E0C6680121FEF7B1FC3000002805D05B
:10327000016862689142F4D0C068F7E71A480068B4
:1032800002E029680160C06800280CD00028FAD04C
:1032900001680029F7D0016862689142F3D1002DDE
:1032A000EFD10021EEE7002D01D1002000E02868D9
:1032B000606070BD002901D1002100E00968C16093
:1032C0007047002901D1002100E009688160704742
:1032D0000349086070470000FFEE002084EE0020E4
:1032E00088EE0020A8EE0020A4EE002080B590F823
:1032F0002A10C9070CD490F82A1051F0010180F867
:103300002A1090F82A10890602D5011D01F0E8FA6A
:1033100001BD90F82A0010F0010070472DE9F0413E
:1033200004000D000026A542002D01D02868A0420F
:10333000606840688188002913D167680068606010
:10334000142214F108017868FFF702FD012138000A
:1033500000F0C8FD3800FEF760FA86193800FEF765
:1033600021FA676809E07868B84607684046FEF7C2
:1033700054FA86194046FEF715FA002FF3D12900BA
:10338000200000F077F8DFF864050088B042DFF82D
:103390005C050088801BDFF8541508803000BDE80C
:1033A000F081F8B504000D00002600200021002760
:1033B000DFF8342512680AE0C37F92F81FC0634526
:1033C00000D310001368002B00D011001268002AEF
:1033D00018D05369D4F80CC0634509D19369D4F867
:1033E00010C0634504D19389B4F804C0634501D08B
:1033F000012300E00023002BE4D07F1C0028DBD158
:103400001000DFE7002802D0FFF788FF8619AE42E0
:1034100001DA022FC9DA3000F2BD70B504000D00E8
:103420000520FEF7D2FD0600002E0DD12900200058
:10343000FFF7B7FFA84203DB0520FEF7C6FD060035
:10344000002E01D1002014E0202200213000FFF7DF
:1034500086FC0320F077DFF8900400683060DFF826
:10346000880406601422210016F10800FFF770FCA2
:10347000300070BD80B5DFF870241268824204D13C
:10348000DFF8641402680A6002E0002902680A603A
:1034900001000520FEF7B1FD01BD2DE9F84305004F
:1034A0000C0000260127D4F80490B9F80200FEF7BA
:1034B00003F88046B9F80000FDF7FEFF1FFA88F810
:1034C000C0F3032080B2B8EB8008B9F80600FDF71E
:1034D000F3FFC004C00C80B2C1006068002202602B
:1034E000818018EB0101C1806A6808E0002E04D0D9
:1034F000F2888B889A4200D000270A680E00002AC2
:1035000025D051688388B1F804C063452DD202608C
:10351000002E1BD08388B6F806C0634503D3898884
:10352000C388994210D22000FEF777F9DFF8BC1368
:103530000988C0B2081ADFF8B41308802000FEF72B
:1035400031F90020BDE8F283346000E06C60002AAD
:1035500017D1002E12D08188F28891423460F18810
:10356000828891420DD000270BE082888B889A4296
:10357000D9D08288CB889A42B8D2D4E7696800292A
:103580006C60A97FC90723D5002F1FD069684968DF
:103590008988002901D0002718E00600026801E0B0
:1035A00006000268002A05D05068F188828891429E
:1035B000F6D00027002F09D069680029696849689A
:1035C000814201680029C088A98B88423800B9E788
:1035D0000020B7E72DE9F047040000256668308831
:1035E000FDF76AFFC0F3032080B28000142805D0E5
:1035F0002000FEF7D7F80020BDE8F087F088FDF73F
:103600005BFFC004C00C80B25FEAC0087088FDF7A1
:1036100053FF07003088FDF74FFFBFB2C0F3032010
:1036200080B2B7EB80092000FEF7F7F88246AF487A
:1036300000885FFA8AFA1AEB00000B2810DB5FFAA9
:103640008AFA51463000FFF7ACFE002807D0A748A1
:1036500000885FFA8AFA1AEB00000B2800DBC7E744
:10366000A148076801E03D003F68002F10D078694D
:10367000F168884209D1B8693169884205D1B889B1
:10368000B188884201D1012000E000200028EAD062
:10369000002F09D15FFA8AFA51463000FFF7BDFECC
:1036A0000700002F10D1A3E7F088FDF705FFC00445
:1036B0000AD1F889FDF700FFC00405D014223100BB
:1036C00017F10800FFF744FB884800885FFA8AFA80
:1036D0001AEB000085490880F088FDF7EDFE8004B4
:1036E00006D4B87F50F00100B87719EB0800B88312
:1036F00021003800FFF7D1FE00283CD0B88B1430F1
:10370000B88378684068D0F80080786846681422EA
:1037100017F108013000FFF71BFBB88BFDF7C6FE61
:1037200070800020F080002070811421300001F0B2
:103730004AF970817C680CE0D8F804607FF01301CE
:103740004046FDF7E5FF41462000FEF775F8D6F844
:103750000080B8F1000FEFD129003800FFF78AFE92
:103760002000FEF75AF861490988C0B2081A5F497B
:103770000880200040E700203EE72DE9F74F82B0A7
:103780000398008DADF800001425022200210220CC
:10379000FDF7A7FE0400002C02D15FF0FF309EE091
:1037A000BDF8000060812081514880088000606081
:1037B00066681422029841683000FFF7C9FAF08861
:1037C000FDF77AFE81465FEAC947FF0C19F4005005
:1037D000ADF8040002980089B0F1140ABDF80000A9
:1037E0001438082190FBF1F0ADF8020011E021003F
:1037F0004046FEF73AF8049A41460398039B5B69FA
:1038000098474046FDF7CEFFBAEB0B0ABDF8020021
:10381000C7191FFA8AFABAF1000F5CD0BDF8000090
:1038200014381FFA8AFA504502DB5FF0010801E004
:103830005FF000085FFA88F8BDF80400F904C90CCD
:1038400051EA00091FFA88F8B8F1000F01D159F4C4
:1038500000591FFA88F8B8F1000F01D0D34604E0F0
:10386000BDF8020080B25FEAC00B2B009BB25A4643
:1038700092B216F114010298FEF75FF84519484616
:1038800080B2FDF713FEF0801BF1140080B2FDF74B
:103890000DFE7080002070811421300001F093F83B
:1038A00070811FFA88F8B8F1000F05D01AF11401E1
:1038B00089B22000FDF7EBFE002200210220FDF777
:1038C00010FE8046B8F1000F91D12000FDF76AFF8D
:1038D0005FF0FF3003E02000FDF764FF002005B03B
:1038E000BDE8F08F000000006CEE0020E4EE002048
:1038F0007FB600202DE9F843040000256668308972
:10390000FDF7DAFDC7B25FF000081B48D0F8009061
:1039100027E099F8100000B23FB2B8421ED1D9F8A2
:10392000140000281AD016F10C0322004946D9F8D9
:103930001800D9F814C0E04700280FD00024012552
:10394000B8F1000F0AD0D9F80C00C8F80C000A48EA
:103950000068C9F80C000848C0F80090C846D9F8BB
:103960000C90EDB2002D02D1B9F1000FD1D1280099
:10397000C0B2BDE8F28300008CEE00202DE9F843D0
:1039800004000E0065682888FDF796FD2189C0F3C4
:10399000032080B28000083081420EDB2888FDF7CA
:1039A0008BFDC0F3032080B2800000B2414209B217
:1039B0002000FDF7ADFE002803D02000FDF7F2FE49
:1039C000BDE0D4F80490310015F11000FEF744F882
:1039D0000700B9F80000FDF76FFD8046B9F8020056
:1039E000FDF76AFD002200230021DFF858C3DCF850
:1039F000009002E04A46D9F80C90B9F1000F45D08A
:103A00000023B9F812C080B284451CD1FFB2002F48
:103A100007D1B9F1000F0DD0D9F800C0BCF1000FEB
:103A200008D0D9F800C0D5F810E0F44502D0FFB2B4
:103A3000002F08D00123002905D199F810C05FEAB2
:103A40004C7C00D44946DBB2002BD3D0B9F81430FB
:103A50001FFA88F84345CDD119F10403002B09D092
:103A6000D9F80430002B05D0D9F80430D5F80CC0B3
:103A70006345BFD1002A09D0D9F80C00D060B14805
:103A80000068C9F80C00AF48C0F80090B9F1000F09
:103A900000D18946B9F1000F03D1706829698842C5
:103AA0004AD17FF007012000FDF732FE002803D045
:103AB0002000FDF777FE42E0B9F1000F15D0D9F8EC
:103AC000180000280DD01FFA88F8CDF8008015F1F5
:103AD0000C0322004946D9F81C00D9F81840A04729
:103AE0002DE02000FDF75EFE29E0FFB2002F1FD180
:103AF0005FF07040FDF7F1FC296910EA01065FF004
:103B00006040FDF7EAFC864212D02888FDF7D4FC1D
:103B1000C0F3032080B2800010F1080109B2200038
:103B2000FDF7F6FD6068A8420321200000F0D3F9FC
:103B30002000FDF737FE02E02000FDF733FEBDE870
:103B4000F18380B5838A021D00F001F802BDF8B54B
:103B500004000D0016001F003000FFF71BF90028BD
:103B600002D17FF0030007E000903B009BB23200DF
:103B70002900200000F001F8F2BD2DE9F04784B0E3
:103B800004000D00160099460C9F608A00280DD194
:103B9000628A2100200000F069F882464FFA8AFA12
:103BA000BAF1000F02D0504640B25CE00821280074
:103BB000FDF7AEFD002810D0002208210120FDF7FE
:103BC00090FC8046B8F1000F02D15FF0FF304AE070
:103BD00029004046FDF749FE00E0A846B8F80A0073
:103BE0000828D8F804A0608AFDF760FCAAF8000055
:103BF000484680B2FDF75AFCAAF802000020AAF855
:103C00000600002C02D02068002802D117F1040918
:103C10000EE020687968884209D0A84504D0404663
:103C2000FDF7C0FD5FF000087FF008001BE0A14633
:103C3000B8F80800FDF73AFCAAF804000297112032
:103C40000190A07A0090E37A320049464046FFF79F
:103C500096F98246A84504D04046FDF7A3FD5FF0E3
:103C60000008504640B204B0BDE8F08710B400240C
:103C7000344B1B6805E0984202D1E4B2002C0124C9
:103C8000DB68002BF7D1002901D1002100E0096891
:103C9000016092B2002A19D14FF4805229490B6871
:103CA00002E0521C27490B68002B0AD047F6FF712F
:103CB00092B28A4205D0598A92B29142F1D0DB6821
:103CC000F2E7002B02D07FF00A0009E04282E4B262
:103CD000002C04D11B490968C1601A490860002002
:103CE00010BC704770B504000D001600608A0028F3
:103CF00009D1628A21002000FFF7B8FF40B20028F6
:103D000001D040B21AE0002D01D1002000E0286867
:103D10006060A682207C50F004002074094800688E
:103D200000E0C068002803D08442FAD1002005E0FA
:103D300004480068E06003480460002070BD8161B1
:103D4000C2617047D0EE002010B50120FEF73DF9AA
:103D50000400002C06D0202200212000FEF7FFFFE7
:103D6000FF20E072200010BD2DE9FE4304000D008D
:103D700066683088FDF7A0FBC0F3032000B287001F
:103D80003FB2794209B22000FDF7C2FC002802D1FF
:103D90002089042803D22000FDF704FD42E060687A
:103DA0000078C0B2082840F092805FF001085FF010
:103DB0007040FDF792FB316910EA01095FF0604045
:103DC000FDF78BFB814501D15FF00008290016F15A
:103DD0001000FDF741FE002801D05FF00008B8F1A7
:103DE000000F03D12000FDF7DDFC1BE0208908282F
:103DF000D1D3200000F0EEFD002803D02000FDF715
:103E0000D1FC0FE022212000FDF782FC00284AD0DF
:103E1000390009B22000FDF77BFC002804D0200007
:103E2000FDF7C0FCBDE8F783002221890220FDF7E1
:103E300058FB8046B8F1000FF1D0B8F80A003FB245
:103E400017F10801884221004046FDF717FD0028C0
:103E5000E5D1D8F804603FB2794209B24046FDF797
:103E600057FC0028DBD12000FDF79CFC444660682D
:103E7000F1683269F26031610021017000214180F6
:103E80003089FDF719FB50F47F4080B2FDF70EFB3F
:103E9000308100207081390009B22000FDF738FC24
:103EA000002808D013E07FF021012000FDF730FC4E
:103EB0000028DCD0B3E7029501200190002000909B
:103EC000FF23002216F10C012000FFF758F8200014
:103ED000FDF768FCA6E780B50A00D2B2032100F026
:103EE00008F801BD80B50A00D2B20B2100F001F83C
:103EF00001BD2DE9F04383B00400884691460022BD
:103F000024210120FDF7EDFA0500002D26D0688957
:103F1000242866686F6887F8008087F80190002081
:103F2000B8800020F8801C22616868680830FEF7BD
:103F30000FFF002078806989380000F044FD788008
:103F40000120019000200090FF2316F10C020021B7
:103F50002800FFF7B5F82800FDF724FCBDE8F7833B
:103F600038B50400002C606800280AE025002468A9
:103F7000686800286868FDF715FC29000620FEF730
:103F80003CF8002CF2D131BD10B5002455E0E4B26C
:103F90001420DFF8541800FB0410C07B401CE4B26E
:103FA0001421DFF8442801FB0421C873E4B2142073
:103FB000DFF8341800FB0410807B022808D1E4B23B
:103FC0001420DFF8241800FB0410C07BF02811D265
:103FD000E4B21420DFF8101800FB0410807B0128E5
:103FE0002AD1E4B21420DFF8001800FB0410C07BD3
:103FF000022821D3E4B21420DFF8EC1700FB0410F0
:104000000068002810D0E4B21420DFF8DC1700FBB1
:1040100004100068FFF7A4FFE4B21420DFF8C8170B
:1040200000FB041000210160E4B21420DFF8B8178F
:1040300000FB041000218173641CE4B20A2CA6D397
:1040400010BD2DE9F04704000A200A220A230025AA
:10405000002600275FF00A0C5FF0000E002C20D035
:10406000DFF888572D785FF01408DFF87C9708FB9D
:104070000595AD7B022D14D12568DFF8708798F87F
:1040800000805FF01409DFF860A709FB08A8D8F8E2
:104090000480454505D1DFF8540790F9000040B28F
:1040A0000AE1002514E0EDB25FF01408DFF838975C
:1040B00008FB059898F80F80FFB2B84507D32A008F
:1040C000EDB21427DFF8208707FB0587FF7B6D1C07
:1040D000EDB20A2D80F08E805BB20A2B0DD1EDB2CD
:1040E0005FF01408DFF8009708FB059898F80E8039
:1040F000B8F1000F01D12B00E9E7EDB25FF0140831
:10410000DFF8E49608FB059898F80E80B8F1010FE7
:104110004DD1002C12D0D4F80080EDB25FF014091C
:10412000DFF8C4A609FB05A9D9F80490C84505D154
:10413000DFF8B8060570280040B2BDE0EDB25FF0D0
:104140001408DFF8A49608FB0598D8F80080B8F1A9
:10415000000F17D0EDB25FF01408DFF88C9608FB63
:10416000059898F80F805FFA8EFEF045AFD3AC4605
:10417000EDB25FF0140EDFF870860EFB058E9EF830
:104180000FE0A4E7EDB25FF01408DFF85C9608FBDF
:10419000059898F80F80F6B2B04598D32800EDB294
:1041A0001426DFF8448606FB0586F67B8FE7EDB222
:1041B0005FF01408DFF8309608FB059898F80E8039
:1041C000B8F1020F83D1002C3FF46DAFD4F800801A
:1041D000EDB25FF01409DFF810A609FB05A9D9F8C4
:1041E0000490C8457FF45FAFDFF800060570280033
:1041F00040B261E05BB20A2B17D111F00301012933
:1042000015D15BB20A2B15DA1D00EDB20A2DEDB205
:104210001420DFF8D41500FB051000218173002C59
:104220003DD0002C33D1002032E08907E9D55FF082
:10423000FF3041E052B20A2A09DA1500EDB214202B
:10424000DFF8A41500FB051000680028DDE740B288
:104250000A2801DA0500D8E74FFA8CFCBCF10A0FF6
:1042600012DA6546EDB21420DFF87C1500FB05106C
:104270000068FFF775FEEDB21420DFF86C1500FB47
:10428000051000210160C0E75FF0FF3014E02068F6
:10429000EDB21421DFF8502501FB05214860EDB295
:1042A0001420DFF8441500FB05100021C173DFF86E
:1042B0003C050570280040B2BDE8F087F8B5040061
:1042C0000D006E6894F820000628062009E0401EC4
:1042D000C0B2C0B2C15C8155C0B28119C0B2875CA6
:1042E0008F71C0B20128F2D24FF40060FDF7DEF802
:1042F000B08129002000A2699047F2BD2DE9F0416C
:1043000004000E0015001F0094F820000628002E5F
:1043100015D03068002812D021003000FDF79CFB3A
:1043200000280CD15FF07040FDF7D7F8316810EA33
:1043300001085FF06040FDF7D0F8804502D17FF0C2
:1043400009005BE03900C9B23000FFF77AFE0600D1
:1043500076B2002E02D5300040B24FE076B2142083
:10436000DFF8841400FB06100221817376B214205A
:10437000DFF8741400FB0610046106200BE0401EF9
:10438000C0B276B21421DFF8602401FB0621411887
:10439000C0B2425D0A72C0B20128F0D276B21420D7
:1043A000DFF8441400FB06100021C1731CE076B254
:1043B0001420DFF8341400FB0610016876B21420D4
:1043C000DFF8242400FB06200A6802604F680620FC
:1043D000FDF713FE2B0014F1210239002000FFF736
:1043E0006DFF3800FDF7DEF976B21420DFF8F81320
:1043F00000FB061000680028D9D10020BDE8F0813C
:1044000010B500280ED04968D1F81A2083681A40E8
:104410004368846823409A4204D100238A1D1A31DC
:10442000FFF76CFF10BD2DE9FC4104000D001600E4
:10443000002C00F0A18070892A2803D23000FDF7FB
:10444000B1F999E07768B7F80E800120FDF72EF8F2
:10445000804517D1B7F8128040F20460FDF726F8C6
:1044600080450FD1B7F810804FF40060FDF71EF8BB
:10447000804507D1B7F80C8040F60600FDF716F826
:10448000804503D03000FDF78DF975E0042217F167
:104490001C0100A8FEF75CFC042217F1260101A80C
:1044A000FEF756FC6068002802D15FF0000808E0C3
:1044B00001986168884202D15FF0010801E05FF075
:1044C00000085FFA88F8B8F1000F07D0012317F150
:1044D000160200A92000FFF711FF06E0002317F1E4
:1044E000160200A92000FFF709FFB88AFCF7DEFFDB
:1044F000012802D002283BD03BE05FFA88F8B8F1EF
:10450000000F34D00220FCF7D1FFB88217F126004B
:1045100017F11C010422FEF7F1FD0422211D17F101
:104520001C00FEF715FC94F820000628062016E073
:10453000401EC0B2C119C0B2C219927D81F82020BC
:10454000C0B2C119897DC0B2C155C0B2C119C0B2D3
:10455000425D8A75C0B2C119C0B2425D8A71C0B2F3
:104560000128E5D231002000A2699047FFE700E072
:10457000FFE73000FDF716F9BDE8F381F0B583B031
:1045800004000D0016000E212800FDF7C1F80028D8
:1045900002D07FF001000FE0002721003000FDF77E
:1045A0005BFA002809D00FF2C4373B0014F1210256
:1045B00029002000FFF782FEFEBD5FF07040FCF78F
:1045C0008CFF316810EA01075FF06040FCF785FF5F
:1045D00087421DD101208DF8000000208DF80100D8
:1045E0005E208DF802003068FCF777FF000C10F0B9
:1045F0007F008DF803003068FCF76FFF000A8DF82C
:1046000004003068FCF769FF8DF8050000AFCCE7C7
:104610003068A16808406168A2681140884204D0EF
:10462000E068002807D004F20C062A0031002000C0
:1046300000F004F8C0E77FF00300BDE72DE9F84380
:1046400007008846160007F221095FF0FF343900A1
:104650004046FDF701FA002814D15FF07040FCF7E6
:104660003CFFD8F8001010EA01055FF06040FCF74D
:1046700034FF854206D0B8F1000F03D0D8F800000F
:10468000002802D17FF00900ACE001214046FFF78D
:10469000D8FC05006DB2002D02D5280040B2A1E083
:1046A0006DB21420504900FB0510807B002806D114
:1046B0006DB214204C4900FB0510012181736DB2CD
:1046C0001420494900FB0510807B012806D06DB2FB
:1046D0001420454900FB0510807B02286DB2142090
:1046E000414900FB0510807B012801D0002E04D138
:1046F0004146380000F0F4F80400002E70D06DB28E
:104700001420394900FB0510807B02280DD16DB2C1
:104710001420354900FB051010F108034A4631000A
:104720003800FFF7CBFD04005AE06DB214202E498B
:1047300000FB0510807B012852D10020370000E0EB
:104740003F68002F09D079893A89914201D13968AF
:104750000029397B0129F3D00120002812D0002242
:1047600039890320FCF7BDFE0700002F0ED0310071
:104770003800FDF783F8002808D03800FDF712F85C
:10478000002703E037003800FDF750F8002F27D04E
:104790000620FDF71AFC00281FD0002101604760A9
:1047A0006DB21421104A01FB0521096800290CD0C3
:1047B0006DB214210C4A01FB0521096800E009686B
:1047C0000A68002AFBD1086005E06DB21421064A90
:1047D00001FB05210860002402E03800FCF7E2FF3D
:1047E000200040B2BDE8F28328E90020FAEE002064
:1047F0002DE9F74F05001E000C9FDDF83480DDF831
:1048000038900F9C5FF0000B00222A210320FCF758
:1048100068FE8246BAF1000F02D15FF0FF305DE022
:10482000BAF80A002A28DAF804B0200080B2FCF7AF
:104830003DFEABF8140095F82000062806201BE08A
:10484000401EC0B210EB0B01C0B2825D8A75C0B2CF
:1048500010EB0B01C0B210F8082081F82020C0B284
:10486000C0B20299415C00F80B10C0B210EB0B0112
:10487000C0B2019A825C8A71C0B20128E0D21BF1F9
:104880001C0039000422FEF739FC1BF126004946C2
:104890000422FEF733FC0120FCF708FEABF80E0003
:1048A0004FF40060FCF702FEABF8100040F2046029
:1048B000FCF7FCFDABF8120040F60600FCF7F6FD35
:1048C000ABF80C0051462800AA6990478346504631
:1048D000FCF768FF5FF0000A584640B2BDE8FE8F63
:1048E00000B585B00122039202910FF28801019177
:1048F000011D009110F121030FF2700210F121014E
:10490000FFF776FF05B000BD38B504000D00606804
:104910008089FCF7CBFDB0F5006F04D040F60601AE
:10492000884215D01BE021002800FFF769FD7FF0C9
:104930000D012000FCF7ECFE002804D02000FCF75D
:1049400031FF002403E029002000FEF749FA0AE0C5
:10495000220015F121012800FFF765FD03E020008A
:10496000FCF720FF0024002032BD0000FFFFFFFF06
:10497000FFFF0000000000000000000010B5002252
:1049800008E003781B02401C04782343401C9BB2C0
:104990009A18891E89B20229F3D289B2012903D358
:1049A000007803029BB29A1890B210EB1242100CDE
:1049B0000004002802D090B210EB1242100080B226
:1049C000FCF774FD10BD80B589B2FFF7D7FFC04377
:1049D00080B202BD70B505000026002417E0698989
:1049E0006868FFF7CBFF8619B0B210EB16466889EE
:1049F000022190FBF1F202FB1102002A06D0D4F151
:104A00000104F0B2C6F3072151EA00262D68002DFB
:104A1000E5D1E4B2002C04D0F0B2C6F3072151EA8C
:104A20000026F04380B270BDDFF8A806016899B98E
:104A30004FF4803181604FF4805141604FF0FF317D
:104A4000C160016104214161DFF88C160422C1F8C4
:104A5000B821DFF8881601600120704701F10803D2
:104A600013F0070308BF002307D001F1080303F088
:104A70000703C3F1080303F007035918D21A816131
:104A8000C26042F001034B60511828224A60DFF8EF
:104A900044160969C16170472DE9F04101F108042C
:104AA00014F0070408BF002407D001F1080404F043
:104AB0000704C4F1080404F00704611802F10804B3
:104AC00014F0070408BF002407D002F1080404F022
:104AD0000704C4F1080404F00704A5185A186C1A56
:104AE000E41A43F003034B60AA4201D301F012B968
:104AF0006E68F307FAD5102CF8D383699D4207D16D
:104B0000C368E318C360826143F00100506042E172
:104B100043699D4208D18368E3188360426143F092
:104B2000010050609B5036E106F00303012B40F07A
:104B3000A080F308DB004FEAD30EBEF1200F26D28F
:104B4000AF68D5F80CC06545D0D0BD42CED0674522
:104B500006D10668012707FA0EF7BE43066086E015
:104B60004FEA4E0600EB860606F1280E774503D085
:104B7000D0F810E07745B9D32836B44502D006699D
:104B8000B445B3D3C7F80CC0CCF808706FE0AF6978
:104B9000EE68AE420AD0D5F808C0D0F810E0F4456F
:104BA000A4D3CCF80C60C6F808C024E005F2140CBD
:104BB000DCF8006046B905F1100CDCF80060D6B1F5
:104BC00002E0F446DCF8006006F2140EDEF8008025
:104BD000B8F1000FF5D106F1100EDEF80080B8F143
:104BE000000FEED1D0F810E0F445FFF47FAF4FF0A6
:104BF000000ECCF800E0002F39D0D5F81CC000EB37
:104C00008C0C0CF2301CDCF800E075450BD1CCF8B4
:104C100000609EB946680127D5F81CC007FA0CF75A
:104C2000BE43466023E0D0F810C06745FFF45EAF96
:104C3000D7F810C0AC450CBF3E617E61BEB1D0F864
:104C400010C06645FFF452AFB7612F6937B1D0F895
:104C500010C06745FFF44AAF3761BE616F6937B175
:104C6000D0F810C06745FFF441AF7761BE615D19B0
:104C70001C196B685B085B006B6044F001035360B8
:104C8000A450E308202B1BD25D0000EB850505F244
:104C900028052E46102CFFF429AF012707FA03F34D
:104CA00004681C4204BF2343036004D0AE6800695B
:104CB0008642FFF41BAFAA60F2609660D5606AE09E
:104CC000230A08BF002523D0B3F5803F28BF1F2546
:104CD0001ED2A3F580752D0C05F00805AB40A3F599
:104CE0008056360C06F00406B340A3F580473F0C0F
:104CF00007F00207C5F10E05AD1BED1BBB4005EB30
:104D0000D333DD1D24FA05F505F0010505EB430558
:104D100000EB850303F23013D5610026566116615E
:104D2000012707FA05F64768374207D146EA070424
:104D300044601A609361D26092602CE01B681F2D62
:104D40000EBF00256D08C5F1190504FA05F500E050
:104D500033465E68F608F600A6420ED0EE0F03EB6F
:104D6000860606F110076D003E68002EF0D100693E
:104D70008742FFF4BBAE3A60DCE79C68006983427F
:104D8000FFF4B4AE8442FFF4B1AEE2609A60946086
:104D9000D3600020906101F10800BDE8F0812DE9A9
:104DA000FE4F0446A56904F2BC102E4601688E42EF
:104DB00003D3426851188E4202D380680028F5D18F
:104DC0004168006801EB0008A8F12F0000F108011C
:104DD00011F0070108BF002107D000F1080101F020
:104DE0000701C1F1080101F0070101EB000A05F11B
:104DF0001000824538BFAA460AF1080B0AF11809CB
:104E000000270198A0F1280200992046FFF726FE0E
:104E10001BF0070022D11B20CAF8040004F2BC10CA
:104E2000B0E80E10ABE80E10ABF1100B0098C4F810
:104E3000BC010198C4F8C0010298C4F8C801C4F8C4
:104E4000C4B100E0814609F104000721C9F804104B
:104E50007F1C011D4145F5D3022F01DA00F05ABF36
:104E6000AA4500F09380AAEB060041194A6852084F
:104E700052004A6040F0010169604051C108202998
:104E800019D24A0004EB820202F2280213461028CB
:104E9000E4D3012606FA01F02168014206D1084355
:104EA00020609560DD60AB60EA606FE09368206928
:104EB0008342F6D2D2E7010A08BF002223D0B1F51F
:104EC000803F28BF1F221ED2A1F58072120C02F073
:104ED00008029140A1F580531B0C03F00403994094
:104EE000A1F58046360C06F00206C2F10E02D21A77
:104EF000921BB14002EBD131CA1D20FA02F202F03E
:104F0000010202EB410204EB820101F23011EA617D
:104F100000236B612B61012606FA02F366681E42CC
:104F200007D143EA060060600D60A961ED60AD60E5
:104F30002CE009681F2A0EBF00225208C2F1190294
:104F400000FA02F200E019464B68DB08DB008342FE
:104F50000ED0D30F01EB830303F110065200336828
:104F6000002BF0D120698642FFF478AF3560DCE792
:104F7000886822699142FFF471AF9042FFF46EAFEE
:104F8000C5608D60A860E9600020A86100F054BB96
:104F9000F8B504460D464F4E306808B9FFF744FD9A
:104FA00000F0BEFE010000F091800A6811F1010FCF
:104FB00000F08C80D4F8B0011018C4F8B001D4F817
:104FC000B401D4F8B031984238BF1846C4F8B401DF
:104FD000A06968BB206908B1814200D22161C4F890
:104FE000BC11C4F8C0210020C4F8C8013068606258
:104FF0004FF0FF3020622046202300F22806F660A2
:10500000B66008305B1EF8D13348844204D1283A98
:105010002046FFF723FD48E054F8040CC00814EBC9
:10502000C00008385118091AA1F128020146EFE71B
:1050300004F2BC10034600E09B68BBB15E681F68C9
:10504000F619B142F8D11E7B36070FD43E46A76948
:10505000B7420BD35F68D4F818C0BE19B44505D267
:10506000D0195860E0681218A169D1E72369994204
:1050700038BF21610346501800E09B688BB11E6861
:105080008642FAD1187B00070BD4304619605E685F
:1050900092195A602B460246204601B0BDE8F04006
:1050A000FAE400232046FFF77AFEE06885420DD23D
:1050B000401BE060A1696A18A26140F001005060E5
:1050C00045F00300486001F10800F2BD0020F2BD88
:1050D00000000000B0ED00201CE300206859883C6F
:1050E0002DE9F04100224B420C0A08BF002423D0D6
:1050F000B4F5803F28BF1F241ED2A4F580752D0C67
:1051000005F00805AC40A4F58056360C06F0040600
:10511000B440A4F580473F0C07F00207C5F10E0527
:10512000AD1BED1BBC4005EBD434E51D21FA05F5A4
:1051300005F0010505EB440400EB8405D5F830517A
:1051400055B31F2C0EBF00266608C6F1190601FADA
:1051500006F6002700E07600D5F804C04FEADC0C24
:105160004FEACC0CACEB010C9C4502D22A466346BC
:105170007BB1D5F814C04FEAD67E05EB8E052D69BC
:10518000BCF1000F02D0AC4518BF6746002DE2D13C
:105190003D4675BB002A3DD1012505FA04F46400A3
:1051A00065422C4345682C4000F0518165422C40FB
:1051B000651E2C0B04F0100425FA04F6750905F0A1
:1051C0000805EE40B70807F00407FE404FEA560C0A
:1051D0000CF0020C26FA0CF6C6F3400E2C193C1902
:1051E0006444744426FA0EF52C1900EB8404D4F8B8
:1051F00030517DB100E025466C68E408E400641A93
:105200009C423CBF23462A462C69002CF3D16D6991
:10521000002DF1D1002A00F01A818468641AA3429B
:1052200080F0158116460469A64206D38C18CD1865
:105230005768FF08FF00AF4201D000F06BBDA642E7
:10524000FBD29769D66896420AD0D2F808C0D0F847
:1052500010E0F445F1D3CCF80C60C6F808C023E0A8
:1052600002F2140CDCF8006046B902F1100CDCF814
:105270000060CEB102E0F446DCF8006006F2140EE5
:10528000DEF80080B8F1000FF5D106F1100EDEF85F
:105290000080B8F1000FEED1D0F810E0F445CCD387
:1052A0004FF0000ECCF800E0002F35D0D2F81CC033
:1052B00000EB8C0C0CF2301CDCF800E072450BD1DA
:1052C000CCF8006096B946680127D2F81CC007FAEE
:1052D0000CF7BE4346601FE0D0F810C06745ACD362
:1052E000D7F810C094450CBF3E617E61A6B1D0F8DE
:1052F00010C06645A1D3B76117692FB1D0F810C0AF
:1053000067459AD33761BE6157692FB1D0F810C095
:10531000674592D37761BE61102B08D245F0030038
:105320005060A818416841F0010141608CE041F0F3
:105330000301516043F0010161601B51D90820292C
:1053400018D24B0000EB830303F228031E4601250D
:1053500005FA01F105680D4204BF2943016004D03C
:105360009E6800698642FFF468AF9C60F460A660A6
:10537000E36069E0190A08BF002623D0B1F5803F39
:1053800028BF1F261ED2A1F580752D0C05F008053B
:10539000A940A1F58056360C06F00406B140A1F5EF
:1053A00080473F0C07F00207C5F10E05AD1BED1B52
:1053B000B94005EBD131CD1D23FA05F505F0010506
:1053C00005EB410600EB860101F23011E661002594
:1053D000656125610125B54047682F4207D13B46ED
:1053E0002B4343600C60A161E460A4602CE0096879
:1053F0001F2E0EBF00257508C5F1190503FA05F526
:1054000000E031464E68F608F6009E420ED0EE0FE0
:1054100001EB860606F110076D003E68002EF0D104
:1054200000698742FFF409AF3C60DCE78B680569DF
:10543000A942FFF402AFAB42FFF4FFAEDC608C6028
:10544000A360E1600020A06102F1080000E00020FC
:10545000BDE8F0812DE9F041426813465B421A40F5
:10546000531E1A0B02F01002D3405C0904F008042A
:10547000E3409D0805F00405EB405E0806F00206D7
:10548000F340C3F34007A218AA18B218BA18FB4099
:105490009A1800EB8202D2F8304123466268D208A3
:1054A000D200521A07E06568ED08ED006D1A9542CA
:1054B0003CBF2A4623462569002D14BF2C4664694B
:1054C000002CF0D11E460469A64206D3CC188D18D4
:1054D0005F68FF08FF00AF4201D000F01BBCA6428E
:1054E000FBD29F69DE689E420AD0D3F808C0D0F88C
:1054F00010E0F445F1D3CCF80C60C6F808C023E006
:1055000003F2140CDCF8006046B903F1100CDCF86F
:105510000060CEB102E0F446DCF8006006F2140E42
:10552000DEF80080B8F1000FF5D106F1100EDEF8BC
:105530000080B8F1000FEED1D0F810E0F445CCD3E4
:105540004FF0000ECCF800E0002F35D0D3F81CC08F
:1055500000EB8C0C0CF2301CDCF800E073450BD136
:10556000CCF8006096B946680127D3F81CC007FA4A
:105570000CF7BE4346601FE0D0F810C06745ACD3BF
:10558000D7F810C09C450CBF3E617E61A6B1D0F833
:1055900010C06645A1D3B7611F692FB1D0F810C004
:1055A00067459AD33761BE615F692FB1D0F810C0EB
:1055B000674592D37761BE61102A08D245F0030097
:1055C0005860E818416841F00101416030E041F065
:1055D0000301596042F001016160125187682FB3E5
:1055E00041694FEAD70CBCF1200FBFF476AF4FEA08
:1055F0004C0500EB850505F228052E46102FFFF41B
:105600006CAF012707FA0CF7D0F800C01CEA070FAF
:1056100004BF47EA0C07076004D0AE680769BE42C2
:10562000FFF45BAFA960F1608E60CD608260446181
:1056300003F10800BDE8F08103B0BDE8F08FF8B5D4
:105640000446012000F0A1FBF52C80F0D3800B2C48
:1056500031BF102404F10B00C408E400E308DFF8B4
:10566000B006016821FA03F515F0030233D0EA43CE
:1056700002F00102D3185A0000EB820202F2280560
:10568000AA68DC005668F608F600A64201D000F0D1
:1056900041BB9668AA42FAD0B242F8D05768FF08D8
:1056A000FF00A742F3D1B54205D1012505FA03F366
:1056B0009943016004E000698642E8D3AE60F5607A
:1056C00044F003005060A018416841F001014160BE
:1056D00002F10805D6E08268A24280F09E80002D8B
:1056E00000F07F80012202FA03F6760005FA03F348
:1056F000754235432B405D422B405D1E2B0B03F062
:10570000100325FA03F6750905F00805EE40B70801
:1057100007F00407FE404FEA560C0CF0020C26FA84
:105720000CF6C6F3400EEB18FB186344734426FADC
:105730000EF5ED186B0000EB830303F22806B36847
:10574000EF00D3F804C04FEADC0C4FEACC0CBC45A8
:105750009DD1D3F808C0B34299D0634597D0664530
:1057600002BF02FA05F5A943016006D001698C4524
:105770008DD3C6F808C0CCF80C60391B44F0030583
:105780005D60E41841F001056560095186681EB34B
:105790004569F708202FBFF47AAF4FEA470C00EBBA
:1057A0008C0C0CF2280CE646102EFFF470AFBA40B9
:1057B0000668164204BF3243026005D0DCF808E0F8
:1057C00002699645FFF463AFCCF80850CEF80C5050
:1057D000C5F808E0C5F80CC08160446103F1080514
:1057E00050E0416800293AD02146FFF733FE05001A
:1057F00013D047E014F1400F28BF4FF0FF340CD214
:1058000004F10B00C408E400DFF80405416821B18D
:105810002146FFF765FC050034D1DFF8F404826807
:10582000A2421CD3131B4169102B0AD36218426198
:10583000836043F0010050609B5044F003004860D7
:105840000AE000238360436142F00300486050187F
:10585000426842F00102426001F1080512E0C168AD
:105860008C420BD2091BC1608269A318836141F08D
:105870000101596044F00300506029E72146FFF719
:1058800087FB0546012000F0ABFA2846F2BD002850
:1058900000D17047F8B5A0F10804012000F075FAB6
:1058A000DFF86C542A6994421ED3636803F0030046
:1058B000012819D0D808C0000119DE0729D42668AC
:1058C00013F0030300F0E280301873421C19944275
:1058D0000AD36B699C4200F0CA80F308202B67D280
:1058E000A668E768BC4201D100F014BAB442FBD00C
:1058F000D4F804C04FEADC0C4FEACC0CBCEBC30F6D
:10590000F2D1BE4243D12A68012606FA03F39A4334
:105910002A608C42E8D24A68D307E5D5930700F1A4
:105920005481AB69994240F0B580E9684018E8605D
:10593000AC6140F00101616069698C4202D10021D3
:105940006961A960E969814280F0A080DFF8BC0349
:10595000006808B9FFF768F8A869002800F0968089
:10596000E96829290BD305F2BC121368984203D3C6
:105970005468E318984202D39268002AF5D1E86986
:10598000884280F083804FF0FF30E8617EE05B006A
:1059900005EB830303F1280C664501D09642A3D39F
:1059A00028339F4201D097429ED3F760BE60B0E794
:1059B000A669E368A34205D0A768974294D3FB6029
:1059C0009F601DE004F214073B6833B904F110072F
:1059D0003B68ABB101E067463B6803F2140CDCF8AE
:1059E00000E0BEF1000FF6D103F1100CDCF800E08E
:1059F000BEF1000FEFD19742FFF476AF00223A607C
:105A0000002E86D0E26905EB820202F2301217689E
:105A1000BC4208D113607BB96A680123E669B340D0
:105A20009A436A6075E72A699642FFF45DAF32696E
:105A3000A2420CBF33617361002B3FF46AAF2A6945
:105A40009342FFF451AF9E6122692AB12E69B2429E
:105A5000FFF44AAF1A6193616269002A3FF459AFBB
:105A60002E69B242FFF440AF5A61936151E70A795F
:105A700002F00302032A7FF44CAFA8604A68520880
:105A800052004A6040F0010161600051012000F0C5
:105A9000A7F9F1BD6B69994204D1A9684018A860C3
:105AA0006C61EFE7D208D2001018D308202B24D263
:105AB0008E68CF68B9423FF417AFB1423FF414AFDC
:105AC000BE4205D1296801229A409143296073E0C2
:105AD000590005EB810101F12802964203D02A69A1
