:020000040800F2
:10000000B0D40020EB7300082D7200082F72000896
:1000100031720008337200083572000800000000D9
:10002000000000000000000000000000377200081F
:1000300039720008000000003B7200083D720008A1
:100040001B7400081F74000823740008277400083C
:100050002B7400082F7400083374000837740008EC
:100060003B7400083F74000843740008477400089C
:100070004B7400084F74000853740008577400084C
:100080005B7400085F7400086374000867740008FC
:100090006B7400086F7400087374000877740008AC
:1000A0007B7400087F74000883740008877400085C
:1000B000417200088F740008937400089774000858
:1000C0009B7400089F740008A3740008A7740008BC
:1000D000AB740008AF740008B3740008B77400086C
:1000E000BB740008BF740008C3740008000000005F
:1000F0000000000000000000000000000000000000
:100100000000000000000000C7740008CB74000865
:100110005B720008D3740008D7740008DB74000811
:10012000DF740008E3740008E7740008EB7400084B
:10013000DF72000829730008F7740008FB740008D8
:10014000FF74000803750008077500080B750008A8
:10015000DFF8A806016899B94FF4803181604FF447
:10016000805141604FF0FF31C16001610421416164
:10017000DFF88C160422C1F8B821DFF88816016078
:100180000120704701F1080313F0070308BF0023A3
:1001900007D001F1080303F00703C3F1080303F0DC
:1001A00007035918D21A8161C26042F001034B6003
:1001B000511828224A60DFF844160969C161704766
:1001C0002DE9F04101F1080414F0070408BF0024F0
:1001D00007D001F1080404F00704C4F1080404F096
:1001E0000704611802F1080414F0070408BF002492
:1001F00007D002F1080404F00704C4F1080404F075
:100200000704A5185A186C1AE41A43F003034B604C
:10021000AA4201D301F012B96E68F307FAD5102C87
:10022000F8D383699D4207D1C368E318C360826134
:1002300043F00100506042E143699D4208D1836868
:10024000E3188360426143F0010050609B5036E147
:1002500006F00303012B40F0A080F308DB004FEA17
:10026000D30EBEF1200F26D2AF68D5F80CC065457D
:10027000D0D0BD42CED0674506D10668012707FA27
:100280000EF7BE43066086E04FEA4E0600EB860698
:1002900006F1280E774503D0D0F810E07745B9D3A2
:1002A0002836B44502D00669B445B3D3C7F80CC0AC
:1002B000CCF808706FE0AF69EE68AE420AD0D5F8AE
:1002C00008C0D0F810E0F445A4D3CCF80C60C6F810
:1002D00008C024E005F2140CDCF8006046B905F112
:1002E000100CDCF80060D6B102E0F446DCF80060E7
:1002F00006F2140EDEF80080B8F1000FF5D106F119
:10030000100EDEF80080B8F1000FEED1D0F810E04A
:10031000F445FFF47FAF4FF0000ECCF800E0002F63
:1003200039D0D5F81CC000EB8C0C0CF2301CDCF87A
:1003300000E075450BD1CCF800609EB946680127F6
:10034000D5F81CC007FA0CF7BE43466023E0D0F88E
:1003500010C06745FFF45EAFD7F810C0AC450CBFC6
:100360003E617E61BEB1D0F810C06645FFF452AF69
:10037000B7612F6937B1D0F810C06745FFF44AAFB5
:100380003761BE616F6937B1D0F810C06745FFF4BF
:1003900041AF7761BE615D191C196B685B085B003A
:1003A0006B6044F001035360A450E308202B1BD280
:1003B0005D0000EB850505F228052E46102CFFF4A4
:1003C00029AF012707FA03F304681C4204BF234343
:1003D000036004D0AE6800698642FFF41BAFAA60D8
:1003E000F2609660D5606AE0230A08BF002523D03A
:1003F000B3F5803F28BF1F251ED2A3F580752D0CB5
:1004000005F00805AB40A3F58056360C06F004064F
:10041000B340A3F580473F0C07F00207C5F10E0576
:10042000AD1BED1BBB4005EBD333DD1D24FA05F5F9
:1004300005F0010505EB430500EB850303F23013DE
:10044000D561002656611661012707FA05F647684F
:10045000374207D146EA070444601A609361D260CC
:1004600092602CE01B681F2D0EBF00256D08C5F1A2
:10047000190504FA05F500E033465E68F608F60053
:10048000A6420ED0EE0F03EB860606F110076D00B4
:100490003E68002EF0D100698742FFF4BBAE3A609F
:1004A000DCE79C6800698342FFF4B4AE8442FFF449
:1004B000B1AEE2609A609460D3600020906101F177
:1004C0000800BDE8F0812DE9FE4F0446A56904F25D
:1004D000BC102E4601688E4203D3426851188E42EA
:1004E00002D380680028F5D14168006801EB00085C
:1004F000A8F12F0000F1080111F0070108BF002149
:1005000007D000F1080101F00701C1F1080101F075
:10051000070101EB000A05F11000824538BFAA4629
:100520000AF1080B0AF1180900270198A0F1280226
:1005300000992046FFF726FE1BF0070022D11B2062
:10054000CAF8040004F2BC10B0E80E10ABE80E10BC
:10055000ABF1100B0098C4F8BC010198C4F8C001BD
:100560000298C4F8C801C4F8C4B100E0814609F19A
:1005700004000721C9F804107F1C011D4145F5D373
:10058000022F01DA00F05ABFAA4500F09380AAEBCF
:10059000060041194A68520852004A6040F00101C1
:1005A00069604051C108202919D24A0004EB820237
:1005B00002F2280213461028E4D3012606FA01F0BD
:1005C0002168014206D1084320609560DD60AB6080
:1005D000EA606FE0936820698342F6D2D2E7010AAD
:1005E00008BF002223D0B1F5803F28BF1F221ED2B2
:1005F000A1F58072120C02F008029140A1F580531F
:100600001B0C03F004039940A1F58046360C06F05C
:100610000206C2F10E02D21A921BB14002EBD13196
:10062000CA1D20FA02F202F0010202EB410204EBC1
:10063000820101F23011EA6100236B612B61012616
:1006400006FA02F366681E4207D143EA06006060BC
:100650000D60A961ED60AD602CE009681F2A0EBF36
:1006600000225208C2F1190200FA02F200E0194613
:100670004B68DB08DB0083420ED0D30F01EB830312
:1006800003F1100652003368002BF0D12069864236
:10069000FFF478AF3560DCE7886822699142FFF4A7
:1006A00071AF9042FFF46EAFC5608D60A860E960E5
:1006B0000020A86100F054BBF8B504460D464F4E2B
:1006C000306808B9FFF744FD00F0D4FE010000F0E7
:1006D00091800A6811F1010F00F08C80D4F8B0010C
:1006E0001018C4F8B001D4F8B401D4F8B03198426D
:1006F00038BF1846C4F8B401A06968BB206908B1C6
:10070000814200D22161C4F8BC11C4F8C02100208C
:10071000C4F8C801306860624FF0FF3020622046A4
:10072000202300F22806F660B66008305B1EF8D180
:100730003348844204D1283A2046FFF723FD48E09D
:1007400054F8040CC00814EBC00008385118091AFA
:10075000A1F128020146EFE704F2BC10034600E0D5
:100760009B68BBB15E681F68F619B142F8D11E7B69
:1007700036070FD43E46A769B7420BD35F68D4F85B
:1007800018C0BE19B44505D2D0195860E0681218D7
:10079000A169D1E72369994238BF21610346501806
:1007A00000E09B688BB11E688642FAD1187B000777
:1007B0000BD4304619605E6892195A602B46024687
:1007C000204601B0BDE8F040FAE400232046FFF7E0
:1007D0007AFEE06885420DD2401BE060A1696A188C
:1007E000A26140F00100506045F00300486001F153
:1007F0000800F2BD0020F2BD000000001CC4002073
:100800001CBE00206859883C2DE9F04100224B4273
:100810000C0A08BF002423D0B4F5803F28BF1F2452
:100820001ED2A4F580752D0C05F00805AC40A4F58A
:100830008056360C06F00406B440A4F580473F0C01
:1008400007F00207C5F10E05AD1BED1BBC4005EB23
:10085000D434E51D21FA05F505F0010505EB440446
:1008600000EB8405D5F8305155B31F2C0EBF002680
:100870006608C6F1190601FA06F6002700E07600C0
:10088000D5F804C04FEADC0C4FEACC0CACEB010C01
:100890009C4502D22A4663467BB1D5F814C04FEA84
:1008A000D67E05EB8E052D69BCF1000F02D0AC455C
:1008B00018BF6746002DE2D13D4675BB002A3DD1E9
:1008C000012505FA04F4640065422C4345682C4078
:1008D00000F0518165422C40651E2C0B04F0100481
:1008E00025FA04F6750905F00805EE40B70807F08B
:1008F0000407FE404FEA560C0CF0020C26FA0CF6E8
:10090000C6F3400E2C193C196444744426FA0EF5C3
:100910002C1900EB8404D4F830517DB100E0254659
:100920006C68E408E400641A9C423CBF23462A46F3
:100930002C69002CF3D16D69002DF1D1002A00F053
:100940001A818468641AA34280F0158116460469EE
:10095000A64206D38C18CD185768FF08FF00AF4297
:1009600001D000F06BBDA642FBD29769D6689642D3
:100970000AD0D2F808C0D0F810E0F445F1D3CCF892
:100980000C60C6F808C023E002F2140CDCF800602A
:1009900046B902F1100CDCF80060CEB102E0F4467A
:1009A000DCF8006006F2140EDEF80080B8F1000FEB
:1009B000F5D106F1100EDEF80080B8F1000FEED18F
:1009C000D0F810E0F445CCD34FF0000ECCF800E0A6
:1009D000002F35D0D2F81CC000EB8C0C0CF2301C70
:1009E000DCF800E072450BD1CCF8006096B946689F
:1009F0000127D2F81CC007FA0CF7BE4346601FE07F
:100A0000D0F810C06745ACD3D7F810C094450CBFE0
:100A10003E617E61A6B1D0F810C06645A1D3B76132
:100A200017692FB1D0F810C067459AD33761BE61FE
:100A300057692FB1D0F810C0674592D37761BE6176
:100A4000102B08D245F003005060A818416841F00F
:100A5000010141608CE041F00301516043F001016C
:100A600061601B51D908202918D24B0000EB830389
:100A700003F228031E46012505FA01F105680D421F
:100A800004BF2943016004D09E6800698642FFF4D8
:100A900068AF9C60F460A660E36069E0190A08BF73
:100AA000002623D0B1F5803F28BF1F261ED2A1F516
:100AB00080752D0C05F00805A940A1F58056360C6F
:100AC00006F00406B140A1F580473F0C07F002078D
:100AD000C5F10E05AD1BED1BB94005EBD131CD1DA8
:100AE00023FA05F505F0010505EB410600EB86014B
:100AF00001F23011E6610025656125610125B540EF
:100B000047682F4207D13B462B4343600C60A161ED
:100B1000E460A4602CE009681F2E0EBF0025750854
:100B2000C5F1190503FA05F500E031464E68F608EF
:100B3000F6009E420ED0EE0F01EB860606F110077E
:100B40006D003E68002EF0D100698742FFF409AFC6
:100B50003C60DCE78B680569A942FFF402AFAB4259
:100B6000FFF4FFAEDC608C60A360E1600020A06158
:100B700002F1080000E00020BDE8F0812DE9F0411D
:100B8000426813465B421A40531E1A0B02F01002D1
:100B9000D3405C0904F00804E3409D0805F0040517
:100BA000EB405E0806F00206F340C3F34007A218CC
:100BB000AA18B218BA18FB409A1800EB8202D2F8B1
:100BC000304123466268D208D200521A07E06568B5
:100BD000ED08ED006D1A95423CBF2A462346256973
:100BE000002D14BF2C466469002CF0D11E46046908
:100BF000A64206D3CC188D185F68FF08FF00AF42ED
:100C000001D000F01BBCA642FBD29F69DE689E4269
:100C10000AD0D3F808C0D0F810E0F445F1D3CCF8EE
:100C20000C60C6F808C023E003F2140CDCF8006086
:100C300046B903F1100CDCF80060CEB102E0F446D6
:100C4000DCF8006006F2140EDEF80080B8F1000F48
:100C5000F5D106F1100EDEF80080B8F1000FEED1EC
:100C6000D0F810E0F445CCD34FF0000ECCF800E003
:100C7000002F35D0D3F81CC000EB8C0C0CF2301CCC
:100C8000DCF800E073450BD1CCF8006096B94668FB
:100C90000127D3F81CC007FA0CF7BE4346601FE0DB
:100CA000D0F810C06745ACD3D7F810C09C450CBF36
:100CB0003E617E61A6B1D0F810C06645A1D3B76190
:100CC0001F692FB1D0F810C067459AD33761BE6154
:100CD0005F692FB1D0F810C0674592D37761BE61CC
:100CE000102A08D245F003005860E818416841F026
:100CF0000101416030E041F00301596042F001011F
:100D00006160125187682FB341694FEAD70CBCF17B
:100D1000200FBFF476AF4FEA4C0500EB850505F2D6
:100D200028052E46102FFFF46CAF012707FA0CF7A9
:100D3000D0F800C01CEA070F04BF47EA0C070760A1
:100D400004D0AE680769BE42FFF45BAFA960F160F2
:100D50008E60CD608260446103F10800BDE8F081DF
:100D600003B0BDE8F08FF8B50446012000F0B7FBF2
:100D7000F52C80F0D3800B2C31BF102404F10B0034
:100D8000C408E400E308DFF8B006016821FA03F5BF
:100D900015F0030233D0EA4302F00102D3185A00DF
:100DA00000EB820202F22805AA68DC005668F60809
:100DB000F600A64201D000F041BB9668AA42FAD0E4
:100DC000B242F8D05768FF08FF00A742F3D1B542FE
:100DD00005D1012505FA03F39943016004E0006998
:100DE0008642E8D3AE60F56044F003005060A0187E
:100DF000416841F00101416002F10805D6E08268D6
:100E0000A24280F09E80002D00F07F80012202FA35
:100E100003F6760005FA03F3754235432B405D4235
:100E20002B405D1E2B0B03F0100325FA03F675090A
:100E300005F00805EE40B70807F00407FE404FEA4A
:100E4000560C0CF0020C26FA0CF6C6F3400EEB180A
:100E5000FB186344734426FA0EF5ED186B0000EBA3
:100E6000830303F22806B368EF00D3F804C04FEA07
:100E7000DC0C4FEACC0CBC459DD1D3F808C0B34282
:100E800099D0634597D0664502BF02FA05F5A9439C
:100E9000016006D001698C458DD3C6F808C0CCF836
:100EA0000C60391B44F003055D60E41841F0010556
:100EB0006560095186681EB34569F708202FBFF4A5
:100EC0007AAF4FEA470C00EB8C0C0CF2280CE6468C
:100ED000102EFFF470AFBA400668164204BF3243CA
:100EE000026005D0DCF808E002699645FFF463AFC4
:100EF000CCF80850CEF80C50C5F808E0C5F80CC086
:100F00008160446103F1080550E0416800293AD04E
:100F10002146FFF733FE050013D047E014F1400FE0
:100F200028BF4FF0FF340CD204F10B00C408E400DA
:100F3000DFF80405416821B12146FFF765FC050093
:100F400034D1DFF8F4048268A2421CD3131B416938
:100F5000102B0AD362184261836043F00100506095
:100F60009B5044F0030048600AE000238360436123
:100F700042F0030048605018426842F001024260AB
:100F800001F1080512E0C1688C420BD2091BC16057
:100F90008269A318836141F00101596044F00300A4
:100FA000506029E72146FFF787FB0546012000F046
:100FB000C1FA2846F2BD002800D17047F8B5A0F16B
:100FC0000804012000F08BFADFF86C542A6994427F
:100FD0001ED3636803F00300012819D0D808C000AD
:100FE0000119DE0729D4266813F0030300F0E2801C
:100FF000301873421C1994420AD36B699C4200F06A
:10100000CA80F308202B67D2A668E768BC4201D1EA
:1010100000F014BAB442FBD0D4F804C04FEADC0CA0
:101020004FEACC0CBCEBC30FF2D1BE4243D12A68CD
:10103000012606FA03F39A432A608C42E8D24A68F2
:10104000D307E5D5930700F15481AB69994240F08D
:10105000B580E9684018E860AC6140F0010161606A
:1010600069698C4202D100216961A960E969814204
:1010700080F0A080DFF8BC03006808B9FFF768F8CB
:10108000A869002800F09680E96829290BD305F2A9
:10109000BC121368984203D35468E318984202D3F1
:1010A0009268002AF5D1E869884280F083804FF089
:1010B000FF30E8617EE05B0005EB830303F1280C61
:1010C000664501D09642A3D328339F4201D0974270
:1010D0009ED3F760BE60B0E7A669E368A34205D07F
:1010E000A768974294D3FB609F601DE004F2140749
:1010F0003B6833B904F110073B68ABB101E06746C8
:101100003B6803F2140CDCF800E0BEF1000FF6D1EE
:1011100003F1100CDCF800E0BEF1000FEFD19742B4
:10112000FFF476AF00223A60002E86D0E26905EB2C
:10113000820202F230121768BC4208D113607BB9F8
:101140006A680123E669B3409A436A6075E72A69D1
:101150009642FFF45DAF3269A2420CBF3361736106
:10116000002B3FF46AAF2A699342FFF451AF9E61AE
:1011700022692AB12E69B242FFF44AAF1A61936123
:101180006269002A3FF459AF2E69B242FFF440AFC2
:101190005A61936151E70A7902F00302032A7FF44E
:1011A0004CAFA8604A68520852004A6040F0010102
:1011B00061600051012000F0BDF9F1BD6B699942F9
:1011C00004D1A9684018A8606C61EFE7D208D2008A
:1011D0001018D308202B24D28E68CF68B9423FF470
:1011E00017AFB1423FF414AFBE4205D129680122C6
:1011F0009A409143296073E0590005EB810101F1A8
:101200002802964203D02A699642FFF401AF2831A2
:101210008F4203D029698F42FFF4FAAEF760BE60B7
:101220005EE08B69CA688A4207D08E682F69BE4229
:10123000FFF4EEAEF26096601EE001F21406326832
:1012400032B901F110063268B2B101E03E463268AF
:1012500002F21407D7F800C0BCF1000FF6D102F17A
:101260001007D7F800C0BCF1000FEFD12F69BE42C4
:10127000FFF4CEAE0027376093B3CE6905EB860648
:1012800006F230163768B9420BD1326016468EB975
:101290006A680123C96903FA01F122EA0101696060
:1012A0001EE02E69B342FFF4B3AE1E698E420CBF3E
:1012B0001A615A61A2B12E69B242FFF4A9AE9361DC
:1012C0000B692BB12E69B342FFF4A2AE13619A6190
:1012D000496929B12B699942FFF49AAE51618A613B
:1012E00040F001016160005169698C4208D1A86039
:1012F00060E7520852004A6040F00101616000510D
:10130000C10820291BD24A0005EB820202F2280202
:1013100013461028FFF47CAE012606FA01F0296876
:10132000014204BF0843286004D0936828698342BF
:10133000FFF46EAE9460DC60A360E2603AE7010AFD
:1013400008BF002223D0B1F5803F28BF1F221ED244
:10135000A1F58072120C02F008029140A1F58053B1
:101360001B0C03F004039940A1F58046360C06F0EF
:101370000206C2F10E02D21A921BB14002EBD13129
:10138000CA1D20FA02F202F0010202EB410205EB53
:10139000820101F23011E2610023636123610126C1
:1013A00006FA02F36E681E4207D143EA060068603F
:1013B0000C60A161E460A4602CE009681F2A0EBFE4
:1013C00000225208C2F1190200FA02F200E01946A6
:1013D0004B68DB08DB0083420ED0D30F01EB8303A5
:1013E00003F1100652003368002BF0D128698642C1
:1013F000FFF40EAE3460DCE788682A699142FFF49E
:1014000007AE9042FFF404AEC4608C60A060E1605F
:101410000020A061286A401E28627FF4CBAED5F878
:10142000C40118B94FF0FF302862C3E68068002875
:10143000FCD1F7E71CC400201CBE002080B50120B1
:1014400000F086B800BF10B450F8041B81B10268E8
:101450001218001D50F8043BDC0744BFA9F1010439
:10146000E31852F8044B43F8044B091FF9D1EBE79A
:1014700010BC704706490868002801D0002070475A
:10148000044808600449C908C900091A0160704786
:10149000A0C40020B0D40020B0D5002070B52B4CE3
:1014A0002068D8B1251D0826284600F05CF82D1DBF
:1014B000761EF9D104F1240000F057F804F1280059
:1014C00000F053F804F12C0000F04FF804F1300064
:1014D00000F04BF804F1340000F047F870BDF8B5A7
:1014E00004461A4D2868D8B92E1D0827304600F04A
:1014F00039F8361D7F1EF9D105F1240000F034F8CB
:1015000005F1280000F030F805F12C0000F02CF86F
:1015100005F1300000F028F805F1340000F024F85F
:1015200001202860052C04D205EB8400243000F053
:101530001DF8F1BD052800D3704780B5034901EBC4
:101540008000243000F013F801BD00009CC300208F
:1015500080B500F00DF8024A11001820ABBEFBE781
:101560002600020070477047704770477047704709
:1015700080B500F015F802000023DB4310689842A4
:1015800004D011000220ABBE0020106050689842C9
:1015900004D0111D0220ABBE0020506001BD000030
:1015A00000487047A80000202DE9F04FA5B017466D
:1015B0001C460FF6B455D5E90023CDE9122303AD3F
:1015C0006860A9600020E86214AE4FF00A096FF06D
:1015D000004800E057440020ADF8020012AB4FF085
:1015E000FF3239460DF1020001F019F88246BAF1D6
:1015F000010F08DA3878B0F1010A6AEB0A0A6FEADB
:101600000A004FEAD07ABDF8020025280CBFAAF1E3
:1016100001025246012A0ADB394602A800F0D4FF33
:10162000002804D54FF0FF3025B0BDE8F08FBDF89D
:101630000200252807D100206861A861E8612862BE
:101640006862A86205E00028C4D1E86AECE740F0CF
:10165000010017F8011F2029F9D023290DD02B29CB
:1016600004D02D2906D030290AD00CE040F0020029
:1016700080B2EEE740F00400FAE740F00800F7E738
:1016800040F01000F4E72A290DD12268111D2160D5
:1016900011686963002904D54942696340F0040078
:1016A00080B27F1C10E00021696307E0696B41454F
:1016B00003D009FB0121303969637F1C3A78A2F11C
:1016C0003001C9B20A29F1D339782E291CBF4FF055
:1016D000FF3129631BD117F8011F2A2906D122687F
:1016E000111D2160116829637F1C10E0002129630E
:1016F00007E0296B414503D009FB012130392963FB
:101700007F1C3A78A2F13001C9B20A29F1D32887A7
:1017100039780FF6E86000F0A3FF08B117F8010B65
:101720008DF846009DF84600682804D1387868286E
:101730000AD1622005E06C2806D138786C2803D1E4
:1017400071208DF846007F1C14A828613A78104655
:10175000253827D01C3800F08780001F022840F26F
:101760008380133800F0AC8009387DD0801E00F0F3
:101770004481401E00F0ED80401E022874D9001FF5
:1017800000F0E780401F44D0401E00F09980401ECA
:1017900031D0C01E0CD0801E00F09280C01E00F020
:1017A0008F804BE16869411C6961252181554FE1BA
:1017B0009DF846006C28216813D0081D2060086839
:1017C000E8602A6B002A08D4002100F059FF0028A5
:1017D0001ABFE968401A286B01E000F07DFFA8619C
:1017E00036E1081D2060096802A800F0C5F900284C
:1017F00040F12E811FE12168081D2060086800214A
:10180000CDE9020114A8E860782102A800F015FBD8
:101810001EE19DF8460062281FD068280DD06A2876
:1018200012D06C2802D071280ED074282168081DAF
:1018300020600868E96A01600AE1E86A2268111D0F
:1018400021601168088003E1E86AC11723681A1D46
:1018500022601A68C2E90001FAE0E86A2268111DF4
:10186000216011680870F3E02068C01D20F00700B7
:101870002060034603F108002060D3E90001CDE9B0
:101880000201002904D56869411C69612D210DE020
:10189000288F810704D56869411C69612B2105E007
:1018A000C00704D56869411C6961202181556869B8
:1018B00014A94018E860114602A800F04DFBC7E0EB
:1018C0009DF846006C280FD0712801D06A280BD1F2
:1018D0002068C01D20F007002060034603F10800C7
:1018E0002060D3E9000104E02168081D2060086839
:1018F0000021CDE902019DF8460068280CD062283D
:1019000006D0742801D07A280CD1DDE9020106E066
:10191000DDE90201C0B202E0DDE9020180B200218E
:10192000CDE9020195F83800000760D5DDE9020134
:1019300009B900285BD042F02000782857D16869A7
:10194000411C6961302181556869411C696182557A
:101950004DE09DF8460062280CD0682810D06A2817
:101960001AD06C2824D0712816D0742820D07A2858
:101970000CD01DE02168081D206091F900001BE0DB
:101980002168081D2060B1F9000015E02168081DDC
:1019900020600868002110E02068C01D20F00700CA
:1019A0002060034603F108002060D3E9000104E051
:1019B0002168081D20600868C117CDE90201DDE932
:1019C000020100290EDB288F810704D56869411CBC
:1019D00069612B210AE0C00709D56869411C69616A
:1019E000202103E06869411C69612D2181556869E6
:1019F00014A94018E860114607E79DF846006C28D6
:101A000007D06869411C69612268111D2160116855
:101A1000CCE62168081D20600868ADF804000020AD
:101A2000ADF806004FF0FF30286301A902A800F0CE
:101A3000A3F800280CD54FF0FF300AE06869411C7C
:101A40006961252181551AB16869411C6961825516
:101A500000207F1C00287FF4E5AD686B6969401A9F
:101A6000296A401AA969401A696A401AE969401A44
:101A7000A96AA0EB010A95F83800400711D420208C
:101A80008DF80000BAF1010F0BDBD346012200A94B
:101A900002A800F099FD00287FF4C4ADBBF1010B52
:101AA000F4D16A6914A902A800F08EFD00287FF421
:101AB000B9AD30208DF80000D5F820B0BBF1010F92
:101AC0000ADB012200A902A800F07EFD00287FF4B5
:101AD000A9ADBBF1010BF4D1AA69E96802A800F035
:101AE00073FD00287FF49EAD30208DF80000D5F8FE
:101AF00024B0BBF1010F0ADB012200A902A800F00B
:101B000063FD00287FF48EADBBF1010BF4D1EA69CF
:101B1000A869E968411802A800F056FD00287FF482
:101B200081AD30208DF80000D5F828B0BBF1010F51
:101B30000ADB012200A902A800F046FD00287FF47C
:101B400071ADBBF1010BF4D195F8380040077FF57A
:101B500042AD20208DF80000BAF1010FFFF63BAD39
:101B6000012200A902A800F02FFD00287FF45AAD41
:101B7000BAF1010AF4D12EE52DE9F04F93B00746F2
:101B80000C46D7F83490B9F1000F48BF6FF0004908
:101B900000F0BDFDB96B00EB010A0FF66822D2E937
:101BA0000001CDE9010197F83C00400702D4BAF1E9
:101BB000410F05D20DF10C0B4FF0400A00250AE051
:101BC0005046FFF7D0F85FEA000BF7D14FF0FF3037
:101BD00030E1A9EB0809B9F1010FC0F2A08001AA18
:101BE00021880DF1010000F097FD5FEA000804D4A0
:101BF000208828B9B8F1010802D54FF0FF3512E16D
:101C0000C145C0F28C80B86908EB00018A4577D2E3
:101C1000BD634042796A401AF969401AB96A401AAC
:101C2000396A401AF96A451A97F83C0040070ED401
:101C300020208DF80000012D09DB2E46012200A98D
:101C4000384600F0C1FC0028D7D1761EF6D1BA691B
:101C50005946384600F0B8FC0028CED130208DF827
:101C600000007E6A012E08DB012200A9384600F040
:101C7000ABFC0028C1D1761EF6D1FA693969384625
:101C800000F0A2FC0028B8D130208DF80000BE6A18
:101C9000012E08DB012200A9384600F095FC00283F
:101CA000ABD1761EF6D13A6AF869396941183846DF
:101CB00000F08AFC0028A0D130208DF80000FE6AD8
:101CC000012E08DB012200A9384600F07DFC002827
:101CD00093D1761EF6D197F83C0040070ED5202010
:101CE0008DF80000012D09DB012200A9384600F023
:101CF0006BFC00287FF481AF6D1EF5D10025BD611E
:101D000042460DF10101B869584400F013FDB8696D
:101D10004044B86134F8020B00287FF45AAFB86B26
:101D2000B969401A796A401AF969401AB96A401AC1
:101D3000396A401AF96AA0EB010897F83C0040079D
:101D400010D420208DF80000B8F1010F0ADB4446C2
:101D5000012200A9384600F037FC00287FF44DAF7F
:101D6000641EF5D1BA695946384600F02DFC0028AA
:101D70007FF443AF30208DF800007C6A012C09DB32
:101D8000012200A9384600F01FFC00287FF435AF7F
:101D9000641EF5D1FA693969384600F015FC00284F
:101DA0007FF42BAF30208DF80000BC6A012C09DBDA
:101DB000012200A9384600F007FC00287FF41DAF7F
:101DC000641EF5D13A6AF86939694118384600F05D
:101DD000FBFB00287FF411AF30208DF80000FC6A77
:101DE000012C09DB012200A9384600F0EDFB002898
:101DF0007FF403AF641EF5D197F83C00400710D57F
:101E000020208DF80000B8F1010F0ADB012200A9A3
:101E1000384600F0D9FB00287FF4EFAEB8F1010896
:101E2000F4D1BD61BD6303A883451CBF5846FFF7CD
:101E3000C2F8284613B0BDE8F08F2DE9FA4786B006
:101E40000546686900909DF818006F2808BF0827AC
:101E500005D040F02000782814BF0A2710273C2422
:101E6000D5E90001064689469DF81820642A01D06C
:101E7000692A04D1002902DA764269EB4909B9F1ED
:101E8000000F0DD166B9686B50B9082F3FD195F896
:101E90003C0000073BD5641E00983021215436E0F9
:101EA000A4F101084446F817CDE9047030464946CC
:101EB000DDE9042300F080FCCDE90201B246DDE952
:101EC0000223DDE90401A0FB02695046801B30308B
:101ED000C0B23A2803D39DF8181051390818009958
:101EE00008F80100DDE90269B9F1000F00D126B15F
:101EF0002869009961188842D2D3082F07D195F834
:101F00003C00000703D50098205C3028C3D1C4F101
:101F10003C00E861009961182961696B884207DA21
:101F2000081A6862A88F4FF6EF710840A88710E082
:101F300000290ED595F83C1001F01401102908D1A4
:101F4000A96BAA69891A6A6A891A0C1A012CA8BF96
:101F50006C6208B0BDE8F0872DE9F24F8EB00546FF
:101F600004AFD5E90001CDE902019DF8380040F049
:101F700020008DF8000061280BD0686B002848BF56
:101F8000062005D405D19DF80000672801D1012065
:101F900068636968C1F30A5040F2FF72904225D02D
:101FA000012819DA284600F095FC012814DB0024EA
:101FB00000209DF80010612940D12A69511C296137
:101FC0003021117029694A1C2A619DF83820612A44
:101FD0000CBF782258222DE040F2FE316A6861F38E
:101FE0001E526A60441A4FF0FF30E2E7080301D145
:101FF000286870B10320E8619DF838006138C0B2EC
:102000001A2811D30FF208610322286900F092FB0D
:102010009EE10320E8619DF838006138C0B21A28BB
:1020200005D30FF2F451EFE70FF2E051ECE70FF2B6
:10203000E451E9E70A70A969891CA96110B9002671
:10204000B0467BE19DF80000612840F09780686B06
:1020500000284CBF2126461C36B2771CD5E900ABC0
:10206000DDE902010022002300F056FC3ABF8BF0AC
:102070000040CDE902A0CDE902ABA4F104088DF83F
:1020800010200DF11109012F33DBDDE902010022DF
:10209000002300F059FC2CD21C2102A800F06CFC9B
:1020A000DDE9020100F0F4FC0446FF1F012F09DB0B
:1020B00000F01AFD02460B46DDE9020100F02CFD9E
:1020C000CDE9020109F207000721012C0BDB491EB3
:1020D0005EBF04F00F0200F8012D2411F5D502E0D7
:1020E000002200F8012D491EFAD500F20709012F40
:1020F000CBDA0DF11100A9EB00010DF11107B1428E
:10210000B8BF0E4636B2002E31D43046884206DAC9
:1021100004A941184978082928BF0F2100D20021BD
:1021200004AA821800E0761E401E12F801398B4284
:10213000F9D00F2904D104A941184A78521C4A70D9
:10214000002803D504AF761C08F1040836B2701ECF
:102150000DD4C1190A783032D2B23A2A03D39DF88D
:1021600038303A3B9A1801F80129401EF2D5686BC5
:10217000002840F1E380701E6863DFE0DDE90201C2
:102180000022002300F0C8FB05D2DDE9020181F046
:102190000041CDE9020124B247F2975060436E49F5
:1021A00090FBF1F80FFA88F8C8F107040027DFF870
:1021B000AC91012C19DBDDE902ABE00707D55046F5
:1021C00059463A464B4600F067FD82468B466410FE
:1021D000384649463A464B4600F05EFD074689467A
:1021E000002CEAD1CDE902AB21E064429246DFF84F
:1021F00070B114D0E00707D5504659463A464B46D1
:1022000000F04AFD82468B466410384649463A46FD
:102210004B4600F041FD07468946002CEAD1DDE936
:10222000020152465B4600F009FECDE902019DF82D
:10223000000066280CBF08F10A000620696B4618EA
:10224000142EA8BF132630208DF810000DF11104B4
:10225000444F012E2FDBDDE9020100F02FFC04F1D9
:10226000080104220A23B0FBF3F403FB140030300E
:1022700001F8010DB4FBF3F003FB1043303301F818
:10228000013D521EEED101F10804083E012EE0DBB3
:10229000DDE9020100F012FC00F030FC02460B46C2
:1022A000DDE9020100F038FC00223B4600F0F4FCBE
:1022B000CDE90201CFE70DF11100201A0DF1110750
:1022C0009DF81110302906D1401EA8F1010817F819
:1022D000011F3029F8D09DF80010662904BF0FFABD
:1022E00088F808F1010103D065290CBF0121002104
:1022F0006A6B8E1836B2B042B8BF064636B2002EB0
:102300001CD43146814204DAC85D352828BF392003
:1023100000D23020CA19521E00E0761E491E12F863
:1023200001398342F9D0392802D1C85D401CC85513
:10233000002903D57F1E761C08F101080FFA88F0EA
:10234000009033B23A469DF83810284600F010F855
:102350000FB0BDE8F08F0000A0860100000024400F
:102360000000F03F84D7974100000000000000000B
:102370002DE9F04786B006468A4690461C46BDF9D0
:10238000385000F09CFE406A90F80090776B012C6A
:1023900002DA01240FF284284AF02000662807D0D0
:1023A00067287AD16FF003018D427CDBBD427ADA77
:1023B0006D1C66280AD096F83C00000702D4BC4287
:1023C000B8BF27462DB27F1B48BF00273069F1698F
:1023D0002DB2012D21DA4A1C30230B54012F03DAD0
:1023E00096F83C10090702D502F80090521CF261E1
:1023F000EF42B8BF7D422DB26942B162EF19A742E8
:10240000B8BF3C4624B2346222464146F3691818EC
:1024100000F090F9381BF062BFE00818AC4216DA01
:102420002246414600F086F9F1696118F161281BE6
:10243000B062012F03DA96F83C00000705D5306939
:1024400001F80090306A401C3062F762A5E02A462D
:10245000414600F06FF9F0692818F061641B012F04
:1024600003DA96F83C10090704D5411CF161316983
:1024700000F8019024B2A742B8BF3C4624B22246DD
:1024800005EB0801F0693369C01800F053F9F069F1
:102490002018F061381BB0627FE0BAF1610F14D1EF
:1024A0004FF0700A16E0BC4204DA96F83C100907B7
:1024B00058BF27467F1E48BF0027BAF1670F14BFD9
:1024C0004FF0450A4FF0650A04E0BAF1410F08BF2A
:1024D0004FF0500AF1694A1C306918F8013B0B545F
:1024E000012F03DA96F83C10090702D502F8009094
:1024F000521CF261012F10DB641E24B2A742B8BF48
:102500003C4624B222464146F369181800F012F9FD
:10251000F0692018F061381BB062F069316900EB96
:10252000010808F801AB002D5CBF2B2008F8010B57
:1025300003D52D2008F8010B6D42002402AF2DB207
:10254000012D0EDB0A22294600A800F0D1FD0198DA
:1025500007F8010B009D641C2DB2012DF2DA022C4C
:1025600006DA4AF02000652804BF302008F8010B85
:102570001CB9302008F8010B09E0012C07DB641EB0
:1025800002A8205C303008F8010B012CF7DAF06962
:1025900031694018A8EB0000306296F83C0000F06A
:1025A000140010280DD1B069F1690818B16A081833
:1025B000316A0818F16A0818B16B8842BCBF081A62
:1025C000706206B0BDE8F08770B504460D46164649
:1025D0000020002E10D015F8011BE068A26890477B
:1025E000E060002802D14FF0FF3070BD206B401C2E
:1025F00020630020761EEED170BD0000686A6C7406
:102600007A4C000000000000000000006E616E00C7
:102610004E414E00696E6600494E46003000F8B5E6
:1026200004460D4616461F4600F06AFD3B463246FC
:102630002946204601B0BDE8F04000F079BD50F8D1
:10264000041B61B150F8042BD30744BFA9F1010367
:102650009A18002342F8043B091FFAD1EFE77047AC
:102660000278C9B28A421AB11CBF10F8012FF9E7EB
:1026700018BF002070470268531C03601170704738
:10268000C9B2830706D0521E22D310F8013B9942EB
:10269000F7D11FE0083A13D302F1040241EA012105
:1026A00041EA014150F8043B121F21BF4B40A3F106
:1026B000013C2CEA030C1CF0803FF3D0C9B2001F90
:1026C000083210F8013B521E28BF91EA030FF8D8D8
:1026D00018BF0120401E704700F10103810704D09C
:1026E00010F8011B89B18107FAD10268B2F10131FA
:1026F000914311F0803F04BF50F8042FF6E710F823
:10270000011B11B110F8011BFBE7C01A704780B51F
:1027100000F0F6FC012002BD70B504460D461646D9
:1027200000F0EEFC324629462046BDE8704000F03D
:10273000F1BC00004AB38B0707D0521E11F8013BD1
:1027400000F8013B21D08B07F7D183071ED1103A47
:1027500007D330B4B1E83810103AA0E83810F9D2F5
:1027600030BC530724BFB1E80810A0E8081044BFEC
:1027700051F8043B40F8043BD20724BF31F8022B48
:1027800020F8022B44BF0B7803707047083A07D338
:10279000B1E80810083A40F8043B40F804CBF7D2FF
:1027A0005307E4E713F0004C03D55B42524263F158
:1027B00000039CEA210C15D11B4229D109424CD1BE
:1027C0002AB18446B0FBF2F002FB10C2704700F061
:1027D000CFBCFCD30022002370470B000200002175
:1027E0000020704710B5644603D34942404261F16E
:1027F0000001FFF7E1FF640004D34942404261F168
:102800000001244203D55B42524263F1000310BD34
:10281000904271EB030CE0D370B5B1FA81F4B3FAD6
:1028200083F52C1BA340C4F1200532FA05F633438F
:10283000A2405FF00046E64002E05B085FEA320239
:10284000841A71EB030524BF204629467641F4D350
:1028500002000B003000002170BD012AB9D970B50B
:10286000140C20D0B1FA81F4B2FA82F5C4F120043C
:102870006419B4F12006D6D3B2405FF00044F440AE
:10288000002502E052085FEA3303C61A71EB020E1C
:1028900024BF3046714664416D41F3D302000B0002
:1028A0002000290070BD0C46B1FBF2F102FB11457E
:1028B0002D0445EA1045B5FBF2F402FB145580B235
:1028C00040EA0545B5FBF2F002FB105240EA044035
:1028D00070BD000070B4416801F0004201210D4B51
:1028E00044681C40446001D104686CB104684568C8
:1028F000E60F46EA4505456064000460491EEC02A7
:10290000F4D544682340436043681A434260084654
:1029100070BC7047FFFF0F004FF4001C1CEB410F11
:1029200094BF1CEB430F09E041EA030C50EA4C0C46
:1029300052EA0C0C03D2994208BF9042704714BF70
:102940008B428242704700004FF4001C1CEB410F89
:1029500094BF1CEB430F09E041EA030C50EA4C0C16
:1029600052EA0C0C03D28B4208BF8242704714BF5C
:10297000994290427047000070B504460D46606869
:10298000C0F30A5040F2FF71884209D16068000329
:1029900002D12068002801D0022070BD012070BD46
:1029A00030B92046FFF796FF012801DB002070BDFB
:1029B000012D0EDB40F2FF71091A8D4209D36068C8
:1029C000002847BF00202F4900202F49C4E90001FB
:1029D000E4E74142A942616806DA2C4A11404019F5
:1029E00041EA0050606049E001F000416268120372
:1029F000120B42F480126260401E451905F1350049
:102A0000352803D361600020206070BD002215F1DD
:102A10001F0F05DA203522686068206000206060A2
:102A2000684213D0521E9241D243C0F12003256860
:102A30009D4055EAD2722568C540666806FA03F3E0
:102A40002B432360636823FA00F0606060680843EA
:102A50006060B2F1004F03D80AD12078C00707D5D3
:102A60002068401C2060206810B96068401CB9E7ED
:102A70006068884202D12068002897D04FF0FF306C
:102A800070BD00BF0000F0FF0000F07FFFFF0F806F
:102A9000F446400D40EAC120490006D200F013F888
:102AA000004248BF6FF00040604700F00CF84FF064
:102AB000004188428CBF084640426047400D40EAD2
:102AC000C12049000CD240F00040490DA1F58061C1
:102AD000491C05D4D1F11F0154BFC840C01770472D
:102AE0004FF0000070470000010040F10880F446FC
:102AF000404200F004F851F000416047010009D065
:102B0000B0FA80F18840C91CC1F58461090501EB68
:102B1000D02140057047000070B44FF0004591EAA5
:102B2000030F44BF6B4000F02EBB841A71EB030609
:102B300004D26E40001BB141121973414FF4001CC6
:102B40001CEB410F34BF7CEB430684E00C0DA4EB7F
:102B50001356362E7DDC012E43DC45EAC32343EABF
:102B6000525312BFD20292025B08240545EAC121EA
:102B700041EA5051D2EBC020994125D407D1B0FA97
:102B800080F610FA06F164D00020203608E0B1FA91
:102B900081F6B140C6F1200220FA02F21143B040A2
:102BA0004FEAF474B4EB465434F001064FEA74046F
:102BB0000AD8D6F50016760D04F00044F04061FA0C
:102BC00006F25040F1404840C00A40EA415021F02E
:102BD000004128BF5FEA500550F1000044EBD121CD
:102BE00037E045EAC323DB0A45EAC121C90AB6F149
:102BF00020050EDD42EA0242120CC5F1200603FA5E
:102C000006F6EB4042EA06056D42984161F100018B
:102C10000DE062FA06F5F240554063FA06FC82EADE
:102C20000C02F3405A406D42904161EB030111F4F4
:102C3000801F05D1641E620502D06D0040414941EC
:102C400021F48011430875F1004350F1000041EB7D
:102C5000045170BC70471CEB410F15D223F00043A8
:102C600052EA43060BD04FEA4C0CBCEB410F04D8A0
:102C70000C0D661E342EB7DDEBE7801A994150EA41
:102C8000410608BF0021E4E708BF1CEB430F28BF43
:102C90006FF00001DDE70000B0B581EA030C0CF035
:102CA000004C40F2FF7515EA11541DBF15EA135789
:102CB000AC42AF4239E0E41923EA455343F48013B0
:102CC000C90241F0004141EA505EC7021100A7FB72
:102CD000020200284FF00000EEFB01204FF000013F
:102CE000E3FB072118BF42F00102401800214941CF
:102CF000E3FB0E01A4F580640F0302D252004041B1
:102D0000494154F101046CDD470872F1004250F171
:102D1000000051EB0451A1F580115CBF41EA0C01A8
:102D2000B0BD4CEA05510020B0BD05EA1357AC42D6
:102D300014BFAF4241E050EA410E1CBF52EA430EBD
:102D400002E061460020B0BD24423C441BD15FEA52
:102D5000070EF6D0090302BF01460020AEF1140EA3
:102D6000B1FA81F7AEEB070401FA07FE0C37C7F1A1
:102D7000200100FA07F7C8404EEA000E23EA455347
:102D800043F48013A2E733F00043B3FA83F704BFA0
:102D9000B2FA82FE77440B3FE41BB7F1200E2FBF3F
:102DA00002FA0EF3BB40C7F1200E22FA0EFE38BF26
:102DB00043EA0E03BA40641C82E750EA410E14BF96
:102DC00052EA430E6FF000014FF4001717EB430F68
:102DD0008ABF194617EB410FB5E74CEA05510020B1
:102DE000B0BDD4F10104B4F120070FDAC4F120071B
:102DF000520828BF42F0010210FA07F501FA07F75E
:102E0000E1BF2A43E0403843E1400FE0352C98DC35
:102E1000C7F1200452EA400220FA07F218BF42F03C
:102E2000010231FA07F0A1400A43002172F1004289
:102E300050F1000051EB0C01B0BD0000F0B540F2C4
:102E4000FF7581EA030C0CF0004C15EA11541DBF0C
:102E500015EA1357AC42AF42E5E0BC41C1F31301A0
:102E6000C3F31303801A994143F4801304D2641E00
:102E70004000494180185941C90241EA5051B1FB13
:102E8000F3F603FB1611A2FB0675D7EBC020A94190
:102E900002D2761E80185941C90241EA5051B1FB55
:102EA000F3FE03FB1E11A2FB0E75D7EBC020A94158
:102EB00003D2AEF1010E80185941890241EA9051C6
:102EC000760546EA8E2EB1FBF3F603FB1611A2FB44
:102ED0000675D7EB8020A94102D2761E8018594191
:102EE000C90241EA50514EEA060EB1FBF3F603FB6C
:102EF0001611A2FB0675D7EBC020A94102D2761E9F
:102F000080185941C90241EA5051B1FBF3F703FB64
:102F10001711A2FB0735D3EBC020A94167F10007C9
:102F20000CBF004247F0010766F3D5274FEA1E3178
:102F3000B80814F5806412DDBD0775F1004250EB4E
:102F40000E5051EB045111F5801F5CBF41EA0C019A
:102F5000F0BD4CF07F6141F0E0410020F0BDBD07C5
:102F60006D0840EA0E5041F48011D4F10104B4F12F
:102F700020060ADAC4F120060200E04001FA06F356
:102F8000E1401843B24015430EE0342C13DCC6F187
:102F9000200445EA40056D0820FA06F2154321FA9F
:102FA00006F0A1400D43002175F1004250F10000F0
:102FB00051EB0C01F0BD00205FEA0C01F0BDCFB970
:102FC00092185B41B3FA83F704BFB2FA82F6BF19D5
:102FD0000B3FB7F120062FBF02FA06F3BB40C7F143
:102FE000200622FA06F638BF3343BA401CB1E41972
:102FF000641E33E77F4231F00041B1FA81F404BF2F
:10300000B0FA80F6A4190B3CB4F120062FBF00FAE9
:1030100006F1A140C4F1200620FA06F638BF31437C
:10302000A0403C1B1AE7AC421ABF05EA1357AF4257
:1030300012E050EA41061CBF52EA4306BFE750EADD
:103040004107304661461CBF41EA0551F0BD52EAD6
:10305000430C08BFC143F0BD00204FF4001616EB2F
:10306000410F98BF16EB430F08BF16EB410F24BF6B
:10307000C14305E016EB430F0CBF61464CEA055116
:10308000F0BD000080B5134800F0E7F80FF24801EA
:10309000016041608160C1600161416181610FF245
:1030A0003C0242628162C162016341630FF23002FD
:1030B00082630FF23402C2630164416401BD10B542
:1030C000044800F0CAF80446206808B9FFF7DAFFA0
:1030D000204610BD00000020000000002E0000006F
:1030E00066616C7365000000747275650000000015
:1030F00091FBF2F303FB1211C0E9003170470000AD
:1031000080B5DFF80C0000F0A8F8806902BD00006F
:1031100030C3002030B438B90FF24400D0E9004584
:10312000C2E90045002001E00170012030BC704779
:1031300030B439B90FF23000D0E90045C3E9004599
:1031400000200BE012B96FF0010007E008B10A7827
:1031500002800978481E8041C043C00F30BC7047D0
:10316000000000000000000000000000000000005F
:103170007047000070B44FF0004591EA030C44BF63
:103180006B40FFF7D2BC841A71EB030603D2001B1D
:10319000B141121973414FF4001C1CEB410F34BFB5
:1031A0007CEB430443E00C0DA4EB1356352E50DCAE
:1031B00045EAC323DB0A45EAC121C912B6F120055D
:1031C0000DDD63FA05F6EB4086EA0305124218BFEF
:1031D00045F00105C01851F100010CD213E062FA6C
:1031E00006F5F2405540F3415A40B340F3405A408F
:1031F0008018594107D349085FEA30005FEA350576
:1032000028BF45F0010501F58011420875F1004223
:1032100050F1000041EB045170BC4FF4001C1CEB5A
:10322000410F38BF70470020090D090570471CEB9E
:10323000410F10D252EA43060BD0BCEB410F05D828
:103240000C0DAB43661E342EB5DD02E0AB43801897
:10325000594170BC704770BC7047704738B5044620
:1032600008E025462468686800F002FC294603202F
:1032700000F010FD002CF4D131BDF8B50024DFF8CA
:10328000E454142000FB04F67719F87B401CF87313
:10329000B87B022802D1F97BF02904D201280AD197
:1032A000F87B022807D3705918B1FFF7D7FF002029
:1032B00070510020B873641C0A2CE2DBF1BD2DE9CB
:1032C000F84F04460A220A23964600208DF8020091
:1032D0009046ADF800004FF01409DFF888A474B1EF
:1032E000DFF88404007809FB00A7BD7B022D06D11E
:1032F00025687F68BD4202D140B2BDE8F28F002749
:1033000002E0BEF10A0F06D109FB07A0807B10B9CD
:103310004FFA87FE37E009FB07FC0CEB0A05AE7B92
:1033200078B2012E1FD14CB12668D5F804B05E45A5
:1033300004D1DFF83404077078B2DEE75CF80A6085
:10334000002EED7B07D09DF80060B5421BD3804670
:103350008DF8005017E09DF80260B54213D3024685
:103360008DF802500FE0022E0DD124B1D4F800C028
:103370006E68B445DDD0ED7B9DF80160B54224BF99
:1033800003468DF801507F1C0A2FBADBBEF10A0FED
:1033900007D101F00300012805D10A2B0DDADFB2B5
:1033A0001DE0880702D54FF0FF30A6E7BEF10A0FF7
:1033B000F3DA5FFA8EFE774611E00A2AB8BFD7B279
:1033C0000DDB40460A28EEDA5FFA88F709FB07F5BD
:1033D00055F80A00FFF742FF002045F80A0009FBF4
:1033E00007A0002181730CB1216841600021C173E5
:1033F0009FE7F8B504460D466E680620401EC15C86
:1034000081558119875C8F710128F7DA00F0CFF8B8
:10341000B08129462046A269BDE8F84010472DE951
:10342000F04104460E4690461F4666B1306850B1E2
:1034300000F037F838B900F017F900F097F9316863
:103440002940814202D16FF0090028E03946304618
:10345000FFF735FF002822D4142101FB00F6C14FED
:10346000F0190221817304610621491E0A1811F81E
:10347000083013720129F8DA0021C1730BE00868E3
:10348000F0514D68032000F005FC434600F0E7F8DA
:10349000284600F0EDFAF1590029F0D10020BDE8EE
:1034A000F0812146304600F00BBC00B9704710B5E2
:1034B00049688268D1F81A30134044682240934228
:1034C00004D100238A1D1A31FFF7A9FF10BD2DE991
:1034D000FC4104460D46904634B1B8F80A002A284B
:1034E00004D2404600F0C4FABDE8F381D8F8047075
:1034F000FE89012000F004FC8642F2D17E8A40F26F
:10350000046000F0FDFB8642EBD13E8A00F04FF8EC
:103510008642E6D1BE8940F6060000F0F1FB864205
:10352000DFD1042207F11C0100A8FFF703F90422F0
:1035300007F1260101A8FFF7FDF8606808B9002629
:1035400003E001998142FAD10126334607F11602C0
:1035500000A92046FFF763FFB88A00F0D1FB0128DD
:10356000BFD1002EBDD0022000F0CAFBB88207F107
:10357000260007F11C010422FFF7DCF80422211DBC
:1035800007F11C00FFF7D6F80620401EC1198A7DFE
:1035900081F820208A7DC255425D8A75425D8A711C
:1035A0000128F2DA41462046A269904799E74FF494
:1035B000006000F0A5BBF0B583B004460D4616468A
:1035C0000E21284600F024FA002802D06FF00100F6
:1035D000FEBDFFF766FF20B10FF2BC2300F03FF8FD
:1035E000FEBD00F041F807464FF0604000F09AFB46
:1035F000316807EA010282421DD101208DF80000E6
:1036000000208DF801005E208DF80200306800F087
:1036100089FB000C00F07F008DF80300306800F09B
:1036200081FB000A8DF80400306800F07BFB8DF808
:10363000050000ABD2E7A0680140626810408142FB
:1036400004D0E068002807D004F20C062A46314670
:10365000204600F00DF8FEBD6FF00300FEBD04F142
:10366000210229462046C4E64FF0704000F05ABBC4
:103670002DE9F84F83460E4617460BF221084FF00E
:10368000FF345946FFF70EFF50B9FFF7EDFF00F08A
:103690006DF8316805EA0102824201D006B111B924
:1036A0006FF009005BE001213046FFF708FE0028BB
:1036B00055D4142101FB00F9DFF8A8A009EB0A0595
:1036C000A87B10B90120A87302E0012800D027B917
:1036D0003146584600F0A3F80446002F3ED0A87BA0
:1036E000022808D105F10803424639465846FFF73B
:1036F00080FE044632E0012830D13846017B0129A2
:103700000CD000220189032000F0CEF85FEA000B04
:1037100024D0394600F0F3F938B11CE000680028E5
:10372000ECD1BB46584600F0CBF9032000F0A4FAD8
:1037300088B100210160C0F804B059F80A1031B115
:1037400000E011460A68002AFBD1086001E049F850
:103750000A00002402E0584600F08AF92046BDE83D
:10376000F28F0000D0C00020A8C4002005464FF012
:10377000604000F0D7BA2DE9F74F80469A46DDF851
:1037800030B00D9DDDF838900F9C00222A210320D7
:1037900000F08AF8064616B94FF0FF303DE0776832
:1037A000A0B200F0ADFAB8820620401EC11910F890
:1037B0000A208A75425D81F820200299415CC1553A
:1037C000C119019A825C8A710128EEDA07F11C00A6
:1037D00059460422FEF7AEFF07F1260049460422AF
:1037E000FEF7A8FF012000F08BFAF881FFF7DFFE5B
:1037F000388240F2046000F083FA788240F60600D6
:1038000000F07EFAB88131464046D8F8182090473B
:103810000446304600F02CF92046BDE8FE8F00B586
:1038200085B00122039202910FF274010191011DF2
:10383000009100F121030FF2600200F12101FFF776
:103840009AFF05B000BD38B504460D466068808912
:1038500000F056FA4FF40061401A02D0801F0FD0DA
:1038600015E021462846FFF720FE6FF00D012046A7
:1038700000F0CEF858B92946204600F076FA09E063
:10388000224605F121012846FFF721FE02E02046ED
:1038900000F0EEF8002032BDFFFFFFFFFFFF000049
:1038A0000000000000000000F8B50D461746002695
:1038B00028B1022806D003D3032805D00BE0142634
:1038C0001436B6B20E36B6B2002F4ED0022F67D0E5
:1038D00066D3032F01D00020F2BD052000F0CCF903
:1038E0000400F8D00320207300202060301910302D
:1038F000C01C8008800060602581284640F2DC51B1
:10390000F21C22F00302891A884206DB40F2DC51E5
:10391000F21C4FF6FC731A408D1A65810121E1817A
:1039200026466189451A15E0032101730021417380
:1039300001603060058140F2DC52A9B2914288BF3B
:103940001146418100F1100141600121C18141898D
:103950006D1A0646012D2EDB052000F08DF900289A
:10396000E2D1204600F084F8B5E706F113004FF6E7
:10397000FC710840E91C4FF6FC721140081880B237
:1039800000F0B2FB0400A6D030191030C01C800833
:1039900080006060258165810020206020730AE03E
:1039A000042000F069F9040095D0002060602581B2
:1039B0006581206027730120E0810020607320462C
:1039C000F2BD38B504460D46208985421FD2281A1B
:1039D00005E06D1AADB22189411821812468618901
:1039E000A942F6DB207B48B98D4207D06068001BF6
:1039F000291889B2204600F026FB044665816089BB
:103A00002081206808B100F033F80020206031BD2B
:103A100030B500292AD0002828D04A42002905D5EF
:103A2000448993B29C4202D2012030BD0B46047BF4
:103A300045680CB1032C07D15219426000F1100304
:103A40009A420DD24560EFE7022C01D0012CEBD158
:103A50000029E9D544899BB29C42E5D352194260C2
:103A600042898A184281028989180181002030BD6B
:103A700000B9704738B50024C189491EC18189B297
:103A8000A1B90568017B032904D10146052000F096
:103A900001F908E0012901D0022902D101460420E0
:103AA000F5E700F09CFA641C2800E5D1E0B232BDD5
:103AB000002101E0491C00680028FBD1C8B2704712
:103AC00010B1C189491CC181704700B9704710B558
:103AD00061B103E004891219028118460A8903685A
:103AE000002BF7D10389D2180281016010BD10B5F7
:103AF0000C46FFF7EAFF2046BDE81040E0E72DE95D
:103B0000F04104460D460026002724B11DB120894E
:103B10002989884202D26FF0090033E068896189FF
:103B20008A1BC31B9A42ACBFC01B881B1FFA80F8BC
:103B300042466868391860683018FEF7FBFD464455
:103B4000B6B24744BFB26089864204BF00262468EB
:103B500068898742A4BF00272D6845B168892989F3
:103B6000884204D1286810B16FF008000AE034B12F
:103B700060892189884202D120680028F4D1002D73
:103B8000CCD10020BDE8F0812DE9F0430446884601
:103B9000154600262CB3B8F1000F22D0B14613E031
:103BA000C01A87B2BD42B8BF2F463A46606819189E
:103BB00009EB0800FEF7BEFDBE19B6B2B9441FFA04
:103BC00089F9ED1B00232468ADB2002D18BF002C2D
:103BD00007D060899BB2002BE2D08342E0D31B1A4E
:103BE000F1E73046BDE8F0832DE9F04104460D468B
:103BF0001646002714B90020BDE8F081002DFAD048
:103C00002089904238BF6FF00900F5D3B6B2002E7C
:103C1000F1D0B04660894045B8BF80464246791928
:103C20006068FEF787FDA6EB08064744BFB224682C
:103C3000ECE7000070B51B4800F11801C91C8908A9
:103C4000890000220FF260030FF26804002540F89B
:103C5000225008E050F822600E6040F8221033F83D
:103C6000126071186D1C34F81260ADB2B542F1D318
:103C7000521C062AEADB70BD062801D300207047DB
:103C8000084A52F8201000291CBF0B6842F8203067
:103C90000846704729B1034A52F820300B6042F8B9
:103CA00020107047D05000201C0020002000080089
:103CB0001000EC050400060005001E000A000A00C2
:103CC00000680246D34301D0002A01D10120704789
:103CD00091F82A309B0701D4002070474B689A4224
:103CE000FAD0091D496808400B409842F4D1C843F6
:103CF00000EA02018142EFD1E8E700000000000085
:103D0000010A41EA002080B27047F9E700F47F41E0
:103D1000090241EA0061020A02F47F42114341EACA
:103D200010607047F2E7000038B504469048056817
:103D300000E02D686DB1284600F078FA0028F8D030
:103D4000A868216801406A6810408142F1D1284684
:103D500032BD884C2068002803D000F067FA0028A4
:103D600001D1002032BD206832BD2DE9F843044660
:103D7000884665682888FFF7C8FF000B042804D030
:103D80002046FFF775FE00208EE02888FFF7BDFF74
:103D900007466888FFF7B9FF6189C7F30322B1EBD3
:103DA000820FEDD321898142EAD301462046FFF7F5
:103DB00008FE01264746DFF8B891384600F036FA8B
:103DC00060B1381D0AD0786840B12969814210D0AD
:103DD000394605F11000FFF773FF50B9002E1ABFE6
:103DE0000026D9F800703F68474508BF3F68002F9C
:103DF000E3D1414605F10C00FFF762FF0028BFD177
:103E00004FF07040FFF78EFF06464FF06040FFF71F
:103E100089FFE96831408142B2D0002FB0D043F62B
:103E2000FF70FFF76DFFE988014205D0204600F0E2
:103E3000E8FA0400A7D065684C4FC7F800807D60A1
:103E40004146204600F03EFC58BB2889FFF75DFF45
:103E5000C0B2012806D01128414608D1204600F002
:103E600061FC1EE04146204600F0F5FD19E005F139
:103E70001000FFF725FF88B94FF07040FFF752FFA1
:103E8000296900EA01064FF06040FFF74BFF8642C8
:103E900004D065600221204600F068FE2046FFF74E
:103EA000E7FD002038607860BDE8F2832DE9F84F27
:103EB00006468A4690469B460A9CDDF82C900C9D4F
:103EC000B8F1000F3CD01421FFF7A2FD10B16FF044
:103ED000010048E077683889FFF717FFC0B240EA71
:103EE0000B20FFF70DFF3881FFF70FFF000A49EAAB
:103EF0000020FFF705FF3881D8F80000386144F44E
:103F00008A40FFF7FDFE38803089FFF7F9FE7880A0
:103F10000020F880184C2088FFF7F2FEB880208837
:103F2000401C2080BAF1000F02D0DAF8000018B966
:103F3000281D0CBF00206868F8600020788102E02E
:103F4000706800F11008288D40B13189884205D28F
:103F500042462946304600F01EFB04E04246314608
:103F600028466B699847BDE8F28F000060C40020C6
:103F700058C400205CC40020A6C400202DE9FE43E4
:103F800006460F46904699460A9D0B9C4046FFF711
:103F9000CBFE10B96FF0030008E002900194009589
:103FA0004B46424639463046FFF780FFBDE8FE8368
:103FB00010B5744800F10C01C91C89088900016022
:103FC0004FF4A0420A8000234B800B7153184360CA
:103FD000436801241C711A805A80816010BD00B9A9
:103FE000704730B567490A6890422BD34C68A042AD
:103FF00028D20838002303718B68984238BF886044
:1040000003889B1898420DD01D795DB9A34209D051
:104010008C689C4208BF88601C8804801B889B18A1
:10402000841A5C8043889B1883420BD01C794CB95E
:104030008C68844208BF8B600188198000888018D2
:10404000991A418030BD2DE9F041C91C4FF6FC7230
:1040500002EA01030C2B08D20C234A490A68904259
:1040600008D34D68A84207D304E045F201018B4212
:10407000F3D30020BDE8F081A0F10804A51A26883A
:10408000771B083F1FFA87FE9E45F2DB7345F1D090
:10409000B718D1F808C05E19083697F80480B8F14F
:1040A000000F14D13B88B6B206EB020EBC4508BF28
:1040B000C1F808E07746002139713B807D80268079
:1040C0003988B1F5A04FD5D089184E80D2E7143386
:1040D0009E45CFD3B6B2B718674538BF8F60002171
:1040E000397121883980E9E7F0B5002801D1002035
:1040F000F0BDC01C4FF6FC7108400C2838BF0C20E6
:1041000003D345F201018842F1D21E498A680B6847
:10411000D41AA4B2064600E0E45AC0F5A045AC4269
:10412000E5DAE5182F79002FF6D12F883F1B083FDD
:10413000B742F1D31436B74212D30019083080B217
:10414000C618002737712F88378074802880012493
:104150002C713488B4F5A04F04D0E418608001E0DD
:1041600001202871954208D101E01088C218107909
:1041700000281CBF48688242F7D18A6005F1080018
:10418000F0BD0000B0000020F8B504460698079D79
:10419000089E00276760A760E76084F82A70E061E6
:1041A000194F387884F82D00401C3870266120465D
:1041B00000F00BF82046A847002801D00020F2BDEF
:1041C000786820607C602046F2BD70B504461546D4
:1041D0001E4600F009F82946204600F00DF8314649
:1041E0002046BDE8704003E001B1096841607047B6
:1041F00001B10968C160704701B109688160704709
:10420000014988607047000054C4002090F82A10CB
:10421000CA0700D5704780B541F0010180F82A1027
:10422000890644BF011DFFF7FAFA01BD90F82A0084
:1042300000F00100704700002DE9F04105460E46F0
:1042400000246F687868818891B9006868601422DA
:1042500005F108017868FEF76DFA0121384600F093
:1042600088FC3846FFF724FC04463846FFF700FC7C
:104270006F6809E0B846786807684046FFF718FCA1
:1042800004194046FFF7F4FB002FF3D131462846CE
:1042900000F03CF8DFF824040188091B0180204667
:1042A000BDE8F081F8B504460D4600260020002147
:1042B0000746DFF808245268002A09E0C37F92F815
:1042C0001FC0634500D31046136803B111461A009E
:1042D00012D05369D4F80CC0634509D19369D4F85E
:1042E00010C0634504D19389B4F804C06345EBD092
:1042F0007F1C0028E2D1E6E710B1FFF79DFF861989
:10430000AE4201DA022FD1DA3046F2BD10B50268B2
:10431000DFF8A8335C6884420CBF5A600A6001462B
:104320000220FFF7B7FC10BD2DE9F04704460D460B
:1043300000260127D5F804A0BAF80200FFF7E5FC33
:104340008046BAF80000FFF7E0FC8146BAF80600A4
:10435000FFF7DBFCC1006868066081804144C9F357
:104360000322A1EB8201C18061680CE03CD0BCF863
:1043700006108A4238D31EB1F188994218BF00272F
:10438000DCF80010664691B1D1F804C0BCF80430E6
:1043900082889A42EAD201603EB1F1888A4223D3F0
:1043A000C1888B4220D3356009E0656007E0002EAC
:1043B000FBD03560F1888288914218BF0027A17F29
:1043C000C9071BD577B161684968898831B1002771
:1043D00008E04868F18882889142F8D10646016871
:1043E0000029F6D138460AE02846FFF761FBB349B9
:1043F0000A88101A08802846FFF73AFB0020BDE81B
:10440000F0872DE9F84F814600200090D9F804503C
:104410002888FFF77AFCC0F303208000142854D1C9
:10442000E888FFF772FCC600B6B26888FFF76DFC3B
:1044300004462888FFF769FCC0F30320A4EB800042
:104440001FFA80FA4846FFF733FB80469B4C2088D2
:1044500040440B2809DB41462846FFF723FF00288C
:1044600033D0208840440B282FDA67680DE0786944
:10447000E968884207D1B8692969884203D1B889B7
:10448000A988884227D000973F68002FEFD10220EB
:10449000FFF7F2FB074657B941462846FFF702FFF0
:1044A000404510DB0220FFF7E7FB07465FB1202104
:1044B000384600F097FB0320F87760683860676043
:1044C00000F063F800E00027AFB94846FFF7D0FAE4
:1044D0000020BDE8F28F41F6FF7BE888FFF715FC6E
:1044E00010EA0B0F07D1F889FFF70FFC10EA0B0F4A
:1044F00001D000F04AF8208840442080E888FFF787
:1045000004FC800406D4B87F40F00100B8770AEBC1
:104510000600B88349463846FFF706FF0028D8D082
:10452000B88B1430B883786841680E680D46142241
:1045300007F108012846FEF7FDF8B88BFFF7E0FB0E
:1045400068800020E88068811421284600F070FB14
:104550006881D7F804900AE075686FF0130130465F
:10456000FFF756FA31464846FFF7AFFA2E68002E9D
:10457000F2D100993846FFF7C9FE4846FFF798FA8E
:104580002188081A20804846A3E71422294607F10B
:104590000800FEF7CFB82DE9F74F84B00D8D4FF02E
:1045A0001408022200210220FFF77EF95FEA0009C9
:1045B00002D14FF0FF307DE0A9F80A50A9F8085069
:1045C0003F488408A400C9F80440142204984168B4
:1045D0002046FEF7AFF8E088FFF797FB4FEAC04BA5
:1045E0004FEADB4B00F40050029004980089143825
:1045F00086B2A5F114000190811000EB51704003C8
:10460000000C009010E04946FFF771FA069A39460F
:104610000598436998473846FFF72AFA701B86B217
:10462000009858441FFA80FB002E3FD00198B042FA
:10463000ACBF0127002702984FEACB4150EAD14096
:104640001FFA80FA002F03BF4AF4005A0098C500F1
:1046500035461FFA88F3AAB204F114010498FFF753
:1046600093FA80445046FFF74BFBE08005F11400BD
:1046700080B2FFF745FB6080002060811421204656
:1046800000F0D6FA60812FB106F1140189B24846D4
:10469000FFF797F9002200210220FFF705F90746EE
:1046A000002FB0D14846FFF7E3F982E74846FFF70D
:1046B000DFF9002007B0BDE8F08F000068C40020DB
:1046C0008FB300202DE9F04780460025D8F80490EC
:1046D000B9F80800FFF719FB5FFA80FA0024104EC2
:1046E0003768D7B1387C504513D1D7F814C060462D
:1046F00078B109F10C0342463946B869E04740B148
:104700004FF00008012524B1F868E0603068F860D7
:1047100037603C46FF68002DE3D02846BDE8F087AF
:1047200090C400202DE9F84304460E4665682888A9
:10473000FFF7EBFA2189C0F30320800008308142A3
:10474000C0F290802888FFF7E0FA000A00F00F001E
:104750008000414209B22046FFF75AF900284ED1A5
:104760006768314605F11000FFF7AAFA81463888DC
:10477000FFF7CBFA80467888FFF7C7FA00230021BD
:10478000AC4A176801E03B46FF689FB3B7F812C018
:104790008445F8D1B9F1000F05D16FB1D7F800C049
:1047A000BCF1000F08D0D7F800C0D5F810E0F445F0
:1047B00002D0B9F1000FE6D029B997F810C05FEA2E
:1047C0004C7C58BF3946B7F814C0C445DBD117F14B
:1047D000040C08D0D7F804C0BCF1000F1CBFD5F8FA
:1047E0000CE0F445CFD15BB1F868D8601068F86090
:1047F000176005E00F461FB970682969884231D1FA
:104800006FF007012046FFF703F958BB5FB1BE699F
:10481000300027D0CDF8008005F10C032246394640
:10482000F869B04721E0B9F1000F1BD14FF070409B
:10483000FFF778FA06464FF06040FFF773FA2969F0
:10484000314081420ED02888FFF75FFAC0F3032081
:10485000800000F108012046FFF7DAF80321204626
:1048600000F084F92046FFF703F9BDE8F183838A5D
:10487000021DF8B504460D4616461F463046FFF7A2
:1048800053FA002802D16FF00300F2BD00903B46BE
:1048900032462946204600F001F8F2BD2DE9F047E6
:1048A00084B00446884691469A460C9F608A50B967
:1048B00000222146204600F04DF806461EB1304643
:1048C00004B0BDE8F08708214046FFF7A1F868B1C1
:1048D000002208210120FEF7E7FF054615B94FF039
:1048E000FF30EDE74146FFF702F900E045466E680C
:1048F000608AFFF705FA30805046FFF701FA7080B2
:104900000020F0800CB1206810B907F1040A0BE018
:104910007968884207D045451CBF2846FFF7A8F8AC
:104920006FF00800CCE7A2462889FFF7E9F9B080CC
:10493000029711200190A07A0090E37A4A465146EE
:104940002846FFF7B3FA06464545B8D02846FFF794
:104950008FF8B4E770B50023364C25682E4603E087
:10496000B04208BF0123F668002EF9D101B10968F1
:1049700001609AB94FF4805200E0521C2E466EB18D
:1049800047F6FF7192B28A4205D0718A914218BFF0
:10499000F668F4D1F1E76FF00A0070BD4282002B97
:1049A00004BFC5602060002070BD70B504460D4690
:1049B0001646608A28B9002221462046FFF7CAFF22
:1049C000A8B9002D0CBF002028686060A682207C5A
:1049D00040F004002074174801680A4600E0D268DD
:1049E00012B19442FBD101E0E1600460002070BD8F
:1049F00011490968416000218182017C01F0FB01BD
:104A0000017470478161C26170470A490A68824235
:104A100009D1D2680A6008E0D16819B1814204BFA7
:104A2000C168D160D268002AF6D101460120FFF7A3
:104A300031B900009CC40020FC3C000810B50120E6
:104A4000FFF71AF9040004D0202100F0CBF8FF2072
:104A5000E072204610BD2DE9F04784B00746884635
:104A60007E683088FFF751F9000A00F00F004FEA26
:104A70008009C9F1000421B200F075F8E0B9388965
:104A8000042819D378680078082815D101254FF03B
:104A90007040FFF747F9316900EA010A4FF06040C2
:104AA000FFF740F9824508BF0025414606F1100096
:104AB000FFF706F900B92DB9384604B0BDE8F04754
:104AC000FEF7D6BF38890828F6D3384600F0B6F886
:104AD0000028F1D1222100F046F8E0B100F042F8C0
:104AE0000028E9D1002239890220FEF7DDFE0546C3
:104AF000002DE1D03946FFF702F80028DCD16E68BE
:104B000021B22846FEF784FF0028D5D13846FEF7AB
:104B1000AFFF2F4605E06FF0210100F024F80028D8
:104B2000CAD17868F1683269F260316100210170A0
:104B300041803089FFF7E9F840F47F40FFF7E0F863
:104B400030810020708100F00DF80028B4D1CDF83C
:104B5000088000F040F8002206F10C013846FFF70B
:104B6000A5F9A9E749463846FEF752BF0A46032190
:104B700001E00A460B212DE9F04383B00746884641
:104B80009146002224210120FEF78EFE040020D051
:104B90007D68666886F8008086F801900020B08005
:104BA000F0801C22796860680830FDF7C3FD0020A2
:104BB00070806189304600F03BF8708000F00BF89F
:104BC00005F10C0200212046FFF7D8F92046FEF738
:104BD0004FFFBDE8F7830120019000200090FF23E4
:104BE00070470000002200F051B810B5002207E025
:104BF00010F8013B10F8014B54EA03239A18891E60
:104C000089B20229F4D211B1007812EB00224FF6DA
:104C1000FF7101EA020000EB1240020C12041CBFFB
:104C2000014001EB104080B2BDE81040FFF768B8CA
:104C300080B5FFF7DAFFC04380B202BD70B505460C
:104C40000026002412E069896868FFF7CEFF80190A
:104C500081B201EB1046A87AC00706D5C4F1010461
:104C6000F0B2C6F3072141EA00262D68002DEAD1F3
:104C7000E4B224B1F0B2C6F3072141EA0026F043C2
:104C800080B270BD62F30F2262F31F4200B51300C1
:104C900096469446103928BFA0E80C50FAD85FEA2F
:104CA000417C28BF0CC048BF40F8042BC90728BF6F
:104CB00020F8022B48BF00F8012B00BDDFF8C0042C
:104CC000C18802897AB10378012B0CD1521E02816E
:104CD00092B242B9032923BFDFF8A8140A70002159
:104CE000491C02220270C180704710B500220023C7
:104CF00003E01C5CA218D2B25B1C9BB28B42F8D3BF
:104D0000104610BD38B58021DFF87C0400F023FB8D
:104D1000DFF8784400228021204600F0ABFBDFF86A
:104D200070540021284600F04FFCDFF854044188FD
:104D3000284600F05BFC01228021204600F09AFB0F
:104D400001212846BDE8344000F03EBC70B500F0BB
:104D50002CF8B02000F025F800F007F84FF47A7036
:104D600000F02DF80FF25C4111E028710520608001
:104D7000C8E770B500F019F8B12000F012F8FFF79D
:104D8000F4FF41F2883000F01AF80FF25441304637
:104D900000F064FC288029883046BDE8704000F0AF
:104DA00049BDE870042128469FE7DFF8E853AA20B0
:104DB00028706870DFF8C8436078A8707047208159
:104DC0000020E08001202070DFF8CC53DFF8CC63B6
:104DD0006278704770B582B0DFF8A4436189A0891A
:104DE000884238BF4FF4807206D3DFF8B4231268CC
:104DF0004B1EA2EB032292B202F10905DFF8946385
:104E0000AA23337073706378B370B223F370317177
:104E10007071B2711112F171DFF8881301EB00208B
:104E2000A0F5807106F10800FDF784FC691E89B2C7
:104E30003046FFF75AFFADB2A91901F8010C6580A1
:104E4000FFF760FF4FF4FA6020810020E08001202E
:104E50002070DFF84453DFF8446360780090638982
:104E6000A2890FF29C31304600F0F8FB2880298897
:104E70003046BDE87C4000F0DDBCC14841898289F4
:104E8000914208D24178491C417001218181BD487D
:104E90000221017070479DE738B5C34C2078C349A3
:104EA0000978B74A022908D3AA280DD16078AA2820
:104EB0000AD1A07888420DD006E0012904D15528F6
:104EC00002D16078552801D0002032BDA0785178F9
:104ED0008842F9D19588691E89B22046FFF705FFFF
:104EE000291911F8011C8142EED1012032BDF8B51B
:104EF000FFF7D2FF01286BD1AB48C178A14D2B78C9
:104F00009F4CAA4A1278012A2FD16278A24EA34F51
:104F1000B0290BD1022B59D10FF20031384600F0E5
:104F20009DFB00F056F8032028704FE0B1290AD10C
:104F3000032B4BD10FF20031384600F08FFB00F00D
:104F400048F80420F0E7B22940D1042B3ED100926A
:104F50006389A2890FF20431384600F07FFB00F02C
:104F600038F8A089401CA08130E0B02906D1022089
:104F70002870B02020820020608227E0B12902BF83
:104F800003202870B120F5D0B2291CD1032B01D009
:104F9000042B18D1017961814279A2818379C0798A
:104FA00043EA0020E08140F20113984210D291427E
:104FB0000ED3608A411C914201D0904206D1042058
:104FC0002870B22001E0002028702082022020708A
:104FD000F1BD30803188384600F02CBC38B5694CC2
:104FE0002078002827D0012825D06D49096800299C
:104FF00002D10020207031BD6D49614D6A780B7B74
:10500000497BC9188A42F4DA022804D12878022898
:1050100011D1FFF79BFE2078032804D128780228BD
:1050200009D1FFF7A6FE2078042804D128780228A9
:1050300008BFFFF722FF31BD10B500F012F8B02015
:1050400003E010B500F00DF8B120E0700421204617
:10505000FFF74BFE20714A4CFFF788FE01202070BD
:1050600010BD4C4C55202070607050480078A070E6
:10507000704738B5FFF7F5FFB220E070404DA889C2
:10508000207105212046FFF730FE60710620688000
:10509000FFF738FE0120287031BD38B54FF4C0301D
:1050A00000F0D4FD044600F0D9FD424800F0E2FDD6
:1050B000002505E0404800EBC52000F0DBFD6D1C3D
:1050C000A54201D20428F5D0BDE8314000F0CCBDA6
:1050D000F8B52B4CA089618A814229D06082374D76
:1050E000374901EB0026002702E0361D3F1DBFB205
:1050F000E1898F420DD200F0B1FD2968304600F001
:10510000D7FD00F0B1FD306855F8041B8842ECD0A3
:105110000BE0A089618988420AD100F09FFDAA2195
:10512000244800F0E6FD00F09FFD164800210170C4
:10513000F1BD10B5124C07E00228FDD1FFF7ADFF1D
:10514000FFF77FFF00202082208AB028207806D138
:105150000228FDD1FFF770FF0020208203E0208AA3
:10516000B1282078E8D0208AB2282078ECD1022813
:10517000FDD1FFF7ADFFFFF77CFF00202082EEE7B7
:1051800034C4002014C4002000140140004C00402E
:10519000580402406CB90020A4C4002060C2002062
:1051A00018C4002000800208C4BB002088C400206E
:1051B00004C4002000F8000800000108CCBB002057
:1051C00000FF000853656E6420626F6F7420636F88
:1051D0006D6D616E6420746F3A25640A00000000F2
:1051E00053656E6420657261736520666C617368D7
:1051F00020636F6D6D616E6420746F3A25640A00E0
:1052000053656E64207061636B202564206F662097
:10521000256420746F3A25640A0000005265706CA2
:105220007920626F6F7420636F6D6D616E642066AC
:10523000726F6D3A25640A005265706C7920657250
:1052400061736520666C61736820636F6D6D616E5C
:10525000642066726F6D3A25640A00005265706CB6
:1052600079207061636B202564206F66202564209F
:1052700066726F6D3A25640A000000002DE9F04166
:10528000CB7803F00F02DB0644BF8B781A430B8800
:1052900001240F25DEB21EB3D0F800C0002604FAA8
:1052A00006F7BE460EEA0308F04514D14FEA860E13
:1052B00005FA0EF82CEA080C02FA0EFE4EEA0C0C67
:1052C00091F803E0BEF1280F08BF476103D0BEF19B
:1052D000480F08BF0761761C082EE0D3C0F800C055
:1052E0004FF48076B34226D3D0F804C0002606F1EE
:1052F000080704FA07F7BE460EEA0308F04515D181
:105300004FEA860E05FA0EF82CEA080C02FA0EFE99
:105310004EEA0C0C91F803E0BEF1280F08BF47617C
:1053200091F803E0BEF1480F08BF0761761C082E14
:10533000DDD3C0F804C0BDE8F081806801400800FA
:1053400018BF0120C0B27047C0680140080018BFF4
:105350000120C0B27047016170474161704770B56C
:10536000124A1468C0F3034583B2460D3601B340B8
:1053700000F44016B6F5401F06D124F070601468A2
:1053800024F07064146009E0C00243BF0320A84009
:1053900024EA000024EA030040F0706001B11843E1
:1053A000106070BD024908607047000004000140B1
:1053B000DC00204230B585B004460D46208A4CF60C
:1053C000FF710840E98808432082A0894EF6F31156
:1053D0000840A98808432989084369890843A081AE
:1053E000A08A4FF6FF410840A9890843A08200A87F
:1053F00000F0D0FC0D4884420CBF0398029819219C
:10540000484329688900B0FBF1F06421B0FBF1F258
:105410001201130901FB130000013230B0FBF1F05F
:1054200000F00F001043208105B030BD003801406E
:105430000029818912BF41F400514DF6FF721140DD
:105440008181704710B50B065B0F012401F01F012D
:1054500004FA01F1012B08BF0C3003D0022B0CBF62
:1054600010301430002A026814BF114322EA0101EF
:10547000016010BD002A828A14BF114322EA010193
:105480008182704721E010B50A06520F012301F016
:105490001F0403FA04F4012A08BF828903D0022AF8
:1054A0000CBF028A828A2240090A03FA01F10088AD
:1054B000084012B110B1012000E00020C0B210BDC0
:1054C0000122090A02FA01F189B2C9430180704739
:1054D00001684FF6FE7211400160002101604160D9
:1054E0008160C1604C494D4A904204BF086840F059
:1054F0000F004CD04A4A904204BF086840F0F000C8
:1055000045D0484A904204BF086840F470603ED0DD
:10551000454A904204BF086840F4704037D0434A7F
:10552000904204BF086840F4702030D0404A904256
:1055300004BF086840F4700029D03E4A904204BF7E
:10554000086840F0706022D03B493C4A904204BF5A
:10555000086840F00F001AD0394A904204BF08682A
:1055600040F0F00013D0374A904204BF086840F47E
:1055700070600CD0344A904204BF086840F4704018
:1055800005D0324A904203D1086840F47020086088
:10559000704702682E4B1A408B681A430B6A1A43F5
:1055A0000B691A434B691A438B691A43CB691A4337
:1055B0004B6A1A438B6A1A430260CA6842600A68DF
:1055C00082604968C16070470029016812BF41F0DC
:1055D00001014FF6FE72114001607047002A026817
:1055E00014BF114322EA0101016070474160704716
:1055F000406880B27047C1004CBF1649164909681F
:10560000084018BF0120C0B27047C1004CBF0A4912
:105610000149086070470000040002400800024091
:105620001C0002403000024044000240580002408A
:105630006C00024080000240040402400804024062
:105640001C0402403004024044040240580402405A
:105650000F80FFFF00040240000002400CB41CB5A4
:10566000044604A80190009401AB0A4600A907482B
:1056700078441830FBF798FF009900220A70002840
:105680005CBF0098001B16BC5DF80CFBEBCFFFFF66
:1056900038B500F094F804F2C805FFF7CFF9E860D8
:1056A0000020A871E86830B10120A8750020E875D5
:1056B00084F8C800A88031BD38B5044600F0A9F8C8
:1056C000E020674900FB041404F2D40528796979C5
:1056D000090441EA0060A97940EA0120E979084318
:1056E000FEF714FB009042F228325E49D4F8D40051
:1056F000FFF730F92A8900A9D4F8D400FFF755F94B
:1057000050B900225849D4F8D400FFF77BF90120A2
:1057100084F8CE000020E87231BDF8B5504B03F29A
:10572000CA048D8A668AB5422AD10025EE1896F8F9
:10573000D8604F684FEAC50C27FA0CF7FFB2BE429B
:1057400002D16D1C042DF1DB2179012918D1042D22
:1057500016D1118965290CD25168002006E0B3F8F2
:10576000CA504519465CEE54401CC0B21589A84287
:10577000F5DBB3F8CA104018A3F8CA000220207164
:105780001046BDE8F240FEF773B938B500F017F8DF
:105790000322B4F8CC100020FEF786F805000DD0E7
:1057A000B4F8CC2004F16401FEF71EFA2946D4F8BF
:1057B000D400FFF75CF82846FEF75AF931BDE02126
:1057C000274A01FB0024704738B5254C04F2C80570
:1057D000A879022806D104F1CA01204600F0D7FBBF
:1057E0000120A871A87D10B9BDE8324050E7A87922
:1057F00010B9BDE832405FE7012809D194F8C8002C
:10580000012805D10020FFF7C0FF002084F8C80060
:1058100031BD70B9124800F2D80142F228328A80B4
:10582000C02280F8D820A82048700A2088700C2058
:10583000C870704738B50A4A92F8CE30012B0DD1A6
:10584000002304E09C181D5C84F864505B1C8B42B0
:10585000F8DBA2F8CC100020FFF797FF31BD000065
:10586000F0BF0020FC3C00081B5700081FB54FF498
:105870001640009000200190ADF80800ADF80C0033
:105880000C20ADF80A00AA4C00A92046FFF792FDB3
:10589000002280212046FFF7EDFD01224021204615
:1058A000FFF7E8FD012240F224412046FFF7CAFD40
:1058B00001212046FFF7BCFD1FBD70B58CB09D4D8A
:1058C0002846FFF705FE9C4E00969C48019010204C
:1058D0000290202000F02BF84FF4405400F021F803
:1058E000012202212846FFF779FE9548FFF78DFE39
:1058F00000212846FFF768FE924D2846FFF7E8FD95
:10590000009691480190002002904FF4167000F02C
:105910000EF800F006F801212846FFF755FE0CB0FE
:1059200070BD09940A9000A92846FFF732BE039083
:105930000020049080200590002006900790089099
:10594000704700B585B000F067FB01217F4800F08B
:1059500086FA01217E4800F070FA012144F27D00B0
:1059600000F074FA012000F0E1FB00F042F900F0D1
:1059700067F8FFF77BFFFFF7A0FF00A800F00AFA27
:1059800000984FF47A71B0FBF1F07249B0F1807F6A
:105990000AD2714A0002000A401E5060F0200870CE
:1059A00000209060072010602020087005B000BD26
:1059B00000B5AFB00020FFF7F5FC062000F061FA5B
:1059C00000F0BAFB00F002FE00F007FE0128FBD059
:1059D00000A800F0BEFC012000900020079007A85E
:1059E0004FF40071C16000210161C16181620163F6
:1059F0004163816341664FF0007181664FF400128C
:105A0000026700228267C2670420289028A84160AC
:105A10004FF4803181604FF48001C1604FF4005138
:105A200001614FF480418161012100A800F091FBE8
:105A30004A49086001214A4800F0EFFD2FB000BD3F
:105A40002DE9F843042000F0AFF8464C00F0C4F80C
:105A5000062000F0A9F8444D00F0C7F843F62010E6
:105A600000F0A2F8414E00F0B1F801214FF02010F3
:105A7000FFF775FC0B2000F07FF8042000F0AAF877
:105A80004FF48069ADF8009000F07EF800F09EF8C9
:105A9000082000F077F800F0A8F84FF4F85000F074
:105AA00071F8334F00A93846FFF7E8FB4FF48070D8
:105AB00000F062F8182000F08DF8042000F07DF866
:105AC000DFF8B08000A94046FFF7D8FBADF80090A2
:105AD000182000F085F84FF40060ADF800000420B5
