:020000040800F2
:1000000078050020D1180008D1170008D317000880
:10001000D5170008D7170008D917000800000000FE
:10002000000000000000000000000000DB170008D6
:10003000DD17000800000000DF170008E1170008C6
:100040001119000815190008191900081D190008D0
:100050002119000825190008291900082D19000880
:100060003119000835190008391900083D19000830
:100070004119000845190008491900084D190008E0
:100080005119000855190008591900085D19000890
:10009000E917000865190008691900086D190008BA
:1000A0007119000875190008791900087D190008F0
:1000B0008119000885190008891900088D190008A0
:1000C0009119000895190008991900089D19000850
:1000D000A1190008A5190008A9190008AD19000800
:1000E000B1190008B5190008B9190008BD190008B0
:1000F000C1190008C5190008C9190008CD19000860
:10010000D1190008D5190008D9190008DD1900080F
:10011000E1190008E5190008E9190008ED190008BF
:10012000F1190008F5190008F9190008FD1900086F
:10013000011A0008051A0008091A00080D1A00081B
:10014000111A0008151A0008191A00081D1A0008CB
:10015000211A0008251A0008291A00082D1A00087B
:10016000311A0008351A0008391A00083D1A00082B
:10017000411A0008451A0008491A00084D1A0008DB
:10018000511A000810B40022002303E09BB21C5C4B
:10019000A2185B1C9BB289B28B42F7D31000C0B28D
:1001A00010BC704780B5DFF81C050088052801D217
:1001B00000202CE0DFF810050078AA2804D1DFF831
:1001C00008054078AA2801D0002020E0DFF8F804D4
:1001D0008078DFF8F8140978884201D0002016E012
:1001E000DFF8E0040088411E89B2DFF8DC04FFF785
:1001F000C9FFDFF8D0140988DFF8CC24891811F87A
:10020000011CC0B2814201D0002000E0012002BDEB
:1002100080B5FFF7C7FF012862D1DFF8AC04C078D2
:10022000C0B2B02808D1DFF8A804B0210180DFF8FF
:10023000A4040021018053E0C0B2B12808D1DFF846
:100240009004B1210180DFF88C040021018047E097
:10025000C0B2B22840D1DFF870040079DFF878141A
:100260000880DFF864044079DFF870140880DFF854
:1002700058048079DFF85014C97950EA0120DFF87A
:1002800060140880DFF85804008840F201118842A9
:1002900026D2DFF844040088DFF840140988884239
:1002A0001ED3DFF830040088401CDFF830140988C2
:1002B00088420CD0DFF81C040088DFF8201409887D
:1002C00088420DD1DFF80804B221018008E0DFF890
:1002D0000004B221018003E0DFF8F4030021018073
:1002E00001BD0FB400B583B00598000A10F00F00EF
:1002F0008DF802000598800D10F07F008DF8040045
:100300000598000D10F003008DF800000598000B13
:100310008DF801009DF80400DFF8B01309788842D9
:1003200040F095809DF802000F2840F090809DF8E5
:10033000000000280FD19DF81A200DF11B01DFF8F5
:10034000880300F0DDF99DF81A00DFF878130880C3
:10035000FFF75EFF7BE09DF80000012816D19DF8B5
:100360001A200DF11B01DFF8600300F0C9F9DFF876
:100370007403012101709DF80100DFF86C1308700F
:100380009DF81A00DFF86413088060E09DF8000013
:10039000022829D1D3480078012858D19DF80100BE
:1003A000D1490978491C884251D1D04800889DF82C
:1003B0001A100818B0F5967F49DC9DF81A200DF147
:1003C0001B01CA480088C04BC01800F099F9C64804
:1003D0000078401CC4490870C44800889DF81A1071
:1003E0000818C249088032E09DF8000003282ED189
:1003F000BC48007801282AD19DF80100BA49097843
:10040000491C884223D1B94800889DF81A10081861
:10041000B0F5967F1BDC9DF81A200DF11B01B34847
:100420000088A94BC01800F06BF9B04800889DF80F
:100430001A100818A3490880FFF7EAFEA94800210E
:100440000170A94800210170A8480021018007BC63
:100450005DF814FB0FB585B09DF817009DF81610D8
:1004600011F00F0150EA01209DF8151050EA0130FB
:100470009DF8141011F0030150EA01509DF8181076
:1004800011F07F0150EA8150019004208DF808009E
:1004900000208DF809009DF819008DF80A009DF8DC
:1004A0000A200DF11A010DF10B0000F029F900A945
:1004B0008F4800F086FA09B000BD00B585B0002075
:1004C0008DF8000000208DF801000F208DF802004B
:1004D0007E4800788DF8030001208DF80400052087
:1004E0008DF8050055208DF8060055208DF8070081
:1004F000764800788DF80800B0208DF809000421B6
:100500000DF10600FFF73EFE8DF80A0000A80FC8A7
:10051000FFF7A0FF05B000BD00B585B000208DF845
:10052000000000208DF801000F208DF802006748C0
:1005300000788DF8030001208DF8040005208DF867
:10054000050055208DF8060055208DF807005F48FE
:1005500000788DF80800B1208DF8090004210DF114
:100560000600FFF70FFE8DF80A0000A80FC8FFF77E
:1005700071FF05B000BD00B585B000208DF800000A
:1005800000208DF801000F208DF802004F48007800
:100590008DF8030001208DF8040006208DF8050079
:1005A00055208DF8060055208DF807004748007843
:1005B0008DF80800B2208DF80900484800888DF8B1
:1005C0000A0005210DF10600FFF7DCFD8DF80B0098
:1005D00000A80FC8FFF73EFF05B000BD10B5082406
:1005E00000F06DFB002000F055FB0221182000F008
:1005F0007FFB04000221202000F07AFB0400012090
:1006000000F048FB00F06BFB10BD70B5314800886E
:1006100032490988884230D02E4830490988018003
:10062000344C2E4800884FF48071334A01FB00257A
:10063000002602E02D1D241D361D29480088B6B273
:1006400086420CD200F03BFB2168280000F0A8FB9A
:1006500000F045FB286821688842EBD00DE01F4878
:1006600000881D490988884207D100F028FBAA218B
:10067000224800F0BFFB00F032FB70BD80B504E003
:10068000FFF71BFF12480021018011480088B028A5
:10069000F6D00F480088B12807D1FFF79FFFFFF77A
:1006A0003BFF0B4800210180EFE709480088B22892
:1006B000EBD1FFF7AAFFFFF75EFF0548002101809D
:1006C000E3E7000060010020280000207401002002
:1006D0006A0100206C0100206401002066010020F6
:1006E00068010020720100207301002062010020D7
:1006F000006400403000002000FF000800C0000837
:1007000010B50400200000F0D7FB200010BD10B48D
:1007100050F8041B81B102681218001D50F8043B08
:10072000DC0744BFA9F10104E31852F8044B43F875
:10073000044B091FF9D1EBE710BC704780B5DFF817
:10074000341588420AD101215FF0007000F08DFC61
:1007500000215FF0007000F088FC09E001215FF0EB
:10076000806000F082FC00215FF0806000F07DFC82
:1007700001BD10B400220023046834F002040460B8
:10078000046854F00104046000E05B1C4268D20776
:1007900003D44FF6FF729342F7D14268D20701D4D7
:1007A00000226AE08A79012A04D1026852F08002AC
:1007B000026003E0026832F080020260CA79012A16
:1007C00004D1026852F04002026003E0026832F095
:1007D000400202600A7A012A04D1026852F0200223
:1007E000026003E0026832F0200202604A7A012AC5
:1007F00004D1026852F01002026003E0026832F095
:10080000100202608A7A012A04D1026852F00802BA
:10081000026003E0026832F008020260CA7A012A2C
:1008200004D1026852F00402026003E0026832F070
:10083000040202608A78CB781B0653EA82720B7935
:1008400052EA03424B7952EA03520988491E114386
:10085000C1610168490849000160002300E05B1C98
:100860004168C90703D54FF6FF718B42F7D1406845
:10087000C00701D5002200E001221000C0B210BC68
:10088000704710B400210122837A9A401100DFF8EA
:10089000E823126852F00102DFF8DC331A60DFF857
:1008A000DC2312688A43DFF8D4331A60027B002A03
:1008B00019D1DFF8CC2312688A43DFF8C4331A60F9
:1008C000C288438853EA0242837ADFF8B84344F887
:1008D0003320827ADFF8AC3313EBC20283880488BA
:1008E00054EA03435360027B012A19D1DFF89023B5
:1008F00012680A43DFF888331A600288438853EA93
:100900000242837ADFF87C4344F83320827ADFF8AE
:10091000743313EBC2028388C48854EA03435360E0
:10092000C27A002A07D1DFF8602312688A43DFF811
:1009300058331A6006E0DFF8502312680A43DFF8E4
:1009400048331A600289002A06D1DFF84023126872
:100950008A43DFF838331A600289012A06D1DFF8AA
:100960002C2312680A43DFF824331A60407B0128E5
:1009700006D1DFF8080300680843DFF800130860B9
:10098000DFF8F402006840084000DFF8EC1208606D
:1009900010BC7047002181710021C17100210172DA
:1009A00000214172002181720021C17200218170F9
:1009B0000021C170032101710221417101210180D7
:1009C000704730B4002283685B0101D500220AE041
:1009D0008268120101D5012205E08268D20001D5AA
:1009E000022200E00422D2B2042A75D0D2B210EB67
:1009F0000213D3F8803113F00103D2B210EB0214CA
:100A0000C4F880310B7A002B0FD1D2B210EB021355
:100A1000D3F880310C684D7A55EA44542343D2B25E
:100A200010EB0214C4F8803110E0D2B210EB0213C4
:100A3000D3F880314C680D7A55EAC4044D7A2C43C2
:100A40002343D2B210EB0214C4F880318B7A13F036
:100A50000F038B72D2B210EB0213D3F884311B094F
:100A60001B01D2B210EB0214C4F88431D2B210EBE5
:100A70000213D3F884318C7A2343D2B210EB0214E0
:100A8000C4F884318B7B4C7B240454EA03630C7BD5
:100A900053EA0423CC7A2343D2B210EB0214C4F8F5
:100AA00088318B7C4C7C240454EA03630C7C53EA2D
:100AB0000423C97B1943D2B210EB0213C3F88C1183
:100AC000D2B210EB0211D1F8801151F00101D2B273
:100AD00010EB0210C0F880111000C0B230BC70479B
:100AE000C9B210EB0113D3F8B03113F00403137241
:100AF000137A002B07D1C9B210EB0113D3F8B03130
:100B00005B0D136006E0C9B210EB0113D3F8B031EE
:100B1000DB085360C9B210EB0113D3F8B03113F006
:100B200002035372C9B210EB0113D3F8B43113F0BE
:100B30000F039372C9B210EB0113D3F8B4311B0A3F
:100B4000D374C9B210EB0113D3F8B831D372C9B260
:100B500010EB0113D3F8B8311B0A1373C9B210EBB1
:100B60000113D3F8B8311B0C5373C9B210EB011346
:100B7000D3F8B8311B0E9373C9B210EB0113D3F83D
:100B8000BC31D373C9B210EB0113D3F8BC311B0ACB
:100B90001374C9B210EB0113D3F8BC311B0C53749E
:100BA000C9B210EB0113D3F8BC311B0E9374C9B258
:100BB000002904D1C16851F02001C16003E001693E
:100BC00051F0200101617047D2B2002A03D042697E
:100BD0001143416103E0426932EA0101416170471A
:100BE00001291DD004291ED008291FD0202920D07A
:100BF000402921D0B1F5807F27D0B1F5007F27D0E3
:100C0000B1F5806F27D0B1F5006F27D0B1F5004F57
:100C100029D0B1F5803F12D0B1F5003F12D027E0C6
:100C20001B49816024E00821C16021E01021C160DE
:100C30001EE0082101611BE01021016118E008217C
:100C4000416015E01021416012E0042141600FE095
:100C5000042141600CE00421416009E00021816130
:100C60000421416004E00021816104214160FFE72B
:100C70007047000000640040006600401C660040B1
:100C80000C66004040660040046600401466004068
:100C900001010100C0B2002808D0DFF8DC010068C3
:100CA00050F48060DFF8D011086007E0DFF8C80179
:100CB000006830F48060DFF8C01108607047DFF82A
:100CC000BC010068002809D5DFF8B401DFF8B411D1
:100CD0000160DFF8AC01DFF8B01101607047DFF8A8
:100CE0009C01006850F00040DFF8901108607047E8
:100CF00038B5040000250820C9B2002901D100251B
:100D00000DE0C9B2012902D14FF4807507E0C9B2E4
:100D1000022902D14FF4007501E04FF4407500F054
:100D2000B7F8C0B2082839D1DFF85001006830F4B4
:100D30004070DFF848110860DFF840010068284380
:100D4000DFF838110860DFF83401006830F0F8008F
:100D5000DFF828110860DFF82401006854F0020170
:100D60000843DFF818110860DFF81001006850F43C
:100D70008030DFF80811086000F08AF8DFF8FC1016
:100D8000096831F00201DFF8F4201160DFF8EC109F
:100D9000096831F0F801DFF8E4201160C0B232BD1B
:100DA00070B504000D00082600F072F80600F6B2D7
:100DB000082E1CD13148006830F440702F4908607B
:100DC0002E4800684FF4007108432C4908602B48F6
:100DD000006850F0010029490860256000F058F8CB
:100DE000060026480068400840002449086030009A
:100DF000C0B270BD70B504000D00082600F048F8C0
:100E00000600F6B2082E1CD11C48006830F4407071
:100E10001A490860194800684FF48071084317495F
:100E200008601648006850F00100144908602580E9
:100E300000F02EF8060011480068400840000F49F5
:100E400008603000C0B270BD082010490968C903AD
:100E500001D501200CE00D480068C00601D5052031
:100E600006E00A480068800701D5072000E0082056
:100E7000C0B2704700000000003C0240103C02403D
:100E8000043C024023016745AB89EFCD0C3C024096
:100E900080B508208DF80000FFF7D6FF8DF8000020
:100EA00003E0FFF7D1FF8DF800009DF80000012856
:100EB000F7D09DF8000002BD4AB38B0707D0521E41
:100EC00011F8013B00F8013B21D08B07F7D18307D4
:100ED0001ED1103A07D330B4B1E83810103AA0E868
:100EE0003810F9D230BC530724BFB1E80810A0E88D
:100EF000081044BF51F8043B40F8043BD20724BF1C
:100F000031F8022B20F8022B44BF0B780370704796
:100F1000083A07D3B1E80810083A40F8043B40F813
:100F200004CBF7D25307E4E7F0B4002100220023FA
:100F3000022400250226DFF854713F6817F00C07E1
:100F40003900002904D0042906D0082908D035E04A
:100F5000DFF84011016034E0DFF83C11016030E05F
:100F6000DFF82C110968C1F38055DFF824110968F6
:100F700011F03F06002D0BD0DFF81C11B1FBF6F18C
:100F8000DFF80C211268C2F3881202FB01F30AE0B9
:100F9000DFF80011B1FBF6F1DFF8F4201268C2F3BC
:100FA000881202FB01F3DFF8E8100968C1F3014180
:100FB000491C4C00B3FBF4F1016002E0DFF8D410EF
:100FC0000160DFF8C810096811F0F0010909DFF8C5
:100FD000CC208A5C0168D14041602C49096811F439
:100FE000E051890ADFF8B4208A5C4168D140816011
:100FF0002649096811F46041490BDFF8A0208A5C9A
:101000004168D140C160F0BC7047C9B2002905D029
:101010002349096808432249086005E02049096816
:1010200031EA00001E4908607047C9B2002905D0A6
:101030001C49096808431B49086005E0194909680B
:1010400031EA0000174908607047C9B2002905D08D
:101050001549096808431449086005E01249096800
:1010600031EA0000104908607047C9B2002905D074
:101070000E49096808430D49086005E00B490968F5
:1010800031EA000009490860704700000838024052
:10109000043802400024F40040787D010000002064
:1010A0003038024040380240443802402038024084
:1010B00040B2002808D540B210F00F00734A8018E3
:1010C000090100F8041C03E040B2714A090181548F
:1010D000704780B5B0F1807F01D3012010E000029D
:1010E000000A401E6B4908600F215FF0FF30FFF7D8
:1010F000DFFF694800210160684807210160002086
:1011000002BD00B585B000F000F9042000F005FA3A
:1011100000A8FFF709FF01984FF47A71B0FBF1F0D6
:10112000FFF7D7FF01215E48FFF76FFF01215FF056
:101130009050FFF77AFF012144F23000FFF785FF5E
:10114000012000F00BFA05B000BD80B500215FF072
:10115000006000F0DCF94FF4A06000F09FF914206B
:101160008DF8000000208DF8010000208DF80200AD
:1011700001208DF8030000A800F095F901BD00B52D
:1011800083B04FF40040009001208DF8040000204F
:101190008DF8060001208DF8070002208DF805006B
:1011A00000A9404800F0E0F9092208213E4800F07B
:1011B00040FA092209213C4800F03BFA4FF4407004
:1011C000009002208DF8040000208DF80600022017
:1011D0008DF8050001208DF8070000A9324800F0C5
:1011E000C3F907BD00B587B03048FFF7A7FA00A8DC
:1011F000FFF7D0FB00208DF8060001208DF80700D6
:1012000000208DF8080000208DF8090000208DF8DE
:101210000A0001208DF80B0000208DF8020000204C
:101220008DF803000C208DF8040001208DF80500D6
:101230000F20ADF8000000A91C48FFF79AFA002023
:101240008DF8160000208DF8170001208DF8180089
:101250000020ADF80C000820ADF80E000020ADF81D
:1012600010004FF4FF60ADF812000020ADF814003C
:1012700001208DF8190003A8FFF703FB01220221CA
:101280000A48FFF7A1FC07B000BD000018ED00E020
:1012900000E400E014E000E018E000E010E000E00E
:1012A0007F00640000180240000402400064004017
:1012B00080B5FFF726FFFFF748FFFFF760FFFFF756
:1012C00091FF01BD80B56848006850F00100664993
:1012D000086066480021016063480068644908406E
:1012E000614908606348644901605F48006830F400
:1012F00080205D49086061480021016000F058F8D5
:101300005F485FF00061016001BD30B40020002142
:10131000022200230224554D2D6815F00C052800EB
:10132000002804D0042806D0082808D02FE055480B
:10133000554901602EE05348544901602AE04D4868
:101340000068C0F380534B48006810F03F04002B46
:1013500009D04E48B0FBF4F046490968C1F3881142
:1013600001FB00F108E04848B0FBF4F0414909688E
:10137000C1F3881101FB00F13E480068C0F3014051
:10138000401C4200B1FBF2F03E49086002E03D48DB
:101390003D49016035480068C0F303103C49405C9A
:1013A0003849096831FA00F03649086030BC7047A6
:1013B00082B000200190002000902B48006850F47B
:1013C0008030294908602848006810F400300090F7
:1013D0000198401C01900098002803D10198B0F5B5
:1013E000A06FF0D120480068800302D50120009052
:1013F00001E0002000900098012832D11B481B49D1
:10140000096801601948006850F4004017490860F5
:101410001648006850F4A0501449086015481D494A
:1014200001601148006850F080700F4908600E4854
:1014300000688001FBD5184840F2037101600B4839
:10144000006880088000094908600848006850F07A
:101450000200064908600548006810F00C000828E2
:10146000F9D102B07047000000380240083802404D
:10147000FFFFF6FE04380240103000240C38024012
:1014800008ED00E0200000200024F40040787D01F9
:1014900010000020193C4005003C02402749084349
:1014A00027490860704710B4002100220F23C47838
:1014B000002C1FD02249096811F4E061D1F5E061E8
:1014C000090AD1F10402DBB20B41417891408278E4
:1014D0001A401143090102781A4BD154017849117D
:1014E000194A0123007810F01F0013FA00F042F8A7
:1014F00021000AE001784911144A0123007810F014
:101500001F0013FA00F042F8210010BC7047104A87
:10151000114008430F4908607047042806D10E485F
:10152000006850F004000C49086005E00A480068B3
:1015300030F0040008490860704700000000FA0518
:101540000CED00E000E400E000E100E080E100E0FC
:1015500080FFFF1F08ED00E010E000E00149C0B28D
:101560000860704720000E4230B40022002300249F
:1015700000252A0047E0012393400C681C409C4250
:1015800040D1036803241500EDB26D00AC40A343C5
:10159000036003680C791500EDB26D00AC40234385
:1015A00003600B79012B02D00B79022B1AD18368CF
:1015B00003241500EDB26D00AC40A3438360836843
:1015C0004C791500EDB26D00AC4023438360436855
:1015D00001249440A343436043688C799440A4B2AF
:1015E00023434360C36803241500EDB26D00AC4093
:1015F000A343C360C368CC791500EDB26D00AC4065
:101600002343C360521C102AB5D330BC7047006915
:1016100080B270470022406980B2084201D00122A6
:1016200000E000221000C0B2704701837047418380
:101630007047F0B400230024D2B211F00705EDB2D8
:10164000AD00AA40130089B2CA1010EB820289B221
:10165000CD1010EB85052D6A0F2611F00707FFB29C
:10166000BF00BE40B543156289B2CA1010EB8202BA
:10167000126A1A43140089B2C91010EB8100046287
:10168000F0BC704780B53B480088012814D1394828
:10169000002101804FF400413748FFF7BBFF0028CD
:1016A00005D04FF400413448FFF7C1FF04E04FF488
:1016B00000413148FFF7B9FF01BD80B52F480068F0
:1016C0002F490840B0F1005F0ED12E482E4909681D
:1016D00001602E482B49096801602848006800F025
:1016E00063F82A480068804701BD80B5FFF7E0FD38
:1016F0002748FFF78CFFC04310F07F002549087092
:1017000025482649098801802148FFF780FFC0F35A
:10171000C01090F0010080B2002808D1002000F035
:1017200047F8552803D01C480088AA2802D0FEF7A5
:10173000A5FF01E0FFF7C1FF002002BD80B51848FA
:101740000068401C164908601648008800280ED022
:1017500014480088401E1349088012480088002859
:1017600005D11048FA210180024801210180FFF7CC
:1017700089FF01BD6E010020001802400000010831
:101780000000FE2F5C010020040001085801002029
:1017900000000240740100207001002000C0000819
:1017A000540100202400002080F30888704770470F
:1017B00081B00021009105490091009911EB800052
:1017C00000900098006801B0704700005028004069
:1017D0007047704770477047704770477047704751
:1017E00080B5FFF7ABFF01BD00B587B001AA0021AE
:1017F0000848FFF775F902210648FFF7F1F901A93A
:1018000084B068461422FFF764FB0FBCFEF769FD45
:1018100007B000BD0064004010B5084979441C3190
:10182000074C7C441A34A14206D0081D0A6851189E
:1018300088470146A142F8D110BD00BF2C0000002E
:101840004C00000050F8041B61B150F8042BD30782
:1018500044BFA9F101039A18002342F8043B091F71
:10186000FAD1EFE770470000DDFFFFFF50010000F5
:10187000280000200000000097EEFFFF2800000075
:10188000D4010000000000200000000000F009F872
:10189000002801D0FFF7C0FF0020FFF726FF00F06F
:1018A00002F80120704780B500F002B800BF0000C8
:1018B0000746384600F002F8FBE7000080B5C04656
:1018C000C046024A11001820ABBEFBE7260002000A
:1018D0000148804701480047C5120008E118000888
:1018E000C046C046C046C046FFF7D0FFFFF770BFF6
:1018F000FFF76FBFFFF76EBFFFF76DBFFFF76CBF5E
:10190000FFF76BBFFFF76ABFFFF769BFFFF768BF5D
:10191000FFF7FEBFFFF7FEBFFFF7FEBFFFF7FEBFFB
:10192000FFF7FEBFFFF7FEBFFFF7FEBFFFF7FEBFEB
:10193000FFF7FEBFFFF7FEBFFFF7FEBFFFF7FEBFDB
:10194000FFF7FEBFFFF7FEBFFFF7FEBFFFF7FEBFCB
:10195000FFF7FEBFFFF7FEBFFFF7FEBFFFF7FEBFBB
:10196000FFF742BFFFF7FEBFFFF7FEBFFFF7FEBF67
:10197000FFF7FEBFFFF7FEBFFFF7FEBFFFF7FEBF9B
:10198000FFF7FEBFFFF7FEBFFFF7FEBFFFF7FEBF8B
:10199000FFF7FEBFFFF7FEBFFFF7FEBFFFF7FEBF7B
:1019A000FFF7FEBFFFF7FEBFFFF7FEBFFFF7FEBF6B
:1019B000FFF7FEBFFFF7FEBFFFF7FEBFFFF7FEBF5B
:1019C000FFF7FEBFFFF7FEBFFFF7FEBFFFF7FEBF4B
:1019D000FFF7FEBFFFF7FEBFFFF7FEBFFFF7FEBF3B
:1019E000FFF7FEBFFFF7FEBFFFF7FEBFFFF7FEBF2B
:1019F000FFF7FEBFFFF7FEBFFFF7FEBFFFF7FEBF1B
:101A0000FFF7FEBFFFF7FEBFFFF7FEBFFFF7FEBF0A
:101A1000FFF7FEBFFFF7FEBFFFF7FEBFFFF7FEBFFA
:101A2000FFF7FEBFFFF7FEBFFFF7FEBFFFF7FEBFEA
:101A3000FFF7FEBFFFF7FEBFFFF7FEBFFFF7FEBFDA
:101A4000FFF7FEBFFFF7FEBFFFF7FEBFFFF7FEBFCA
:101A5000FFF7FEBF000000000102030401020304BF
:101A6000060708090000000000000000010203044E
:0C1A700006070809000E2707FA00000016
:04000005080018E1F6
:00000001FF
