:10000000E80C0020FD1D0000B91C0000BB1C000016
:10001000BD1C0000BF1C0000C11C0000000000004F
:10002000000000000000000000000000C31C0000F1
:10003000C51C000000000000C71C0000C91C000017
:100040003D1E0000411E0000451E0000491E00002C
:100050004D1E0000511E0000551E0000591E0000DC
:100060005D1E0000611E0000651E0000691E00008C
:100070006D1E0000711E0000751E0000791E00003C
:100080007D1E0000811E0000851E0000891E0000EC
:10009000D11C0000911E0000951E0000991E00005A
:1000A0009D1E0000A11E0000A51E0000A91E00004C
:1000B000AD1E0000B11E0000B51E0000B91E0000FC
:1000C000BD1E0000C11E0000C51E0000C91E0000AC
:1000D000CD1E0000D11E0000D51E0000D91E00005C
:1000E000DD1E0000E11E0000E51E0000E91E00000C
:1000F000ED1E0000F11E0000F51E0000F91E0000BC
:10010000FD1E0000011F0000051F0000091F000068
:100110000D1F0000111F0000151F0000191F000017
:100120001D1F0000211F0000251F0000291F0000C7
:100130002D1F0000311F0000351F0000391F000077
:100140003D1F0000FD1C0000451F0000491F00006E
:100150004D1F0000511F0000551F0000591F0000D7
:100160005D1F0000611F0000651F0000691F000087
:100170006D1F0000711F0000751F0000791F000037
:100180007D1F00000020DFF8B8160800DFF8B41665
:1001900001600021C18081803221418170470FB50B
:1001A0000020DFF89C160800C188491C428991FB99
:1001B000F2F302FB13118288914210D0C188491CCE
:1001C000428991FBF2F302FB1311C180C1880E2218
:1001D000006802FB010000A90E2200F057FB0FBDD2
:1001E0003FB585B0002400259DF8170010F07F0072
:1001F0009DF8161011F01F0150EAC1109DF815105E
:1002000050EA01309DF8141011F0030150EA01503A
:100210009DF8181011F07F0150EA815001900420E0
:100220008DF8080000208DF809009DF819008DF860
:100230000A009DF80A200DF11A010DF10B0000F0E3
:100240005DFB00A9DFF8000600F0B9FC05002900FD
:10025000C9B2DFF8F40500F041FD012806D0641CA6
:100260004FF6FF70A4B28442F1D1641C2900C9B2D8
:10027000DFF8D80500F032FD09B030BD30B585B0EB
:10028000DFF8BC45002100250020A288E3889A42BF
:1002900018D0A588ADB2681C618990FBF1F201FB12
:1002A0001205ADB20E20216800FB051100A80E2238
:1002B00000F0ECFA00A80FC8FFF792FFC0B20428C4
:1002C00000D0A58005B030BD10B40022002303E0AB
:1002D0009BB21C5CA2185B1C9BB289B28B42F7D309
:1002E0001000C0B210BC704780B5DFF86805008808
:1002F000052801D200202CE0DFF85C050078AA2850
:1003000004D1DFF854054078AA2801D0002020E06D
:10031000DFF844058078DFF838150978884201D085
:10032000002016E0DFF82C050088411E89B2DFF8B6
:100330002805FFF7C9FFDFF81C150988DFF8182525
:10034000891811F8011CC0B2814201D0002000E0E0
:10035000012002BD10B50024FFF7C6FF012872D1AD
:10036000DFF8F404C078C0B2B02808D1DFF8EC049C
:10037000B0210180DFF8E8040021018063E0C0B211
:10038000B12808D1DFF8D404B1210180DFF8D0040E
:100390000021018057E0C0B2B22850D1DFF8B80484
:1003A0000079DFF8C0140880DFF8AC044079DFF88A
:1003B000B8140880DFF8A0048079DFF89C14C979AC
:1003C00050EA0120DFF8A4140880DFF89C040088BC
:1003D000DFF89C14DFF89024128821F81020DFF851
:1003E0008C04008840F2011188422CD2DFF874049A
:1003F0000088DFF874140988884224D3DFF8600489
:100400000088401CDFF86014098888420CD0DFF8AF
:1004100050040088DFF850140988884208D1DFF8BA
:100420003C04B221018003E0DFF83004B2210180F6
:10043000DFF834040088022805D3002403E0DFF845
:100440001C040021018010BD0FB400B587B000204E
:100450000999C90911F01F018DF802100999890D38
:1004600011F07F018DF804100999090D11F00301B5
:100470008DF800100999090B8DF801100999890D63
:1004800011F07F018DF80C109DF8241011F07F0100
:100490008DF80B100999C90911F01F018DF80A1088
:1004A0000999090B8DF809100999090D11F003013B
:1004B0008DF808109DF82A108DF80D100021080005
:1004C00008E080B202A9411880B208AA8218D27A44
:1004D0008A71401C9DF80D1080B289B28842F0D319
:1004E00002A80FC800F03FFD9DF80400DFF860137C
:1004F0000978884240F096809DF802000F2840F06D
:1005000091809DF8000000280FD19DF82A200DF160
:100510002B01DFF8440300F0F1F99DF82A00DFF821
:1005200034130880FFF716FF7CE09DF800000128D7
:1005300016D19DF82A200DF12B01DFF81C0300F0E5
:10054000DDF9DFF83003012101709DF80100DFF8CB
:10055000281308709DF82A00DFF82013088061E056
:100560009DF8000002282AD1DFF80803007801284E
:1005700058D19DF80100C0490978491C884251D1E1
:10058000BE4800889DF82A100818B0F5967F49DC0F
:100590009DF82A200DF12B01B8480088AE4BC018F9
:1005A00000F0ACF9B4480078401CB3490870B34877
:1005B00000889DF82A100818B049088032E09DF89C
:1005C000000003282ED1AB48007801282AD19DF8DD
:1005D0000100A9490978491C884223D1A74800880D
:1005E0009DF82A100818B0F5967F1BDC9DF82A208C
:1005F0000DF12B01A1480088974BC01800F07EF93F
:100600009E4800889DF82A10081892490880FFF734
:10061000A1FE984800210170974800210170974879
:100620000021018007B05DF814FB00B585B0002003
:100630008DF8000000208DF801000F208DF80200D9
:10064000834800788DF8030001208DF80400052010
:100650008DF8050055208DF8060055208DF807000F
:100660007B4800788DF80800B0208DF8090004213F
:100670000DF10600FFF728FE8DF80A0000A80FC84C
:10068000FFF78DFD05B000BD00B585B000208DF8E9
:10069000000000208DF801000F208DF802006C484A
:1006A00000788DF8030001208DF8040005208DF8F6
:1006B000050055208DF8060055208DF80700644888
:1006C00000788DF80800B1208DF8090004210DF1A3
:1006D0000600FFF7F9FD8DF80A0000A80FC8FFF724
:1006E0005EFD05B000BD00B585B000208DF80000AE
:1006F00000208DF801000F208DF80200544800788A
:100700008DF8030001208DF8040006208DF8050007
:1007100055208DF8060055208DF807004C480078CC
:100720008DF80800B2208DF809004F4800888DF838
:100730000A0005210DF10600FFF7C6FD8DF80B003C
:1007400000A80FC8FFF72BFD05B000BD10B50824A9
:1007500000F0DFFC002000F0C7FC0221182000F0B0
:10076000F1FC04000221202000F0ECFC0400012038
:1007700000F0BAFC00F0DDFC10BD70B53848008810
:1007800039490988884230D035483749098801807D
:100790003B4C354800884FF480713A4A01FB0025F4
:1007A000002602E02D1D241D361D30480088B6B2FB
:1007B00086420CD200F0ADFC2168280000F01AFD42
:1007C00000F0B7FC286821688842EBD00DE026488D
:1007D000008824490988884207D100F09AFCAA21A0
:1007E000294800F031FD00F0A4FC70BD80B5002068
:1007F0000EE01A480088B22806D1FFF7BEFFFFF7C7
:1008000072FF164800210180FFF738FD00F03FFC21
:1008100012480088B02805D1FFF707FF0F480021D4
:100820000180F1E70D480088B128E2D1FFF78EFF83
:10083000FFF72AFF094800210180E5E700000000DA
:10084000B8080020FC03002000680040006400405D
:10085000E4080020D0080020B8060020DA080020B4
:10086000DC080020D4080020D6080020D80800208A
:10087000E4070020E2080020E3080020D20800205E
:10088000C006002000FF000800C000084AB38B0724
:1008900007D0521E11F8013B00F8013B21D08B0715
:1008A000F7D183071ED1103A07D330B4B1E838101E
:1008B000103AA0E83810F9D230BC530724BFB1E891
:1008C0000810A0E8081044BF51F8043B40F8043B6E
:1008D000D20724BF31F8022B20F8022B44BF0B783B
:1008E00003707047083A07D3B1E80810083A40F897
:1008F000043B40F804CBF7D25307E4E710B50400FB
:100900002000FFF7C3FF200010BD10B450F8041BF7
:1009100081B102681218001D50F8043BDC0744BF87
:10092000A9F10104E31852F8044B43F8044B091FE2
:10093000F9D1EBE710BC704780B5DFF8DC158842D1
:100940000AD101215FF0007000F081FD00215FF00D
:10095000007000F07CFD09E001215FF0806000F094
:1009600076FD00215FF0806000F071FD01BD10B4E4
:1009700000220023046834F002040460046854F088
:100980000104046000E05B1C4268D20703D44FF608
:10099000FF729342F7D14268D20701D400226AE085
:1009A0008A79012A04D1026852F08002026003E0D1
:1009B000026832F080020260CA79012A04D102681A
:1009C00052F04002026003E0026832F0400202602E
:1009D0000A7A012A04D1026852F02002026003E080
:1009E000026832F0200202604A7A012A04D10268C9
:1009F00052F01002026003E0026832F0100202605E
:100A00008A7A012A04D1026852F00802026003E0E7
:100A1000026832F008020260CA7A012A04D1026830
:100A200052F00402026003E0026832F00402026045
:100A30008A78CB781B0653EA82720B7952EA03421A
:100A40004B7952EA03520988491E1143C16101687A
:100A5000490849000160002300E05B1C4168C907A8
:100A600003D54FF6FF718B42F7D14068C00701D51F
:100A7000002200E001221000C0B210BC704710B488
:100A800000210122837A9A401100DFF89024126835
:100A900052F00102DFF884341A60DFF8842412680F
:100AA0008A43DFF87C341A60027B002A19D1DFF810
:100AB000742412688A43DFF86C341A60C288438851
:100AC00053EA0242837ADFF8604444F83320827AA2
:100AD000DFF8543413EBC2028388048854EA0343DA
:100AE0005360027B012A19D1DFF8382412680A43C7
:100AF000DFF830341A600288438853EA0242837A6E
:100B0000DFF8244444F83320827ADFF81C3413EBF6
:100B1000C2028388C48854EA03435360C27A002A1D
:100B200007D1DFF8082412688A43DFF800341A601E
:100B300006E0DFF8F82312680A43DFF8F0331A60A2
:100B40000289002A06D1DFF8E82312688A43DFF819
:100B5000E0331A600289012A06D1DFF8D423126833
:100B60000A43DFF8CC331A60407B012806D1DFF856
:100B7000B00300680843DFF8A8130860DFF89C039F
:100B8000006840084000DFF89413086010BC70470C
:100B9000002181710021C171002101720021417287
:100BA000002181720021C172002181700021C17079
:100BB000032101710221417101210180704730B48C
:100BC000002283685B0101D500220AE082681201DD
:100BD00001D5012205E08268D20001D5022200E0A1
:100BE0000422D2B2042A75D0D2B210EB0213D3F889
:100BF000803113F00103D2B210EB0214C4F880313B
:100C00000B7A002B0FD1D2B210EB0213D3F8803144
:100C10000C684D7A55EA44542343D2B210EB0214C7
:100C2000C4F8803110E0D2B210EB0213D3F8803157
:100C30004C680D7A55EAC4044D7A2C432343D2B252
:100C400010EB0214C4F880318B7A13F00F038B720F
:100C5000D2B210EB0213D3F884311B091B01D2B2BC
:100C600010EB0214C4F88431D2B210EB0213D3F8A3
:100C700084318C7A2343D2B210EB0214C4F884314D
:100C80008B7B4C7B240454EA03630C7B53EA0423E0
:100C9000CC7A2343D2B210EB0214C4F888318B7C97
:100CA0004C7C240454EA03630C7C53EA0423C97B80
:100CB0001943D2B210EB0213C3F88C11D2B210EB6D
:100CC0000211D1F8801151F00101D2B210EB0210E3
:100CD000C0F880111000C0B230BC70470022C9B209
:100CE000002903D002290DD006D311E08068DFF877
:100CF000441211EA00020CE08068DFF83C1211EAAD
:100D0000000206E08068DFF8341211EA000200E019
:100D10000022002A16D0DFF82802121A14D0921EE0
:100D200018D0DFF82002121A10D04FF40070121AF7
:100D300012D0DFF81402121A0AD05FF40030121A2F
:100D40000CD00DE002220CE000220AE0002208E0B4
:100D5000002206E0012204E0012202E0012200E07C
:100D600000221000C0B2704730B40023C9B210EBAB
:100D70000114D4F8B04114F004041472147A002C55
:100D800007D1C9B210EB0113D3F8B0315B0D13607A
:100D900006E0C9B210EB0113D3F8B031DB085360A1
:100DA000C9B210EB0113D3F8B03113F00203537240
:100DB000C9B210EB0113D3F8B43113F00F039372DF
:100DC000C9B210EB0113D3F8B4311B0AD374C9B202
:100DD00010EB0113D3F8B831D372C9B210EB011381
:100DE000D3F8B8311B0A1373C9B210EB0113D3F84F
:100DF000B8311B0C5373C9B210EB0113D3F8B831DF
:100E00001B0E9373C9B210EB0113D3F8BC31D3732B
:100E1000C9B210EB0113D3F8BC311B0A1374C9B269
:100E200010EB0113D3F8BC311B0C5374C9B210EB97
:100E30000113D3F8BC311B0E9374937A04E09BB278
:100E40009C180025E5725B1C9BB2082BF7D3C9B236
:100E5000002904D1C16851F02001C16003E001699B
:100E600051F02001016130BC7047D2B2002A03D09A
:100E700042691143416103E0426932EA0101416183
:100E8000704701291DD004291ED008291FD0202910
:100E900020D0402921D0B1F5807F27D0B1F5007F47
:100EA00027D0B1F5806F27D0B1F5006F27D0B1F50D
:100EB000004F29D0B1F5803F12D0B1F5003F12D0DC
:100EC00027E02249816024E00821C16021E010214F
:100ED000C1601EE0082101611BE01021016118E0E2
:100EE0000821416015E01021416012E004214160B9
:100EF0000FE0042141600CE00421416009E0002181
:100F000081610421416004E000218161042141608C
:100F1000FFE77047000000000064004000660040EA
:100F20001C6600400C6600404066004004660040BD
:100F300014660040030000040003000800000310D2
:100F400001000004FD00000400FD00080101010093
:100F5000002062490800624901600021C18081804F
:100F60004621418170470FB500205C490800C188C7
:100F7000491C428991FBF2F302FB131182889142D2
:100F800010D0C188491C428991FBF2F302FB131176
:100F9000C180C1880E22006802FB010000A90E2258
:100FA000FFF774FC0FBD3FB585B0002400259DF808
:100FB000170010F07F009DF8161011F01F0150EA85
:100FC000C1109DF8151050EA01309DF8141011F071
:100FD000030150EA01509DF8181011F07F0150EA0A
:100FE0008150019004208DF8080000208DF8090040
:100FF0009DF819008DF80A009DF80A200DF11A01DC
:101000000DF10B00FFF77AFC00A93648FFF7D7FD7A
:1010100009B030BD0FB400B585B000200799890D27
:1010200011F07F018DF804109DF81C1011F07F0164
:101030008DF803100799C90911F01F018DF80210EE
:101040000799090B8DF801100799090D11F003019B
:101050008DF800109DF822108DF805100021080071
:1010600008E080B200A9411880B206AA8218D27A9C
:101070008A71401C9DF8051080B289B28842F0D375
:1010800000A80FC8FFF78BF805B05DF814FB30B56A
:1010900085B0124C002100250020A288E3889A42E6
:1010A00018D0A588ADB2681C618990FBF1F201FBF4
:1010B0001205ADB20E20216800FB051100A80E221A
:1010C000FFF7E4FB00A80FC8FFF76DFFC0B20428CC
:1010D00000D0A58005B030BD00000000AC080020A5
:1010E0002800002000640040C0B2002808D0DFF8CB
:1010F000DC01006850F48060DFF8D011086007E080
:10110000DFF8C801006830F48060DFF8C0110860C3
:101110007047DFF8BC010068002809D5DFF8B4018A
:10112000DFF8B4110160DFF8AC01DFF8B011016045
:101130007047DFF89C01006850F00040DFF8901124
:101140000860704738B5040000250820C9B200299E
:1011500001D100250DE0C9B2012902D14FF48075FB
:1011600007E0C9B2022902D14FF4007501E04FF443
:10117000407500F0B7F8C0B2082839D1DFF8500147
:10118000006830F44070DFF848110860DFF8400173
:1011900000682843DFF838110860DFF83401006880
:1011A00030F0F800DFF828110860DFF8240100684B
:1011B00054F002010843DFF818110860DFF810014D
:1011C000006850F48030DFF80811086000F08AF8F9
:1011D000DFF8FC10096831F00201DFF8F42011603B
:1011E000DFF8EC10096831F0F801DFF8E420116055
:1011F000C0B232BD70B504000D00082600F072F8D0
:101200000600F6B2082E1CD13148006830F4407058
:101210002F4908602E4800684FF4007108432C499C
:1012200008602B48006850F00100294908602560DB
:1012300000F058F80600264800684008400024499D
:1012400008603000C0B270BD70B504000D00082603
:1012500000F048F80600F6B2082E1CD11C480068C1
:1012600030F440701A490860194800684FF48071E2
:101270000843174908601648006850F001001449F7
:101280000860258000F02EF806001148006840082C
:1012900040000F4908603000C0B270BD08201049FE
:1012A0000968C90301D501200CE00D480068C0069B
:1012B00001D5052006E00A480068800701D507200F
:1012C00000E00820C0B2704700000000003C02406F
:1012D000103C0240043C024023016745AB89EFCD3E
:1012E0000C3C024080B508208DF80000FFF7D6FFC7
:1012F0008DF8000003E0FFF7D1FF8DF800009DF8A6
:1013000000000128F7D09DF8000002BDF0B40021D4
:1013100000220023022400250226DFF854713F68D2
:1013200017F00C073900002904D0042906D0082939
:1013300008D035E0DFF84011016034E0DFF83C11FF
:10134000016030E0DFF82C110968C1F38055DFF847
:101350002411096811F03F06002D0BD0DFF81C1195
:10136000B1FBF6F1DFF80C211268C2F3881202FB20
:1013700001F30AE0DFF80011B1FBF6F1DFF8F42029
:101380001268C2F3881202FB01F3DFF8E810096863
:10139000C1F30141491C4C00B3FBF4F1016002E0D0
:1013A000DFF8D4100160DFF8C810096811F0F0010F
:1013B0000909DFF8CC208A5C0168D14041602C49E2
:1013C000096811F4E051890ADFF8B4208A5C4168A9
:1013D000D14081602649096811F46041490BDFF86A
:1013E000A0208A5C4168D140C160F0BC7047C9B29E
:1013F000002905D02349096808432249086005E00F
:101400002049096831EA00001E4908607047C9B2E6
:10141000002905D01C49096808431B49086005E0FC
:101420001949096831EA0000174908607047C9B2D4
:10143000002905D01549096808431449086005E0EA
:101440001249096831EA0000104908607047C9B2C2
:10145000002905D00E49096808430D49086005E0D8
:101460000B49096831EA000009490860704700002B
:1014700008380240043802400024F40040787D011E
:10148000000000203038024040380240443802401A
:101490002038024040B2002808D540B210F00F00BA
:1014A000AF4A8018090100F8041C03E040B2AD4ABD
:1014B00009018154704780B5B0F1807F01D30120CC
:1014C00010E00002000A401EA74908600F215FF0EB
:1014D000FF30FFF7DFFFA54800210160A448072186
:1014E0000160002002BD00B585B000F07AF904204B
:1014F00000F07FFA00A8FFF709FF01984FF47A7116
:10150000B0FBF1F0FFF7D7FF01219A48FFF76FFF1B
:1015100001215FF0B050FFF77AFF012144F2300063
:10152000FFF785FF012000F085FA05B000BD80B50A
:1015300000215FF0006000F056FA4FF4A06000F068
:1015400019FA14208DF8000000208DF80100002009
:101550008DF8020001208DF8030000A800F00FFABA
:1015600041208DF8000001208DF8010000208DF849
:10157000020001208DF8030000A800F000FA01BD70
:1015800000B583B04FF40040009001208DF80400B6
:1015900000208DF8060001208DF8070002208DF84C
:1015A000050000A9744800F04BFA0922082173488D
:1015B00000F0ABFA09220921704800F0A6FA4FF4B6
:1015C0004070009002208DF8040000208DF8060085
:1015D00002208DF8050001208DF8070000A967485A
:1015E00000F02EFA09220C21644800F08EFA09223C
:1015F0000D21624800F089FA4FF44050009002201B
:101600008DF8040000208DF8060002208DF80500FA
:1016100001208DF8070000A9584800F011FA07BD15
:1016200000B587B05648FFF787F900A8FFF7B0FA72
:1016300000208DF8060001208DF8070000208DF8AD
:10164000080000208DF8090000208DF80A00012014
:101650008DF80B0000208DF8020000208DF80300AB
:101660000B208DF8040001208DF805000420ADF852
:10167000000000A94248FFF77AF900208DF8160013
:1016800000208DF8170001208DF818000020ADF81B
:101690000C000020ADF80E000020ADF81000002076
:1016A000ADF812000020ADF8140001208DF81900EB
:1016B00003A8FFF7E4F9012202213148FFF7D5FB27
:1016C0003048FFF739F900A8FFF762FA00208DF8DB
:1016D000060001208DF8070000208DF8080000208A
:1016E0008DF8090000208DF80A0001208DF80B000C
:1016F00000208DF8020000208DF803000B208DF8EB
:10170000040001208DF805000420ADF8000000A9B8
:101710001C48FFF72CF90E208DF8160000208DF8DC
:10172000170001208DF818000020ADF80C000020F3
:10173000ADF80E000020ADF810000020ADF812004A
:101740000120ADF8140001208DF8190003A8FFF75F
:1017500096F9012210210B48FFF787FB07B000BD67
:1017600018ED00E000E400E014E000E018E000E024
:1017700010E000E07F006400001802400004024016
:10178000006400400068004080B5FFF7ACFEFFF742
:10179000CEFEFFF7F5FEFFF743FF01BD80B56848B9
:1017A000006850F001006649086066480021016049
:1017B00063480068644908406149086063486449B7
:1017C00001605F48006830F480205D49086061482E
:1017D0000021016000F058F85F485FF0006101608F
:1017E00001BD30B400200021022200230224554D07
:1017F0002D6815F00C052800002804D0042806D018
:10180000082808D02FE05548554901602EE053487C
:10181000544901602AE04D480068C0F380534B48AA
:10182000006810F03F04002B09D04E48B0FBF4F0E4
:1018300046490968C1F3881101FB00F108E04848F6
:10184000B0FBF4F041490968C1F3881101FB00F1D4
:101850003E480068C0F30140401C4200B1FBF2F07A
:101860003E49086002E03D483D4901603548006856
:10187000C0F303103C49405C3849096831FA00F074
:101880003649086030BC704782B0002001900020CB
:1018900000902B48006850F480302949086028489F
:1018A000006810F4003000900198401C01900098EE
:1018B000002803D10198B0F5A06FF0D1204800684E
:1018C000800302D50120009001E0002000900098E4
:1018D000012832D11B481B4909680160194800687A
:1018E00050F40040174908601648006850F4A050B2
:1018F0001449086015481D4901601148006850F0FE
:1019000080700F4908600E4800688001FBD51848B8
:1019100040F2037101600B480068800880000949AB
:1019200008600848006850F0020006490860054851
:10193000006810F00C000828F9D102B070470000D0
:101940000038024008380240FFFFF6FE043802402B
:10195000103000240C38024008ED00E02000002088
:101960000024F40040787D0110000020193C40055F
:10197000003C02402749084327490860704710B4DB
:10198000002100220F23C478002C1FD022490968AF
:1019900011F4E061D1F5E061090AD1F10402DBB292
:1019A0000B414178914082781A4011430901027835
:1019B0001A4BD15401784911194A0123007810F0CB
:1019C0001F0013FA00F042F821000AE001784911E3
:1019D000144A0123007810F01F0013FA00F042F8B7
:1019E000210010BC7047104A114008430F4908609D
:1019F0007047042806D10E48006850F004000C49D6
:101A0000086005E00A48006830F0040008490860F2
:101A1000704700000000FA050CED00E000E400E073
:101A200000E100E080E100E080FFFF1F08ED00E042
:101A300010E000E00149C0B20860704720000E428B
:101A400030B400220023002400252A0047E00123AF
:101A500093400C681C409C4240D10368032415004D
:101A6000EDB26D00AC40A343036003680C79150030
:101A7000EDB26D00AC40234303600B79012B02D023
:101A80000B79022B1AD1836803241500EDB26D0087
:101A9000AC40A343836083684C791500EDB26D00C0
:101AA000AC4023438360436801249440A3434360D4
:101AB00043688C799440A4B223434360C3680324F1
:101AC0001500EDB26D00AC40A343C360C368CC7990
:101AD0001500EDB26D00AC402343C360521C102AC8
:101AE000B5D330BC7047006980B2704700224069AE
:101AF00080B2084201D0012200E000221000C0B2F2
:101B000070470183704741837047F0B4002300247D
:101B1000D2B211F00705EDB2AD00AA40130089B2B0
:101B2000CA1010EB820289B2CD1010EB85052D6A28
:101B30000F2611F00707FFB2BF00BE40B543156284
:101B400089B2CA1010EB8202126A1A43140089B2D9
:101B5000C91010EB81000462F0BC704780B53F48AB
:101B60000088012814D13D48002101804FF4004134
:101B70003B48FFF7BBFF002805D04FF40041384831
:101B8000FFF7C1FF04E04FF400413548FFF7B9FF0C
:101B900001BD80B53348006833490840B0F1005FAB
:101BA0000ED1324832490968016032482F4909682C
:101BB00001602C48006800F06BF82E4800688047F0
:101BC00001BD80B5FFF7E0FD2B48FFF78CFFC04358
:101BD00010F07F002949087029482A4909880180A6
:101BE000FEF7D0FAFFF7B4F92348FFF77CFFC0F304
:101BF000C01090F0010080B2002808D1002000F051
:101C00004BF8552803D01E480088AA2806D0FEF7B6
:101C1000EDFD1B481B490988018001E0FFF7B9FF72
:101C2000002002BD80B518480068401C16490860B5
:101C30001648008800280ED014480088401E13491A
:101C4000088012480088002805D11048FA21018038
:101C5000024801210180FFF781FF01BDDE0800205D
:101C600000180240000001080000FE2FCC080020F0
:101C700004000108C808002000000240E408002019
:101C8000E008002000C00008C40800202400002054
:101C900080F308887047704781B0002100910549A2
:101CA0000091009911EB800000900098006801B04D
:101CB00070470000502800407047704770477047D9
:101CC000704770477047704780B5FFF7ABFF01BDA5
:101CD00000B587B001AA00211848FFF745F8022196
:101CE0001648FFF7CEF801A984B068461422FEF723
:101CF000DAFD0FBCFFF78EF907B000BD00B587B065
:101D000001AA01210E48FFF72FF810210C48FFF718
:101D1000B8F801A984B068461422FEF7C4FD0FBCD0
:101D2000FFF778F901A984B068461422FEF7BBFDDD
:101D30000FBCFEF789FB07B000BD00000064004047
:101D40000068004010B5084979441C31074C7C44B8
:101D50001A34A14206D0081D0A6851188847014666
:101D6000A142F8D110BD00BF2C0000004C000000C3
:101D700050F8041B61B150F8042BD30744BFA9F1FC
:101D800001039A18002342F8043B091FFAD1EFE738
:101D900070470000DDFFFFFFC008000028000020A2
:101DA0000000000067EBFFFF28000000D4010000E6
:101DB000000000200000000000F009F8002801D019
:101DC000FFF7C0FF0020FFF7FCFE00F002F8012043
:101DD000704780B500F002B800BF000007463846E3
:101DE00000F002F8FBE7000080B5C046C046024A9A
:101DF00011001820ABBEFBE7260002000148804717
:101E0000014800479D1700000D1E0000C046C04657
:101E1000C046C046FFF7D0FFFFF74EBFFFF74DBFEC
:101E2000FFF74CBFFFF74BBFFFF74ABFFFF749BFB4
:101E3000FFF748BFFFF747BFFFF746BFFFF7FEBFFB
:101E4000FFF7FEBFFFF7FEBFFFF7FEBFFFF7FEBFC6
:101E5000FFF7FEBFFFF7FEBFFFF7FEBFFFF7FEBFB6
:101E6000FFF7FEBFFFF7FEBFFFF7FEBFFFF7FEBFA6
:101E7000FFF7FEBFFFF7FEBFFFF7FEBFFFF7FEBF96
:101E8000FFF7FEBFFFF7FEBFFFF7FEBFFFF720BF64
:101E9000FFF7FEBFFFF7FEBFFFF7FEBFFFF7FEBF76
:101EA000FFF7FEBFFFF7FEBFFFF7FEBFFFF7FEBF66
:101EB000FFF7FEBFFFF7FEBFFFF7FEBFFFF7FEBF56
:101EC000FFF7FEBFFFF7FEBFFFF7FEBFFFF7FEBF46
:101ED000FFF7FEBFFFF7FEBFFFF7FEBFFFF7FEBF36
:101EE000FFF7FEBFFFF7FEBFFFF7FEBFFFF7FEBF26
:101EF000FFF7FEBFFFF7FEBFFFF7FEBFFFF7FEBF16
:101F0000FFF7FEBFFFF7FEBFFFF7FEBFFFF7FEBF05
:101F1000FFF7FEBFFFF7FEBFFFF7FEBFFFF7FEBFF5
:101F2000FFF7FEBFFFF7FEBFFFF7FEBFFFF7FEBFE5
:101F3000FFF7FEBFFFF7FEBFFFF7FEBFFFF7FEBFD5
:101F4000FFF7DCBEFFF7FEBFFFF7FEBFFFF7FEBFE8
:101F5000FFF7FEBFFFF7FEBFFFF7FEBFFFF7FEBFB5
:101F6000FFF7FEBFFFF7FEBFFFF7FEBFFFF7FEBFA5
:101F7000FFF7FEBFFFF7FEBFFFF7FEBFFFF7FEBF95
:101F8000000000000102030401020304060708091F
:101F90000000000000000000010203040607080919
:081FA000000E2707FA00000003
:0400000500001E0DCC
:00000001FF
