:10000000980B0020F9270000C9260000CB2600002D
:10001000CD260000CF260000D12600000000000001
:10002000000000000000000000000000D3260000D7
:10003000D526000000000000D7260000D9260000C9
:10004000392800003D280000412800004528000014
:10005000492800004D2800005128000055280000C4
:10006000592800005D280000612800006528000074
:10007000692800006D280000712800007528000024
:10008000792800007D2800008128000085280000D4
:10009000E12600008D28000091280000952800002E
:1000A000992800009D280000A1280000A528000034
:1000B000A9280000AD280000B1280000B5280000E4
:1000C000B9280000BD280000C1280000C528000094
:1000D000C9280000CD280000D1280000D528000044
:1000E000D9280000DD280000E1280000E5280000F4
:1000F000E9280000ED280000F1280000F5280000A4
:10010000F9280000FD280000012900000529000051
:10011000092900000D2900001129000015290000FF
:10012000192900001D2900002129000025290000AF
:10013000292900002D29000031290000352900005F
:10014000392900000D270000412900004529000041
:10015000492900004D2900005129000055290000BF
:10016000592900005D29000061290000652900006F
:10017000692900006D29000071290000752900001F
:100180007929000010B50400E4B2102C07D2DFF882
:10019000780C00F035FF204110F001006DE0B4F163
:1001A0001000C0B2102809D2DFF8600C00F028FF60
:1001B000B4F11001084110F001005EE0B4F120003C
:1001C000C0B208280AD2DFF8480C00F019FFC0B20C
:1001D000B4F12001084110F001004EE0E4B2282CF7
:1001E00006D14FF40061DFF82C0C00F0FEFE44E075
:1001F000E4B2292C06D14FF48051DFF8180C00F03E
:10020000F4FE3AE0E4B22A2C06D14FF40051DFF8B4
:10021000040C00F0EAFE30E0E4B22B2C05D10821FA
:10022000DFF8F40B00F0E1FE27E0E4B22C2C05D15E
:100230001021DFF8E40B00F0D8FE1EE0E4B22D2C14
:1002400006D14FF48071DFF8C80B00F0CEFE14E049
:10025000E4B22E2C06D14FF40071DFF8B40B00F09D
:10026000C4FE0AE0E4B22F2C06D14FF48061DFF81F
:10027000A00B00F0BAFE00E0002010BD10B582B067
:100280001420FFF77FFF8DF80000DFF8900B007857
:100290009DF80010884209D0DFF8800B40880028C4
:1002A00004D1DFF8780B9DF800104170DFF86C0B7B
:1002B00040789DF8001088422CD1DFF8600B407820
:1002C000DFF8581B0978884224D0DFF8500B4088AB
:1002D000401CDFF8481B4880DFF8400B4088652849
:1002E00022D3DFF8380B4078DFF8301B0870DFF8D6
:1002F0002C0B00214180DFF8240B0078012804D169
:10030000DFF8180B012101710EE0DFF8100B02215C
:10031000017109E0DFF8040BDFF8001B0978417078
:10032000DFF8F80A00214180DFF8F00A007901289F
:1003300004D1DFF8E80A0121017208E0DFF8DC0AE5
:100340000079022803D1DFF8D40A002101722C20A1
:10035000FFF718FF8DF80000DFF8C00A407A9DF81B
:10036000001088420AD0DFF8B40AB0F80B00002869
:1003700004D1DFF8A80A9DF800108172DFF89C0A0A
:10038000807A9DF80010884230D1DFF8900A807A98
:10039000DFF8881A497A884228D0DFF8800AB0F856
:1003A0000B00401CDFF8741AA1F80B00DFF86C0A90
:1003B000B0F80B00652824D3DFF8600ADFF85C1A78
:1003C000897A4172DFF8540A0021A0F80B10DFF897
:1003D0004C0A407A012804D1DFF8400A0121417318
:1003E0000FE0DFF8380A022141730AE0DFF82C0A37
:1003F000DFF8281A497A8172DFF8200A0021A0F874
:100400000B10DFF8180A407B012804D1DFF80C0A32
:100410000121417408E0DFF8040A407B022803D17F
:10042000DFF8F80900214174002400E0641CE4B204
:10043000182C80F08782E4B20C2C0FD2E4B260005A
:10044000C0B2FFF79FFE8DF80000E4B26000401CD0
:10045000C0B2FFF797FE8DF801000FE0A01CC0B2FC
:100460004000C0B2FFF78EFE8DF80000E4B26000DD
:10047000401DC0B2FFF786FE8DF80100E4B21320E4
:10048000DFF89C1900FB041000789DF800108842EA
:1004900011D0E4B21320DFF8881900FB0410408863
:1004A000002808D1E4B21320DFF8741900FB04100F
:1004B0009DF800104170E4B21320DFF8641900FBCE
:1004C000041040789DF80010884268D1E4B21320EF
:1004D000DFF84C1900FB04104078E4B21321DFF878
:1004E000402901FB04210978884258D0E4B2132046
:1004F000DFF82C1900FB04104088401CE4B21321E3
:10050000DFF81C2901FB04214880E4B21320DFF846
:10051000101900FB04104088652856D3E4B213205C
:10052000DFF8FC1800FB04104078E4B21321DFF878
:10053000F02801FB04210870E4B21320DFF8E01872
:1005400000FB041000214180E4B21320DFF8D01832
:1005500000FB04100078012810D1E4B21320DFF86A
:10056000C01800FB041001210171E4B21320DFF870
:10057000B01800FB04100121417326E0E4B21320FF
:10058000DFF89C1800FB041002210171E4B2132073
:10059000DFF88C1800FB04100021417315E0E4B271
:1005A0001320DFF87C1800FB0410E4B21321DFF8FD
:1005B000702801FB042109784170E4B21320DFF8B0
:1005C000601800FB041000214180E4B21320DFF822
:1005D000501800FB041040799DF80110884212D099
:1005E000E4B21320DFF8381800FB0410B0F807005D
:1005F000002808D1E4B21320DFF8241800FB04100F
:100600009DF801108171E4B21320DFF8141800FB8B
:10061000041080799DF8011088425DD1E4B2132066
:10062000DFF8FC1700FB04108079E4B21321DFF837
:10063000F02701FB0421497988424DD0E4B2132010
:10064000DFF8DC1700FB0410B0F80700401CE4B230
:100650001321DFF8CC2701FB0421A1F80700E4B245
:100660001320DFF8BC1700FB0410B0F807000328C4
:10067000C0F0E680E4B21320DFF8A41700FB0410FA
:10068000E4B21321DFF8982701FB04218979417135
:10069000E4B21320DFF8881700FB04100021A0F853
:1006A0000710E4B21320DFF8781700FB041040793C
:1006B000012808D1E4B21320DFF8641700FB04100E
:1006C00001214172BCE0E4B21320DFF8541700FBB3
:1006D000041002214172B3E0E4B21320DFF84017A6
:1006E00000FB0410407A012840F093809DF801003F
:1006F00001283ED1E4B21320DFF8241700FB0410D8
:10070000B0F80700401CE4B21321DFF8142701FB06
:100710000421A1F80700E4B21320DFF8041700FB5E
:100720000410B0F8070040F22D118842C0F0888014
:10073000E4B21320DFF8E81600FB04100021417238
:10074000E4B21320DFF8D81600FB041000218172F8
:10075000E4B21320DFF8C81600FB04100021C172B8
:10076000E4B21320DFF8B81600FB04100021C173B7
:1007700066E0E4B21320DFF8A81600FB0410B0F81E
:1007800007004FF49671884221D2E4B21320DFF8BB
:10079000901600FB041002214172E4B21320DFF82E
:1007A000801600FB041000214171E4B21320DFF831
:1007B000701600FB041000218171E4B21320DFF8F1
:1007C000601600FB04100021A0F8071038E0E4B226
:1007D0001320DFF84C1600FB041000214172E4B234
:1007E0001320DFF83C1600FB041000214171E4B235
:1007F0001320DFF82C1600FB041000218171E4B2F5
:100800001320DFF81C1600FB04100021A0F80710CD
:1008100016E0E4B21320DFF8081600FB0410E4B27F
:100820001321DFF8FC2501FB042149798171E4B231
:100830001320DFF8EC1500FB04100021A0F80710CE
:10084000E4B21320DFF8D81500FB0410807A0028EA
:1008500002D001283BD0E9E5E4B21320DFF8C0154F
:1008600000FB0410407B012807D1E4B21320DFF81D
:10087000B01500FB041001218172E4B21320DFF8EF
:10088000A01500FB0410407A01281FD1E4B2132008
:10089000DFF88C1500FB041000214172E4B2132034
:1008A000DFF87C1500FB041003218172E4B21320F1
:1008B000DFF86C1500FB04100121C172E4B21320B3
:1008C000DFF85C1500FB04100121C173AEE5E4B252
:1008D0001320DFF84C1500FB0410407B002807D1E3
:1008E000E4B21320DFF8381500FB041000218172F8
:1008F000E4B21320DFF8281500FB0410407A012829
:100900001FD1E4B21320DFF8181500FB04100021FA
:100910004172E4B21320DFF8081500FB0410032134
:100920008172E4B21320DFF8F81400FB04100121F7
:10093000C172E4B21320DFF8E81400FB04100121B7
:10094000C17373E513BD10B582B0002417E0E4B2A3
:100950001320DFF8D41500FB0410E4B21321DFF8F4
:10096000C82501FB042149798171E4B21320DFF825
:10097000B81500FB04100021A0F80710641CE4B2B5
:10098000182C80F04D812000C0B2FFF7FBFB8DF8E2
:10099000000014F11800C0B2FFF7F4FB8DF801005D
:1009A000E4B21320DFF8801500FB041000789DF8F6
:1009B0000010884211D0E4B21320DFF86C1500FB60
:1009C00004104088002808D1E4B21320DFF858153D
:1009D00000FB04109DF800104170E4B21320DFF812
:1009E000481500FB041040789DF80010884268D13B
:1009F000E4B21320DFF8301500FB04104078E4B2B5
:100A00001321DFF8242501FB04210978884258D0FE
:100A1000E4B21320DFF8101500FB04104088401CDE
:100A2000E4B21321DFF8002501FB04214880E4B281
:100A30001320DFF8F41400FB04104088652856D317
:100A4000E4B21320DFF8E01400FB04104078E4B2B5
:100A50001321DFF8D42401FB04210870E4B2132031
:100A6000DFF8C41400FB041000214180E4B213201D
:100A7000DFF8B41400FB04100078012810D1E4B2B0
:100A80001320DFF8A41400FB041001210171E4B26B
:100A90001320DFF8941400FB04100121417326E0B9
:100AA000E4B21320DFF8801400FB0410022101716E
:100AB000E4B21320DFF8701400FB0410002141732E
:100AC00015E0E4B21320DFF8601400FB0410E4B278
:100AD0001321DFF8542401FB042109784170E4B2AA
:100AE0001320DFF8441400FB041000214180E4B21D
:100AF0001320DFF8341400FB041040799DF8011036
:100B0000884212D0E4B21320DFF81C1400FB04105A
:100B1000B0F80700002808D1E4B21320DFF8081469
:100B200000FB04109DF801108171E4B21320DFF87E
:100B3000F81300FB041080799DF8011088427FF4BF
:100B400006AFE4B21320DFF8E01300FB0410807955
:100B5000E4B21321DFF8D02301FB04214979884254
:100B60003FF4F5AEE4B21320DFF8BC1300FB041031
:100B7000B0F80700401CE4B21321DFF8AC2301FBFE
:100B80000421A1F80700E4B21320DFF89C1300FB56
:100B90000410B0F807000328FFF4F0AEE4B213200D
:100BA000DFF8841300FB0410E4B21321DFF878238C
:100BB00001FB042189794171E4B21320DFF8681345
:100BC00000FB04100021A0F80710E4B21320DFF8A6
:100BD000581300FB04104079012810D1E4B213200F
:100BE000DFF8441300FB041001214172E4B213202A
:100BF000DFF8341300FB041001218173BEE6E4B278
:100C00001320DFF8241300FB041002214172E4B228
:100C10001320DFF8141300FB041000218173ADE6EC
:100C200013BD80B5C0B200282DD002283DD033D3EB
:100C3000042848D040D3062853D04BD308285ED090
:100C400056D30A286AD061D30C2877D06ED30E28E9
:100C500000F084807AD3102800F09080C0F0868065
:100C6000122800F09B80C0F09180142800F0A6802C
:100C7000C0F09C80162800F0B380C0F0A880172830
:100C800000F0B780BEE00A00D2B24FF48071DFF806
:100C90009C0200F0C7F9B5E00A00D2B24FF48051CF
:100CA000DFF8880200F0BEF9ACE00A00D2B2012100
:100CB000594800F0B7F9A5E00A00D2B2022156481F
:100CC00000F0B0F99EE00A00D2B22021524800F0B4
:100CD000A9F997E00A00D2B240214F4800F0A2F9EA
:100CE00090E00A00D2B280214B4800F09BF989E0E5
:100CF0000A00D2B20421474800F094F982E00A00C9
:100D0000D2B20221434800F08DF97BE00A00D2B252
:100D10004FF48061404800F085F973E00A00D2B2D8
:100D20004FF400613C4800F07DF96BE00A00D2B25C
:100D30004021DFF8FC0100F075F963E00A00D2B24F
:100D40008021DFF8EC0100F06DF95BE00A00D2B21F
:100D50004FF48041304800F065F953E00A00D2B208
:100D60004FF400412C4800F05DF94BE00A00D2B28C
:100D70000121DFF8BC0100F055F943E00A00D2B2CE
:100D80000221DFF8AC0100F04DF93BE00A00D2B2DD
:100D90000421DFF89C0100F045F933E00A00D2B2EB
:100DA0000821DFF88C0100F03DF92BE00A00D2B2F7
:100DB0001021DFF87C0100F035F923E00A00D2B2FF
:100DC0004FF40071DFF8680100F02CF91AE00A0016
:100DD000D2B24FF48061DFF8580100F023F911E03E
:100DE0000A00D2B24FF40061DFF8440100F01AF9B2
:100DF00008E00A00D2B24FF48051DFF8340100F06D
:100E000011F9FFE701BD0000000C02400010024094
:100E10000014024000180240000402405407002061
:100E2000FC030020002007E04249096801228240BB
:100E30009143404A1160401CC0B2182826D2C0B26B
:100E40001321394A01FB0021497B012907D13A4985
:100E50000968012282401143374A116006E0364991
:100E60000968012282409143334A1160C0B21321C4
:100E70002D4A01FB0021897B0129D5D12D49096823
:100E80000122824011432B4A1160D4E770470020B1
:100E90000EE0C0B21321244A01FB002100228A7215
:100EA000C0B21321204A01FB00210022CA72401C5B
:100EB000C0B21828EDD3704710B500241F48008831
:100EC000401C1E4908801D48008840F2E9318842D4
:100ED00028D31A48002101801948008800280ED123
:100EE000174801210180002405E001212000C0B243
:100EF000FFF797FE641CA4B2182CF6D312E010483A
:100F0000008801280ED10E4800210180002405E050
:100F100000212000C0B2FFF784FE641CA4B2182C8C
:100F2000F6D3FFE710BD0000FC03002000000240E4
:100F30000008024074070020780700208607002080
:100F40008807002030B400220023002400252A0056
:100F500047E0012393400C681C409C4240D1036849
:100F600003241500EDB26D00AC40A3430360036899
:100F70000C791500EDB26D00AC40234303600B7992
:100F8000012B02D00B79022B1AD1836803241500A0
:100F9000EDB26D00AC40A343836083684C791500CB
:100FA000EDB26D00AC40234383604368012494405C
:100FB000A343436043688C799440A4B223434360C5
:100FC000C36803241500EDB26D00AC40A343C360B9
:100FD000C368CC791500EDB26D00AC402343C3600B
:100FE000521C102AB5D330BC70470022006980B271
:100FF000084201D0012200E000221000C0B2704778
:10100000006980B270470022406980B2084201D076
:10101000012200E000221000C0B270470183704737
:1010200041837047D2B2002A01D0018300E041839E
:101030007047F0B400230024D2B211F00705EDB2DE
:10104000AD00AA40130089B2CA1010EB820289B227
:10105000CD1010EB85052D6A0F2611F00707FFB2A2
:10106000BF00BE40B543156289B2CA1010EB8202C0
:10107000126A1A43140089B2C91010EB810004628D
:10108000F0BC704740B2002809D540B210F00F0004
:10109000DFF820258018090100F8041C04E040B2A4
:1010A000DFF8142509018154704780B5B0F1807FC5
:1010B00001D3012013E00002000A401EDFF8FC14F7
:1010C00008600F215FF0FF30FFF7DCFFDFF8F0046E
:1010D00000210160DFF8EC0407210160002002BD5F
:1010E00000B585B000F0B7FA042000F0B6FB00A808
:1010F00000F0D0FB01984FF47A71B0FBF1F0FFF7EC
:10110000D4FF0121DFF8C00400F035FC01215FF0BD
:10111000B05000F040FC012144F2300000F04BFCE4
:1011200005B000BD80B54FF4A06000F05DFB142059
:101130008DF8000000208DF8010000208DF80200DD
:1011400001208DF8030000A800F053FB41208DF82A
:10115000000001208DF8010000208DF80200012020
:101160008DF8030000A800F044FB01BD00B583B07A
:101170004FF40040009001208DF8040000208DF80D
:10118000060001208DF8070002208DF8050000A957
:10119000DFF83804FFF7D6FE07220921DFF8300414
:1011A000FFF747FF07220A21DFF82404FFF741FF7A
:1011B0004FF4C060009002208DF8040000208DF8EC
:1011C000060001208DF8070002208DF8050000A917
:1011D000DFF8FC03FFF7B6FE08220E21DFF8EC0370
:1011E000FFF727FF08220921DFF8E003FFF721FFBF
:1011F0004FF48440009002208DF8040000208DF808
:10120000060001208DF8070002208DF8050000A9D6
:10121000DFF8B803FFF796FE4FF40060009001205E
:101220008DF8040000208DF8060001208DF80700DD
:1012300002208DF8050000A9E548FFF783FE4FF472
:101240008060009001208DF8040000208DF80600D9
:1012500001208DF8070002208DF8050000A9DB4869
:10126000FFF770FE09220821DA48FFF7E2FE0922A3
:101270000921D848FFF7DDFE4FF4407000900220AE
:101280008DF8040000208DF8060002208DF805007E
:1012900001208DF8070000A9CE48FFF753FE092270
:1012A0000C21CC48FFF7C5FE09220D21C948FFF7E4
:1012B000C0FE4FF44050009002208DF80400002042
:1012C0008DF8060002208DF8050001208DF807003A
:1012D00000A9C048FFF736FE4FF6FF7000900020CF
:1012E0008DF8040002208DF8050000208DF807001D
:1012F00000A9B948FFF726FE4FF6FF7000900020C6
:101300008DF8040002208DF8050000208DF80700FC
:1013100000A9B248FFF716FE40F2FF7000900020CF
:101320008DF8040002208DF8050000208DF80700DC
:1013300000A9AB48FFF706FE4FF460500090002074
:101340008DF8040002208DF8050000208DF80700BC
:1013500000A99E48FFF7F6FD1820009000208DF8A8
:10136000040002208DF8050000208DF8070000A978
:101370009848FFF7E7FD4FF48850009001208DF862
:10138000040000208DF8060001208DF807000220DF
:101390008DF8050000A98E48FFF7D4FD4CF6E34018
:1013A000009001208DF8040000208DF80600012037
:1013B0008DF8070002208DF8050000A98548FFF789
:1013C000C1FD41F6DF60009001208DF8040000208F
:1013D0008DF8060001208DF8070002208DF8050029
:1013E00000A98048FFF7AEFD0620009001208DF88F
:1013F000040000208DF8060001208DF8070002206F
:101400008DF8050000A97148FFF79CFD07BD00B5E8
:1014100085B04FF4164000900020ADF80400002085
:10142000ADF806000020ADF808000020ADF80C0073
:101430000C20ADF80A0000A96B4800F0EFFA012279
:1014400040F22551684800F061FB0121664800F038
:1014500047FB00A9654800F0E1FA012240F225515E
:10146000624800F053FB0121604800F039FB05B0F1
:1014700000BD00B587B05E4800F09CFB00A800F0FE
:10148000C5FC00208DF8060001208DF80700002023
:101490008DF8080000208DF8090000208DF80A0062
:1014A00001208DF80B0000208DF8020000208DF83F
:1014B00003000B208DF8040001208DF805000420A6
:1014C000ADF8000000A94A4800F08FFB00208DF81D
:1014D000160000208DF8170001208DF8180000205C
:1014E000ADF80C000020ADF80E000020ADF81000A3
:1014F0000020ADF812000020ADF8140001208DF896
:10150000190003A800F0F9FB01220221384800F07D
:1015100097FD384800F04EFB00A800F077FC002053
:101520008DF8060001208DF8070000208DF80800D6
:1015300000208DF8090000208DF80A0001208DF8A8
:101540000B0000208DF8020000208DF803000B2016
:101550008DF8040001208DF805000420ADF800008E
:1015600000A9244800F041FB0E208DF81600002051
:101570008DF8170001208DF818000020ADF80C0040
:101580000020ADF80E000020ADF810000020ADF8EE
:1015900012000120ADF8140001208DF8190003A8F5
:1015A00000F0ABFB01221021124800F049FD07B00A
:1015B00000BD000018ED00E000E400E014E000E0F1
:1015C00018E000E010E000E07F0064000018024036
:1015D0000000024000040240000C024000100240E3
:1015E00000140240000802400010014000140140B5
:1015F000006400400068004080B5FFF771FDFFF710
:1016000091FDFFF7B3FDFFF702FFFFF732FF01BDCA
:1016100080B56848006850F0010066490860664877
:10162000002101606348006864490840614908601E
:101630006348644901605F48006830F480205D4978
:10164000086061480021016000F058F85F485FF0D1
:101650000061016001BD30B400200021022200239E
:101660000224554D2D6815F00C052800002804D0E3
:10167000042806D0082808D02FE0554855490160B5
:101680002EE05348544901602AE04D480068C0F3F9
:1016900080534B48006810F03F04002B09D04E489F
:1016A000B0FBF4F046490968C1F3881101FB00F171
:1016B00008E04848B0FBF4F041490968C1F38811DB
:1016C00001FB00F13E480068C0F30140401C4200AD
:1016D000B1FBF2F03E49086002E03D483D4901603F
:1016E00035480068C0F303103C49405C384909683C
:1016F00031FA00F03649086030BC704782B00020F3
:101700000190002000902B48006850F48030294957
:1017100008602848006810F4003000900198401CD0
:1017200001900098002803D10198B0F5A06FF0D186
:1017300020480068800302D50120009001E00020CD
:1017400000900098012832D11B481B4909680160AC
:101750001948006850F400401749086016480068AE
:1017600050F4A0501449086015481D490160114803
:10177000006850F080700F4908600E4800688001D2
:10178000FBD5184840F2037101600B4800688008DF
:101790008000094908600848006850F002000649C6
:1017A00008600548006810F00C000828F9D102B064
:1017B000704700000038024008380240FFFFF6FE84
:1017C00004380240103000240C38024008ED00E0DC
:1017D000200000200024F40040787D01100000204B
:1017E000193C4005003C0240244908432449086054
:1017F000704710B4002100220F23C478002C1FD0A2
:101800001F49096811F4E061D1F5E061090AD1F1DD
:101810000402DBB20B414178914082781A401143B7
:1018200009010278174BD15401784911164A012356
:10183000007810F01F0013FA00F042F821000AE0CF
:1018400001784911114A0123007810F01F0013FAA2
:1018500000F042F8210010BC7047042806D10C4863
:10186000006850F004000A49086005E00848006874
:1018700030F0040006490860704700000000FA05D7
:101880000CED00E000E400E000E100E080E100E0B9
:1018900010E000E0F0B40021002200230224002523
:1018A0000226DFF854713F6817F00C073900002951
:1018B00004D0042906D0082908D035E0DFF840110B
:1018C000016034E0DFF83C11016030E0DFF82C11FA
:1018D0000968C1F38055DFF82411096811F03F064B
:1018E000002D0BD0DFF81C11B1FBF6F1DFF80C2155
:1018F0001268C2F3881202FB01F30AE0DFF800115C
:10190000B1FBF6F1DFF8F4201268C2F3881202FB93
:1019100001F3DFF8E8100968C1F30141491C4C00EC
:10192000B3FBF4F1016002E0DFF8D4100160DFF8EE
:10193000C810096811F0F0010909DFF8CC208A5CB1
:101940000168D14041602C49096811F4E051890ACD
:10195000DFF8B4208A5C4168D1408160264909687B
:1019600011F46041490BDFF8A0208A5C4168D14046
:10197000C160F0BC7047C9B2002905D0234909688D
:1019800008432249086005E02049096831EA00005F
:101990001E4908607047C9B2002905D01C49096872
:1019A00008431B49086005E01949096831EA00004D
:1019B000174908607047C9B2002905D01549096860
:1019C00008431449086005E01249096831EA00003B
:1019D000104908607047C9B2002905D00E4909684E
:1019E00008430D49086005E00B49096831EA000029
:1019F0000949086070470000083802400438024076
:101A00000024F40040787D010000002030380240BE
:101A10004038024044380240203802407FB504007C
:101A20000D000020002100220023AE89002E208A14
:101A300030F44050E98808432082A08927490840B3
:101A4000A9882A8911436A8911430843A081A08A81
:101A500030F44070A9890843A08200A8FFF71AFF5C
:101A60001C48844202D01C48844201D1039900E002
:101A70000299A089000407D5192000FB01F029680C
:101A80004900B0FBF1F206E0192000FB01F02968E3
:101A90008900B0FBF1F26420B2FBF0F00001010913
:101AA000642303FB1123A189090408D5D90032312D
:101AB0006422B1FBF2F111F00701084307E01901BC
:101AC00032316422B1FBF2F111F00F0108432081A1
:101AD0007FBD00000010014000140140F3E9FFFF4A
:101AE000C9B2002904D0818951F40051818104E0F8
:101AF00081894DF6FF72114081817047C905C90D7A
:101B0000818070478088C005C00D7047F0B4002305
:101B100000240025002640F66A1789B2B942060063
:101B20000800C0B24309DBB289B211F01F040120E2
:101B300010FA04F5012B01D10C3604E0022B01D17F
:101B4000103600E01436D2B2002A03D030682843A1
:101B5000306002E03068A8433060F0BC704700227B
:101B60004FF4007389B299420088084201D00122E3
:101B700000E000221000C0B2704789B28A0589B225
:101B8000C9430180704710B450F8041B81B102684A
:101B90001218001D50F8043BDC0744BFA9F10104F2
:101BA000E31852F8044B43F8044B091FF9D1EBE753
:101BB00010BC704780B5DFF8341588420AD1012186
:101BC0005FF00070FFF707FF00215FF00070FFF784
:101BD00002FF09E001215FF08060FFF7FCFE0021B9
:101BE0005FF08060FFF7F7FE01BD10B40022002314
:101BF000046834F002040460046854F001040460D2
:101C000000E05B1C4268D20703D44FF6FF72934298
:101C1000F7D14268D20701D400226AE08A79012A0A
:101C200004D1026852F08002026003E0026832F0E0
:101C300080020260CA79012A04D1026852F040028F
:101C4000026003E0026832F0400202600A7A012A70
:101C500004D1026852F02002026003E0026832F010
:101C6000200202604A7A012A04D1026852F010026E
:101C7000026003E0026832F0100202608A7A012AF0
:101C800004D1026852F00802026003E0026832F0F8
:101C900008020260CA7A012A04D1026852F00402E2
:101CA000026003E0026832F0040202608A78CB78B6
:101CB0001B0653EA82720B7952EA03424B7952EACD
:101CC00003520988491E1143C1610168490849004E
:101CD0000160002300E05B1C4168C90703D54FF693
:101CE000FF718B42F7D14068C00701D5002200E0A8
:101CF00001221000C0B210BC704710B400210122B4
:101D0000837A9A401100DFF8E823126852F001024A
:101D1000DFF8DC331A60DFF8DC2312688A43DFF86F
:101D2000D4331A60027B002A19D1DFF8CC23126861
:101D30008A43DFF8C4331A60C288438853EA0242F8
:101D4000837ADFF8B84344F83320827ADFF8AC3383
:101D500013EBC2028388048854EA03435360027B76
:101D6000012A19D1DFF8902312680A43DFF888337B
:101D70001A600288438853EA0242837ADFF87C4380
:101D800044F83320827ADFF8743313EBC20283887D
:101D9000C48854EA03435360C27A002A07D1DFF8AB
:101DA000602312688A43DFF858331A6006E0DFF8D0
:101DB000502312680A43DFF848331A600289002A68
:101DC00006D1DFF8402312688A43DFF838331A60FF
:101DD0000289012A06D1DFF82C2312680A43DFF8B2
:101DE00024331A60407B012806D1DFF8080300681D
:101DF0000843DFF800130860DFF8F40200684008C9
:101E00004000DFF8EC12086010BC704700218171BF
:101E10000021C171002101720021417200218172F3
:101E20000021C172002181700021C1700321017164
:101E30000221417101210180704730B40022836882
:101E40005B0101D500220AE08268120101D501225E
:101E500005E08268D20001D5022200E00422D2B25D
:101E6000042A75D0D2B210EB0213D3F8803113F0EC
:101E70000103D2B210EB0214C4F880310B7A002BAC
:101E80000FD1D2B210EB0213D3F880310C684D7A27
:101E900055EA44542343D2B210EB0214C4F8803103
:101EA00010E0D2B210EB0213D3F880314C680D7AF7
:101EB00055EAC4044D7A2C432343D2B210EB0214EA
:101EC000C4F880318B7A13F00F038B72D2B210EB0F
:101ED0000213D3F884311B091B01D2B210EB021498
:101EE000C4F88431D2B210EB0213D3F884318C7A67
:101EF0002343D2B210EB0214C4F884318B7B4C7BA9
:101F0000240454EA03630C7B53EA0423CC7A23436E
:101F1000D2B210EB0214C4F888318B7C4C7C2404C0
:101F200054EA03630C7C53EA0423C97B1943D2B2FD
:101F300010EB0213C3F88C11D2B210EB0211D1F8DE
:101F4000801151F00101D2B210EB0210C0F88011E3
:101F50001000C0B230BC7047C9B210EB0113D3F807
:101F6000B03113F004031372137A002B07D1C9B2F6
:101F700010EB0113D3F8B0315B0D136006E0C9B26A
:101F800010EB0113D3F8B031DB085360C9B210EB8A
:101F90000113D3F8B03113F002035372C9B210EB3E
:101FA0000113D3F8B43113F00F039372C9B210EBDD
:101FB0000113D3F8B4311B0AD374C9B210EB011367
:101FC000D3F8B831D372C9B210EB0113D3F8B831DA
:101FD0001B0A1373C9B210EB0113D3F8B8311B0CF1
:101FE0005373C9B210EB0113D3F8B8311B0E9373BE
:101FF000C9B210EB0113D3F8BC31D373C9B210EBE3
:102000000113D3F8BC311B0A1374C9B210EB0113CE
:10201000D3F8BC311B0C5374C9B210EB0113D3F8C5
:10202000BC311B0E9374C9B2002904D1C16851F0B0
:102030002001C16003E0016951F020010161704796
:10204000D2B2002A03D042691143416103E04269E0
:1020500032EA01014161704701291DD004291ED0D7
:1020600008291FD0202920D0402921D0B1F5807F18
:1020700027D0B1F5007F27D0B1F5806F27D0B1F51B
:10208000006F27D0B1F5004F29D0B1F5803F12D0B5
:10209000B1F5003F12D027E01B49816024E0082100
:1020A000C16021E01021C1601EE0082101611BE038
:1020B0001021016118E00821416015E01021416004
:1020C00012E0042141600FE0042141600CE0042192
:1020D000416009E0002181610421416004E00021A8
:1020E000816104214160FFE7704700000064004007
:1020F000006600401C6600400C66004040660040E0
:1021000004660040146600400101010000205E49A1
:1021100008005E4901600021C18081804621418123
:1021200070470FB5002058490800C188491C4289F2
:1021300091FBF2F302FB13118288914210D0C18807
:10214000491C428991FBF2F302FB1311C180C18843
:102150000E22006802FB010000A90E2200F0A0F888
:102160000FBD3FB585B0002400259DF817009DF8F0
:10217000161011F00F0150EA01209DF8151050EAD9
:1021800001309DF8141011F0030150EA01509DF840
:10219000181011F07F0150EA8150019004208DF851
:1021A000080000208DF809009DF819008DF80A003C
:1021B0009DF80A200DF11A010DF10B0000F0A8F8AE
:1021C00000A93348FFF739FE09B030BD0FB41FB581
:1021D000002402208DF802002E4800788DF80300BC
:1021E00008208DF805002C4800688DF806002A4864
:1021F0000068000A8DF8070027480068000C8DF879
:102200000800264800688DF8090024480068000A84
:102210008DF80A0021480068000C8DF80B001D485D
:1022200000788DF80C0002208DF80D0000A80FC872
:10223000FFF777FF1FBC5DF814FB30B585B0124C7B
:10224000002100250020A288E3889A4218D0A588A2
:10225000ADB2681C618990FBF1F201FB1205ADB2D1
:102260000E20216800FB051100A80E2200F018F8CE
:1022700000A80FC8FFF775FFC0B2042800D0A580E2
:1022800005B030BD000000006807002028000020D5
:1022900000680040940700207407002078070020A1
:1022A0004AB38B0707D0521E11F8013B00F8013BDF
:1022B00021D08B07F7D183071ED1103A07D330B452
:1022C000B1E83810103AA0E83810F9D230BC530702
:1022D00024BFB1E80810A0E8081044BF51F8043B3F
:1022E00040F8043BD20724BF31F8022B20F8022B20
:1022F00044BF0B7803707047083A07D3B1E8081061
:10230000083A40F8043B40F804CBF7D25307E4E71F
:1023100010B50446FFF7C4FF204610BD80B5344811
:102320000088012814D13248002101804FF4004177
:102330003048FEF768FE002805D04FF400412D48D4
:10234000FEF76EFE04E04FF400412A48FEF766FEF9
:1023500001BD80B5FFF750F92748FEF751FEC04395
:1023600026490870FFF7D2FEFFF7D8FFFFF765FF99
:1023700000F097F800F00BF9F6E780B52048006808
:10238000401C1F4908601F48008800280FD01D48C6
:102390000088401E1B4908801A480088002806D182
:1023A00018484FF47A7101801148012101801648C4
:1023B0000088002802D1FEF7C6FA05E0124800881E
:1023C000012801D1FDF75AFF10480088012804D1E7
:1023D000FEF75DFD0D48002101800748FEF710FE65
:1023E000C04306490870FEF767FDFEF71BFD01BDFF
:1023F0008A070020001802400000024094070020D5
:102400007C07002024000020800700208207002095
:1024100010B5002433480088332823D24FF480615C
:102420003148FEF7FBFD00240EE0A4B22F4810F85F
:102430001400C1B22E48FFF761FB80212C48FFF742
:102440008EFB0028F9D0641CA4B226480088401CEA
:102450008442EADB4FF480612348FEF7E1FD254822
:102460000021018010BD80B500200021214A128882
:10247000082A15D1002008E080B21C4980B21E4A0B
:1024800032F8102021F81020401C80B20828F3D325
:10249000164806210180134808210180FFF7B8FF84
:1024A00001BD80B520211248FFF759FB002817D045
:1024B00010480088312803D320210D48FFF75DFB29
:1024C0000B48FFF71FFB0B4909880B4AC0B222F8E3
:1024D000110008480088401C06490880FFF7C3FF28
:1024E00001BD000092070020001802408C06002069
:1024F0000014014090070020F006002010B50024D1
:1025000033480088332823D24FF400613148FEF766
:1025100085FD00240EE0A4B22F4810F81400C1B2CB
:102520002E48FFF7EBFA80212C48FFF718FB002814
:10253000F9D0641CA4B226480088401C8442EADB1F
:102540004FF400612348FEF76BFD25480021018010
:1025500010BD80B500200021214A1288082A15D11B
:10256000002008E080B21C4980B21E4A32F81020D8
:1025700021F81020401C80B20828F3D3164801210E
:102580000180134808210180FFF7B8FF01BD80B525
:1025900020211248FFF7E3FA002817D010480088DE
:1025A000312803D320210D48FFF7E7FA0B48FFF746
:1025B000A9FA0B4909880B4AC0B222F81100084851
:1025C0000088401C06490880FFF7C3FF01BD0000DA
:1025D0008E07002000000240C405002000100140CA
:1025E0008C070020280600200FB585B09DF8170045
:1025F0009DF8161011F00F0150EA012001900420FF
:102600008DF8080000208DF809009DF819008DF85C
:102610000A00002008E0C0B200A94118C0B205AA13
:1026200082189279CA72401C9DF80A10C0B2884282
:10263000F1D300A91F48FFF700FC1F4908800020C4
:1026400009B000BD0FB400B585B002208DF80200BE
:102650001A4800788DF8030008208DF80500184806
:1026600000688DF8060016480068000A8DF807001B
:1026700013480068000C8DF80800124800688DF8B7
:10268000090010480068000A8DF80A000D4800682B
:10269000000C8DF80B00094800788DF80C00012023
:1026A0008DF80D0000A80FC8FFF79EFF05B05DF87C
:1026B00014FB000000640040840700209407002001
:1026C00074070020780700207047704770477047F4
:1026D000704770477047704780B5FFF74EFE01BDE9
:1026E00000B587B001AA00211348FFF735FC02218D
:1026F0001148FFF7B1FC01A984B068461422FFF726
:10270000DCFD0FBCFFF79EFF07B000BD00B587B032
:1027100001AA01210948FFF71FFC10210748FFF714
:102720009BFC01A984B068461422FFF7C6FD0FBCCC
:10273000FFF74CFD07B000BD00640040006800409A
:1027400010B5084979441C31074C7C441A34A14225
:1027500006D0081D0A68511888470146A142F8D1E1
:1027600010BD00BF2C0000004C00000050F8041BFE
:1027700061B150F8042BD30744BFA9F101039A18A3
:10278000002342F8043B091FFAD1EFE7704700002D
:10279000DDFFFFFF700700002800002000000000A0
:1027A000E7F3FFFF28000000D40100000000002034
:1027B0000000000000F009F8002801D0FFF7C0FF7A
:1027C0000020FFF7C6FD00F002F80120704780B539
:1027D00000F002B800BF00000746384600F002F8DB
:1027E000FBE7000080B5C046C046024A1100182031
:1027F000ABBEFBE7260002000148804701480047C6
:102800001116000009280000C046C046C046C04658
:10281000FFF7D0FFFFF758BFFFF757BFFFF756BFCF
:10282000FFF755BFFFF754BFFFF753BFFFF752BF86
:10283000FFF751BFFFF750BFFFF7FEBFFFF7FEBF27
:10284000FFF7FEBFFFF7FEBFFFF7FEBFFFF7FEBFBC
:10285000FFF7FEBFFFF7FEBFFFF7FEBFFFF7FEBFAC
:10286000FFF7FEBFFFF7FEBFFFF7FEBFFFF7FEBF9C
:10287000FFF7FEBFFFF7FEBFFFF7FEBFFFF7FEBF8C
:10288000FFF7FEBFFFF7FEBFFFF72ABFFFF7FEBF50
:10289000FFF7FEBFFFF7FEBFFFF7FEBFFFF7FEBF6C
:1028A000FFF7FEBFFFF7FEBFFFF7FEBFFFF7FEBF5C
:1028B000FFF7FEBFFFF7FEBFFFF7FEBFFFF7FEBF4C
:1028C000FFF7FEBFFFF7FEBFFFF7FEBFFFF7FEBF3C
:1028D000FFF7FEBFFFF7FEBFFFF7FEBFFFF7FEBF2C
:1028E000FFF7FEBFFFF7FEBFFFF7FEBFFFF7FEBF1C
:1028F000FFF7FEBFFFF7FEBFFFF7FEBFFFF7FEBF0C
:10290000FFF7FEBFFFF7FEBFFFF7FEBFFFF7FEBFFB
:10291000FFF7FEBFFFF7FEBFFFF7FEBFFFF7FEBFEB
:10292000FFF7FEBFFFF7FEBFFFF7FEBFFFF7FEBFDB
:10293000FFF7FEBFFFF7FEBFFFF7FEBFFFF7E6BEE4
:10294000FFF7FEBFFFF7FEBFFFF7FEBFFFF7FEBFBB
:10295000FFF7FEBFFFF7FEBFFFF7FEBFFFF7FEBFAB
:10296000FFF7FEBFFFF7FEBFFFF7FEBFFFF7FEBF9B
:10297000FFF7FEBFFFF7FEBFFFF7FEBF000000003E
:102980000102030401020304060708090000000015
:10299000000000000102030406070809000E2707D3
:0429A00064000000CF
:0400000500002809C6
:00000001FF
