:020000040800F2
:1000000038D3002087940008259300082793000820
:10001000299300082B9300082D930008000000008E
:100020000000000000000000000000002F93000806
:100030003193000800000000339300083593000856
:10004000B7940008BB940008BF940008C39400084C
:10005000C7940008CB940008CF940008D3940008FC
:10006000D7940008DB940008DF940008E3940008AC
:10007000E7940008EB940008EF940008F39400085C
:10008000F7940008FB940008FF940008039500080B
:100090007D9300080B9500080F9500081395000844
:1000A000179500081B9500081F9500082395000868
:1000B0003D9300082B9500082F9500083395000804
:1000C000379500083B9500083F95000843950008C8
:1000D000479500084B9500084F9500085395000878
:1000E000579500085B9500085F9500080000000028
:1000F0000000000000000000000000000000000000
:1001000000000000000000006395000867950008EB
:10011000599300086F9500087395000877950008BB
:100120007B9500087F950008839500088795000857
:100130005B9300085D93000893950008979500086D
:100140009B9500089F950008A3950008A7950008B7
:10015000DFF8A806016899B94FF4803181604FF447
:10016000805141604FF0FF31C16001610421416164
:10017000DFF88C160422C1F8B821DFF88816016078
:100180000120704701F1080313F0070308BF0023A3
:1001900007D001F1080303F00703C3F1080303F0DC
:1001A00007035918D21A8161C26042F001034B6003
:1001B000511828224A60DFF844160969C161704766
:1001C0002DE9F04101F1080414F0070408BF0024F0
:1001D00007D001F1080404F00704C4F1080404F096
:1001E0000704611802F1080414F0070408BF002492
:1001F00007D002F1080404F00704C4F1080404F075
:100200000704A5185A186C1AE41A43F003034B604C
:10021000AA4201D301F012B96E68F307FAD5102C87
:10022000F8D383699D4207D1C368E318C360826134
:1002300043F00100506042E143699D4208D1836868
:10024000E3188360426143F0010050609B5036E147
:1002500006F00303012B40F0A080F308DB004FEA17
:10026000D30EBEF1200F26D2AF68D5F80CC065457D
:10027000D0D0BD42CED0674506D10668012707FA27
:100280000EF7BE43066086E04FEA4E0600EB860698
:1002900006F1280E774503D0D0F810E07745B9D3A2
:1002A0002836B44502D00669B445B3D3C7F80CC0AC
:1002B000CCF808706FE0AF69EE68AE420AD0D5F8AE
:1002C00008C0D0F810E0F445A4D3CCF80C60C6F810
:1002D00008C024E005F2140CDCF8006046B905F112
:1002E000100CDCF80060D6B102E0F446DCF80060E7
:1002F00006F2140EDEF80080B8F1000FF5D106F119
:10030000100EDEF80080B8F1000FEED1D0F810E04A
:10031000F445FFF47FAF4FF0000ECCF800E0002F63
:1003200039D0D5F81CC000EB8C0C0CF2301CDCF87A
:1003300000E075450BD1CCF800609EB946680127F6
:10034000D5F81CC007FA0CF7BE43466023E0D0F88E
:1003500010C06745FFF45EAFD7F810C0AC450CBFC6
:100360003E617E61BEB1D0F810C06645FFF452AF69
:10037000B7612F6937B1D0F810C06745FFF44AAFB5
:100380003761BE616F6937B1D0F810C06745FFF4BF
:1003900041AF7761BE615D191C196B685B085B003A
:1003A0006B6044F001035360A450E308202B1BD280
:1003B0005D0000EB850505F228052E46102CFFF4A4
:1003C00029AF012707FA03F304681C4204BF234343
:1003D000036004D0AE6800698642FFF41BAFAA60D8
:1003E000F2609660D5606AE0230A08BF002523D03A
:1003F000B3F5803F28BF1F251ED2A3F580752D0CB5
:1004000005F00805AB40A3F58056360C06F004064F
:10041000B340A3F580473F0C07F00207C5F10E0576
:10042000AD1BED1BBB4005EBD333DD1D24FA05F5F9
:1004300005F0010505EB430500EB850303F23013DE
:10044000D561002656611661012707FA05F647684F
:10045000374207D146EA070444601A609361D260CC
:1004600092602CE01B681F2D0EBF00256D08C5F1A2
:10047000190504FA05F500E033465E68F608F60053
:10048000A6420ED0EE0F03EB860606F110076D00B4
:100490003E68002EF0D100698742FFF4BBAE3A609F
:1004A000DCE79C6800698342FFF4B4AE8442FFF449
:1004B000B1AEE2609A609460D3600020906101F177
:1004C0000800BDE8F0812DE9FE4F0446A56904F25D
:1004D000BC102E4601688E4203D3426851188E42EA
:1004E00002D380680028F5D14168006801EB00085C
:1004F000A8F12F0000F1080111F0070108BF002149
:1005000007D000F1080101F00701C1F1080101F075
:10051000070101EB000A05F11000824538BFAA4629
:100520000AF1080B0AF1180900270198A0F1280226
:1005300000992046FFF726FE1BF0070022D11B2062
:10054000CAF8040004F2BC10B0E80E10ABE80E10BC
:10055000ABF1100B0098C4F8BC010198C4F8C001BD
:100560000298C4F8C801C4F8C4B100E0814609F19A
:1005700004000721C9F804107F1C011D4145F5D373
:10058000022F01DA00F05ABFAA4500F09380AAEBCF
:10059000060041194A68520852004A6040F00101C1
:1005A00069604051C108202919D24A0004EB820237
:1005B00002F2280213461028E4D3012606FA01F0BD
:1005C0002168014206D1084320609560DD60AB6080
:1005D000EA606FE0936820698342F6D2D2E7010AAD
:1005E00008BF002223D0B1F5803F28BF1F221ED2B2
:1005F000A1F58072120C02F008029140A1F580531F
:100600001B0C03F004039940A1F58046360C06F05C
:100610000206C2F10E02D21A921BB14002EBD13196
:10062000CA1D20FA02F202F0010202EB410204EBC1
:10063000820101F23011EA6100236B612B61012616
:1006400006FA02F366681E4207D143EA06006060BC
:100650000D60A961ED60AD602CE009681F2A0EBF36
:1006600000225208C2F1190200FA02F200E0194613
:100670004B68DB08DB0083420ED0D30F01EB830312
:1006800003F1100652003368002BF0D12069864236
:10069000FFF478AF3560DCE7886822699142FFF4A7
:1006A00071AF9042FFF46EAFC5608D60A860E960E5
:1006B0000020A86100F054BBF8B504460D464F4E2B
:1006C000306808B9FFF744FD00F0D4FE010000F0E7
:1006D00091800A6811F1010F00F08C80D4F8B0010C
:1006E0001018C4F8B001D4F8B401D4F8B03198426D
:1006F00038BF1846C4F8B401A06968BB206908B1C6
:10070000814200D22161C4F8BC11C4F8C02100208C
:10071000C4F8C801306860624FF0FF3020622046A4
:10072000202300F22806F660B66008305B1EF8D180
:100730003348844204D1283A2046FFF723FD48E09D
:1007400054F8040CC00814EBC00008385118091AFA
:10075000A1F128020146EFE704F2BC10034600E0D5
:100760009B68BBB15E681F68F619B142F8D11E7B69
:1007700036070FD43E46A769B7420BD35F68D4F85B
:1007800018C0BE19B44505D2D0195860E0681218D7
:10079000A169D1E72369994238BF21610346501806
:1007A00000E09B688BB11E688642FAD1187B000777
:1007B0000BD4304619605E6892195A602B46024687
:1007C000204601B0BDE8F040FAE400232046FFF7E0
:1007D0007AFEE06885420DD2401BE060A1696A188C
:1007E000A26140F00100506045F00300486001F153
:1007F0000800F2BD0020F2BD000000004CC2002045
:10080000CCB800206859883C2DE9F04100224B42C9
:100810000C0A08BF002423D0B4F5803F28BF1F2452
:100820001ED2A4F580752D0C05F00805AC40A4F58A
:100830008056360C06F00406B440A4F580473F0C01
:1008400007F00207C5F10E05AD1BED1BBC4005EB23
:10085000D434E51D21FA05F505F0010505EB440446
:1008600000EB8405D5F8305155B31F2C0EBF002680
:100870006608C6F1190601FA06F6002700E07600C0
:10088000D5F804C04FEADC0C4FEACC0CACEB010C01
:100890009C4502D22A4663467BB1D5F814C04FEA84
:1008A000D67E05EB8E052D69BCF1000F02D0AC455C
:1008B00018BF6746002DE2D13D4675BB002A3DD1E9
:1008C000012505FA04F4640065422C4345682C4078
:1008D00000F0518165422C40651E2C0B04F0100481
:1008E00025FA04F6750905F00805EE40B70807F08B
:1008F0000407FE404FEA560C0CF0020C26FA0CF6E8
:10090000C6F3400E2C193C196444744426FA0EF5C3
:100910002C1900EB8404D4F830517DB100E0254659
:100920006C68E408E400641A9C423CBF23462A46F3
:100930002C69002CF3D16D69002DF1D1002A00F053
:100940001A818468641AA34280F0158116460469EE
:10095000A64206D38C18CD185768FF08FF00AF4297
:1009600001D000F06BBDA642FBD29769D6689642D3
:100970000AD0D2F808C0D0F810E0F445F1D3CCF892
:100980000C60C6F808C023E002F2140CDCF800602A
:1009900046B902F1100CDCF80060CEB102E0F4467A
:1009A000DCF8006006F2140EDEF80080B8F1000FEB
:1009B000F5D106F1100EDEF80080B8F1000FEED18F
:1009C000D0F810E0F445CCD34FF0000ECCF800E0A6
:1009D000002F35D0D2F81CC000EB8C0C0CF2301C70
:1009E000DCF800E072450BD1CCF8006096B946689F
:1009F0000127D2F81CC007FA0CF7BE4346601FE07F
:100A0000D0F810C06745ACD3D7F810C094450CBFE0
:100A10003E617E61A6B1D0F810C06645A1D3B76132
:100A200017692FB1D0F810C067459AD33761BE61FE
:100A300057692FB1D0F810C0674592D37761BE6176
:100A4000102B08D245F003005060A818416841F00F
:100A5000010141608CE041F00301516043F001016C
:100A600061601B51D908202918D24B0000EB830389
:100A700003F228031E46012505FA01F105680D421F
:100A800004BF2943016004D09E6800698642FFF4D8
:100A900068AF9C60F460A660E36069E0190A08BF73
:100AA000002623D0B1F5803F28BF1F261ED2A1F516
:100AB00080752D0C05F00805A940A1F58056360C6F
:100AC00006F00406B140A1F580473F0C07F002078D
:100AD000C5F10E05AD1BED1BB94005EBD131CD1DA8
:100AE00023FA05F505F0010505EB410600EB86014B
:100AF00001F23011E6610025656125610125B540EF
:100B000047682F4207D13B462B4343600C60A161ED
:100B1000E460A4602CE009681F2E0EBF0025750854
:100B2000C5F1190503FA05F500E031464E68F608EF
:100B3000F6009E420ED0EE0F01EB860606F110077E
:100B40006D003E68002EF0D100698742FFF409AFC6
:100B50003C60DCE78B680569A942FFF402AFAB4259
:100B6000FFF4FFAEDC608C60A360E1600020A06158
:100B700002F1080000E00020BDE8F0812DE9F0411D
:100B8000426813465B421A40531E1A0B02F01002D1
:100B9000D3405C0904F00804E3409D0805F0040517
:100BA000EB405E0806F00206F340C3F34007A218CC
:100BB000AA18B218BA18FB409A1800EB8202D2F8B1
:100BC000304123466268D208D200521A07E06568B5
:100BD000ED08ED006D1A95423CBF2A462346256973
:100BE000002D14BF2C466469002CF0D11E46046908
:100BF000A64206D3CC188D185F68FF08FF00AF42ED
:100C000001D000F01BBCA642FBD29F69DE689E4269
:100C10000AD0D3F808C0D0F810E0F445F1D3CCF8EE
:100C20000C60C6F808C023E003F2140CDCF8006086
:100C300046B903F1100CDCF80060CEB102E0F446D6
:100C4000DCF8006006F2140EDEF80080B8F1000F48
:100C5000F5D106F1100EDEF80080B8F1000FEED1EC
:100C6000D0F810E0F445CCD34FF0000ECCF800E003
:100C7000002F35D0D3F81CC000EB8C0C0CF2301CCC
:100C8000DCF800E073450BD1CCF8006096B94668FB
:100C90000127D3F81CC007FA0CF7BE4346601FE0DB
:100CA000D0F810C06745ACD3D7F810C09C450CBF36
:100CB0003E617E61A6B1D0F810C06645A1D3B76190
:100CC0001F692FB1D0F810C067459AD33761BE6154
:100CD0005F692FB1D0F810C0674592D37761BE61CC
:100CE000102A08D245F003005860E818416841F026
:100CF0000101416030E041F00301596042F001011F
:100D00006160125187682FB341694FEAD70CBCF17B
:100D1000200FBFF476AF4FEA4C0500EB850505F2D6
:100D200028052E46102FFFF46CAF012707FA0CF7A9
:100D3000D0F800C01CEA070F04BF47EA0C070760A1
:100D400004D0AE680769BE42FFF45BAFA960F160F2
:100D50008E60CD608260446103F10800BDE8F081DF
:100D600003B0BDE8F08FF8B50446012000F0B7FBF2
:100D7000F52C80F0D3800B2C31BF102404F10B0034
:100D8000C408E400E308DFF8B006016821FA03F5BF
:100D900015F0030233D0EA4302F00102D3185A00DF
:100DA00000EB820202F22805AA68DC005668F60809
:100DB000F600A64201D000F041BB9668AA42FAD0E4
:100DC000B242F8D05768FF08FF00A742F3D1B542FE
:100DD00005D1012505FA03F39943016004E0006998
:100DE0008642E8D3AE60F56044F003005060A0187E
:100DF000416841F00101416002F10805D6E08268D6
:100E0000A24280F09E80002D00F07F80012202FA35
:100E100003F6760005FA03F3754235432B405D4235
:100E20002B405D1E2B0B03F0100325FA03F675090A
:100E300005F00805EE40B70807F00407FE404FEA4A
:100E4000560C0CF0020C26FA0CF6C6F3400EEB180A
:100E5000FB186344734426FA0EF5ED186B0000EBA3
:100E6000830303F22806B368EF00D3F804C04FEA07
:100E7000DC0C4FEACC0CBC459DD1D3F808C0B34282
:100E800099D0634597D0664502BF02FA05F5A9439C
:100E9000016006D001698C458DD3C6F808C0CCF836
:100EA0000C60391B44F003055D60E41841F0010556
:100EB0006560095186681EB34569F708202FBFF4A5
:100EC0007AAF4FEA470C00EB8C0C0CF2280CE6468C
:100ED000102EFFF470AFBA400668164204BF3243CA
:100EE000026005D0DCF808E002699645FFF463AFC4
:100EF000CCF80850CEF80C50C5F808E0C5F80CC086
:100F00008160446103F1080550E0416800293AD04E
:100F10002146FFF733FE050013D047E014F1400FE0
:100F200028BF4FF0FF340CD204F10B00C408E400DA
:100F3000DFF80405416821B12146FFF765FC050093
:100F400034D1DFF8F4048268A2421CD3131B416938
:100F5000102B0AD362184261836043F00100506095
:100F60009B5044F0030048600AE000238360436123
:100F700042F0030048605018426842F001024260AB
:100F800001F1080512E0C1688C420BD2091BC16057
:100F90008269A318836141F00101596044F00300A4
:100FA000506029E72146FFF787FB0546012000F046
:100FB000C1FA2846F2BD002800D17047F8B5A0F16B
:100FC0000804012000F08BFADFF86C542A6994427F
:100FD0001ED3636803F00300012819D0D808C000AD
:100FE0000119DE0729D4266813F0030300F0E2801C
:100FF000301873421C1994420AD36B699C4200F06A
:10100000CA80F308202B67D2A668E768BC4201D1EA
:1010100000F014BAB442FBD0D4F804C04FEADC0CA0
:101020004FEACC0CBCEBC30FF2D1BE4243D12A68CD
:10103000012606FA03F39A432A608C42E8D24A68F2
:10104000D307E5D5930700F15481AB69994240F08D
:10105000B580E9684018E860AC6140F0010161606A
:1010600069698C4202D100216961A960E969814204
:1010700080F0A080DFF8BC03006808B9FFF768F8CB
:10108000A869002800F09680E96829290BD305F2A9
:10109000BC121368984203D35468E318984202D3F1
:1010A0009268002AF5D1E869884280F083804FF089
:1010B000FF30E8617EE05B0005EB830303F1280C61
:1010C000664501D09642A3D328339F4201D0974270
:1010D0009ED3F760BE60B0E7A669E368A34205D07F
:1010E000A768974294D3FB609F601DE004F2140749
:1010F0003B6833B904F110073B68ABB101E06746C8
:101100003B6803F2140CDCF800E0BEF1000FF6D1EE
:1011100003F1100CDCF800E0BEF1000FEFD19742B4
:10112000FFF476AF00223A60002E86D0E26905EB2C
:10113000820202F230121768BC4208D113607BB9F8
:101140006A680123E669B3409A436A6075E72A69D1
:101150009642FFF45DAF3269A2420CBF3361736106
:10116000002B3FF46AAF2A699342FFF451AF9E61AE
:1011700022692AB12E69B242FFF44AAF1A61936123
:101180006269002A3FF459AF2E69B242FFF440AFC2
:101190005A61936151E70A7902F00302032A7FF44E
:1011A0004CAFA8604A68520852004A6040F0010102
:1011B00061600051012000F0BDF9F1BD6B699942F9
:1011C00004D1A9684018A8606C61EFE7D208D2008A
:1011D0001018D308202B24D28E68CF68B9423FF470
:1011E00017AFB1423FF414AFBE4205D129680122C6
:1011F0009A409143296073E0590005EB810101F1A8
:101200002802964203D02A699642FFF401AF2831A2
:101210008F4203D029698F42FFF4FAAEF760BE60B7
:101220005EE08B69CA688A4207D08E682F69BE4229
:10123000FFF4EEAEF26096601EE001F21406326832
:1012400032B901F110063268B2B101E03E463268AF
:1012500002F21407D7F800C0BCF1000FF6D102F17A
:101260001007D7F800C0BCF1000FEFD12F69BE42C4
:10127000FFF4CEAE0027376093B3CE6905EB860648
:1012800006F230163768B9420BD1326016468EB975
:101290006A680123C96903FA01F122EA0101696060
:1012A0001EE02E69B342FFF4B3AE1E698E420CBF3E
:1012B0001A615A61A2B12E69B242FFF4A9AE9361DC
:1012C0000B692BB12E69B342FFF4A2AE13619A6190
:1012D000496929B12B699942FFF49AAE51618A613B
:1012E00040F001016160005169698C4208D1A86039
:1012F00060E7520852004A6040F00101616000510D
:10130000C10820291BD24A0005EB820202F2280202
:1013100013461028FFF47CAE012606FA01F0296876
:10132000014204BF0843286004D0936828698342BF
:10133000FFF46EAE9460DC60A360E2603AE7010AFD
:1013400008BF002223D0B1F5803F28BF1F221ED244
:10135000A1F58072120C02F008029140A1F58053B1
:101360001B0C03F004039940A1F58046360C06F0EF
:101370000206C2F10E02D21A921BB14002EBD13129
:10138000CA1D20FA02F202F0010202EB410205EB53
:10139000820101F23011E2610023636123610126C1
:1013A00006FA02F36E681E4207D143EA060068603F
:1013B0000C60A161E460A4602CE009681F2A0EBFE4
:1013C00000225208C2F1190200FA02F200E01946A6
:1013D0004B68DB08DB0083420ED0D30F01EB8303A5
:1013E00003F1100652003368002BF0D128698642C1
:1013F000FFF40EAE3460DCE788682A699142FFF49E
:1014000007AE9042FFF404AEC4608C60A060E1605F
:101410000020A061286A401E28627FF4CBAED5F878
:10142000C40118B94FF0FF302862C3E68068002875
:10143000FCD1F7E74CC20020CCB8002080B50120D9
:1014400000F086B800BF10B450F8041B81B10268E8
:101450001218001D50F8043BDC0744BFA9F1010439
:10146000E31852F8044B43F8044B091FF9D1EBE79A
:1014700010BC704706490868002801D0002070475A
:10148000044808600449C908C900091A0160704786
:1014900000C3002038D3002038D4002070B52B4C76
:1014A0002068D8B1251D0826284600F05CF82D1DBF
:1014B000761EF9D104F1240000F057F804F1280059
:1014C00000F053F804F12C0000F04FF804F1300064
:1014D00000F04BF804F1340000F047F870BDF8B5A7
:1014E00004461A4D2868D8B92E1D0827304600F04A
:1014F00039F8361D7F1EF9D105F1240000F034F8CB
:1015000005F1280000F030F805F12C0000F02CF86F
:1015100005F1300000F028F805F1340000F024F85F
:1015200001202860052C04D205EB8400243000F053
:101530001DF8F1BD052800D3704780B5034901EBC4
:101540008000243000F013F801BD0000ACC1002081
:1015500080B500F00DF8024A11001820ABBEFBE781
:101560002600020070477047704770477047704709
:1015700080B500F015F802000023DB4310689842A4
:1015800004D011000220ABBE0020106050689842C9
:1015900004D0111D0220ABBE0020506001BD000030
:1015A00000487047840000202DE9F04FA5B0174691
:1015B0001C460FF6B455D5E90023CDE9122303AD3F
:1015C0006860A9600020E86214AE4FF00A096FF06D
:1015D000004800E057440020ADF8020012AB4FF085
:1015E000FF3239460DF1020001F019F88246BAF1D6
:1015F000010F08DA3878B0F1010A6AEB0A0A6FEADB
:101600000A004FEAD07ABDF8020025280CBFAAF1E3
:1016100001025246012A0ADB394602A800F0D4FF33
:10162000002804D54FF0FF3025B0BDE8F08FBDF89D
:101630000200252807D100206861A861E8612862BE
:101640006862A86205E00028C4D1E86AECE740F0CF
:10165000010017F8011F2029F9D023290DD02B29CB
:1016600004D02D2906D030290AD00CE040F0020029
:1016700080B2EEE740F00400FAE740F00800F7E738
:1016800040F01000F4E72A290DD12268111D2160D5
:1016900011686963002904D54942696340F0040078
:1016A00080B27F1C10E00021696307E0696B41454F
:1016B00003D009FB0121303969637F1C3A78A2F11C
:1016C0003001C9B20A29F1D339782E291CBF4FF055
:1016D000FF3129631BD117F8011F2A2906D122687F
:1016E000111D2160116829637F1C10E0002129630E
:1016F00007E0296B414503D009FB012130392963FB
:101700007F1C3A78A2F13001C9B20A29F1D32887A7
:1017100039780FF6E86000F0A3FF08B117F8010B65
:101720008DF846009DF84600682804D1387868286E
:101730000AD1622005E06C2806D138786C2803D1E4
:1017400071208DF846007F1C14A828613A78104655
:10175000253827D01C3800F08780001F022840F26F
:101760008380133800F0AC8009387DD0801E00F0F3
:101770004481401E00F0ED80401E022874D9001FF5
:1017800000F0E780401F44D0401E00F09980401ECA
:1017900031D0C01E0CD0801E00F09280C01E00F020
:1017A0008F804BE16869411C6961252181554FE1BA
:1017B0009DF846006C28216813D0081D2060086839
:1017C000E8602A6B002A08D4002100F059FF0028A5
:1017D0001ABFE968401A286B01E000F07DFFA8619C
:1017E00036E1081D2060096802A800F0C5F900284C
:1017F00040F12E811FE12168081D2060086800214A
:10180000CDE9020114A8E860782102A800F015FBD8
:101810001EE19DF8460062281FD068280DD06A2876
:1018200012D06C2802D071280ED074282168081DAF
:1018300020600868E96A01600AE1E86A2268111D0F
:1018400021601168088003E1E86AC11723681A1D46
:1018500022601A68C2E90001FAE0E86A2268111DF4
:10186000216011680870F3E02068C01D20F00700B7
:101870002060034603F108002060D3E90001CDE9B0
:101880000201002904D56869411C69612D210DE020
:10189000288F810704D56869411C69612B2105E007
:1018A000C00704D56869411C6961202181556869B8
:1018B00014A94018E860114602A800F04DFBC7E0EB
:1018C0009DF846006C280FD0712801D06A280BD1F2
:1018D0002068C01D20F007002060034603F10800C7
:1018E0002060D3E9000104E02168081D2060086839
:1018F0000021CDE902019DF8460068280CD062283D
:1019000006D0742801D07A280CD1DDE9020106E066
:10191000DDE90201C0B202E0DDE9020180B200218E
:10192000CDE9020195F83800000760D5DDE9020134
:1019300009B900285BD042F02000782857D16869A7
:10194000411C6961302181556869411C696182557A
:101950004DE09DF8460062280CD0682810D06A2817
:101960001AD06C2824D0712816D0742820D07A2858
:101970000CD01DE02168081D206091F900001BE0DB
:101980002168081D2060B1F9000015E02168081DDC
:1019900020600868002110E02068C01D20F00700CA
:1019A0002060034603F108002060D3E9000104E051
:1019B0002168081D20600868C117CDE90201DDE932
:1019C000020100290EDB288F810704D56869411CBC
:1019D00069612B210AE0C00709D56869411C69616A
:1019E000202103E06869411C69612D2181556869E6
:1019F00014A94018E860114607E79DF846006C28D6
:101A000007D06869411C69612268111D2160116855
:101A1000CCE62168081D20600868ADF804000020AD
:101A2000ADF806004FF0FF30286301A902A800F0CE
:101A3000A3F800280CD54FF0FF300AE06869411C7C
:101A40006961252181551AB16869411C6961825516
:101A500000207F1C00287FF4E5AD686B6969401A9F
:101A6000296A401AA969401A696A401AE969401A44
:101A7000A96AA0EB010A95F83800400711D420208C
:101A80008DF80000BAF1010F0BDBD346012200A94B
:101A900002A800F099FD00287FF4C4ADBBF1010B52
:101AA000F4D16A6914A902A800F08EFD00287FF421
:101AB000B9AD30208DF80000D5F820B0BBF1010F92
:101AC0000ADB012200A902A800F07EFD00287FF4B5
:101AD000A9ADBBF1010BF4D1AA69E96802A800F035
:101AE00073FD00287FF49EAD30208DF80000D5F8FE
:101AF00024B0BBF1010F0ADB012200A902A800F00B
:101B000063FD00287FF48EADBBF1010BF4D1EA69CF
:101B1000A869E968411802A800F056FD00287FF482
:101B200081AD30208DF80000D5F828B0BBF1010F51
:101B30000ADB012200A902A800F046FD00287FF47C
:101B400071ADBBF1010BF4D195F8380040077FF57A
:101B500042AD20208DF80000BAF1010FFFF63BAD39
:101B6000012200A902A800F02FFD00287FF45AAD41
:101B7000BAF1010AF4D12EE52DE9F04F93B00746F2
:101B80000C46D7F83490B9F1000F48BF6FF0004908
:101B900000F0BDFDB96B00EB010A0FF66822D2E937
:101BA0000001CDE9010197F83C00400702D4BAF1E9
:101BB000410F05D20DF10C0B4FF0400A00250AE051
:101BC0005046FFF7D0F85FEA000BF7D14FF0FF3037
:101BD00030E1A9EB0809B9F1010FC0F2A08001AA18
:101BE00021880DF1010000F097FD5FEA000804D4A0
:101BF000208828B9B8F1010802D54FF0FF3512E16D
:101C0000C145C0F28C80B86908EB00018A4577D2E3
:101C1000BD634042796A401AF969401AB96A401AAC
:101C2000396A401AF96A451A97F83C0040070ED401
:101C300020208DF80000012D09DB2E46012200A98D
:101C4000384600F0C1FC0028D7D1761EF6D1BA691B
:101C50005946384600F0B8FC0028CED130208DF827
:101C600000007E6A012E08DB012200A9384600F040
:101C7000ABFC0028C1D1761EF6D1FA693969384625
:101C800000F0A2FC0028B8D130208DF80000BE6A18
:101C9000012E08DB012200A9384600F095FC00283F
:101CA000ABD1761EF6D13A6AF869396941183846DF
:101CB00000F08AFC0028A0D130208DF80000FE6AD8
:101CC000012E08DB012200A9384600F07DFC002827
:101CD00093D1761EF6D197F83C0040070ED5202010
:101CE0008DF80000012D09DB012200A9384600F023
:101CF0006BFC00287FF481AF6D1EF5D10025BD611E
:101D000042460DF10101B869584400F013FDB8696D
:101D10004044B86134F8020B00287FF45AAFB86B26
:101D2000B969401A796A401AF969401AB96A401AC1
:101D3000396A401AF96AA0EB010897F83C0040079D
:101D400010D420208DF80000B8F1010F0ADB4446C2
:101D5000012200A9384600F037FC00287FF44DAF7F
:101D6000641EF5D1BA695946384600F02DFC0028AA
:101D70007FF443AF30208DF800007C6A012C09DB32
:101D8000012200A9384600F01FFC00287FF435AF7F
:101D9000641EF5D1FA693969384600F015FC00284F
:101DA0007FF42BAF30208DF80000BC6A012C09DBDA
:101DB000012200A9384600F007FC00287FF41DAF7F
:101DC000641EF5D13A6AF86939694118384600F05D
:101DD000FBFB00287FF411AF30208DF80000FC6A77
:101DE000012C09DB012200A9384600F0EDFB002898
:101DF0007FF403AF641EF5D197F83C00400710D57F
:101E000020208DF80000B8F1010F0ADB012200A9A3
:101E1000384600F0D9FB00287FF4EFAEB8F1010896
:101E2000F4D1BD61BD6303A883451CBF5846FFF7CD
:101E3000C2F8284613B0BDE8F08F2DE9FA4786B006
:101E40000546686900909DF818006F2808BF0827AC
:101E500005D040F02000782814BF0A2710273C2422
:101E6000D5E90001064689469DF81820642A01D06C
:101E7000692A04D1002902DA764269EB4909B9F1ED
:101E8000000F0DD166B9686B50B9082F3FD195F896
:101E90003C0000073BD5641E00983021215436E0F9
:101EA000A4F101084446F817CDE9047030464946CC
:101EB000DDE9042300F080FCCDE90201B246DDE952
:101EC0000223DDE90401A0FB02695046801B30308B
:101ED000C0B23A2803D39DF8181051390818009958
:101EE00008F80100DDE90269B9F1000F00D126B15F
:101EF0002869009961188842D2D3082F07D195F834
:101F00003C00000703D50098205C3028C3D1C4F101
:101F10003C00E861009961182961696B884207DA21
:101F2000081A6862A88F4FF6EF710840A88710E082
:101F300000290ED595F83C1001F01401102908D1A4
:101F4000A96BAA69891A6A6A891A0C1A012CA8BF96
:101F50006C6208B0BDE8F0872DE9F24F8EB00546FF
:101F600004AFD5E90001CDE902019DF8380040F049
:101F700020008DF8000061280BD0686B002848BF56
:101F8000062005D405D19DF80000672801D1012065
:101F900068636968C1F30A5040F2FF72904225D02D
:101FA000012819DA284600F095FC012814DB0024EA
:101FB00000209DF80010612940D12A69511C296137
:101FC0003021117029694A1C2A619DF83820612A44
:101FD0000CBF782258222DE040F2FE316A6861F38E
:101FE0001E526A60441A4FF0FF30E2E7080301D145
:101FF000286870B10320E8619DF838006138C0B2EC
:102000001A2811D30FF208610322286900F092FB0D
:102010009EE10320E8619DF838006138C0B21A28BB
:1020200005D30FF2F451EFE70FF2E051ECE70FF2B6
:10203000E451E9E70A70A969891CA96110B9002671
:10204000B0467BE19DF80000612840F09780686B06
:1020500000284CBF2126461C36B2771CD5E900ABC0
:10206000DDE902010022002300F056FC3ABF8BF0AC
:102070000040CDE902A0CDE902ABA4F104088DF83F
:1020800010200DF11109012F33DBDDE902010022DF
:10209000002300F059FC2CD21C2102A800F06CFC9B
:1020A000DDE9020100F0F4FC0446FF1F012F09DB0B
:1020B00000F01AFD02460B46DDE9020100F02CFD9E
:1020C000CDE9020109F207000721012C0BDB491EB3
:1020D0005EBF04F00F0200F8012D2411F5D502E0D7
:1020E000002200F8012D491EFAD500F20709012F40
:1020F000CBDA0DF11100A9EB00010DF11107B1428E
:10210000B8BF0E4636B2002E31D43046884206DAC9
:1021100004A941184978082928BF0F2100D20021BD
:1021200004AA821800E0761E401E12F801398B4284
:10213000F9D00F2904D104A941184A78521C4A70D9
:10214000002803D504AF761C08F1040836B2701ECF
:102150000DD4C1190A783032D2B23A2A03D39DF88D
:1021600038303A3B9A1801F80129401EF2D5686BC5
:10217000002840F1E380701E6863DFE0DDE90201C2
:102180000022002300F0C8FB05D2DDE9020181F046
:102190000041CDE9020124B247F2975060436E49F5
:1021A00090FBF1F80FFA88F8C8F107040027DFF870
:1021B000AC91012C19DBDDE902ABE00707D55046F5
:1021C00059463A464B4600F067FD82468B466410FE
:1021D000384649463A464B4600F05EFD074689467A
:1021E000002CEAD1CDE902AB21E064429246DFF84F
:1021F00070B114D0E00707D5504659463A464B46D1
:1022000000F04AFD82468B466410384649463A46FD
:102210004B4600F041FD07468946002CEAD1DDE936
:10222000020152465B4600F009FECDE902019DF82D
:10223000000066280CBF08F10A000620696B4618EA
:10224000142EA8BF132630208DF810000DF11104B4
:10225000444F012E2FDBDDE9020100F02FFC04F1D9
:10226000080104220A23B0FBF3F403FB140030300E
:1022700001F8010DB4FBF3F003FB1043303301F818
:10228000013D521EEED101F10804083E012EE0DBB3
:10229000DDE9020100F012FC00F030FC02460B46C2
:1022A000DDE9020100F038FC00223B4600F0F4FCBE
:1022B000CDE90201CFE70DF11100201A0DF1110750
:1022C0009DF81110302906D1401EA8F1010817F819
:1022D000011F3029F8D09DF80010662904BF0FFABD
:1022E00088F808F1010103D065290CBF0121002104
:1022F0006A6B8E1836B2B042B8BF064636B2002EB0
:102300001CD43146814204DAC85D352828BF392003
:1023100000D23020CA19521E00E0761E491E12F863
:1023200001398342F9D0392802D1C85D401CC85513
:10233000002903D57F1E761C08F101080FFA88F0EA
:10234000009033B23A469DF83810284600F010F855
:102350000FB0BDE8F08F0000A0860100000024400F
:102360000000F03F84D7974100000000000000000B
:102370002DE9F04786B006468A4690461C46BDF9D0
:10238000385000F09CFE406A90F80090776B012C6A
:1023900002DA01240FF284284AF02000662807D0D0
:1023A00067287AD16FF003018D427CDBBD427ADA77
:1023B0006D1C66280AD096F83C00000702D4BC4287
:1023C000B8BF27462DB27F1B48BF00273069F1698F
:1023D0002DB2012D21DA4A1C30230B54012F03DAD0
:1023E00096F83C10090702D502F80090521CF261E1
:1023F000EF42B8BF7D422DB26942B162EF19A742E8
:10240000B8BF3C4624B2346222464146F3691818EC
:1024100000F090F9381BF062BFE00818AC4216DA01
:102420002246414600F086F9F1696118F161281BE6
:10243000B062012F03DA96F83C00000705D5306939
:1024400001F80090306A401C3062F762A5E02A462D
:10245000414600F06FF9F0692818F061641B012F04
:1024600003DA96F83C10090704D5411CF161316983
:1024700000F8019024B2A742B8BF3C4624B22246DD
:1024800005EB0801F0693369C01800F053F9F069F1
:102490002018F061381BB0627FE0BAF1610F14D1EF
:1024A0004FF0700A16E0BC4204DA96F83C100907B7
:1024B00058BF27467F1E48BF0027BAF1670F14BFD9
:1024C0004FF0450A4FF0650A04E0BAF1410F08BF2A
:1024D0004FF0500AF1694A1C306918F8013B0B545F
:1024E000012F03DA96F83C10090702D502F8009094
:1024F000521CF261012F10DB641E24B2A742B8BF48
:102500003C4624B222464146F369181800F012F9FD
:10251000F0692018F061381BB062F069316900EB96
:10252000010808F801AB002D5CBF2B2008F8010B57
:1025300003D52D2008F8010B6D42002402AF2DB207
:10254000012D0EDB0A22294600A800F0D1FD0198DA
:1025500007F8010B009D641C2DB2012DF2DA022C4C
:1025600006DA4AF02000652804BF302008F8010B85
:102570001CB9302008F8010B09E0012C07DB641EB0
:1025800002A8205C303008F8010B012CF7DAF06962
:1025900031694018A8EB0000306296F83C0000F06A
:1025A000140010280DD1B069F1690818B16A081833
:1025B000316A0818F16A0818B16B8842BCBF081A62
:1025C000706206B0BDE8F08770B504460D46164649
:1025D0000020002E10D015F8011BE068A26890477B
:1025E000E060002802D14FF0FF3070BD206B401C2E
:1025F00020630020761EEED170BD0000686A6C7406
:102600007A4C000000000000000000006E616E00C7
:102610004E414E00696E6600494E46003000F8B5E6
:1026200004460D4616461F4600F06AFD3B463246FC
:102630002946204601B0BDE8F04000F079BD50F8D1
:10264000041B61B150F8042BD30744BFA9F1010367
:102650009A18002342F8043B091FFAD1EFE77047AC
:102660000278C9B28A421AB11CBF10F8012FF9E7EB
:1026700018BF002070470268531C03601170704738
:10268000C9B2830706D0521E22D310F8013B9942EB
:10269000F7D11FE0083A13D302F1040241EA012105
:1026A00041EA014150F8043B121F21BF4B40A3F106
:1026B000013C2CEA030C1CF0803FF3D0C9B2001F90
:1026C000083210F8013B521E28BF91EA030FF8D8D8
:1026D00018BF0120401E704700F10103810704D09C
:1026E00010F8011B89B18107FAD10268B2F10131FA
:1026F000914311F0803F04BF50F8042FF6E710F823
:10270000011B11B110F8011BFBE7C01A704780B51F
:1027100000F0F6FC012002BD70B504460D461646D9
:1027200000F0EEFC324629462046BDE8704000F03D
:10273000F1BC00004AB38B0707D0521E11F8013BD1
:1027400000F8013B21D08B07F7D183071ED1103A47
:1027500007D330B4B1E83810103AA0E83810F9D2F5
:1027600030BC530724BFB1E80810A0E8081044BFEC
:1027700051F8043B40F8043BD20724BF31F8022B48
:1027800020F8022B44BF0B7803707047083A07D338
:10279000B1E80810083A40F8043B40F804CBF7D2FF
:1027A0005307E4E713F0004C03D55B42524263F158
:1027B00000039CEA210C15D11B4229D109424CD1BE
:1027C0002AB18446B0FBF2F002FB10C2704700F061
:1027D000CFBCFCD30022002370470B000200002175
:1027E0000020704710B5644603D34942404261F16E
:1027F0000001FFF7E1FF640004D34942404261F168
:102800000001244203D55B42524263F1000310BD34
:10281000904271EB030CE0D370B5B1FA81F4B3FAD6
:1028200083F52C1BA340C4F1200532FA05F633438F
:10283000A2405FF00046E64002E05B085FEA320239
:10284000841A71EB030524BF204629467641F4D350
:1028500002000B003000002170BD012AB9D970B50B
:10286000140C20D0B1FA81F4B2FA82F5C4F120043C
:102870006419B4F12006D6D3B2405FF00044F440AE
:10288000002502E052085FEA3303C61A71EB020E1C
:1028900024BF3046714664416D41F3D302000B0002
:1028A0002000290070BD0C46B1FBF2F102FB11457E
:1028B0002D0445EA1045B5FBF2F402FB145580B235
:1028C00040EA0545B5FBF2F002FB105240EA044035
:1028D00070BD000070B4416801F0004201210D4B51
:1028E00044681C40446001D104686CB104684568C8
:1028F000E60F46EA4505456064000460491EEC02A7
:10290000F4D544682340436043681A434260084654
:1029100070BC7047FFFF0F004FF4001C1CEB410F11
:1029200094BF1CEB430F09E041EA030C50EA4C0C46
:1029300052EA0C0C03D2994208BF9042704714BF70
:102940008B428242704700004FF4001C1CEB410F89
:1029500094BF1CEB430F09E041EA030C50EA4C0C16
:1029600052EA0C0C03D28B4208BF8242704714BF5C
:10297000994290427047000070B504460D46606869
:10298000C0F30A5040F2FF71884209D16068000329
:1029900002D12068002801D0022070BD012070BD46
:1029A00030B92046FFF796FF012801DB002070BDFB
:1029B000012D0EDB40F2FF71091A8D4209D36068C8
:1029C000002847BF00202F4900202F49C4E90001FB
:1029D000E4E74142A942616806DA2C4A11404019F5
:1029E00041EA0050606049E001F000416268120372
:1029F000120B42F480126260401E451905F1350049
:102A0000352803D361600020206070BD002215F1DD
:102A10001F0F05DA203522686068206000206060A2
:102A2000684213D0521E9241D243C0F12003256860
:102A30009D4055EAD2722568C540666806FA03F3E0
:102A40002B432360636823FA00F0606060680843EA
:102A50006060B2F1004F03D80AD12078C00707D5D3
:102A60002068401C2060206810B96068401CB9E7ED
:102A70006068884202D12068002897D04FF0FF306C
:102A800070BD00BF0000F0FF0000F07FFFFF0F806F
:102A9000F446400D40EAC120490006D200F013F888
:102AA000004248BF6FF00040604700F00CF84FF064
:102AB000004188428CBF084640426047400D40EAD2
:102AC000C12049000CD240F00040490DA1F58061C1
:102AD000491C05D4D1F11F0154BFC840C01770472D
:102AE0004FF0000070470000010040F10880F446FC
:102AF000404200F004F851F000416047010009D065
:102B0000B0FA80F18840C91CC1F58461090501EB68
:102B1000D02140057047000070B44FF0004591EAA5
:102B2000030F44BF6B4000F02EBB841A71EB030609
:102B300004D26E40001BB141121973414FF4001CC6
:102B40001CEB410F34BF7CEB430684E00C0DA4EB7F
:102B50001356362E7DDC012E43DC45EAC32343EABF
:102B6000525312BFD20292025B08240545EAC121EA
:102B700041EA5051D2EBC020994125D407D1B0FA97
:102B800080F610FA06F164D00020203608E0B1FA91
:102B900081F6B140C6F1200220FA02F21143B040A2
:102BA0004FEAF474B4EB465434F001064FEA74046F
:102BB0000AD8D6F50016760D04F00044F04061FA0C
:102BC00006F25040F1404840C00A40EA415021F02E
:102BD000004128BF5FEA500550F1000044EBD121CD
:102BE00037E045EAC323DB0A45EAC121C90AB6F149
:102BF00020050EDD42EA0242120CC5F1200603FA5E
:102C000006F6EB4042EA06056D42984161F100018B
:102C10000DE062FA06F5F240554063FA06FC82EADE
:102C20000C02F3405A406D42904161EB030111F4F4
:102C3000801F05D1641E620502D06D0040414941EC
:102C400021F48011430875F1004350F1000041EB7D
:102C5000045170BC70471CEB410F15D223F00043A8
:102C600052EA43060BD04FEA4C0CBCEB410F04D8A0
:102C70000C0D661E342EB7DDEBE7801A994150EA41
:102C8000410608BF0021E4E708BF1CEB430F28BF43
:102C90006FF00001DDE70000B0B581EA030C0CF035
:102CA000004C40F2FF7515EA11541DBF15EA135789
:102CB000AC42AF4239E0E41923EA455343F48013B0
:102CC000C90241F0004141EA505EC7021100A7FB72
:102CD000020200284FF00000EEFB01204FF000013F
:102CE000E3FB072118BF42F00102401800214941CF
:102CF000E3FB0E01A4F580640F0302D252004041B1
:102D0000494154F101046CDD470872F1004250F171
:102D1000000051EB0451A1F580115CBF41EA0C01A8
:102D2000B0BD4CEA05510020B0BD05EA1357AC42D6
:102D300014BFAF4241E050EA410E1CBF52EA430EBD
:102D400002E061460020B0BD24423C441BD15FEA52
:102D5000070EF6D0090302BF01460020AEF1140EA3
:102D6000B1FA81F7AEEB070401FA07FE0C37C7F1A1
:102D7000200100FA07F7C8404EEA000E23EA455347
:102D800043F48013A2E733F00043B3FA83F704BFA0
:102D9000B2FA82FE77440B3FE41BB7F1200E2FBF3F
:102DA00002FA0EF3BB40C7F1200E22FA0EFE38BF26
:102DB00043EA0E03BA40641C82E750EA410E14BF96
:102DC00052EA430E6FF000014FF4001717EB430F68
:102DD0008ABF194617EB410FB5E74CEA05510020B1
:102DE000B0BDD4F10104B4F120070FDAC4F120071B
:102DF000520828BF42F0010210FA07F501FA07F75E
:102E0000E1BF2A43E0403843E1400FE0352C98DC35
:102E1000C7F1200452EA400220FA07F218BF42F03C
:102E2000010231FA07F0A1400A43002172F1004289
:102E300050F1000051EB0C01B0BD0000F0B540F2C4
:102E4000FF7581EA030C0CF0004C15EA11541DBF0C
:102E500015EA1357AC42AF42E5E0BC41C1F31301A0
:102E6000C3F31303801A994143F4801304D2641E00
:102E70004000494180185941C90241EA5051B1FB13
:102E8000F3F603FB1611A2FB0675D7EBC020A94190
:102E900002D2761E80185941C90241EA5051B1FB55
:102EA000F3FE03FB1E11A2FB0E75D7EBC020A94158
:102EB00003D2AEF1010E80185941890241EA9051C6
:102EC000760546EA8E2EB1FBF3F603FB1611A2FB44
:102ED0000675D7EB8020A94102D2761E8018594191
:102EE000C90241EA50514EEA060EB1FBF3F603FB6C
:102EF0001611A2FB0675D7EBC020A94102D2761E9F
:102F000080185941C90241EA5051B1FBF3F703FB64
:102F10001711A2FB0735D3EBC020A94167F10007C9
:102F20000CBF004247F0010766F3D5274FEA1E3178
:102F3000B80814F5806412DDBD0775F1004250EB4E
:102F40000E5051EB045111F5801F5CBF41EA0C019A
:102F5000F0BD4CF07F6141F0E0410020F0BDBD07C5
:102F60006D0840EA0E5041F48011D4F10104B4F12F
:102F700020060ADAC4F120060200E04001FA06F356
:102F8000E1401843B24015430EE0342C13DCC6F187
:102F9000200445EA40056D0820FA06F2154321FA9F
:102FA00006F0A1400D43002175F1004250F10000F0
:102FB00051EB0C01F0BD00205FEA0C01F0BDCFB970
:102FC00092185B41B3FA83F704BFB2FA82F6BF19D5
:102FD0000B3FB7F120062FBF02FA06F3BB40C7F143
:102FE000200622FA06F638BF3343BA401CB1E41972
:102FF000641E33E77F4231F00041B1FA81F404BF2F
:10300000B0FA80F6A4190B3CB4F120062FBF00FAE9
:1030100006F1A140C4F1200620FA06F638BF31437C
:10302000A0403C1B1AE7AC421ABF05EA1357AF4257
:1030300012E050EA41061CBF52EA4306BFE750EADD
:103040004107304661461CBF41EA0551F0BD52EAD6
:10305000430C08BFC143F0BD00204FF4001616EB2F
:10306000410F98BF16EB430F08BF16EB410F24BF6B
:10307000C14305E016EB430F0CBF61464CEA055116
:10308000F0BD000080B5134800F0E7F80FF24801EA
:10309000016041608160C1600161416181610FF245
:1030A0003C0242628162C162016341630FF23002FD
:1030B00082630FF23402C2630164416401BD10B542
:1030C000044800F0CAF80446206808B9FFF7DAFFA0
:1030D000204610BD00000020000000002E0000006F
:1030E00066616C7365000000747275650000000015
:1030F00091FBF2F303FB1211C0E9003170470000AD
:1031000080B5DFF80C0000F0A8F8806902BD00006F
:1031100000C1002030B438B90FF24400D0E90045B6
:10312000C2E90045002001E00170012030BC704779
:1031300030B439B90FF23000D0E90045C3E9004599
:1031400000200BE012B96FF0010007E008B10A7827
:1031500002800978481E8041C043C00F30BC7047D0
:10316000000000000000000000000000000000005F
:103170007047000070B44FF0004591EA030C44BF63
:103180006B40FFF7D2BC841A71EB030603D2001B1D
:10319000B141121973414FF4001C1CEB410F34BFB5
:1031A0007CEB430443E00C0DA4EB1356352E50DCAE
:1031B00045EAC323DB0A45EAC121C912B6F120055D
:1031C0000DDD63FA05F6EB4086EA0305124218BFEF
:1031D00045F00105C01851F100010CD213E062FA6C
:1031E00006F5F2405540F3415A40B340F3405A408F
:1031F0008018594107D349085FEA30005FEA350576
:1032000028BF45F0010501F58011420875F1004223
:1032100050F1000041EB045170BC4FF4001C1CEB5A
:10322000410F38BF70470020090D090570471CEB9E
:10323000410F10D252EA43060BD0BCEB410F05D828
:103240000C0DAB43661E342EB5DD02E0AB43801897
:10325000594170BC704770BC70477047DFF83C0C38
:10326000006810F4E060DFF8341B0843DFF82C1C22
:103270000860BFF34F8FFEE710B40022002303E085
:103280009BB21C5CA2185B1C9BB289B28B42F7D329
:103290001000C0B210BC704780B5DFF8040B008886
:1032A000002840D0DFF8F80B007801283BD1DFF888
:1032B000F00A0088401EDFF8E81A0880DFF8E00A0C
:1032C000008800282FD1DFF8DC0A007803281FD3FC
:1032D000DFF8D40A00210170DFF8C80A002101706C
:1032E00000F07AFE342000F027FFDFF8480B00F0F2
:1032F00087FE042804D1AA21DFF8380B00F0F5FE80
:1033000000F075FEDFF8300B41F28831418006E0B5
:10331000DFF8900A0078401CDFF8881A0870DFF8A0
:10332000800B0021017001BD1FB586B000249DF8FF
:103330001B0010F07F009DF81A1011F01F0150EAD9
:10334000C1109DF8191050EA01309DF8181011F0C5
:10335000030150EA01509DF81C1011F07F0150EA62
:103360008150019004208DF8080000208DF809009C
:103370009DF81D008DF80A009DF80A200DF11E0130
:103380000DF10B0000F026FF00A9DFF8180B01F08B
:103390006DF8042805D1641C42F21070A4B2844276
:1033A000F2D10AB010BD00B585B0DFF8FC0A007894
:1033B000002800F0D980DFF8F40A0F218170DFF8CF
:1033C000EC0A0121C170DFF8E40ADFF8E41A097899
:1033D0000171DFF8E00A008809282BD2DFF8CC0A57
:1033E00000210170DFF8C40A00214170DFF8BC0A37
:1033F000DFF8C01A09884171DFF8B00A4279DFF8B6
:10340000B81ADFF8B80A00F0E5FE00A8DFF89C1A49
:103410001022FFF79CF900A80FC8FFF785FFDFF81F
:103420008009DFF89C1A09880180DFF87C0A0021F6
:10343000017099E0DFF88C0A0078002827D0DFF8C7
:103440006C0A01210170DFF8640A00214170DFF885
:103450005C0A08214171DFF8540A4279DFF8581AF2
:10346000DFF8580A00F0B6FE00A8DFF8401A102274
:10347000FFF76DF900A80FC8FFF756FFDFF8480AFD
:1034800008210180DFF83C0A002101706CE0DFF8C0
:10349000380A00880830DFF81C1A098888422DDABB
:1034A000DFF8080A02210170DFF8000A4078401CAA
:1034B000DFF8F8194870DFF8F40908214171DFF8E6
:1034C000EC094279DFF8000A0088DFF8EC194118AE
:1034D000DFF8E80900F07EFE00A8DFF8D01910221E
:1034E000FFF735F900A80FC8FFF71EFFDFF8D8096E
:1034F00000880830DFF8D019088035E0DFF8AC0923
:1035000003210170DFF8A4094078401CDFF89C1902
:103510004870DFF8A0090088DFF8AC190988401A64
:10352000DFF888194871DFF884094279DFF89809D3
:103530000088DFF884194118DFF8800900F04AFE9E
:1035400000A8DFF868191022FFF701F900A80FC8DA
:10355000FFF7EAFEDFF84808DFF864190988018000
:10356000DFF844090021017005B000BD0FB480B53B
:103570009DF81600C0B2B0281CD1DFF82C180978CD
:10358000022917D1DFF8280902780FF69411DFF825
:103590003C0901F0BBF8DFF838190880DFF8300982
:1035A0000188DFF8280901F092FADFF8FC0703210F
:1035B000017048E0C0B2B1281CD1DFF8EC170978DF
:1035C000032917D1DFF8E80802780FF67011DFF849
:1035D000FC0801F09BF8DFF8F8180880DFF8F00825
:1035E0000188DFF8E80801F072FADFF8BC0704216F
:1035F000017028E0C0B2B22825D1DFF8AC0700780E
:10360000042820D1DFF8A80800780090DFF8C4086B
:103610000388DFF8C40802880FF64411DFF8AC080D
:1036200001F074F8DFF8A8180880DFF8A408018812
:10363000DFF8980801F04BFADFF89C080088401C7E
:10364000DFF894180880DFF8580800210170DFF8CF
:10365000500700210180DFF84C070021017001BCF8
:103660005DF814FB80B5DFF85008AA210170DFF87F
:103670004808AA214170DFF84008DFF834180978BB
:103680008170DFF83408B021C1700421DFF8280808
:10369000FFF7F2FDDFF820180871DFF818080521A0
:1036A0000180DFF8040801210170DFF814084FF4ED
:1036B0007A710180DFF8E80701210170DFF8F00777
:1036C00002780FF6BC01DFF8040801F01FF8DFF8FC
:1036D00000180880DFF8F8070188DFF8F00701F02C
:1036E000F6F901BD80B5DFF8D007AA210170DFF837
:1036F000C807AA214170DFF8C007DFF8B4170978BE
:103700008170DFF8B407B121C1700421DFF8A80788
:10371000FFF7B2FDDFF8A0170871DFF89807052161
:103720000180DFF8840701210170DFF8940741F27E
:1037300088310180DFF8680701210170DFF8700728
:1037400002780FF65801DFF8840700F0DFFFDFF89A
:1037500080170880DFF878070188DFF8700701F02C
:10376000B6F901BD10B582B0DFF87017DFF8640755
:103770000088DFF86427128890420FD2DFF8300704
:103780000078401CDFF828170870DFF84C0701218B
:103790000180DFF814060221017085E0DFF83807A8
:1037A0000088DFF830271288904202D24FF48072EE
:1037B0000AE0DFF82C070068DFF818271288521E8D
:1037C0004FF480735A43821ADFF80C0700884FF4D5
:1037D000807303FB0010B0F5807112F10904DFF86B
:1037E000D806AA230370DFF8D006AA234370DFF8B7
:1037F000C806DFF8BC361B788370DFF8BC06B2233E
:10380000C370DFF8B406DFF8CC361B880371DFF82D
:10381000A806DFF8C4361B884371DFF89C06827166
:10382000DFF8940692B2130AC37192B2DFF8B406BD
:1038300000F0D0FC611E89B2DFF87C06FFF71CFDAA
:10384000A4B2DFF87416611801F8010CDFF8640601
:103850000480DFF8700601210170DFF84C060121B9
:103860000170DFF85C064FF4FA610180DFF8300682
:1038700001210170DFF8380600780090DFF8540667
:103880000388DFF8540602880FF23071DFF83C0637
:1038900000F03CFFDFF838160880DFF834060188B6
:1038A000DFF8280601F013F913BD80B5DFF8F8043E
:1038B0000078002804D0DFF8F0040078012800D157
:1038C0005DE0DFF81C060068002804D1DFF8D804AA
:1038D0000021017053E0DFF8D8050078DFF8081602
:1038E000097BDFF80426527B5118884223DBDFF87E
:1038F000B80400210170DFF8F40501F019F94FF662
:10390000FF71884216D000F067FB342000F014FCF1
:10391000DFF8200500F074FB042804D1AA21DFF8A9
:10392000140500F0E2FB00F062FBDFF80C0541F249
:103930008831418023E0DFF870040078022806D146
:10394000DFF85C050078002801D1FFF78BFEDFF877
:1039500058040078032806D1DFF8440500780028D1
:1039600001D1FFF7BFFEDFF840040078042806D13C
:10397000DFF82C050078002801D1FFF7F3FE01BD28
:1039800080B5DFF86C050088052801D200202CE006
:10399000DFF860050078AA2804D1DFF858054078E0
:1039A000AA2801D0002020E0DFF848058078DFF861
:1039B00048150978884201D0002016E0DFF830056C
:1039C0000088411E89B2DFF82C05FFF755FCDFF8AF
:1039D00020150988DFF81C25891811F8011CC0B2D0
:1039E000814201D0002000E0012002BD80B5FFF738
:1039F000C7FF012862D1DFF8FC04C078C0B2B0284C
:103A000008D1DFF8F804B0210180DFF8F4040021C8
:103A1000018053E0C0B2B12808D1DFF8E004B12141
:103A20000180DFF8DC040021018047E0C0B2B22849
:103A300040D1DFF8C0040079DFF898140880DFF87F
:103A4000B4044079DFF890140880DFF8A804807986
:103A5000DFF8A014C97950EA0120DFF8A814088023
:103A6000DFF8A004008840F20111884226D2DFF876
:103A700064040088DFF86014098888421ED3DFF8E8
:103A800080040088401CDFF85014098888420CD05C
:103A9000DFF86C040088DFF84014098888420DD1F3
:103AA000DFF85804B221018008E0DFF85004B221A9
:103AB000018003E0DFF844040021018001BD0FB460
:103AC00000B583B00598C00910F01F008DF8020002
:103AD0000598800D10F07F008DF804000598000D0A
:103AE00010F003008DF800000598000B8DF8010020
:103AF0009DF80400DFF800140978884240F09980AE
:103B00009DF802000F2840F094809DF800000028E6
:103B10000FD19DF81A200DF11B01DFF8D80300F03A
:103B200059FB9DF81A00DFF8C8130880FFF75EFF05
:103B30007FE09DF80000012816D19DF81A200DF1B4
:103B40001B01DFF8B00300F045FBDFF8BC030121E7
:103B500001709DF80100DFF8B41308709DF81A0099
:103B6000DFF8AC13088064E09DF8000002282DD136
:103B7000DFF89403007801285BD19DF80100DFF89D
:103B80008C130978491C884253D1DFF884030088DC
:103B90009DF81A100818B0F5967F4ADC9DF81A2097
:103BA0000DF11B01DFF868030088D24BC01800F04C
:103BB00011FBD6480078401CD4490870D4480088CE
:103BC0009DF81A100818D249088032E09DF80000CC
:103BD00003282ED1CC48007801282AD19DF8010075
:103BE000CA490978491C884223D1C94800889DF8F0
:103BF0001A100818B0F5967F1BDC9DF81A200DF1FD
:103C00001B01C3480088BB4BC01800F0E3FAC04852
:103C100000889DF81A100818B5490880FFF7E6FEDD
:103C2000B94800210170B94800210170B84800214D
:103C3000018007BC5DF814FB00B585B000208DF84D
:103C4000000000208DF801000F208DF80200AA4826
:103C500000788DF8030001208DF8040005208DF810
:103C6000050055208DF8060055208DF80700A24864
:103C700000788DF80800B0208DF8090004210DF1BE
:103C80000600FFF7F9FA8DF80A0000A80FC8FFF741
:103C90004BFB05B000BD00B585B000208DF80000DD
:103CA00000208DF801000F208DF802009248007866
:103CB0008DF8030001208DF8040005208DF8050023
:103CC00055208DF8060055208DF807008A480078A9
:103CD0008DF80800B1208DF8090004210DF10600CF
:103CE000FFF7CAFA8DF80A0000A80FC8FFF71CFBFF
:103CF00005B000BD00B585B000208DF800000020A3
:103D00008DF801000F208DF802007B4800788DF8B7
:103D1000030001208DF8040006208DF805005520D1
:103D20008DF8060055208DF80700734800788DF84F
:103D30000800B2208DF80900674800888DF80A0055
:103D400005210DF10600FFF797FA8DF80B0000A88A
:103D50000FC8FFF7E9FA05B000BD70B504245FF4A1
:103D6000C03001F0EAFA050000F036F9314800F001
:103D700047F90400002608E04FF400605B4900FBAF
:103D8000061000F03DF90400761CAE4202D2E4B207
:103D9000042CF1D000F02BF970BD00000400FA05EE
:103DA0000CC3002026C300202DC3002070B554484A
:103DB00000884949098888423BD0514846490988CA
:103DC0000180544C444800884FF48071524A01FBF2
:103DD0000025002602E02D1D241D361D49480088BF
:103DE000B6B286420CD200F0F7F82168280000F045
:103DF00039F900F0FCF8286821688842EBD018E017
:103E00003548008833490988884212D100F0E4F827
:103E1000342000F091F9074800F0F2F8042803D1AB
:103E2000AA21044800F061F900F0E1F83B480121C3
:103E3000017070BD00F80008A4C2002080B504E045
:103E4000FFF7FAFE2D48002101802C480088B02899
:103E5000F6D02A480088B12807D1FFF77EFFFFF788
:103E60001AFF264800210180EFE724480088B22885
:103E7000EBD1FFF79BFFFFF73DFF204800210180BA
:103E8000264800780128E0D12448002101704FF431
:103E9000FA6000F08BFFFFF7E1F9D6E70CED00E0E8
:103EA00025C300200064004027C3002064C2002016
:103EB00024C300200EC3002048BC00206AC200209A
:103EC0000AC3002028C3002010C3002030C00020F7
:103ED0001AC3002004C3002006C30020008002088B
:103EE000A0C2002050BC002074C2002000000108C5
:103EF00012C3002074BD00202EC3002016C3002072
:103F000018C3002008C3002029C300202AC30020B2
:103F100014C300207CBD002000FF00082BC300203C
:103F20005265706C7920626F6F7420636F6D6D6184
:103F30006E642066726F6D3A25640A005265706C7B
:103F40007920657261736520666C61736820636FA8
:103F50006D6D616E642066726F6D3A25640A0000B3
:103F60005265706C79207061636B202564206F66E8
:103F70002025642066726F6D3A25640A00000000F7
:103F800053656E6420626F6F7420636F6D6D616E38
:103F90006420746F3A25640A0000000053656E6463
:103FA00020657261736520666C61736820636F6D54
:103FB0006D616E6420746F3A25640A0053656E6407
:103FC000207061636B202564206F66202564207457
:103FD0006F3A25640A000000DFF89401DFF89411BD
:103FE0000160DFF88C01DFF8901101607047DFF8A5
:103FF0008C01006850F08000DFF880110860704785
:1040000038B50400042540F6FF7000F0BDF8050047
:10401000EDB2042D23D1DFF86401006850F00200F6
:10402000DFF858110860DFF858010460DFF84C0130
:10403000006850F04000DFF84411086040F6FF705F
:1040400000F0A2F80500EDB2052D08D0DFF82C0134
:10405000006841F6FD710840DFF820110860280073
:10406000C0B232BD70B582B005000C00042600203D
:1040700000900F2000F088F80600F6B2042E31D12F
:10408000DFF8F800006850F00100DFF8F010086079
:104090002C800F2000F078F80600F6B2042E15D11F
:1040A000A81C0090200C009908800F2000F06CF8EC
:1040B0000600F6B2052E15D0DFF8C000006841F604
:1040C000FE710840DFF8B41008600BE0F6B2052E70
:1040D00008D0DFF8A800006841F6FE710840DFF85C
:1040E0009C1008603000C0B276BD70B504000D00B1
:1040F00004260F2000F048F80600F6B2042E18D16E
:10410000DFF87800006850F00100DFF870100860F8
:1041100025800F2000F038F80600F6B2052E08D0F2
:10412000DFF85800006841F6FE710840DFF84C10D7
:1041300008603000C0B270BD124980B2086070479C
:10414000042010490968C90701D501200CE00D4879
:104150000068400701D5022006E00A480068C00652
:1041600001D5032000E00420C0B270470000000029
:104170000420024023016745AB89EFCD10200240A7
:10418000142002400C20024038B504000425FFF73B
:10419000D7FF050005E000F00FF8FFF7D1FF05009D
:1041A000641EEDB2012D01D1002CF4D1002C00D100
:1041B00005252800C0B232BD81B000200090FF204C
:1041C000009002E00098401E009000980028F9D16D
:1041D00001B0704710B504002000FEF7ABFA2000D4
:1041E00010BD000080B5944988420AD101215FF0DA
:1041F000007001F079F900215FF0007001F074F9AE
:1042000009E001215FF0806001F06EF900215FF0AC
:10421000806001F069F901BD10B400220023046838
:1042200034F002040460046854F00104046000E007
:104230005B1C4268D20703D44FF6FF729342F7D15A
:104240004268D20701D400226AE08A79012A04D1A7
:10425000026852F08002026003E0026832F08002DD
:104260000260CA79012A04D1026852F04002026059
:1042700003E0026832F0400202600A7A012A04D1A7
:10428000026852F02002026003E0026832F020026D
:1042900002604A7A012A04D1026852F010020260D8
:1042A00003E0026832F0100202608A7A012A04D127
:1042B000026852F00802026003E0026832F008026D
:1042C0000260CA7A012A04D1026852F00402026034
:1042D00003E0026832F0040202608A78CB781B06A1
:1042E00053EA82720B7952EA03424B7952EA035243
:1042F0000988491E1143C1610168490849000160EC
:10430000002300E05B1C4168C90703D54FF6FF712D
:104310008B42F7D14068C00701D5002200E001229E
:104320001000C0B210BC704710B400210122837A83
:104330009A401100414A126852F001023F4B1A6044
:104340003F4A12688A433E4B1A60027B002A15D10D
:104350003C4A12688A433B4B1A60C288438853EA3E
:104360000242837A384C44F83320827A364B13EB7E
:10437000C2028388048854EA03435360027B012A03
:1043800015D1304A12680A432E4B1A6002884388BE
:1043900053EA0242837A2C4C44F83320827A2A4B27
:1043A00013EBC2028388C48854EA03435360C27A81
:1043B000002A05D1254A12688A43244B1A6004E07A
:1043C000224A12680A43214B1A600289002A04D14A
:1043D0001F4A12688A431E4B1A600289012A04D1BF
:1043E0001B4A12680A431A4B1A60407B012804D109
:1043F00013480068084312490860104800684008E4
:1044000040000E49086010BC7047002181710021F6
:10441000C1710021017200214172002181720021CD
:10442000C172002181700021C1700321017102213C
:104430004171012101807047006400400066004026
:104440001C6600400C660040406600400466004068
:1044500014660040D2B2002A03D042691143416180
:1044600003E0426932EA01014161704730B4002241
:1044700083685B0101D500220AE08268120101D540
:10448000012205E08268D20001D5022200E0042268
:10449000D2B2042A75D0D2B210EB0213D3F8803115
:1044A00013F00103D2B210EB0214C4F880310B7A7E
:1044B000002B0FD1D2B210EB0213D3F880310C686D
:1044C0004D7A55EA44542343D2B210EB0214C4F897
:1044D000803110E0D2B210EB0213D3F880314C6877
:1044E0000D7A55EAC4044D7A2C432343D2B210EB23
:1044F0000214C4F880318B7A13F00F038B72D2B29E
:1045000010EB0213D3F884311B091B01D2B210EB5C
:104510000214C4F88431D2B210EB0213D3F8843100
:104520008C7A2343D2B210EB0214C4F884318B7B13
:104530004C7B240454EA03630C7B53EA0423CC7AB7
:104540002343D2B210EB0214C4F888318B7C4C7C2C
:10455000240454EA03630C7C53EA0423C97B194303
:10456000D2B210EB0213C3F88C11D2B210EB0211CD
:10457000D1F8801151F00101D2B210EB0210C0F855
:1045800080111000C0B230BC7047C9B2002902D1FE
:104590002021C16001E020210161704780B5C9B2CE
:1045A00010EB0113D3F8B03113F004031372137A34
:1045B000002B07D1C9B210EB0113D3F8B0315B0D5A
:1045C000136006E0C9B210EB0113D3F8B031DB0879
:1045D0005360C9B210EB0113D3F8B03113F00203EA
:1045E0005372C9B210EB0113D3F8B43113F00F03B7
:1045F0009372C9B210EB0113D3F8B4311B0AD37410
:10460000C9B210EB0113D3F8B831D372C9B210EBB1
:104610000113D3F8B8311B0A1373C9B210EB01139D
:10462000D3F8B8311B0C5373C9B210EB0113D3F894
:10463000B8311B0E9373C9B210EB0113D3F8BC3120
:10464000D373C9B210EB0113D3F8BC311B0A137436
:10465000C9B210EB0113D3F8BC311B0C5374C9B2AF
:1046600010EB0113D3F8BC311B0E9374C9B2FFF7E2
:104670008CFF01BD042926D0052919D006291AD09E
:1046800007291CD0082921D0202922D0402923D055
:10469000B1F5807F23D0B1F5007F25D0B1F5806FD3
:1046A00027D0B1F5803F29D0B1F5003F29D02BE0CC
:1046B0000121816028E04FF48071816024E05FF483
:1046C0008031816020E00821C1601DE01021C160BF
:1046D0001AE00821016117E01021016114E08169ED
:1046E0004908490081610FE0816931F0020181616F
:1046F0000AE0816931F00401816105E0082141602F
:1047000002E010214160FFE7704700000CB41CB5C7
:10471000044604A80190009401AB0A4600A907488A
:1047200078441830FCF740FF009900220A700028F6
:104730005CBF0098001B16BC5DF80CFB3BDFFFFF65
:1047400010B5040001F014F9E4B24FF4D471DFF8AD
:10475000B42301FB0421C1F89C01E4B24FF4D470EE
:10476000DFF8A01300FB0410002180F89611E4B2DA
:104770004FF4D470DFF88C1300FB0410D0F89C01C8
:10478000002825D0E4B24FF4D470DFF8781300FB92
:104790000410012180F8A611E4B24FF4D470DFF8C0
:1047A000641300FB0410002180F8A711E4B24FF459
:1047B000D470D44900FB0410002180F89011E4B2B9
:1047C0004FF4D470CF4900FB04100021A0F89411DD
:1047D00010BD10B582B004002000C0B200F045F951
:1047E000E4B24FF4D470C74900FB041090F8A00164
:1047F000E4B24FF4D471C34A01FB042191F8A11132
:10480000090451EA0060E4B24FF4D471BD4A01FBDF
:10481000042191F8A21150EA0120E4B24FF4D471BE
:10482000B84A01FB042191F8A311084301F0BBF839
:10483000009042F22832B449E4B24FF4D470B14B44
:1048400000FB0430D0F89C0100F0F4FFE4B24FF418
:10485000D470AC4900FB0410B0F8A42100A9E4B264
:104860004FF4D470A74B00FB0430D0F89C0101F04A
:104870001DF840B200281DD10022A449E4B24FF433
:10488000D470A04B00FB0430D0F89C0101F04AF832
:10489000E4B24FF4D4709B4900FB0410012180F86E
:1048A0009611E4B24FF4D470964900FB0410002135
:1048B00080F8A71113BDF8B5002335E0DBB24FF443
:1048C000D475904E05FB0365B5F89251C0B24519F9
:1048D000DBB24FF4D4768B4F06FB0376C0B2075D94
:1048E000AF55401C0500EDB21689ADB2B542E5D317
:1048F000DBB24FF4D474834D04FB0354B4F89241FB
:10490000C0B20419DBB24FF4D4757E4E05FB0365CB
:10491000A5F89241DBB24FF4D4747A4D04FB0354F2
:10492000022584F896515B1CDBB2012B34D28C8AB1
:10493000DBB24FF4D475734E05FB0365B5F8A45193
:10494000AC42F0D1002400E0641CE4B2042C10D28C
:104950004D68E4B2E600F540E4B2DBB24FF4D47641
:10496000684F06FB0376A61996F8A061EDB2AE4239
:10497000EAD0DBB24FF4D475624E05FB036595F8BF
:104980009651012DCFD1E4B2042CCCD11489C92C7D
:10499000AED254680020A5E7100001F075F9F1BD12
:1049A00038B504000322E4B24FF4D470554900FB3B
:1049B0000410B0F89411002001F005F80500002D56
:1049C00020D0E4B24FF4D4704E4900FB0410B0F88C
:1049D0009421E4B24FF4D4704A4900FB041010F162
:1049E000C801280001F067FA2900E4B24FF4D4703E
:1049F000444A00FB0420D0F89C0100F086FE280009
:104A000001F042F931BD80B53E4890F89601022888
:104A100007D13F493B4801F024FB3A48012180F887
:104A20009611384890F8A601002803D10020FFF71E
:104A300087FE19E0334890F89601002803D1002042
:104A4000FFF7C7FE10E02F4890F8960101280BD120
:104A50002C4890F89001012806D10020FFF7A0FF14
:104A60002848002180F8901101BDC0B200282DD146
:104A7000C0B24FF4D471234A01FB002142F2283224
:104A8000A1F8A421C0B24FF4D4711E4A01FB002149
:104A9000C02281F8A021C0B24FF4D471194A01FBA1
:104AA0000021A82281F8A121C0B24FF4D471154A87
:104AB00001FB00210A2281F8A221C0B24FF4D47177
:104AC000104A01FB00200C2180F8A311704710B59B
:104AD0000C4A92F89621012A13D1002207E092B2E3
:104AE000084BD31892B2145C83F8C840521C92B29F
:104AF00089B28A42F3D30348A0F894110020FFF74B
:104B00004FFF10BDA0BA00208C730008B748000802
:104B100032BC0020DFF82403006810F4E060DFF806
:104B200020130843DFF814130860BFF34F8FFEE72C
:104B30000021002205E0090253421B185B7819434B
:104B4000521C022AF7D3080080B2704783B0BD48D8
:104B500000680090BC4800680190BC480068029062
:104B600000980199890811EB5000029910EBD100CF
:104B7000010EB74A1170010CB54A5170010AB44ACE
:104B80009170B349C870B24800210171B048022148
:104B9000417103B0704738B50024002540E0102172
:104BA000AC4801F01FFB002801D054F00104202183
:104BB000A84801F017FB002801D054F0020440215E
:104BC000A44801F00FFB002801D054F00404802118
:104BD000A04801F007FB002801D054F00804102180
:104BE0009D4801F0FFFA002801D054F01004012183
:104BF0009A4801F0F7FA002801D054F0200402216D
:104C0000964801F0EFFA002801D054F0400494488F
:104C10000078E4B2A04202D09148047000256D1CD7
:104C2000EDB2142DBBD38E480078C04310F07F0046
:104C30008B49087031BD80B58A480088012811D1A0
:104C40008848002101800421874801F0D6FA002815
:104C500004D00421844801F0DEFA03E004218248F4
:104C600001F0D6FA01BD80B580480068804908404F
:104C7000B0F1005F0ED17F487F49096801607F482D
:104C80007C49096801607948006801F007FB7B48AE
:104C90000068804701BD80B500F091F9FFF756FF2D
:104CA000FFF779FF764877490988018074480088C2
:104CB000AA2805D180216C4801F094FA002809D176
:104CC00067480078012802D100F008F804E0FFF7F7
:104CD000B5F801E0FFF7C7FF002002BD80B501E095
:104CE00000F098F9684800680028F9D001F059F9F7
:104CF00001F0D8FA01F0E5FD15E064480068000A0B
:104D000063490880634801210180634800210170E4
:104D1000624800210180FFF776FE01F0D1F9FEF72D
:104D2000C4FDFEF740FB5E48006801F0FCFA5D48F8
:104D300000780128EFD15B48002101705A48C07A01
:104D4000002817D1594800210170FFF745F9342098
:104D5000FFF7F2F94B48FFF753F9042803D1AA21D2
:104D60004848FFF7C2F9FFF742F94C4841F2883151
:104D70000180D0E74C48C07A0128CCD14B480221B1
:104D800001704948007B4A490870404800684FF468
:104D90008071B0FBF1F202FB1102002AADD03B485A
:104DA0000068000A401C3A490880ABE73C490968A2
:104DB0004018404908603A4800683E4909688842FE
:104DC000F9D3704780B536480068401C3449086004
:104DD0003948008800280ED037480088401E3649E0
:104DE000088035480088002805D13348FA21018021
:104DF0001C4801210180FFF71EFFFEF74DFA2748EE
:104E0000008800280AD025480088401E23490880D1
:104E100022480088002801D1FFF77CFE1F48408807
:104E200000280AD01D484088401E1C4948801B4865
:104E30004088002801D1FFF76DFE01BD0CED00E0B8
:104E40000400FA05E8F7FF1FECF7FF1FF0F7FF1F5C
:104E500098C200200008014000100140000C0140F1
:104E60002EC3002020C300200018014000000108CC
:104E70000000FE2FC0C2002004000108BCC20020B8
:104E800022C3002000F80008E8C20020A0C20020D1
:104E900004C3002006C3002025C30020A4C20020B4
:104EA000B4C2002031C3002074C200202DC30020F2
:104EB00024C30020B8C200209400002040B2002883
:104EC00009D540B210F00F00DFF8E0238018090187
:104ED00000F8041C04E040B2DFF8D4230901815437
:104EE000704780B5B0F1807F01D3012013E000024C
:104EF000000A401EDFF8BC1308600F215FF0FF308E
:104F0000FFF7DCFFDFF8B00300210160DFF8AC033E
:104F100007210160002002BD00B587B0DFF8A003C3
:104F2000FFF760F900A8FFF770FA00208DF806007F
:104F300001208DF8070000208DF8080000208DF872
:104F4000090000208DF80A0001208DF80B000020D8
:104F50008DF8020000208DF803000C208DF804006D
:104F600001208DF805001220ADF8000000A9D448FA
:104F7000FFF752F900208DF8160000208DF8170079
:104F800001208DF818000020ADF80C000020ADF8CD
:104F90000E000020ADF810000020ADF81200002037
:104FA000ADF8140001208DF8190003A8FFF7BCF933
:104FB00001220221C248FFF74DFA07B000BD00B53B
:104FC00085B001F011FD0121BE4800F06DFA01210C
:104FD000BD4800F049FA012144F27D0000F054FA86
:104FE000012001F0CDFD00F07FF900F062F8FFF73D
:104FF00093FF00A800F0B2F900984FF47A71B0FB6B
:10500000F1F0FFF76EFF02215FF0FF30FFF756FF70
:1050100005B000BD00B5AFB0002001F037F90620A3
:1050200000F072FA01F0B2FD02F09DF802F0A4F86F
:105030000128FBD000A801F0F6FE0120009000201E
:1050400007904FF400700A9000200B9000200E9003
:105050000020119000201390002014900020159043
:10506000002020905FF0007021905FF400102390EA
:105070000020259000202690042028905FF00070EA
:1050800029905FF480302A905FF480002B904FF4D9
:1050900000502C904FF480402E90012100A801F088
:1050A00081FD8A4908600121894802F09DF82FB0EE
:1050B00000BD80B50420ADF8000003208DF802008B
:1050C00018208DF8030000A9824801F025F8062079
:1050D000ADF8000003208DF8020018208DF80300C1
:1050E00000A97D4801F018F843F62010ADF8000043
:1050F00003208DF8020018208DF8030000A97748DE
:1051000001F00AF801215FF0201001F087F80B2070
:10511000ADF8000003208DF8020004208DF8030094
:1051200000A96C4800F0F8FF4FF48060ADF8000073
:1051300003208DF8020004208DF8030000A96748C1
:1051400000F0EAFF0820ADF8000003208DF802000F
:1051500004208DF8030000A95F4800F0DDFF4FF444
:10516000F850ADF8000003208DF8020004208DF8FF
:10517000030000A95A4800F0CFFF4FF48070ADF84B
:10518000000003208DF8020018208DF8030000A90C
:10519000504800F0C1FF0420ADF8000010208DF849
:1051A000030003208DF8020000A94E4800F0B4FF70
:1051B0004FF48060ADF8000018208DF80300032044
:1051C0008DF8020000A9444800F0A6FF4FF40060EB
:1051D000ADF8000004208DF8030000A93E4800F05F
:1051E0009BFF8020ADF8000010208DF80300032005
:1051F0008DF8020000A93A4800F08EFF802138485F
:1052000001F009F8F020ADF8000004208DF803004B
:1052100003208DF8020000A92E4800F07DFF102029
:10522000ADF8000004208DF8030003208DF8020083
:1052300000A9294800F070FF0320ADF80000042009
:105240008DF8030003208DF8020000A9234800F028
:1052500063FF8020ADF8000004208DF803000320D8
:105260008DF8020000A91F4800F056FF0120ADF89C
:10527000000048208DF8030003208DF8020000A9EB
:10528000174800F049FF0220ADF8000018208DF803
:10529000030003208DF8020000A9114800F03CFF34
:1052A00001215FF4EB1000F0B9FF01BD18ED00E043
:1052B00000E400E014E000E018E000E010E000E0AE
:1052C0000064004001000A1A03C00100E8C2002087
:1052D000400001000008014000100140000C0140A6
:1052E000001401400018014080B500215FF000600B
:1052F00002F010F84FF4A06001F0D4FF3D208DF8CB
:10530000000002208DF8010000208DF8020001202D
:105310008DF8030000A801F0CAFF14208DF80000EA
:1053200000208DF8010001208DF8020001208DF889
:10533000030000A801F0BBFF01BD01B400200099EB
:105340004FF40062B1FBF2F303FB1213002B02D007
:10535000C80A401C00E0C80A01B07047F0B500253B
:105360000021002700260022002300245FF0000C0B
:10537000DFF89CE1DEF800E01EF00C0E7546002D13
:1053800004D0042D05D0082D06D041E0624901600B
:1053900040E0624901603DE05D49096811F4701127
:1053A0005B4A126812F48037890C0D2901D0891CE0
:1053B00000E00621002F03D1594A5143016026E045
:1053C000544A126812F48032524B1B6813F00F03D8
:1053D0005B1C002A06D1514AB2FBF3F201FB02F139
:1053E000016014E04B4A1268C2F30312541C494A8C
:1053F0001268C2F3032212F1020C484AB2FBF4F223
:105400000CFB02F2B2FBF3F201FB02F1016001E0DE
:10541000414901603E49096811F0F0052D094149F3
:105420006E5C0168F14041603949096811F4E0653A
:105430002D0A3C496E5C4168F1408160344909683D
:1054400011F46055ED0A37496E5C4168F140C16066
:105450002F49096811F44045AD0B33496E5CC168B2
:10546000B1FBF6F10161F0BDC9B2002905D02F49A9
:10547000096808432D49086005E02C49096831EAAC
:1054800000002A4908607047C9B2002905D02849A0
:10549000096808432649086005E02549096831EA9A
:1054A0000000234908607047C9B2002905D021498E
:1054B000096808431F49086005E01E49096831EA88
:1054C00000001C4908607047C9B2002905D01A497C
:1054D000096808431849086005E01749096831EA76
:1054E0000000154908607047C9B2002905D013496A
:1054F000096808431149086005E01049096831EA64
:1055000000000E49086070470D49087070470000A0
:10551000041002402C10024000127A0040787D01F5
:1055200000093D00740000208C000020141002408F
:10553000181002401C1002402810024010100240B7
:10554000071002402DE9F84304000E006568288822
:1055500000F024FA2189C0F3032080B280000830D3
:1055600081420EDB288800F019FAC0F3032080B2D4
:10557000800000B2414209B2200000F03BFB00284D
:1055800003D0200000F080FBBDE0D4F8049031008F
:1055900015F1100001F0D2FE0700B9F8000000F08C
:1055A000FDF98046B9F8020000F0F8F90022002366
:1055B0000021DFF8B4C3DCF8009002E04A46D9F8D5
:1055C0000C90B9F1000F45D00023B9F812C080B299
:1055D00084451CD1FFB2002F07D1B9F1000F0DD0C7
:1055E000D9F800C0BCF1000F08D0D9F800C0D5F838
:1055F00010E0F44502D0FFB2002F08D001230029AB
:1056000005D199F810C05FEA4C7C00D44946DBB262
:10561000002BD3D0B9F814301FFA88F84345CDD108
:1056200019F10403002B09D0D9F80430002B05D060
:10563000D9F80430D5F80CC06345BFD1002A09D091
:10564000D9F80C00D060C8480068C9F80C00C648FA
:10565000C0F80090B9F1000F00D18946B9F1000FF0
:1056600003D17068296988424AD17FF00701200080
:1056700000F0C0FA002803D0200000F005FB42E053
:10568000B9F1000F15D0D9F8180000280DD01FFA75
:1056900088F8CDF8008015F10C0322004946D9F8AE
:1056A0001C00D9F81840A0472DE0200000F0ECFACB
:1056B00029E0FFB2002F1FD15FF0704000F07FF9AA
:1056C000296910EA01065FF0604000F078F986422F
:1056D00012D0288800F062F9C0F3032080B2800065
:1056E00010F1080109B2200000F084FA6068A842B5
:1056F0000321200001F003FF200000F0C5FA02E0C2
:10570000200000F0C1FABDE8F18380B5838A021D54
:1057100000F001F802BDF8B504000D0016001F00EE
:10572000300001F031FF002802D17FF0030007E0D4
:1057300000903B009BB232002900200000F001F8ED
:10574000F2BD2DE9F04784B004000D001600994623
:105750000C9F608A00280DD1628A2100200000F091
:1057600069F882464FFA8AFABAF1000F02D0504621
:1057700040B25CE00821280000F03CFA002810D07C
:1057800000220821012000F01EF98046B8F1000F28
:1057900002D15FF0FF304AE02900404600F0D7FA1E
:1057A00000E0A846B8F80A000828D8F804A0608AE3
:1057B00000F0EEF8AAF80000484680B200F0E8F8E1
:1057C000AAF802000020AAF80600002C02D02068E7
:1057D000002802D117F104090EE020687968884298
:1057E00009D0A84504D0404600F04EFA5FF000080A
:1057F0007FF008001BE0A146B8F8080000F0C8F8E8
:10580000AAF80400029711200190A07A0090E37A90
:1058100032004946404601F0A5FF8246A84504D023
:10582000404600F031FA5FF00008504640B204B044
:10583000BDE8F08710B400244B4B1B6805E098428C
:1058400002D1E4B2002C0124DB68002BF7D100293F
:1058500001D1002100E00968016092B2002A19D14B
:105860004FF4805240490B6802E0521C3E490B68DD
:10587000002B0AD047F6FF7192B28A4205D0598AAE
:1058800092B29142F1D0DB68F2E7002B02D07FF0B8
:105890000A0009E04282E4B2002C04D132490968CE
:1058A000C16031490860002010BC704770B5040029
:1058B0000D001600608A002809D1628A21002000AC
:1058C000FFF7B8FF40B2002801D040B21AE0002D27
:1058D00001D1002000E028686060A682207C50F0A2
:1058E000040020742048006800E0C068002803D04D
:1058F0008442FAD1002005E01B480068E0601A48A5
:105900000460002070BD1949002901D1002101E087
:1059100016490968416000218182017C11F0FB0178
:10592000017470478161C261704780B50E49096892
:10593000814205D10C490968C9680B4A11600DE024
:105940000949096808E0CA68002A04D0CA68824286
:1059500001D1C268CA60C9680029F4D101000120E0
:1059600002F005F801BD0000FCC200208C730008A5
:1059700010B5012001F0E3FF0400002C06D0202226
:105980000021200002F016F8FF20E072200010BD78
:1059900080B2010A51EA002080B2704780B580B21F
:1059A000FFF7F6FF02BD10F47F41090251EA0061E2
:1059B000020A12F47F42114351EA1060704780B529
:1059C000FFF7F1FF02BDF8B50E0014000027C0B2CA
:1059D000002805D0022805D003D3032817D017E0EC
:1059E000143714370E37E4B2002C00F08A80022CF2
:1059F00000F0AD80C0F0AB80032C40F0B8800520F3
:105A000001F09DFF0500002D04D1002078E0EAE7B9
:105A1000002075E02C7300202860BFB27819103088
:105A2000C01C80088000686068680421B0FBF1F247
:105A300002FB1102002A2E81B6B240F2DC50BFB246
:105A4000F91C31F00301401A864201DA300006E009
:105A500040F2DC50F91C4FF6FC721140401A68818C
:105A600005F2EC5069896A688918884240F2DC5076
:105A7000BFB2F91C31F00301401A01280120E8816E
:105A80002F00B6B26889361A17E040F2DC51418126
:105A900010F11001416041680422B1FBF2F303FBF5
:105AA0001213002B05F2EC516A896B68D2189142EF
:105AB0000121C1814189761A0700012E1BDB0520D7
:105AC00001F03DFF002804D1280000F0DDF800209F
:105AD00016E00473002141730021016038604FF625
