:020000040800F2
:1000000020D10020778B0008358A0008378A000845
:10001000398A00083B8A00083D8A00080000000079
:100020000000000000000000000000003F8A0008FF
:10003000418A000800000000438A0008458A000841
:10004000A78B0008AB8B0008AF8B0008B38B0008B0
:10005000B78B0008BB8B0008BF8B0008C38B000860
:10006000C78B0008CB8B0008CF8B0008D38B000810
:10007000D78B0008DB8B0008DF8B0008E38B0008C0
:10008000E78B0008EB8B0008EF8B0008F38B000870
:100090008D8A0008FB8B0008FF8B0008038C00088A
:1000A000078C00080B8C00080F8C0008138C0008CC
:1000B0004D8A00081B8C00081F8C0008238C000848
:1000C000278C00082B8C00082F8C0008338C00082C
:1000D000378C00083B8C00083F8C0008438C0008DC
:1000E000478C00084B8C00084F8C00080000000073
:1000F0000000000000000000000000000000000000
:100100000000000000000000538C0008578C00081D
:10011000698A00085F8C0008638C0008678C0008FF
:100120006B8C00086F8C0008738C0008778C0008BB
:100130006B8A00086D8A0008838C0008878C000891
:100140008B8C00088F8C0008938C0008978C00081B
:10015000DFF8A806016899B94FF4803181604FF447
:10016000805141604FF0FF31C16001610421416164
:10017000DFF88C160422C1F8B821DFF88816016078
:100180000120704701F1080313F0070308BF0023A3
:1001900007D001F1080303F00703C3F1080303F0DC
:1001A00007035918D21A8161C26042F001034B6003
:1001B000511828224A60DFF844160969C161704766
:1001C0002DE9F04101F1080414F0070408BF0024F0
:1001D00007D001F1080404F00704C4F1080404F096
:1001E0000704611802F1080414F0070408BF002492
:1001F00007D002F1080404F00704C4F1080404F075
:100200000704A5185A186C1AE41A43F003034B604C
:10021000AA4201D301F012B96E68F307FAD5102C87
:10022000F8D383699D4207D1C368E318C360826134
:1002300043F00100506042E143699D4208D1836868
:10024000E3188360426143F0010050609B5036E147
:1002500006F00303012B40F0A080F308DB004FEA17
:10026000D30EBEF1200F26D2AF68D5F80CC065457D
:10027000D0D0BD42CED0674506D10668012707FA27
:100280000EF7BE43066086E04FEA4E0600EB860698
:1002900006F1280E774503D0D0F810E07745B9D3A2
:1002A0002836B44502D00669B445B3D3C7F80CC0AC
:1002B000CCF808706FE0AF69EE68AE420AD0D5F8AE
:1002C00008C0D0F810E0F445A4D3CCF80C60C6F810
:1002D00008C024E005F2140CDCF8006046B905F112
:1002E000100CDCF80060D6B102E0F446DCF80060E7
:1002F00006F2140EDEF80080B8F1000FF5D106F119
:10030000100EDEF80080B8F1000FEED1D0F810E04A
:10031000F445FFF47FAF4FF0000ECCF800E0002F63
:1003200039D0D5F81CC000EB8C0C0CF2301CDCF87A
:1003300000E075450BD1CCF800609EB946680127F6
:10034000D5F81CC007FA0CF7BE43466023E0D0F88E
:1003500010C06745FFF45EAFD7F810C0AC450CBFC6
:100360003E617E61BEB1D0F810C06645FFF452AF69
:10037000B7612F6937B1D0F810C06745FFF44AAFB5
:100380003761BE616F6937B1D0F810C06745FFF4BF
:1003900041AF7761BE615D191C196B685B085B003A
:1003A0006B6044F001035360A450E308202B1BD280
:1003B0005D0000EB850505F228052E46102CFFF4A4
:1003C00029AF012707FA03F304681C4204BF234343
:1003D000036004D0AE6800698642FFF41BAFAA60D8
:1003E000F2609660D5606AE0230A08BF002523D03A
:1003F000B3F5803F28BF1F251ED2A3F580752D0CB5
:1004000005F00805AB40A3F58056360C06F004064F
:10041000B340A3F580473F0C07F00207C5F10E0576
:10042000AD1BED1BBB4005EBD333DD1D24FA05F5F9
:1004300005F0010505EB430500EB850303F23013DE
:10044000D561002656611661012707FA05F647684F
:10045000374207D146EA070444601A609361D260CC
:1004600092602CE01B681F2D0EBF00256D08C5F1A2
:10047000190504FA05F500E033465E68F608F60053
:10048000A6420ED0EE0F03EB860606F110076D00B4
:100490003E68002EF0D100698742FFF4BBAE3A609F
:1004A000DCE79C6800698342FFF4B4AE8442FFF449
:1004B000B1AEE2609A609460D3600020906101F177
:1004C0000800BDE8F0812DE9FE4F0446A56904F25D
:1004D000BC102E4601688E4203D3426851188E42EA
:1004E00002D380680028F5D14168006801EB00085C
:1004F000A8F12F0000F1080111F0070108BF002149
:1005000007D000F1080101F00701C1F1080101F075
:10051000070101EB000A05F11000824538BFAA4629
:100520000AF1080B0AF1180900270198A0F1280226
:1005300000992046FFF726FE1BF0070022D11B2062
:10054000CAF8040004F2BC10B0E80E10ABE80E10BC
:10055000ABF1100B0098C4F8BC010198C4F8C001BD
:100560000298C4F8C801C4F8C4B100E0814609F19A
:1005700004000721C9F804107F1C011D4145F5D373
:10058000022F01DA00F05ABFAA4500F09380AAEBCF
:10059000060041194A68520852004A6040F00101C1
:1005A00069604051C108202919D24A0004EB820237
:1005B00002F2280213461028E4D3012606FA01F0BD
:1005C0002168014206D1084320609560DD60AB6080
:1005D000EA606FE0936820698342F6D2D2E7010AAD
:1005E00008BF002223D0B1F5803F28BF1F221ED2B2
:1005F000A1F58072120C02F008029140A1F580531F
:100600001B0C03F004039940A1F58046360C06F05C
:100610000206C2F10E02D21A921BB14002EBD13196
:10062000CA1D20FA02F202F0010202EB410204EBC1
:10063000820101F23011EA6100236B612B61012616
:1006400006FA02F366681E4207D143EA06006060BC
:100650000D60A961ED60AD602CE009681F2A0EBF36
:1006600000225208C2F1190200FA02F200E0194613
:100670004B68DB08DB0083420ED0D30F01EB830312
:1006800003F1100652003368002BF0D12069864236
:10069000FFF478AF3560DCE7886822699142FFF4A7
:1006A00071AF9042FFF46EAFC5608D60A860E960E5
:1006B0000020A86100F054BBF8B504460D464F4E2B
:1006C000306808B9FFF744FD00F0D4FE010000F0E7
:1006D00091800A6811F1010F00F08C80D4F8B0010C
:1006E0001018C4F8B001D4F8B401D4F8B03198426D
:1006F00038BF1846C4F8B401A06968BB206908B1C6
:10070000814200D22161C4F8BC11C4F8C02100208C
:10071000C4F8C801306860624FF0FF3020622046A4
:10072000202300F22806F660B66008305B1EF8D180
:100730003348844204D1283A2046FFF723FD48E09D
:1007400054F8040CC00814EBC00008385118091AFA
:10075000A1F128020146EFE704F2BC10034600E0D5
:100760009B68BBB15E681F68F619B142F8D11E7B69
:1007700036070FD43E46A769B7420BD35F68D4F85B
:1007800018C0BE19B44505D2D0195860E0681218D7
:10079000A169D1E72369994238BF21610346501806
:1007A00000E09B688BB11E688642FAD1187B000777
:1007B0000BD4304619605E6892195A602B46024687
:1007C000204601B0BDE8F040FAE400232046FFF7E0
:1007D0007AFEE06885420DD2401BE060A1696A188C
:1007E000A26140F00100506045F00300486001F153
:1007F0000800F2BD0020F2BD0000000058C000203B
:10080000CCB800206859883C2DE9F04100224B42C9
:100810000C0A08BF002423D0B4F5803F28BF1F2452
:100820001ED2A4F580752D0C05F00805AC40A4F58A
:100830008056360C06F00406B440A4F580473F0C01
:1008400007F00207C5F10E05AD1BED1BBC4005EB23
:10085000D434E51D21FA05F505F0010505EB440446
:1008600000EB8405D5F8305155B31F2C0EBF002680
:100870006608C6F1190601FA06F6002700E07600C0
:10088000D5F804C04FEADC0C4FEACC0CACEB010C01
:100890009C4502D22A4663467BB1D5F814C04FEA84
:1008A000D67E05EB8E052D69BCF1000F02D0AC455C
:1008B00018BF6746002DE2D13D4675BB002A3DD1E9
:1008C000012505FA04F4640065422C4345682C4078
:1008D00000F0518165422C40651E2C0B04F0100481
:1008E00025FA04F6750905F00805EE40B70807F08B
:1008F0000407FE404FEA560C0CF0020C26FA0CF6E8
:10090000C6F3400E2C193C196444744426FA0EF5C3
:100910002C1900EB8404D4F830517DB100E0254659
:100920006C68E408E400641A9C423CBF23462A46F3
:100930002C69002CF3D16D69002DF1D1002A00F053
:100940001A818468641AA34280F0158116460469EE
:10095000A64206D38C18CD185768FF08FF00AF4297
:1009600001D000F06BBDA642FBD29769D6689642D3
:100970000AD0D2F808C0D0F810E0F445F1D3CCF892
:100980000C60C6F808C023E002F2140CDCF800602A
:1009900046B902F1100CDCF80060CEB102E0F4467A
:1009A000DCF8006006F2140EDEF80080B8F1000FEB
:1009B000F5D106F1100EDEF80080B8F1000FEED18F
:1009C000D0F810E0F445CCD34FF0000ECCF800E0A6
:1009D000002F35D0D2F81CC000EB8C0C0CF2301C70
:1009E000DCF800E072450BD1CCF8006096B946689F
:1009F0000127D2F81CC007FA0CF7BE4346601FE07F
:100A0000D0F810C06745ACD3D7F810C094450CBFE0
:100A10003E617E61A6B1D0F810C06645A1D3B76132
:100A200017692FB1D0F810C067459AD33761BE61FE
:100A300057692FB1D0F810C0674592D37761BE6176
:100A4000102B08D245F003005060A818416841F00F
:100A5000010141608CE041F00301516043F001016C
:100A600061601B51D908202918D24B0000EB830389
:100A700003F228031E46012505FA01F105680D421F
:100A800004BF2943016004D09E6800698642FFF4D8
:100A900068AF9C60F460A660E36069E0190A08BF73
:100AA000002623D0B1F5803F28BF1F261ED2A1F516
:100AB00080752D0C05F00805A940A1F58056360C6F
:100AC00006F00406B140A1F580473F0C07F002078D
:100AD000C5F10E05AD1BED1BB94005EBD131CD1DA8
:100AE00023FA05F505F0010505EB410600EB86014B
:100AF00001F23011E6610025656125610125B540EF
:100B000047682F4207D13B462B4343600C60A161ED
:100B1000E460A4602CE009681F2E0EBF0025750854
:100B2000C5F1190503FA05F500E031464E68F608EF
:100B3000F6009E420ED0EE0F01EB860606F110077E
:100B40006D003E68002EF0D100698742FFF409AFC6
:100B50003C60DCE78B680569A942FFF402AFAB4259
:100B6000FFF4FFAEDC608C60A360E1600020A06158
:100B700002F1080000E00020BDE8F0812DE9F0411D
:100B8000426813465B421A40531E1A0B02F01002D1
:100B9000D3405C0904F00804E3409D0805F0040517
:100BA000EB405E0806F00206F340C3F34007A218CC
:100BB000AA18B218BA18FB409A1800EB8202D2F8B1
:100BC000304123466268D208D200521A07E06568B5
:100BD000ED08ED006D1A95423CBF2A462346256973
:100BE000002D14BF2C466469002CF0D11E46046908
:100BF000A64206D3CC188D185F68FF08FF00AF42ED
:100C000001D000F01BBCA642FBD29F69DE689E4269
:100C10000AD0D3F808C0D0F810E0F445F1D3CCF8EE
:100C20000C60C6F808C023E003F2140CDCF8006086
:100C300046B903F1100CDCF80060CEB102E0F446D6
:100C4000DCF8006006F2140EDEF80080B8F1000F48
:100C5000F5D106F1100EDEF80080B8F1000FEED1EC
:100C6000D0F810E0F445CCD34FF0000ECCF800E003
:100C7000002F35D0D3F81CC000EB8C0C0CF2301CCC
:100C8000DCF800E073450BD1CCF8006096B94668FB
:100C90000127D3F81CC007FA0CF7BE4346601FE0DB
:100CA000D0F810C06745ACD3D7F810C09C450CBF36
:100CB0003E617E61A6B1D0F810C06645A1D3B76190
:100CC0001F692FB1D0F810C067459AD33761BE6154
:100CD0005F692FB1D0F810C0674592D37761BE61CC
:100CE000102A08D245F003005860E818416841F026
:100CF0000101416030E041F00301596042F001011F
:100D00006160125187682FB341694FEAD70CBCF17B
:100D1000200FBFF476AF4FEA4C0500EB850505F2D6
:100D200028052E46102FFFF46CAF012707FA0CF7A9
:100D3000D0F800C01CEA070F04BF47EA0C070760A1
:100D400004D0AE680769BE42FFF45BAFA960F160F2
:100D50008E60CD608260446103F10800BDE8F081DF
:100D600003B0BDE8F08FF8B50446012000F0B7FBF2
:100D7000F52C80F0D3800B2C31BF102404F10B0034
:100D8000C408E400E308DFF8B006016821FA03F5BF
:100D900015F0030233D0EA4302F00102D3185A00DF
:100DA00000EB820202F22805AA68DC005668F60809
:100DB000F600A64201D000F041BB9668AA42FAD0E4
:100DC000B242F8D05768FF08FF00A742F3D1B542FE
:100DD00005D1012505FA03F39943016004E0006998
:100DE0008642E8D3AE60F56044F003005060A0187E
:100DF000416841F00101416002F10805D6E08268D6
:100E0000A24280F09E80002D00F07F80012202FA35
:100E100003F6760005FA03F3754235432B405D4235
:100E20002B405D1E2B0B03F0100325FA03F675090A
:100E300005F00805EE40B70807F00407FE404FEA4A
:100E4000560C0CF0020C26FA0CF6C6F3400EEB180A
:100E5000FB186344734426FA0EF5ED186B0000EBA3
:100E6000830303F22806B368EF00D3F804C04FEA07
:100E7000DC0C4FEACC0CBC459DD1D3F808C0B34282
:100E800099D0634597D0664502BF02FA05F5A9439C
:100E9000016006D001698C458DD3C6F808C0CCF836
:100EA0000C60391B44F003055D60E41841F0010556
:100EB0006560095186681EB34569F708202FBFF4A5
:100EC0007AAF4FEA470C00EB8C0C0CF2280CE6468C
:100ED000102EFFF470AFBA400668164204BF3243CA
:100EE000026005D0DCF808E002699645FFF463AFC4
:100EF000CCF80850CEF80C50C5F808E0C5F80CC086
:100F00008160446103F1080550E0416800293AD04E
:100F10002146FFF733FE050013D047E014F1400FE0
:100F200028BF4FF0FF340CD204F10B00C408E400DA
:100F3000DFF80405416821B12146FFF765FC050093
:100F400034D1DFF8F4048268A2421CD3131B416938
:100F5000102B0AD362184261836043F00100506095
:100F60009B5044F0030048600AE000238360436123
:100F700042F0030048605018426842F001024260AB
:100F800001F1080512E0C1688C420BD2091BC16057
:100F90008269A318836141F00101596044F00300A4
:100FA000506029E72146FFF787FB0546012000F046
:100FB000C1FA2846F2BD002800D17047F8B5A0F16B
:100FC0000804012000F08BFADFF86C542A6994427F
:100FD0001ED3636803F00300012819D0D808C000AD
:100FE0000119DE0729D4266813F0030300F0E2801C
:100FF000301873421C1994420AD36B699C4200F06A
:10100000CA80F308202B67D2A668E768BC4201D1EA
:1010100000F014BAB442FBD0D4F804C04FEADC0CA0
:101020004FEACC0CBCEBC30FF2D1BE4243D12A68CD
:10103000012606FA03F39A432A608C42E8D24A68F2
:10104000D307E5D5930700F15481AB69994240F08D
:10105000B580E9684018E860AC6140F0010161606A
:1010600069698C4202D100216961A960E969814204
:1010700080F0A080DFF8BC03006808B9FFF768F8CB
:10108000A869002800F09680E96829290BD305F2A9
:10109000BC121368984203D35468E318984202D3F1
:1010A0009268002AF5D1E869884280F083804FF089
:1010B000FF30E8617EE05B0005EB830303F1280C61
:1010C000664501D09642A3D328339F4201D0974270
:1010D0009ED3F760BE60B0E7A669E368A34205D07F
:1010E000A768974294D3FB609F601DE004F2140749
:1010F0003B6833B904F110073B68ABB101E06746C8
:101100003B6803F2140CDCF800E0BEF1000FF6D1EE
:1011100003F1100CDCF800E0BEF1000FEFD19742B4
:10112000FFF476AF00223A60002E86D0E26905EB2C
:10113000820202F230121768BC4208D113607BB9F8
:101140006A680123E669B3409A436A6075E72A69D1
:101150009642FFF45DAF3269A2420CBF3361736106
:10116000002B3FF46AAF2A699342FFF451AF9E61AE
:1011700022692AB12E69B242FFF44AAF1A61936123
:101180006269002A3FF459AF2E69B242FFF440AFC2
:101190005A61936151E70A7902F00302032A7FF44E
:1011A0004CAFA8604A68520852004A6040F0010102
:1011B00061600051012000F0BDF9F1BD6B699942F9
:1011C00004D1A9684018A8606C61EFE7D208D2008A
:1011D0001018D308202B24D28E68CF68B9423FF470
:1011E00017AFB1423FF414AFBE4205D129680122C6
:1011F0009A409143296073E0590005EB810101F1A8
:101200002802964203D02A699642FFF401AF2831A2
:101210008F4203D029698F42FFF4FAAEF760BE60B7
:101220005EE08B69CA688A4207D08E682F69BE4229
:10123000FFF4EEAEF26096601EE001F21406326832
:1012400032B901F110063268B2B101E03E463268AF
:1012500002F21407D7F800C0BCF1000FF6D102F17A
:101260001007D7F800C0BCF1000FEFD12F69BE42C4
:10127000FFF4CEAE0027376093B3CE6905EB860648
:1012800006F230163768B9420BD1326016468EB975
:101290006A680123C96903FA01F122EA0101696060
:1012A0001EE02E69B342FFF4B3AE1E698E420CBF3E
:1012B0001A615A61A2B12E69B242FFF4A9AE9361DC
:1012C0000B692BB12E69B342FFF4A2AE13619A6190
:1012D000496929B12B699942FFF49AAE51618A613B
:1012E00040F001016160005169698C4208D1A86039
:1012F00060E7520852004A6040F00101616000510D
:10130000C10820291BD24A0005EB820202F2280202
:1013100013461028FFF47CAE012606FA01F0296876
:10132000014204BF0843286004D0936828698342BF
:10133000FFF46EAE9460DC60A360E2603AE7010AFD
:1013400008BF002223D0B1F5803F28BF1F221ED244
:10135000A1F58072120C02F008029140A1F58053B1
:101360001B0C03F004039940A1F58046360C06F0EF
:101370000206C2F10E02D21A921BB14002EBD13129
:10138000CA1D20FA02F202F0010202EB410205EB53
:10139000820101F23011E2610023636123610126C1
:1013A00006FA02F36E681E4207D143EA060068603F
:1013B0000C60A161E460A4602CE009681F2A0EBFE4
:1013C00000225208C2F1190200FA02F200E01946A6
:1013D0004B68DB08DB0083420ED0D30F01EB8303A5
:1013E00003F1100652003368002BF0D128698642C1
:1013F000FFF40EAE3460DCE788682A699142FFF49E
:1014000007AE9042FFF404AEC4608C60A060E1605F
:101410000020A061286A401E28627FF4CBAED5F878
:10142000C40118B94FF0FF302862C3E68068002875
:10143000FCD1F7E758C00020CCB8002080B50120CF
:1014400000F086B800BF10B450F8041B81B10268E8
:101450001218001D50F8043BDC0744BFA9F1010439
:10146000E31852F8044B43F8044B091FF9D1EBE79A
:1014700010BC704706490868002801D0002070475A
:10148000044808600449C908C900091A0160704786
:10149000FCC0002020D1002020D2002070B52B4CB1
:1014A0002068D8B1251D0826284600F05CF82D1DBF
:1014B000761EF9D104F1240000F057F804F1280059
:1014C00000F053F804F12C0000F04FF804F1300064
:1014D00000F04BF804F1340000F047F870BDF8B5A7
:1014E00004461A4D2868D8B92E1D0827304600F04A
:1014F00039F8361D7F1EF9D105F1240000F034F8CB
:1015000005F1280000F030F805F12C0000F02CF86F
:1015100005F1300000F028F805F1340000F024F85F
:1015200001202860052C04D205EB8400243000F053
:101530001DF8F1BD052800D3704780B5034901EBC4
:101540008000243000F013F801BD0000B8BF002077
:1015500080B500F00DF8024A11001820ABBEFBE781
:101560002600020070477047704770477047704709
:1015700080B500F015F802000023DB4310689842A4
:1015800004D011000220ABBE0020106050689842C9
:1015900004D0111D0220ABBE0020506001BD000030
:1015A00000487047840000202DE9F04FA5B0174691
:1015B0001C460FF6B455D5E90023CDE9122303AD3F
:1015C0006860A9600020E86214AE4FF00A096FF06D
:1015D000004800E057440020ADF8020012AB4FF085
:1015E000FF3239460DF1020001F019F88246BAF1D6
:1015F000010F08DA3878B0F1010A6AEB0A0A6FEADB
:101600000A004FEAD07ABDF8020025280CBFAAF1E3
:1016100001025246012A0ADB394602A800F0D4FF33
:10162000002804D54FF0FF3025B0BDE8F08FBDF89D
:101630000200252807D100206861A861E8612862BE
:101640006862A86205E00028C4D1E86AECE740F0CF
:10165000010017F8011F2029F9D023290DD02B29CB
:1016600004D02D2906D030290AD00CE040F0020029
:1016700080B2EEE740F00400FAE740F00800F7E738
:1016800040F01000F4E72A290DD12268111D2160D5
:1016900011686963002904D54942696340F0040078
:1016A00080B27F1C10E00021696307E0696B41454F
:1016B00003D009FB0121303969637F1C3A78A2F11C
:1016C0003001C9B20A29F1D339782E291CBF4FF055
:1016D000FF3129631BD117F8011F2A2906D122687F
:1016E000111D2160116829637F1C10E0002129630E
:1016F00007E0296B414503D009FB012130392963FB
:101700007F1C3A78A2F13001C9B20A29F1D32887A7
:1017100039780FF6E86000F0A3FF08B117F8010B65
:101720008DF846009DF84600682804D1387868286E
:101730000AD1622005E06C2806D138786C2803D1E4
:1017400071208DF846007F1C14A828613A78104655
:10175000253827D01C3800F08780001F022840F26F
:101760008380133800F0AC8009387DD0801E00F0F3
:101770004481401E00F0ED80401E022874D9001FF5
:1017800000F0E780401F44D0401E00F09980401ECA
:1017900031D0C01E0CD0801E00F09280C01E00F020
:1017A0008F804BE16869411C6961252181554FE1BA
:1017B0009DF846006C28216813D0081D2060086839
:1017C000E8602A6B002A08D4002100F059FF0028A5
:1017D0001ABFE968401A286B01E000F07DFFA8619C
:1017E00036E1081D2060096802A800F0C5F900284C
:1017F00040F12E811FE12168081D2060086800214A
:10180000CDE9020114A8E860782102A800F015FBD8
:101810001EE19DF8460062281FD068280DD06A2876
:1018200012D06C2802D071280ED074282168081DAF
:1018300020600868E96A01600AE1E86A2268111D0F
:1018400021601168088003E1E86AC11723681A1D46
:1018500022601A68C2E90001FAE0E86A2268111DF4
:10186000216011680870F3E02068C01D20F00700B7
:101870002060034603F108002060D3E90001CDE9B0
:101880000201002904D56869411C69612D210DE020
:10189000288F810704D56869411C69612B2105E007
:1018A000C00704D56869411C6961202181556869B8
:1018B00014A94018E860114602A800F04DFBC7E0EB
:1018C0009DF846006C280FD0712801D06A280BD1F2
:1018D0002068C01D20F007002060034603F10800C7
:1018E0002060D3E9000104E02168081D2060086839
:1018F0000021CDE902019DF8460068280CD062283D
:1019000006D0742801D07A280CD1DDE9020106E066
:10191000DDE90201C0B202E0DDE9020180B200218E
:10192000CDE9020195F83800000760D5DDE9020134
:1019300009B900285BD042F02000782857D16869A7
:10194000411C6961302181556869411C696182557A
:101950004DE09DF8460062280CD0682810D06A2817
:101960001AD06C2824D0712816D0742820D07A2858
:101970000CD01DE02168081D206091F900001BE0DB
:101980002168081D2060B1F9000015E02168081DDC
:1019900020600868002110E02068C01D20F00700CA
:1019A0002060034603F108002060D3E9000104E051
:1019B0002168081D20600868C117CDE90201DDE932
:1019C000020100290EDB288F810704D56869411CBC
:1019D00069612B210AE0C00709D56869411C69616A
:1019E000202103E06869411C69612D2181556869E6
:1019F00014A94018E860114607E79DF846006C28D6
:101A000007D06869411C69612268111D2160116855
:101A1000CCE62168081D20600868ADF804000020AD
:101A2000ADF806004FF0FF30286301A902A800F0CE
:101A3000A3F800280CD54FF0FF300AE06869411C7C
:101A40006961252181551AB16869411C6961825516
:101A500000207F1C00287FF4E5AD686B6969401A9F
:101A6000296A401AA969401A696A401AE969401A44
:101A7000A96AA0EB010A95F83800400711D420208C
:101A80008DF80000BAF1010F0BDBD346012200A94B
:101A900002A800F099FD00287FF4C4ADBBF1010B52
:101AA000F4D16A6914A902A800F08EFD00287FF421
:101AB000B9AD30208DF80000D5F820B0BBF1010F92
:101AC0000ADB012200A902A800F07EFD00287FF4B5
:101AD000A9ADBBF1010BF4D1AA69E96802A800F035
:101AE00073FD00287FF49EAD30208DF80000D5F8FE
:101AF00024B0BBF1010F0ADB012200A902A800F00B
:101B000063FD00287FF48EADBBF1010BF4D1EA69CF
:101B1000A869E968411802A800F056FD00287FF482
:101B200081AD30208DF80000D5F828B0BBF1010F51
:101B30000ADB012200A902A800F046FD00287FF47C
:101B400071ADBBF1010BF4D195F8380040077FF57A
:101B500042AD20208DF80000BAF1010FFFF63BAD39
:101B6000012200A902A800F02FFD00287FF45AAD41
:101B7000BAF1010AF4D12EE52DE9F04F93B00746F2
:101B80000C46D7F83490B9F1000F48BF6FF0004908
:101B900000F0BDFDB96B00EB010A0FF66822D2E937
:101BA0000001CDE9010197F83C00400702D4BAF1E9
:101BB000410F05D20DF10C0B4FF0400A00250AE051
:101BC0005046FFF7D0F85FEA000BF7D14FF0FF3037
:101BD00030E1A9EB0809B9F1010FC0F2A08001AA18
:101BE00021880DF1010000F097FD5FEA000804D4A0
:101BF000208828B9B8F1010802D54FF0FF3512E16D
:101C0000C145C0F28C80B86908EB00018A4577D2E3
:101C1000BD634042796A401AF969401AB96A401AAC
:101C2000396A401AF96A451A97F83C0040070ED401
:101C300020208DF80000012D09DB2E46012200A98D
:101C4000384600F0C1FC0028D7D1761EF6D1BA691B
:101C50005946384600F0B8FC0028CED130208DF827
:101C600000007E6A012E08DB012200A9384600F040
:101C7000ABFC0028C1D1761EF6D1FA693969384625
:101C800000F0A2FC0028B8D130208DF80000BE6A18
:101C9000012E08DB012200A9384600F095FC00283F
:101CA000ABD1761EF6D13A6AF869396941183846DF
:101CB00000F08AFC0028A0D130208DF80000FE6AD8
:101CC000012E08DB012200A9384600F07DFC002827
:101CD00093D1761EF6D197F83C0040070ED5202010
:101CE0008DF80000012D09DB012200A9384600F023
:101CF0006BFC00287FF481AF6D1EF5D10025BD611E
:101D000042460DF10101B869584400F013FDB8696D
:101D10004044B86134F8020B00287FF45AAFB86B26
:101D2000B969401A796A401AF969401AB96A401AC1
:101D3000396A401AF96AA0EB010897F83C0040079D
:101D400010D420208DF80000B8F1010F0ADB4446C2
:101D5000012200A9384600F037FC00287FF44DAF7F
:101D6000641EF5D1BA695946384600F02DFC0028AA
:101D70007FF443AF30208DF800007C6A012C09DB32
:101D8000012200A9384600F01FFC00287FF435AF7F
:101D9000641EF5D1FA693969384600F015FC00284F
:101DA0007FF42BAF30208DF80000BC6A012C09DBDA
:101DB000012200A9384600F007FC00287FF41DAF7F
:101DC000641EF5D13A6AF86939694118384600F05D
:101DD000FBFB00287FF411AF30208DF80000FC6A77
:101DE000012C09DB012200A9384600F0EDFB002898
:101DF0007FF403AF641EF5D197F83C00400710D57F
:101E000020208DF80000B8F1010F0ADB012200A9A3
:101E1000384600F0D9FB00287FF4EFAEB8F1010896
:101E2000F4D1BD61BD6303A883451CBF5846FFF7CD
:101E3000C2F8284613B0BDE8F08F2DE9FA4786B006
:101E40000546686900909DF818006F2808BF0827AC
:101E500005D040F02000782814BF0A2710273C2422
:101E6000D5E90001064689469DF81820642A01D06C
:101E7000692A04D1002902DA764269EB4909B9F1ED
:101E8000000F0DD166B9686B50B9082F3FD195F896
:101E90003C0000073BD5641E00983021215436E0F9
:101EA000A4F101084446F817CDE9047030464946CC
:101EB000DDE9042300F080FCCDE90201B246DDE952
:101EC0000223DDE90401A0FB02695046801B30308B
:101ED000C0B23A2803D39DF8181051390818009958
:101EE00008F80100DDE90269B9F1000F00D126B15F
:101EF0002869009961188842D2D3082F07D195F834
:101F00003C00000703D50098205C3028C3D1C4F101
:101F10003C00E861009961182961696B884207DA21
:101F2000081A6862A88F4FF6EF710840A88710E082
:101F300000290ED595F83C1001F01401102908D1A4
:101F4000A96BAA69891A6A6A891A0C1A012CA8BF96
:101F50006C6208B0BDE8F0872DE9F24F8EB00546FF
:101F600004AFD5E90001CDE902019DF8380040F049
:101F700020008DF8000061280BD0686B002848BF56
:101F8000062005D405D19DF80000672801D1012065
:101F900068636968C1F30A5040F2FF72904225D02D
:101FA000012819DA284600F095FC012814DB0024EA
:101FB00000209DF80010612940D12A69511C296137
:101FC0003021117029694A1C2A619DF83820612A44
:101FD0000CBF782258222DE040F2FE316A6861F38E
:101FE0001E526A60441A4FF0FF30E2E7080301D145
:101FF000286870B10320E8619DF838006138C0B2EC
:102000001A2811D30FF208610322286900F092FB0D
:102010009EE10320E8619DF838006138C0B21A28BB
:1020200005D30FF2F451EFE70FF2E051ECE70FF2B6
:10203000E451E9E70A70A969891CA96110B9002671
:10204000B0467BE19DF80000612840F09780686B06
:1020500000284CBF2126461C36B2771CD5E900ABC0
:10206000DDE902010022002300F056FC3ABF8BF0AC
:102070000040CDE902A0CDE902ABA4F104088DF83F
:1020800010200DF11109012F33DBDDE902010022DF
:10209000002300F059FC2CD21C2102A800F06CFC9B
:1020A000DDE9020100F0F4FC0446FF1F012F09DB0B
:1020B00000F01AFD02460B46DDE9020100F02CFD9E
:1020C000CDE9020109F207000721012C0BDB491EB3
:1020D0005EBF04F00F0200F8012D2411F5D502E0D7
:1020E000002200F8012D491EFAD500F20709012F40
:1020F000CBDA0DF11100A9EB00010DF11107B1428E
:10210000B8BF0E4636B2002E31D43046884206DAC9
:1021100004A941184978082928BF0F2100D20021BD
:1021200004AA821800E0761E401E12F801398B4284
:10213000F9D00F2904D104A941184A78521C4A70D9
:10214000002803D504AF761C08F1040836B2701ECF
:102150000DD4C1190A783032D2B23A2A03D39DF88D
:1021600038303A3B9A1801F80129401EF2D5686BC5
:10217000002840F1E380701E6863DFE0DDE90201C2
:102180000022002300F0C8FB05D2DDE9020181F046
:102190000041CDE9020124B247F2975060436E49F5
:1021A00090FBF1F80FFA88F8C8F107040027DFF870
:1021B000AC91012C19DBDDE902ABE00707D55046F5
:1021C00059463A464B4600F067FD82468B466410FE
:1021D000384649463A464B4600F05EFD074689467A
:1021E000002CEAD1CDE902AB21E064429246DFF84F
:1021F00070B114D0E00707D5504659463A464B46D1
:1022000000F04AFD82468B466410384649463A46FD
:102210004B4600F041FD07468946002CEAD1DDE936
:10222000020152465B4600F009FECDE902019DF82D
:10223000000066280CBF08F10A000620696B4618EA
:10224000142EA8BF132630208DF810000DF11104B4
:10225000444F012E2FDBDDE9020100F02FFC04F1D9
:10226000080104220A23B0FBF3F403FB140030300E
:1022700001F8010DB4FBF3F003FB1043303301F818
:10228000013D521EEED101F10804083E012EE0DBB3
:10229000DDE9020100F012FC00F030FC02460B46C2
:1022A000DDE9020100F038FC00223B4600F0F4FCBE
:1022B000CDE90201CFE70DF11100201A0DF1110750
:1022C0009DF81110302906D1401EA8F1010817F819
:1022D000011F3029F8D09DF80010662904BF0FFABD
:1022E00088F808F1010103D065290CBF0121002104
:1022F0006A6B8E1836B2B042B8BF064636B2002EB0
:102300001CD43146814204DAC85D352828BF392003
:1023100000D23020CA19521E00E0761E491E12F863
:1023200001398342F9D0392802D1C85D401CC85513
:10233000002903D57F1E761C08F101080FFA88F0EA
:10234000009033B23A469DF83810284600F010F855
:102350000FB0BDE8F08F0000A0860100000024400F
:102360000000F03F84D7974100000000000000000B
:102370002DE9F04786B006468A4690461C46BDF9D0
:10238000385000F09CFE406A90F80090776B012C6A
:1023900002DA01240FF284284AF02000662807D0D0
:1023A00067287AD16FF003018D427CDBBD427ADA77
:1023B0006D1C66280AD096F83C00000702D4BC4287
:1023C000B8BF27462DB27F1B48BF00273069F1698F
:1023D0002DB2012D21DA4A1C30230B54012F03DAD0
:1023E00096F83C10090702D502F80090521CF261E1
:1023F000EF42B8BF7D422DB26942B162EF19A742E8
:10240000B8BF3C4624B2346222464146F3691818EC
:1024100000F090F9381BF062BFE00818AC4216DA01
:102420002246414600F086F9F1696118F161281BE6
:10243000B062012F03DA96F83C00000705D5306939
:1024400001F80090306A401C3062F762A5E02A462D
:10245000414600F06FF9F0692818F061641B012F04
:1024600003DA96F83C10090704D5411CF161316983
:1024700000F8019024B2A742B8BF3C4624B22246DD
:1024800005EB0801F0693369C01800F053F9F069F1
:102490002018F061381BB0627FE0BAF1610F14D1EF
:1024A0004FF0700A16E0BC4204DA96F83C100907B7
:1024B00058BF27467F1E48BF0027BAF1670F14BFD9
:1024C0004FF0450A4FF0650A04E0BAF1410F08BF2A
:1024D0004FF0500AF1694A1C306918F8013B0B545F
:1024E000012F03DA96F83C10090702D502F8009094
:1024F000521CF261012F10DB641E24B2A742B8BF48
:102500003C4624B222464146F369181800F012F9FD
:10251000F0692018F061381BB062F069316900EB96
:10252000010808F801AB002D5CBF2B2008F8010B57
:1025300003D52D2008F8010B6D42002402AF2DB207
:10254000012D0EDB0A22294600A800F0D1FD0198DA
:1025500007F8010B009D641C2DB2012DF2DA022C4C
:1025600006DA4AF02000652804BF302008F8010B85
:102570001CB9302008F8010B09E0012C07DB641EB0
:1025800002A8205C303008F8010B012CF7DAF06962
:1025900031694018A8EB0000306296F83C0000F06A
:1025A000140010280DD1B069F1690818B16A081833
:1025B000316A0818F16A0818B16B8842BCBF081A62
:1025C000706206B0BDE8F08770B504460D46164649
:1025D0000020002E10D015F8011BE068A26890477B
:1025E000E060002802D14FF0FF3070BD206B401C2E
:1025F00020630020761EEED170BD0000686A6C7406
:102600007A4C000000000000000000006E616E00C7
:102610004E414E00696E6600494E46003000F8B5E6
:1026200004460D4616461F4600F06AFD3B463246FC
:102630002946204601B0BDE8F04000F079BD50F8D1
:10264000041B61B150F8042BD30744BFA9F1010367
:102650009A18002342F8043B091FFAD1EFE77047AC
:102660000278C9B28A421AB11CBF10F8012FF9E7EB
:1026700018BF002070470268531C03601170704738
:10268000C9B2830706D0521E22D310F8013B9942EB
:10269000F7D11FE0083A13D302F1040241EA012105
:1026A00041EA014150F8043B121F21BF4B40A3F106
:1026B000013C2CEA030C1CF0803FF3D0C9B2001F90
:1026C000083210F8013B521E28BF91EA030FF8D8D8
:1026D00018BF0120401E704700F10103810704D09C
:1026E00010F8011B89B18107FAD10268B2F10131FA
:1026F000914311F0803F04BF50F8042FF6E710F823
:10270000011B11B110F8011BFBE7C01A704780B51F
:1027100000F0F6FC012002BD70B504460D461646D9
:1027200000F0EEFC324629462046BDE8704000F03D
:10273000F1BC00004AB38B0707D0521E11F8013BD1
:1027400000F8013B21D08B07F7D183071ED1103A47
:1027500007D330B4B1E83810103AA0E83810F9D2F5
:1027600030BC530724BFB1E80810A0E8081044BFEC
:1027700051F8043B40F8043BD20724BF31F8022B48
:1027800020F8022B44BF0B7803707047083A07D338
:10279000B1E80810083A40F8043B40F804CBF7D2FF
:1027A0005307E4E713F0004C03D55B42524263F158
:1027B00000039CEA210C15D11B4229D109424CD1BE
:1027C0002AB18446B0FBF2F002FB10C2704700F061
:1027D000CFBCFCD30022002370470B000200002175
:1027E0000020704710B5644603D34942404261F16E
:1027F0000001FFF7E1FF640004D34942404261F168
:102800000001244203D55B42524263F1000310BD34
:10281000904271EB030CE0D370B5B1FA81F4B3FAD6
:1028200083F52C1BA340C4F1200532FA05F633438F
:10283000A2405FF00046E64002E05B085FEA320239
:10284000841A71EB030524BF204629467641F4D350
:1028500002000B003000002170BD012AB9D970B50B
:10286000140C20D0B1FA81F4B2FA82F5C4F120043C
:102870006419B4F12006D6D3B2405FF00044F440AE
:10288000002502E052085FEA3303C61A71EB020E1C
:1028900024BF3046714664416D41F3D302000B0002
:1028A0002000290070BD0C46B1FBF2F102FB11457E
:1028B0002D0445EA1045B5FBF2F402FB145580B235
:1028C00040EA0545B5FBF2F002FB105240EA044035
:1028D00070BD000070B4416801F0004201210D4B51
:1028E00044681C40446001D104686CB104684568C8
:1028F000E60F46EA4505456064000460491EEC02A7
:10290000F4D544682340436043681A434260084654
:1029100070BC7047FFFF0F004FF4001C1CEB410F11
:1029200094BF1CEB430F09E041EA030C50EA4C0C46
:1029300052EA0C0C03D2994208BF9042704714BF70
:102940008B428242704700004FF4001C1CEB410F89
:1029500094BF1CEB430F09E041EA030C50EA4C0C16
:1029600052EA0C0C03D28B4208BF8242704714BF5C
:10297000994290427047000070B504460D46606869
:10298000C0F30A5040F2FF71884209D16068000329
:1029900002D12068002801D0022070BD012070BD46
:1029A00030B92046FFF796FF012801DB002070BDFB
:1029B000012D0EDB40F2FF71091A8D4209D36068C8
:1029C000002847BF00202F4900202F49C4E90001FB
:1029D000E4E74142A942616806DA2C4A11404019F5
:1029E00041EA0050606049E001F000416268120372
:1029F000120B42F480126260401E451905F1350049
:102A0000352803D361600020206070BD002215F1DD
:102A10001F0F05DA203522686068206000206060A2
:102A2000684213D0521E9241D243C0F12003256860
:102A30009D4055EAD2722568C540666806FA03F3E0
:102A40002B432360636823FA00F0606060680843EA
:102A50006060B2F1004F03D80AD12078C00707D5D3
:102A60002068401C2060206810B96068401CB9E7ED
:102A70006068884202D12068002897D04FF0FF306C
:102A800070BD00BF0000F0FF0000F07FFFFF0F806F
:102A9000F446400D40EAC120490006D200F013F888
:102AA000004248BF6FF00040604700F00CF84FF064
:102AB000004188428CBF084640426047400D40EAD2
:102AC000C12049000CD240F00040490DA1F58061C1
:102AD000491C05D4D1F11F0154BFC840C01770472D
:102AE0004FF0000070470000010040F10880F446FC
:102AF000404200F004F851F000416047010009D065
:102B0000B0FA80F18840C91CC1F58461090501EB68
:102B1000D02140057047000070B44FF0004591EAA5
:102B2000030F44BF6B4000F02EBB841A71EB030609
:102B300004D26E40001BB141121973414FF4001CC6
:102B40001CEB410F34BF7CEB430684E00C0DA4EB7F
:102B50001356362E7DDC012E43DC45EAC32343EABF
:102B6000525312BFD20292025B08240545EAC121EA
:102B700041EA5051D2EBC020994125D407D1B0FA97
:102B800080F610FA06F164D00020203608E0B1FA91
:102B900081F6B140C6F1200220FA02F21143B040A2
:102BA0004FEAF474B4EB465434F001064FEA74046F
:102BB0000AD8D6F50016760D04F00044F04061FA0C
:102BC00006F25040F1404840C00A40EA415021F02E
:102BD000004128BF5FEA500550F1000044EBD121CD
:102BE00037E045EAC323DB0A45EAC121C90AB6F149
:102BF00020050EDD42EA0242120CC5F1200603FA5E
:102C000006F6EB4042EA06056D42984161F100018B
:102C10000DE062FA06F5F240554063FA06FC82EADE
:102C20000C02F3405A406D42904161EB030111F4F4
:102C3000801F05D1641E620502D06D0040414941EC
:102C400021F48011430875F1004350F1000041EB7D
:102C5000045170BC70471CEB410F15D223F00043A8
:102C600052EA43060BD04FEA4C0CBCEB410F04D8A0
:102C70000C0D661E342EB7DDEBE7801A994150EA41
:102C8000410608BF0021E4E708BF1CEB430F28BF43
:102C90006FF00001DDE70000B0B581EA030C0CF035
:102CA000004C40F2FF7515EA11541DBF15EA135789
:102CB000AC42AF4239E0E41923EA455343F48013B0
:102CC000C90241F0004141EA505EC7021100A7FB72
:102CD000020200284FF00000EEFB01204FF000013F
:102CE000E3FB072118BF42F00102401800214941CF
:102CF000E3FB0E01A4F580640F0302D252004041B1
:102D0000494154F101046CDD470872F1004250F171
:102D1000000051EB0451A1F580115CBF41EA0C01A8
:102D2000B0BD4CEA05510020B0BD05EA1357AC42D6
:102D300014BFAF4241E050EA410E1CBF52EA430EBD
:102D400002E061460020B0BD24423C441BD15FEA52
:102D5000070EF6D0090302BF01460020AEF1140EA3
:102D6000B1FA81F7AEEB070401FA07FE0C37C7F1A1
:102D7000200100FA07F7C8404EEA000E23EA455347
:102D800043F48013A2E733F00043B3FA83F704BFA0
:102D9000B2FA82FE77440B3FE41BB7F1200E2FBF3F
:102DA00002FA0EF3BB40C7F1200E22FA0EFE38BF26
:102DB00043EA0E03BA40641C82E750EA410E14BF96
:102DC00052EA430E6FF000014FF4001717EB430F68
:102DD0008ABF194617EB410FB5E74CEA05510020B1
:102DE000B0BDD4F10104B4F120070FDAC4F120071B
:102DF000520828BF42F0010210FA07F501FA07F75E
:102E0000E1BF2A43E0403843E1400FE0352C98DC35
:102E1000C7F1200452EA400220FA07F218BF42F03C
:102E2000010231FA07F0A1400A43002172F1004289
:102E300050F1000051EB0C01B0BD0000F0B540F2C4
:102E4000FF7581EA030C0CF0004C15EA11541DBF0C
:102E500015EA1357AC42AF42E5E0BC41C1F31301A0
:102E6000C3F31303801A994143F4801304D2641E00
:102E70004000494180185941C90241EA5051B1FB13
:102E8000F3F603FB1611A2FB0675D7EBC020A94190
:102E900002D2761E80185941C90241EA5051B1FB55
:102EA000F3FE03FB1E11A2FB0E75D7EBC020A94158
:102EB00003D2AEF1010E80185941890241EA9051C6
:102EC000760546EA8E2EB1FBF3F603FB1611A2FB44
:102ED0000675D7EB8020A94102D2761E8018594191
:102EE000C90241EA50514EEA060EB1FBF3F603FB6C
:102EF0001611A2FB0675D7EBC020A94102D2761E9F
:102F000080185941C90241EA5051B1FBF3F703FB64
:102F10001711A2FB0735D3EBC020A94167F10007C9
:102F20000CBF004247F0010766F3D5274FEA1E3178
:102F3000B80814F5806412DDBD0775F1004250EB4E
:102F40000E5051EB045111F5801F5CBF41EA0C019A
:102F5000F0BD4CF07F6141F0E0410020F0BDBD07C5
:102F60006D0840EA0E5041F48011D4F10104B4F12F
:102F700020060ADAC4F120060200E04001FA06F356
:102F8000E1401843B24015430EE0342C13DCC6F187
:102F9000200445EA40056D0820FA06F2154321FA9F
:102FA00006F0A1400D43002175F1004250F10000F0
:102FB00051EB0C01F0BD00205FEA0C01F0BDCFB970
:102FC00092185B41B3FA83F704BFB2FA82F6BF19D5
:102FD0000B3FB7F120062FBF02FA06F3BB40C7F143
:102FE000200622FA06F638BF3343BA401CB1E41972
:102FF000641E33E77F4231F00041B1FA81F404BF2F
:10300000B0FA80F6A4190B3CB4F120062FBF00FAE9
:1030100006F1A140C4F1200620FA06F638BF31437C
:10302000A0403C1B1AE7AC421ABF05EA1357AF4257
:1030300012E050EA41061CBF52EA4306BFE750EADD
:103040004107304661461CBF41EA0551F0BD52EAD6
:10305000430C08BFC143F0BD00204FF4001616EB2F
:10306000410F98BF16EB430F08BF16EB410F24BF6B
:10307000C14305E016EB430F0CBF61464CEA055116
:10308000F0BD000080B5134800F0E7F80FF24801EA
:10309000016041608160C1600161416181610FF245
:1030A0003C0242628162C162016341630FF23002FD
:1030B00082630FF23402C2630164416401BD10B542
:1030C000044800F0CAF80446206808B9FFF7DAFFA0
:1030D000204610BD00000020000000002E0000006F
:1030E00066616C7365000000747275650000000015
:1030F00091FBF2F303FB1211C0E9003170470000AD
:1031000080B5DFF80C0000F0A8F8806902BD00006F
:103110000CBF002030B438B90FF24400D0E90045AC
:10312000C2E90045002001E00170012030BC704779
:1031300030B439B90FF23000D0E90045C3E9004599
:1031400000200BE012B96FF0010007E008B10A7827
:1031500002800978481E8041C043C00F30BC7047D0
:10316000000000000000000000000000000000005F
:103170007047000070B44FF0004591EA030C44BF63
:103180006B40FFF7D2BC841A71EB030603D2001B1D
:10319000B141121973414FF4001C1CEB410F34BFB5
:1031A0007CEB430443E00C0DA4EB1356352E50DCAE
:1031B00045EAC323DB0A45EAC121C912B6F120055D
:1031C0000DDD63FA05F6EB4086EA0305124218BFEF
:1031D00045F00105C01851F100010CD213E062FA6C
:1031E00006F5F2405540F3415A40B340F3405A408F
:1031F0008018594107D349085FEA30005FEA350576
:1032000028BF45F0010501F58011420875F1004223
:1032100050F1000041EB045170BC4FF4001C1CEB5A
:10322000410F38BF70470020090D090570471CEB9E
:10323000410F10D252EA43060BD0BCEB410F05D828
:103240000C0DAB43661E342EB5DD02E0AB43801897
:10325000594170BC704770BC7047704738B5040066
:10326000002C606800280AE02500246868680028AF
:10327000686800F062FE2900032001F000F8002CCD
:10328000F2D131BD10B5002455E0E4B21420DFF8CE
:10329000541800FB0410C07B401CE4B21421DFF87A
:1032A000442801FB0421C873E4B21420DFF8341869
:1032B00000FB0410807B022808D1E4B21420DFF860
:1032C000241800FB0410C07BF02811D2E4B21420B3
:1032D000DFF8101800FB0410807B01282AD1E4B22B
:1032E0001420DFF8001800FB0410C07B022821D353
:1032F000E4B21420DFF8EC1700FB0410006800288B
:1033000010D0E4B21420DFF8DC1700FB04100068D2
:10331000FFF7A4FFE4B21420DFF8C81700FB041085
:1033200000210160E4B21420DFF8B81700FB04109C
:1033300000218173641CE4B20A2CA6D310BD2DE9D0
:10334000F04704000A200A220A230025002600274D
:103350005FF00A0C5FF0000E002C20D0DFF88857D9
:103360002D785FF01408DFF87C9708FB0595AD7B9E
:10337000022D14D12568DFF8708798F800805FF07F
:103380001409DFF860A709FB08A8D8F804804545B0
:1033900005D1DFF8540790F9000040B20AE100259A
:1033A00014E0EDB25FF01408DFF8389708FB0598D9
:1033B00098F80F80FFB2B84507D32A00EDB2142762
:1033C000DFF8208707FB0587FF7B6D1CEDB20A2D18
:1033D00080F08E805BB20A2B0DD1EDB25FF0140845
:1033E000DFF8009708FB059898F80E80B8F1000FF9
:1033F00001D12B00E9E7EDB25FF01408DFF8E496A5
:1034000008FB059898F80E80B8F1010F4DD1002CFB
:1034100012D0D4F80080EDB25FF01409DFF8C4A632
:1034200009FB05A9D9F80490C84505D1DFF8B8060D
:103430000570280040B2BDE0EDB25FF01408DFF87F
:10344000A49608FB0598D8F80080B8F1000F17D0B3
:10345000EDB25FF01408DFF88C9608FB059898F839
:103460000F805FFA8EFEF045AFD3AC46EDB25FF051
:10347000140EDFF870860EFB058E9EF80FE0A4E7B1
:10348000EDB25FF01408DFF85C9608FB059898F839
:103490000F80F6B2B04598D32800EDB21426DFF8BD
:1034A000448606FB0586F67B8FE7EDB25FF01408D5
:1034B000DFF8309608FB059898F80E80B8F1020FF7
:1034C00083D1002C3FF46DAFD4F80080EDB25FF0F3
:1034D0001409DFF810A609FB05A9D9F80490C8451E
:1034E0007FF45FAFDFF800060570280040B261E0AE
:1034F0005BB20A2B17D111F00301012915D15BB280
:103500000A2B15DA1D00EDB20A2DEDB21420DFF8FA
:10351000D41500FB051000218173002C3DD0002C38
:1035200033D1002032E08907E9D55FF0FF3041E078
:1035300052B20A2A09DA1500EDB21420DFF8A415F8
:1035400000FB051000680028DDE740B20A2801DA18
:103550000500D8E74FFA8CFCBCF10A0F12DA654679
:10356000EDB21420DFF87C1500FB05100068FFF7B2
:1035700075FEEDB21420DFF86C1500FB051000217C
:103580000160C0E75FF0FF3014E02068EDB2142165
:10359000DFF8502501FB05214860EDB21420DFF86B
:1035A000441500FB05100021C173DFF83C050570D0
:1035B000280040B2BDE8F087F8B504000D006E6841
:1035C00094F820000628062009E0401EC0B2C0B2D0
:1035D000C15C8155C0B28119C0B2875C8F71C0B225
:1035E0000128F2D24FF4006000F06CFEB081290097
:1035F0002000A2699047F2BD2DE9F04104000E00C1
:1036000015001F0094F820000628002E15D0306801
:10361000002812D02100300000F070FE00280CD1EC
:103620005FF0704000F065FE316810EA01085FF05D
:10363000604000F05EFE804502D17FF009005BE053
:103640003900C9B23000FFF77AFE060076B2002ECC
:1036500002D5300040B24FE076B21420DFF8841477
:1036600000FB06100221817376B21420DFF8741477
:1036700000FB0610046106200BE0401EC0B276B2CB
:103680001421DFF8602401FB06214118C0B2425D1D
:103690000A72C0B20128F0D276B21420DFF84414C6
:1036A00000FB06100021C1731CE076B21420DFF885
:1036B000341400FB0610016876B21420DFF82424CD
:1036C00000FB06200A6802604F68032000F0D7FD67
:1036D0002B0014F1210239002000FFF76DFF3800A4
:1036E00000F02BFC76B21420DFF8F81300FB061074
:1036F00000680028D9D10020BDE8F08110B500286D
:103700000ED04968D1F81A2083681A40436884684B
:1037100023409A4204D100238A1D1A31FFF76CFF1F
:1037200010BD2DE9FC4104000D001600002C00F036
:10373000A18070892A2803D2300000F0FEFB99E0B6
:103740007768B7F80E80012000F0BCFD804517D1E6
:10375000B7F8128040F2046000F0B4FD80450FD14C
:10376000B7F810804FF4006000F0ACFD804507D141
:10377000B7F80C8040F6060000F0A4FD804503D0A9
:10378000300000F0DAFB75E0042217F11C0100A8FC
:1037900000F0DEFD042217F1260101A800F0D8FD9B
:1037A0006068002802D15FF0000808E001986168B5
:1037B000884202D15FF0010801E05FF000085FFA83
:1037C00088F8B8F1000F07D0012317F1160200A9FD
:1037D0002000FFF711FF06E0002317F1160200A9F1
:1037E0002000FFF709FFB88A00F06CFD012802D025
:1037F00002283BD03BE05FFA88F8B8F1000F34D0E4
:10380000022000F05FFDB88217F1260017F11C01BD
:103810000422FEF78FFF0422211D17F11C0000F087
:1038200097FD94F820000628062016E0401EC0B23E
:10383000C119C0B2C219927D81F82020C0B2C1194D
:10384000897DC0B2C155C0B2C119C0B2425D8A758E
:10385000C0B2C119C0B2425D8A71C0B20128E5D2BE
:1038600031002000A2699047FFE700E0FFE7300049
:1038700000F063FBBDE8F381F0B583B004000D00F8
:1038800016000E21280000F00EFB002802D07FF069
:1038900001000FE000272100300000F02FFD00287C
:1038A00009D00FF2C4373B0014F121022900200097
:1038B000FFF782FEFEBD5FF0704000F01AFD316838
:1038C00010EA01075FF0604000F013FD87421DD150
:1038D00001208DF8000000208DF801005E208DF899
:1038E0000200306800F005FD000C10F07F008DF83C
:1038F0000300306800F0FDFC000A8DF80400306819
:1039000000F0F7FC8DF8050000AFCCE73068A16847
:1039100008406168A2681140884204D0E06800282D
:1039200007D004F20C062A003100200000F004F851
:10393000C0E77FF00300BDE72DE9F84307008846A4
:10394000160007F221095FF0FF343900404600F00D
:10395000D5FC002814D15FF0704000F0CAFCD8F804
:10396000001010EA01055FF0604000F0C2FC8542E3
:1039700006D0B8F1000F03D0D8F80000002802D11B
:103980007FF00900ACE001214046FFF7D8FC0500BC
:103990006DB2002D02D5280040B2A1E06DB2142016
:1039A000504900FB0510807B002806D16DB2142021
:1039B0004C4900FB0510012181736DB21420494967
:1039C00000FB0510807B012806D06DB2142045490C
:1039D00000FB0510807B02286DB21420414900FBDA
:1039E0000510807B012801D0002E04D1414638000B
:1039F00000F0F4F80400002E70D06DB214203949A4
:103A000000FB0510807B02280DD16DB214203549D2
:103A100000FB051010F108034A4631003800FFF79B
:103A2000CBFD04005AE06DB214202E4900FB0510B6
:103A3000807B012852D10020370000E03F68002F32
:103A400009D079893A89914201D139680029397BB5
:103A50000129F3D00120002812D000223989032047
:103A600000F00AF90700002F0ED03100380000F0F6
:103A7000D0FA002808D0380000F05FFA002703E0F1
:103A80003700380000F09DFA002F27D0032000F007
:103A9000DEFB00281FD00021016047606DB21421B9
:103AA000104A01FB0521096800290CD06DB21421D0
:103AB0000C4A01FB0521096800E009680A68002A30
:103AC000FBD1086005E06DB21421064A01FB052117
:103AD0000860002402E0380000F02FFA200040B215
:103AE000BDE8F283ACBC00201BC100202DE9F74FDC
:103AF00005001E000C9FDDF83480DDF838900F9C27
:103B00005FF0000B00222A21032000F0B5F8824666
:103B1000BAF1000F02D15FF0FF305DE0BAF80A00A1
:103B20002A28DAF804B0200080B200F0CBFBABF812
:103B3000140095F82000062806201BE0401EC0B2A5
:103B400010EB0B01C0B2825D8A75C0B210EB0B01A5
:103B5000C0B210F8082081F82020C0B2C0B202998B
:103B6000415C00F80B10C0B210EB0B01C0B2019A1F
:103B7000825C8A71C0B20128E0D21BF11C003900BE
:103B80000422FEF7D7FD1BF1260049460422FEF76A
:103B9000D1FD012000F096FBABF80E004FF4006061
:103BA00000F090FBABF8100040F2046000F08AFBDC
:103BB000ABF8120040F6060000F084FBABF80C00F6
:103BC00051462800AA6990478346504600F0B5F94F
:103BD0005FF0000A584640B2BDE8FE8F00B585B0E0
:103BE0000122039202910FF288010191011D0091BF
:103BF00010F121030FF2700210F12101FFF776FF9F
:103C000005B000BD38B504000D006068808900F083
:103C100059FBB0F5006F04D040F60601884215D07C
:103C20001BE021002800FFF769FD7FF00D01200057
:103C300000F039F9002804D0200000F07EF90024BB
:103C400003E02900200000F0B1FB0AE0220015F19A
:103C500021012800FFF765FD03E0200000F06DF969
:103C60000024002032BD0000FFFFFFFFFFFF000027
:103C70000000000000000000F8B50E00140000274E
:103C8000C0B2002805D0022805D003D3032817D0DE
:103C900017E0143714370E37E4B2002C00F08A8096
:103CA000022C00F0AD80C0F0AB80032C40F0B88057
:103CB000052000F0CCFA0500002D04D1002078E0AA
:103CC000EAE7002075E02C7300202860BFB2781965
:103CD0001030C01C80088000686068680421B0FB58
:103CE000F1F202FB1102002A2E81B6B240F2DC5042
:103CF000BFB2F91C31F00301401A864201DA3000EC
:103D000006E040F2DC50F91C4FF6FC721140401AFC
:103D1000688105F2EC5069896A688918884240F226
:103D2000DC50BFB2F91C31F00301401A0128012018
:103D3000E8812F00B6B26889361A17E040F2DC51EC
:103D4000418110F11001416041680422B1FBF2F39E
:103D500003FB1213002B05F2EC516A896B68D21831
:103D600091420121C1814189761A0700012E1BDB96
:103D7000052000F06CFA002804D1280000F0DDF8DE
:103D8000002016E0047300214173002101603860B7
:103D90004FF6FF718E420681310040F2DC5289B24B
:103DA0009142CBD23100CBE70120E881002068733B
:103DB0002800F2BD17F113004FF6FC710840B6B2AF
:103DC000F11C31F00301081880B200F08DFD0500F0
:103DD000002D01D10020ECE7BFB278191030C01CD3
:103DE0008008800068602E816E81002028602C731E
:103DF00068680421B0FBF1F202FB1102002AD3E74C
:103E0000042000F024FA0500002D01D10020D0E7A5
:103E1000002068602E816E81002028602C73C3E72B
:103E20000020C6E738B504000D00002C207B0328D5
:103E300007D0207B012804D0207B002801D0207BE4
:103E400002282089ADB285422CD2ADB22089281A31
:103E500009E061896D1A4FF6FF7188422189411886
:103E600021812468002C6189ADB2A942F1D3207B65
:103E700000280CD16089ADB2854208D06068001B73
:103E8000291889B2200000F0AEFC0400002C6581E6
:103E9000608920812068002802D0206800F04DF859
:103EA0000020206031BD10B4002809B2002901D0E3
:103EB000002801D100203AE009B2002908D509B252
:103EC0004C424289A4B2A24201D201202FE000E07C
:103ED0000C00027B436892B2002A02D092B2032AFD
:103EE0000CD109B24A42446812194260426810F18A
:103EF0001004A24214D24360012018E092B2022AB8
:103F000002D092B2012A16D109B2002911D54289F4
:103F1000A4B2A2420DD309B24A424368D218426009
:103F200042898A184281028989180181002010BCC7
:103F300070470120FBE70120F9E738B5002802D1DE
:103F40000028002033E0017B002907D0017B0129F4
:103F500004D0017B022901D0017B0329002503E065
:103F600000F01CFC6D1C200000281ED0C189012916
:103F7000C189491EC18189B2002914D10468017B1D
:103F800089B2032904D10100052000F078F9E9E79E
:103F900089B2012902D089B20229E1D101000420AD
:103FA00000F06DF9DEE70020DEE72800C0B232BD88
:103FB000002101E0491C00680028FBD10800C0B2C4
:103FC0007047002802D0C189491CC1817047002870
:103FD00001D0002900D112E004E002890B899A186F
:103FE000028100680268002AF7D1028943899A4257
:103FF0000268002A02890B899A18028101607047C1
:1040000010B50C002100FFF7E2FF2000FFF7D9FFF9
:1040100010BD2DE9F04104000D0000260027002C02
:1040200005D0002D03D020892989884202D27FF053
:1040300009004BE0002C6089B6B2801B6989BFB2D1
:10404000C91B884203DB6889B0EB070802E060897E
:10405000B0EB06081FFA88F84246BFB26868391804
:10406000B6B26068301800F073F918EB060618EB6A
:1040700007076089B6B2B0426089B6B2864201D104
:10408000002624686889BFB2B8426889BFB28742F7
:1040900001D300272D68002D09D06889298988421D
:1040A00005D12868002802D07FF008000EE0002C1F
:1040B00009D060892189884205D12068002802D072
:1040C0007FF0080002E0002DB4D10020BDE8F081AF
:1040D0002DE9F84380460C0017000025B8F1000FC9
:1040E00001D100203EE0002C01D100203AE0002662
:1040F000B8F1000F01D0002C01D1002032E01DE00A
:10410000B8F80A00B0EB0309BFB21FFA89F94F45AE
:1041100000D2B9461FFA89F94A469BB2D8F8040082
:104120001918B6B2301900F013F919EB050519EB9F
:104130000606B7EB09070023D8F80080BFB2002FAE
:104140000ED0B8F1000F0BD09BB2002BD8D0B8F82E
:104150000A009BB28342D3D3B8F80A001B1AEBE7DC
:10416000280080B2BDE8F2832DE9F84304000D0079
:104170001600B0465FF00009002C01D1002034E0A9
:10418000002D01D1002030E0002C05D0002D03D0FF
:104190002089B6B2B04202D27FF0090025E014E0D7
:1041A000002C47466089BFB2B84200D26789BFB2CF
:1041B0003A001FFA89F919EB0501606800F0C8F8A8
:1041C000B8EB070817EB090924681FFA88F8B8F15B
:1041D000000FE5D11FFA88F8B8F1000F04D11FFADB
:1041E00089F9B6B2B145FFD00020BDE8F2830000E6
:1041F000002100E0491C89B20629FBD32948800828
:104200008000002118E089B2274B53F82130036069
:1042100089B2254B43F8210089B20FF2900333F89D
:1042200011301818521C89B20FF28C0333F8113078
:1042300092B29A42E7D3491C89B2062906D289B2C2
:10424000194A002342F821300022ECE77047C0B23F
:10425000062801D3002011E0C0B2134951F8201004
:1042600000290AD0C0B2104A0B6842F8203004205E
:10427000B1FBF0F202FB1012002A0800704700297F
:104280000ED00422B1FBF2F303FB1213002BC0B2D9
:10429000054A52F820200A60C0B2034A42F82010B2
:1042A00070470000B350002040C000201C002000D8
:1042B000200008001000EC050400060005001E00A8
:1042C0000A000A0080B2010A51EA002080B2704759
:1042D00080B580B2FFF7F6FF02BD10F47F410902FE
:1042E00051EA0061020A12F47F42114351EA106060
:1042F000704780B5FFF7F1FF02BD000010B40268FF
:10430000D343002B01D0002A01D101201CE091F8F9
:104310002A309B0701D4002016E04B689A4201D155
:10432000002011E000688B6818404B688C682340BF
:10433000984208D1886832EA00008968C9438842F7
:1043400001D1012000E0002010BC704700000000F7
:1043500010B504002000FEF7EDF9200010BD0000AC
:1043600038B50400C248056800E02D68002D0ED065
:10437000280000F0BEFB0028F7D02068A96808409C
:104380006968AA6811408842EFD128000DE0B94859
:104390000068002805D0B748006800F0AAFB002894
:1043A00001D1002001E0B348006832BD2DE9F041A1
:1043B00004000E0065682888FFF78AFF80B2000BB2
:1043C000C0B2042804D02000FFF7B7FD0020B3E0FE
:1043D0002888FFF77DFFC0F30327BFB2BF006888BE
:1043E000FFF776FF01006089BFB2B84203D320898E
:1043F00089B2884204D22000FFF79FFD00209BE095
:1044000089B22000FFF70EFD5FF001083700380089
:1044100000F06FFB002811D0381D00280ED07868FE
:1044200000280BD028697968884206D0390015F138
:104430001000FFF763FF002800D00DE0B8F1000F77
:1044400004D05FF000088A48076800E03F68B74280
:1044500000D13F68002FDAD1310015F10C00FFF7D1
:104460004DFF00280CD15FF07040FFF742FFE96874
:1044700010EA01085FF06040FFF73BFF804504D180
:104480002000FFF75AFD002056E0002F04D1200045
:10449000FFF753FD00204FE0EF8843F6FF70FFF772
:1044A00011FF074208D0200000F084FC0400002C1B
:1044B00001D1002040E065686B4806606B480560EC
:1044C0003100200000F006FE00282ED12889FFF7D9
:1044D000FFFEC0B2C0B2012806D0112809D13100B8
:1044E000200000F03BFE20E03100200001F05CF8ED
:1044F0001BE0310015F11000FFF700FF002811D17B
:104500005FF07040FFF7F5FE296910EA01065FF0E1
:104510006040FFF7EEFE864204D065600221200075
:1045200001F0F9F82000FFF708FD4F480021016075
:104530004E48002101600020BDE8F0812DE9F84FD0
:1045400005000E0017009B460B9CDDF83080002F05
:104550006FD05FF0140914212800FFF7A4FC002895
:1045600002D07FF001007DE0D5F804A0688914280E
:10457000BAF80800FFF7ACFEC0B25FFA8BFB50EA56
:104580000B2080B2FFF79EFEAAF80800BAF80800D8
:10459000FFF79EFEE4B280B2000A54EA002080B227
:1045A000FFF790FEAAF80800002F01D1002000E0DC
:1045B0003868CAF810001FFA89F9042099FBF0F056
:1045C0009DF8281051EA002050F4804080B2FFF797
:1045D00079FEAAF800002889FFF774FEAAF8020005
:1045E0000020AAF8060024480088FFF76BFEAAF80E
:1045F000040021480088401C1F490880002E02D07A
:10460000306800280AD118F10400002801D10020E8
:1046100001E0D8F80400CAF80C0006E0002E01D131
:10462000002000E03068CAF80C000020AAF80A0058
:1046300003E0D5F804A01AF11007B8F82800002804
:104640000AD0B8F828002989884205D23A004146A4
:10465000280000F082FC05E03A0029004046D8F826
:1046600014309847BDE8F28FA8C00020ACC00020ED
:10467000D0C00020D4C000200EC100202DE9FE4390
:1046800006000F00904699460A9D0B9C4046FFF796
:1046900067FE002802D17FF003000BE00290E4B235
:1046A0000194EDB200954B46DBB242463900300032
:1046B000FFF744FFBDE8FE83DFF84C13096888422A
:1046C000DFF848130968884201790029018845F21A
:1046D000010291420188DFF830231268891888426C
:1046E00018D00A79002A15D1DFF8202312689142E8
:1046F00010D0DFF81C2312688A4201D1C44A10602E
:104700000A8802800988C04A12688918BE4A12685D
:10471000821A4A804188BC4A12688918814212D0A4
:104720000A79002A0FD1BA4A1268824201D1B84AE6
:10473000116002880A800088B34A12688018B24A61
:104740001268891A41807047B24880088000AE49DB
:104750000860AD4800684FF4A0410180002141800D
:1047600000210171A848006810F5A040A749086021
:10477000A648006801210171A44800684FF4A041D7
:104780000180A24800684FF4A0414180A248012165
:1047900001709F489C4909680160704780B50028F6
:1047A00020D010F00301002997490968884203D3FB
:1047B000964909688842FFD393490968884203D320
:1047C00092490968884200D30CE008380179002931
:1047D000002101718E490968884201D28C49086024
:1047E000FFF76AFF01BD70B4C91C4FF6FC7211409F
:1047F00089B20C2900D20C2145F2010289B2914202
:1048000001D300206EE0804A1268904203D37F4AB1
:1048100012689042FFD37C4A1268904203D37B4ACD
:104820001268904200D35DE0B0F10802764B1B683D
:10483000D31A14889BB2E41A083CA4B289B28C4201
:10484000A4B289B28C4201D200204BE089B2A4B25A
:10485000A14247D015886C4E3668AD192E79002ECE
:104860001FD12C88C9180831694E3668AE4205D16F
:1048700089B2654D2D684D19654E356089B2624D1E
:104880002D684D1900262E712C806B8011802A888E
:10489000B2F5A04F26D02A885B4B1B68D2185180F6
:1048A00020E0A4B289B211F11405AC421AD3C918A0
:1048B000083189B2544C24680D19554C2468A5421E
:1048C00001D2534C256000242C7114882C806B80FD
:1048D00011802A88B2F5A04F04D02A884A4B1B6861
:1048E000D218518070BC704730B480B2002801D11A
:1048F000002086E0C01C4FF6FC71084080B20C28F6
:1049000000D20C2045F2010180B2884201D3002080
:1049100077E03F4909683C4A1268891A03E089B286
:10492000394A1268895A89B280B2D0F5A0429142C0
:1049300066DA89B2344A12688A181379002BEED1EC
:10494000138889B25B1A083B80B28342E7D313888D
:1049500089B25B1A083B80B210F11404A34217D34A
:10496000431808339BB2284C24681C190025257174
:104970001588258061801380012111712188B1F58E
:10498000A04F07D02188204C246809194B8001E0F2
:10499000012111711E4909688A421DD107E01C4995
:1049A00009680988184B1B68C918194B1960184900
:1049B00009680979002905D015490968134B1B6856
:1049C0009942ECD112490968104B1B68994203D0F7
:1049D0000F490968097900290C49096880B28018D3
:1049E0000830814212F108000421B0FBF1F303FB0F
:1049F0001103002B12F00300002812F1080000E060
:104A0000002030BC70470000C0C00020C4C000209F
:104A1000C8C000209F0000201DC10020F8B5040080
:104A2000069E079D0898002767600027A76000275B
:104A3000E760002784F82A70E661214E367884F812
:104A40002D601F4E3678761C1D4F3E702061200071
:104A500000F00DF82000A847002801D0002005E054
:104A6000184800682060174804602000F2BD70B547
:104A7000040015001E00200000F009F829002000A5
:104A800000F013F83100200000F008F870BD002994
:104A900001D1002100E0096841607047002901D17F
:104AA000002100E00968C1607047002901D10021A0
:104AB00000E00968816070470349086070470000A2
:104AC0001EC10020D0C00020D4C0002080B590F8C6
:104AD0002A10C9070CD490F82A1051F0010180F86F
:104AE0002A1090F82A10890602D5011DFFF776F8E2
:104AF00001BD90F82A0010F0010070472DE9F04147
:104B000004000D000026A542002D01D02868A04217
:104B1000606840688188002913D167680068606018
:104B2000142214F108017868FFF712FC0121380003
:104B300000F0F8FD3800FFF73BFA86193800FFF760
:104B4000FCF9676809E07868B84607684046FFF7EF
:104B50002FFA86194046FFF7F0F9002FF3D129000C
:104B6000200000F077F8DFF864050088B042DFF835
:104B70005C050088801BDFF8541508803000BDE814
:104B8000F081F8B504000D00002600200021002768
:104B9000DFF8342512680AE0C37F92F81FC063452E
:104BA00000D310001368002B00D011001268002AF7
:104BB00018D05369D4F80CC0634509D19369D4F86F
:104BC00010C0634504D19389B4F804C0634501D093
:104BD000012300E00023002BE4D07F1C0028DBD160
:104BE0001000DFE7002802D0FFF788FF8619AE42E9
:104BF00001DA022FC9DA3000F2BD70B504000D00F1
:104C00000220FFF724FB0600002E0DD12900200012
:104C1000FFF7B7FFA84203DB0220FFF718FB0600EF
:104C2000002E01D1002014E020220021300000F0ED
:104C3000B7FD0320F077DFF8900400683060DFF8FC
:104C4000880406601422210016F10800FFF780FB9B
:104C5000300070BD80B5DFF870241268824204D144
:104C6000DFF8641402680A6002E0002902680A6042
:104C700001000220FFF703FB01BD2DE9F843050009
:104C80000C0000260127D4F80490B9F80200FFF7C1
:104C90001FFB8046B9F80000FFF71AFB1FFA88F8DF
:104CA000C0F3032080B2B8EB8008B9F80600FFF724
:104CB0000FFBC004C00C80B2C1006068002202601B
:104CC000818018EB0101C1806A6808E0002E04D0E1
:104CD000F2888B889A4200D000270A680E00002ACA
:104CE00025D051688388B1F804C063452DD2026095
:104CF000002E1BD08388B6F806C0634503D389888D
:104D0000C388994210D22000FFF752F9DFF8BC1394
:104D10000988C0B2081ADFF8B41308802000FFF732
:104D20000CF90020BDE8F283346000E06C60002ADA
:104D300017D1002E12D08188F28891423460F18818
:104D4000828891420DD000270BE082888B889A429E
:104D5000D9D08288CB889A42B8D2D4E76968002932
:104D60006C60A97FC90723D5002F1FD069684968E7
:104D70008988002901D0002718E00600026801E0B8
:104D800006000268002A05D05068F18882889142A6
:104D9000F6D00027002F09D06968002969684968A2
:104DA000814201680029C088A98B88423800B9E790
:104DB0000020B7E72DE9F047040000256668308839
:104DC000FFF786FAC0F3032080B28000142805D0D4
:104DD0002000FFF7B2F80020BDE8F087F088FFF769
:104DE00077FAC004C00C80B25FEAC0087088FFF791
:104DF0006FFA07003088FFF76BFABFB2C0F30320E9
:104E000080B2B7EB80092000FFF7D2F88246AF48A6
:104E100000885FFA8AFA1AEB00000B2810DB5FFAB1
:104E20008AFA51463000FFF7ACFE002807D0A748A9
:104E300000885FFA8AFA1AEB00000B2800DBC7E74C
:104E4000A148076801E03D003F68002F10D0786955
:104E5000F168884209D1B8693169884205D1B889B9
:104E6000B188884201D1012000E000200028EAD06A
:104E7000002F09D15FFA8AFA51463000FFF7BDFED4
:104E80000700002F10D1A3E7F088FFF721FAC00434
:104E90000AD1F889FFF71CFAC00405D014223100AA
:104EA00017F10800FFF754FA884800885FFA8AFA79
:104EB0001AEB000085490880F088FFF709FA8004A2
:104EC00006D4B87F50F00100B87719EB0800B8831A
:104ED00021003800FFF7D1FE00283CD0B88B1430F9
:104EE000B88378684068D0F80080786846681422F3
:104EF00017F108013000FFF72BFAB88BFFF7E2F942
:104F000070800020F080002070811421300000F0BB
:104F100076FC70817C680CE0D8F804607FF01301A7
:104F20004046FEF7C0FF41462000FFF750F8D6F894
:104F30000080B8F1000FEFD129003800FFF78AFE9A
:104F40002000FFF735F861490988C0B2081A5F49A7
:104F50000880200040E700203EE72DE9F74F82B0AF
:104F60000398008DADF800001425022200210220D4
:104F7000FEF782FE0400002C02D15FF0FF309EE0BD
:104F8000BDF8000060812081514880088000606089
:104F900066681422029841683000FFF7D9F9F0885A
:104FA000FFF796F981465FEAC947FF0C19F40050F4
:104FB000ADF8040002980089B0F1140ABDF80000B1
:104FC0001438082190FBF1F0ADF8020011E0210047
:104FD0004046FFF715F8049A41460398039B5B6926
:104FE00098474046FEF7A9FFBAEB0B0ABDF802004E
:104FF000C7191FFA8AFABAF1000F5CD0BDF8000099
:1050000014381FFA8AFA504502DB5FF0010801E00C
:105010005FF000085FFA88F8BDF80400F904C90CD5
:1050200051EA00091FFA88F8B8F1000F01D159F4CC
:1050300000591FFA88F8B8F1000F01D0D34604E0F8
:10504000BDF8020080B25FEAC00B2B009BB25A464B
:1050500092B216F114010298FFF73AF84519484642
:1050600080B2FFF72FF9F0801BF1140080B2FFF738
:1050700029F97080002070811421300000F0BFFBFE
:1050800070811FFA88F8B8F1000F05D01AF11401E9
:1050900089B22000FEF7C6FE002200210220FEF7A2
:1050A000EBFD8046B8F1000F91D12000FEF745FFDF
:1050B0005FF0FF3003E02000FEF73FFF002005B067
:1050C000BDE8F08F00000000B0C0002010C100203B
:1050D000EFB200202DE9F84304000025666830890E
:1050E000FFF7F6F8C7B25FF000081B48D0F8009051
:1050F00027E099F8100000B23FB2B8421ED1D9F8AB
:10510000140000281AD016F10C0322004946D9F8E1
:105110001800D9F814C0E04700280FD0002401255A
:10512000B8F1000F0AD0D9F80C00C8F80C000A48F2
:105130000068C9F80C000848C0F80090C846D9F8C3
:105140000C90EDB2002D02D1B9F1000FD1D12800A1
:10515000C0B2BDE8F2830000D8C000202DE9F843BA
:1051600004000E0065682888FFF7B2F82189C0F3B3
:10517000032080B28000083081420EDB2888FFF7D0
:10518000A7F8C0F3032080B2800000B2414209B208
:105190002000FEF788FE002803D02000FEF7CDFE99
:1051A000BDE0D4F80490310015F11000FFF7A6F827
:1051B0000700B9F80000FFF78BF88046B9F8020045
:1051C000FFF786F8002200230021DFF8B4C3DCF8E3
:1051D000009002E04A46D9F80C90B9F1000F45D092
:1051E0000023B9F812C080B284451CD1FFB2002F51
:1051F00007D1B9F1000F0DD0D9F800C0BCF1000FF4
:1052000008D0D9F800C0D5F810E0F44502D0FFB2BC
:10521000002F08D00123002905D199F810C05FEABA
:105220004C7C00D44946DBB2002BD3D0B9F8143003
:105230001FFA88F84345CDD119F10403002B09D09A
:10524000D9F80430002B05D0D9F80430D5F80CC0BB
:105250006345BFD1002A09D0D9F80C00D060C848F6
:105260000068C9F80C00C648C0F80090B9F1000FFA
:1052700000D18946B9F1000F03D1706829698842CD
:105280004AD17FF007012000FEF70DFE002803D071
:105290002000FEF752FE42E0B9F1000F15D0D9F818
:1052A000180000280DD01FFA88F8CDF8008015F1FD
:1052B0000C0322004946D9F81C00D9F81840A04731
:1052C0002DE02000FEF739FE29E0FFB2002F1FD1AC
:1052D0005FF07040FFF70DF8296910EA01065FF0F2
:1052E0006040FFF706F8864212D02888FEF7F0FFEC
:1052F000C0F3032080B2800010F1080109B2200041
:10530000FEF7D1FD6068A8420321200000F003FAF7
:105310002000FEF712FE02E02000FEF70EFEBDE8C0
:10532000F18380B5838A021D00F001F802BDF8B553
:1053300004000D0016001F003000FFF711F80028D0
:1053400002D17FF0030007E000903B009BB23200E7
:105350002900200000F001F8F2BD2DE9F04784B0EB
:1053600004000D00160099460C9F608A00280DD19C
:10537000628A2100200000F069F882464FFA8AFA1A
:10538000BAF1000F02D0504640B25CE0082128007C
:10539000FEF789FD002810D0002208210120FEF729
:1053A0006BFC8046B8F1000F02D15FF0FF304AE09D
:1053B00029004046FEF724FE00E0A846B8F80A009F
:1053C0000828D8F804A0608AFEF77CFFAAF800003D
:1053D000484680B2FEF776FFAAF802000020AAF83D
:1053E0000600002C02D02068002802D117F1040921
:1053F0000EE020687968884209D0A84504D040466C
:10540000FEF79BFD5FF000087FF008001BE0A1465F
:10541000B8F80800FEF756FFAAF80400029711201A
:105420000190A07A0090E37A320049464046FFF7A7
:1054300085F88246A84504D04046FEF77EFD5FF021
:105440000008504640B204B0BDE8F08710B4002414
:105450004B4B1B6805E0984202D1E4B2002C0124BA
:10546000DB68002BF7D1002901D1002100E0096899
:10547000016092B2002A19D14FF4805240490B6862
:1054800002E0521C3E490B68002B0AD047F6FF7120
:1054900092B28A4205D0598A92B29142F1D0DB6829
:1054A000F2E7002B02D07FF00A0009E04282E4B26A
:1054B000002C04D132490968C160314908600020DC
:1054C00010BC704770B504000D001600608A0028FB
:1054D00009D1628A21002000FFF7B8FF40B20028FE
:1054E00001D040B21AE0002D01D1002000E0286870
:1054F0006060A682207C50F0040020742048006880
:1055000000E0C068002803D08442FAD1002005E002
:105510001B480068E0601A480460002070BD19490B
:10552000002901D1002101E01649096841600021EC
:105530008182017C11F0FB01017470478161C261BD
:10554000704780B50E490968814205D10C49096848
:10555000C9680B4A11600DE00949096808E0CA688A
:10556000002A04D0CA68824201D1C268CA60C968F0
:105570000029F4D101000120FEF781FE01BD0000E9
:10558000F8C000204C43000810B50120FEF75FFE74
:105590000400002C06D020220021200000F000F999
:1055A000FF20E072200010BD2DE9FE4304000D0035
:1055B00066683088FEF78CFEC0F3032000B28700D7
:1055C0003FB2794209B22000FEF76DFC002802D1FB
:1055D0002089042803D22000FEF7AFFC42E0606877
:1055E0000078C0B2082840F092805FF001085FF0B8
:1055F0007040FEF77EFE316910EA01095FF06040FD
:10560000FEF777FE814501D15FF00008290016F111
:105610001000FEF773FE002801D05FF00008B8F11B
:10562000000F03D12000FEF788FC1BE0208908282A
:10563000D1D3200000F0EAF8002803D02000FEF7C4
:105640007CFC0FE022212000FEF72DFC00284AD030
:10565000390009B22000FEF726FC002804D0200003
:10566000FEF76BFCBDE8F783002221890220FEF7DC
:1056700003FB8046B8F1000FF1D0B8F80A003FB242
:1056800017F10801884221004046FEF7C2FC0028BD
:10569000E5D1D8F804603FB2794209B24046FEF73E
:1056A00002FC0028DBD12000FEF747FC444660687E
:1056B000F1683269F260316100210170002141809E
:1056C0003089FEF705FE50F47F4080B2FEF7FAFD08
:1056D000308100207081390009B22000FEF7E3FB21
:1056E000002808D013E07FF021012000FEF7DBFB4B
:1056F0000028DCD0B3E70295012001900020009043
:10570000FF23002216F10C012000FEF717FF2000F6
:10571000FEF713FCA6E780B50A00D2B2032100F021
:1057200008F801BD80B50A00D2B20B2100F001F8E3
:1057300001BD2DE9F04383B0040088469146002264
:1057400024210120FEF798FA0500002D26D0688953
:10575000242866686F6887F8008087F80190002029
:10576000B8800020F8801C22616868680830FEF765
:10577000EFFD002078806989380000F040F87880DB
:105780000120019000200090FF2316F10C0200215F
:105790002800FEF773FF2800FEF7CFFBBDE8F78374
:1057A00010B5040010000A000100200000F058F8B5
:1057B000200010BD10B5002208E003781B02401C39
:1057C00004782343401C9BB29A18891E89B202298F
:1057D000F3D289B2012903D3007803029BB29A184D
:1057E00090B210EB1242100C0004002802D090B2CC
:1057F00010EB1242100080B2FEF764FD10BD80B5C0
:1058000089B2FFF7D7FFC04380B202BD70B5050073
:105810000026002417E069896868FFF7CBFF861926
:10582000B0B210EB16466889022190FBF1F202FB40
:105830001102002A06D0D4F10104F0B2C6F3072108
:1058400051EA00262D68002DE5D1E4B2002C04D0E9
:10585000F0B2C6F3072151EA0026F04380B270BDD2
:1058600062F30F2262F31F42401810F0030308D0C6
:10587000C91A1FD3DB0748BF00F8012D28BF20F845
:10588000022D130030B414461546103928BF20E904
:105890003C00FAD8490728BF20E90C0048BF40F86F
:1058A000042D890028BF20F8022D48BF00F8012DE3
:1058B00030BC7047C91818BF00F8012DCB0728BFAE
:1058C00000F8012D7047000080B501214FF48040A1
:1058D00000F03CFC00214FF4804000F037FC01BD9B
:1058E0002DE9F04186B004000D00002600270020BD
:1058F0000090DFF8588600200090DFF8540600681A
:10590000070037F01C0701A800F06AFB02988046E8
:10591000DFF84006B8EB0000DFF83C16884202D200
:1059200057F008070AE0DFF83406B8EB0000DFF8AC
:105930003016884202D257F00C07FFE7DFF8100656
:1059400007604FF400420021280080B200F0D6F931
:10595000002801D1002001E1DFF8080600F030FB4B
:105960002068002852D00098401C00900121280097
:1059700080B200F08EF9400704D40098DFF8F015EB
:105980008842F0D30098DFF8E815884201D1002062
:10599000E4E0002000904FF480520021280080B203
:1059A00000F0ACF9002801D10020D7E00098401C9D
:1059B00000900121280080B200F06BF9800604D429
:1059C0000098DFF8AC158842F0D30098DFF8A015F6
:1059D000884201D10020C1E0002000901021280061
:1059E00080B200F056F906003000400703D54FF4AE
:1059F0000060206201E000202062B00702D5002094
:105A0000606116E04FF48040606112E0206A6169D5
:105A1000490851EAD00292B20021280080B200F079
:105A20006DF9002801D1002098E07FF07F4000F060
:105A3000C7FADFF834050768DFF83005074060680B
:105A4000A1680843E1680843216908436169084384
:105A5000A1690843E1690843216A0843616A084370
:105A6000A16A0843E16A0843216B0843616B08435C
:105A70000743DFF8F4040760A06BE16B0843216C77
:105A80000843616C0843A16C0843E16C0843216D35
:105A90000843616D0843DFF8DC140860A06DDFF88F
:105AA000D8140860E06DDFF8D4140860DFF8D00483
:105AB00007684FF641700740206E616E51EA004062
:105AC000A16E0843E16E0843216F0843616F0843EC
:105AD0000743DFF8AC040760A06FE16F0843DFF80D
