:020000040800F2
:1000000068BD002015520008495100084B510008F6
:100010004D5100084F5100085151000800000000E8
:100020000000000000000000000000005351000824
:1000300055510008000000005751000859510008B0
:1000400055520008595200085D52000861520008DC
:1000500065520008695200086D520008715200088C
:1000600075520008795200087D520008815200083C
:1000700085520008895200088D52000891520008EC
:1000800095520008995200089D520008A15200089C
:10009000A5520008A9520008AD520008B15200084C
:1000A000B5520008B9520008BD520008C1520008FC
:1000B000C5520008C9520008CD520008D1520008AC
:1000C000D5520008D9520008DD520008E15200085C
:1000D000E5520008E9520008ED520008F15200080C
:1000E00061510008F9520008FD5200080153000850
:1000F00005530008095300080D5300081153000868
:1001000015530008195300081D5300082153000817
:1001100025530008295300082D53000831530008C7
:1001200035530008395300083D5300084153000877
:1001300045530008495300084D5300085153000827
:1001400055530008595300085D53000861530008D7
:1001500065530008695300086D5300087153000887
:1001600075530008795300087D5300088153000837
:1001700085530008895300088D53000891530008E7
:100180009553000838B5040008E025002468686825
:1001900000F013FE2900032000F081FF002CF4D1B1
:1001A00031BD10B5002455E0E4B21420DFF8341856
:1001B00000FB0410C07B401CE4B21421DFF82428AB
:1001C00001FB0421C873E4B21420DFF8181800FB07
:1001D0000410807B022808D1E4B21420DFF8041850
:1001E00000FB0410C07BF02811D2E4B21420DFF829
:1001F000F41700FB0410807B01282AD1E4B21420FC
:10020000DFF8E01700FB0410C07B022821D3E4B222
:100210001420DFF8D01700FB04100068002810D06D
:10022000E4B21420DFF8BC1700FB04100068FFF7ED
:10023000A9FFE4B21420DFF8AC1700FB0410002182
:100240000160E4B21420DFF89C1700FB04100021C9
:100250008173641CE4B20A2CA6D310BD2DE9F047CB
:1002600004000A200A220A230025002600275FF046
:100270000A0C5FF0000E002C20D0DFF86C572D78B0
:100280005FF01408DFF85C9708FB0595AD7B022D45
:1002900014D12568DFF8508798F800805FF01409C2
:1002A000DFF840A709FB08A8D8F80480454505D128
:1002B000DFF8340790F9000040B200E1002514E0B7
:1002C000EDB25FF01408DFF81C9708FB059898F86A
:1002D0000F80FFB2B84507D32A00EDB21427DFF82C
:1002E000048707FB0587FF7B6D1CEDB20A2D80F0AC
:1002F0008E805BB20A2B0DD1EDB25FF01408DFF8EF
:10030000E49608FB059898F80E80B8F1000F01D12B
:100310002B00E9E7EDB25FF01408DFF8C89608FBA0
:10032000059898F80E80B8F1010F4DD1002C12D02D
:10033000D4F80080EDB25FF01409DFF8A8A609FB3D
:1003400005A9D9F80490C84505D1DFF89C060570C9
:10035000280040B2B3E0EDB25FF01408DFF88496F5
:1003600008FB0598D8F80080B8F1000F17D0EDB25F
:100370005FF01408DFF86C9608FB059898F80F807A
:100380005FFA8EFEF045AFD3AC46EDB25FF0140ECF
:10039000DFF850860EFB058E9EF80FE0A4E7EDB265
:1003A0005FF01408DFF83C9608FB059898F80F807A
:1003B000F6B2B04598D32800EDB21426DFF82486B3
:1003C00006FB0586F67B8FE7EDB25FF01408DFF8D9
:1003D000149608FB059898F80E80B8F1020F83D1A7
:1003E000002C3FF46DAFD4F80080EDB25FF014093B
:1003F000DFF8F0A509FB05A9D9F80490C8457FF4FA
:100400005FAFDFF8E4050570280040B257E05BB24B
:100410000A2B15D111F00301012913D15BB20A2B6C
:1004200013DA1D00EDB21420DFF8B81500FB05103B
:1004300000218173002C35D0002C2BD100202AE024
:100440008907EBD55FF0FF3039E052B20A2A01DAB2
:100450001500E7E740B20A2801DA0500E2E74FFAA3
:100460008CFCBCF10A0F12DA6546EDB21420DFF8FD
:10047000741500FB05100068FFF784FEEDB2142030
:10048000DFF8601500FB051000210160CAE75FF08E
:10049000FF3014E02068EDB21421DFF8482501FB9D
:1004A00005214860EDB21420DFF8381500FB051077
:1004B0000021C173DFF830050570280040B2BDE8A7
:1004C000F087F8B504000D006E68062009E0401EB4
:1004D000C0B2C0B2C15C8155C0B28119C0B2875CE4
:1004E0008F71C0B20128F2D24FF4006000F0F4FD29
:1004F000B08129002000A2699047F2BD2DE9F041AA
:1005000004000E0015001F00002E15D030680028D2
:1005100012D02100300000F011FE00280CD15FF055
:10052000704000F0F0FD316810EA01085FF06040B3
:1005300000F0E9FD804502D17FF009005BE0390061
:10054000C9B23000FFF78AFE060076B2002E02D54F
:10055000300040B24FE076B21420DFF8881400FB80
:1005600006100221817376B21420DFF8781400FBA4
:100570000610046106200BE0401EC0B276B21421C2
:10058000DFF8602401FB06214118C0B2425D0A7207
:10059000C0B20128F0D276B21420DFF8481400FB74
:1005A00006100021C1731CE076B21420DFF8341469
:1005B00000FB0610016876B21420DFF8282400FB47
:1005C00006200A6802604F68032000F068FD2B00D7
:1005D00014F1270239002000FFF773FF380000F004
:1005E000ECFB76B21420DFF8FC1300FB0610006869
:1005F0000028D9D10020BDE8F08138B5002810D0FE
:10060000496801F20E04E26883681A40436885680D
:100610002B409A4205D100238A1D14F10C01FFF7EB
:100620006DFF31BD2DE9F04383B004000D001600CD
:10063000002C00F0B38070892A2803D2300000F02B
:10064000BCFBABE0776807F20E08B8F80090012019
:1006500000F042FD814517D1B8F8049040F20460E3
:1006600000F03AFD81450FD1B8F802904FF40060D8
:1006700000F032FD814507D1B7F80C9040F6060036
:1006800000F02AFD814503D0300000F096FB85E0A4
:100690004146200000F03CFE042218F10E0100A8A3
:1006A00000F099FE042218F1180101A800F093FE51
:1006B0006068002802D15FF0000908E001986168D5
:1006C000884202D15FF0010901E05FF000095FFAA2
:1006D00089F9B9F1000F07D0012318F1080200A928
:1006E0002000FFF70BFF06E0002318F1080200A925
:1006F0002000FFF703FFB8F8060000F0EDFC01282A
:1007000002D0022846D046E05FFA89F9B9F1000F1D
:100710003FD0022000F0E0FCA8F8060018F1180015
:1007200018F10E01042200F05DFE0422211D18F1D3
:100730000E0000F050FE0620216A002906D0216A32
:100740000979002902D00FF2284101E018F10801CF
:1007500017E0401EC0B210EB0802C0B210EB080355
:100760001B7A9374C0B2C0B2425CC255C0B210EBE7
:100770000802C0B2435D1372C0B2C219C0B2435D79
:100780009371C0B20128E4D231002000A2699047E1
:10079000FFE700E0FFE7300000F00FFBBDE8F78364
:1007A000F0B583B004000D0016000E21280000F003
:1007B000BBFA002802D07FF001000FE000272100E3
:1007C000300000F0BBFC002809D00FF2A4373B003A
:1007D00014F1270229002000FFF773FEFEBD5FF031
:1007E000704000F090FC316810EA01075FF0604053
:1007F00000F089FC87421DD101208DF80000002007
:100800008DF801005E208DF80200306800F07BFC5E
:10081000000C10F07F008DF80300306800F073FCCE
:10082000000A8DF80400306800F06DFC8DF80500BA
:1008300000AFCCE73068A16808406168A268114049
:10084000884204D0E068002807D004F20C062A0091
:100850003100200000F004F8C0E77FF00300BDE79E
:100860002DE9F84307008846160007F227095FF0D4
:10087000FF343900404600F061FC002814D15FF0DD
:10088000704000F040FCD8F8001010EA01055FF05D
:10089000604000F038FC854206D0B8F1000F03D06C
:1008A000D8F80000002802D17FF0090097E001216C
:1008B0004046FFF7D3FC05006DB2002D02D528009D
:1008C00040B28CE06DB21420464900FB0510807BDD
:1008D000002806D16DB21420424900FB0510012109
:1008E00081736DB214203F4900FB0510807B012805
:1008F00001D0002E04D14146380000F0F2F8040087
:10090000002E6AD06DB21420364900FB0510807BA2
:1009100002280DD16DB21420324900FB051010F1F0
:1009200008034A4631003800FFF7CBFD040054E0CD
:100930006DB214202B4900FB0510807B01284CD19F
:100940000020370000E03F68002F03D0397B0129E9
:10095000F9D00120002812D000223989032000F0AC
:100960000FF90700002F0ED03100380000F07EFA9A
:10097000002808D0380000F020FA002703E03700F4
:10098000380000F050FA002F27D0032000F075FB4C
:1009900000281FD00021016047606DB21421114A68
:1009A00001FB0521096800290CD06DB214210D4A04
:1009B00001FB0521096800E009680A68002AFBD1EB
:1009C000086005E06DB21421064A01FB05210860AC
:1009D000002402E0380000F0F0F9200040B2BDE849
:1009E000F2830000487900205C7D00202DE9FB4F58
:1009F000050093460C9E0E9F0F9C5FF0000900229D
:100A00002A21032000F0BCF88046B8F1000F02D183
:100A10005FF0FF3063E0D8F8049009F20E0A20007E
:100A200080B200F059FBAAF806000620296A0029C6
:100A300006D0296A0979002902D00FF2341B1CE084
:100A40001BE0401EC0B210EB0A01C0B2029A825CE9
:100A50000A72C0B210EB0A01C0B20D9A825C8A74AD
:100A6000C0B2C0B210F80B1000F80910C0B210EB01
:100A70000901C0B2019A825C8A71C0B20128E0D239
:100A80001AF10E003100042200F0ACFC1AF118003B
:100A90003900042200F0A6FC012000F01DFBAAF89A
:100AA00000004FF4006000F017FBAAF8020040F2CB
:100AB000046000F011FBAAF8040040F6060000F004
:100AC0000BFBA9F80C0041462800AA699047814613
:100AD000404600F072F95FF00008484640B2BDE8B9
:100AE000FE8F00B585B00122039202910FF28801BA
:100AF0000191011D009110F127030FF2740210F112
:100B00002701FFF773FF05B000BD38B504000D00E5
:100B10006068808900F0E0FA80B2B0F5006F04D020
:100B200040F60601884215D01BE021002800FFF79F
:100B300064FD7FF00D01200000F0F6F8002804D0DD
:100B4000200000F03AF9002403E02900200000F022
:100B5000A7FC0AE0220015F127012800FFF762FD3B
:100B600003E0200000F029F90024002032BD00003D
:100B7000FFFFFFFFFFFF000000000000000000007B
:100B8000F8B50E0014000027C0B2002805D00228D6
:100B900005D003D3032814D014E0143714370E37CC
:100BA000E4B2002C5FD0022C7CD07BD3032C40F02D
:100BB0008980052000F061FA0500002D04D1002095
:100BC00050E0EDE700204DE02C7300202860BFB21C
:100BD00078191030C01C8008800068602E81B6B281
:100BE000BFB2F81C30F00300D0F5BE60864201DAD7
:100BF000300005E0F81C4FF6FC710840D0F5BE60EF
:100C000068810120E8812F00B6B26889361A0AE0AF
:100C10004FF4BE61418110F1100141600121C18199
:100C20004189761A0700012E17DB052000F025FA0E
:100C3000002804D1280000F0C0F8002012E004735E
:100C4000002141730021016038600681310089B2C2
:100C5000B1F5BE6FDCD23100DCE70120E881002075
:100C600068732800F2BD17F113004FF6FC710840BD
:100C7000B6B2F11C31F00301081880B200F083FE17
:100C80000500002D01D10020ECE7BFB2781910302B
:100C9000C01C8008800068602E816E810020286062
:100CA0002C73DAE7042000F0E8F90500002D01D1EB
:100CB0000020D7E7002068602E816E810020286028
:100CC0002C73CAE70020CDE738B504000D00208959
:100CD000ADB2854227D2ADB22089281A05E06189DC
:100CE0006D1A21894118218124686189ADB2A94218
:100CF000F5D3207B00280BD16089ADB2854207D0A7
:100D00006068001B291889B2200000F0C6FD0400AD
:100D10006581608920812068002802D0206800F069
:100D20004CF80020206031BD10B409B2002901D078
:100D3000002801D100203AE009B2002908D509B203
:100D40004C424289A4B2A24201D201202FE000E02D
:100D50000C00027B436892B2002A02D092B2032AAE
:100D60000CD109B24A42446812194260426810F13B
:100D70001004A24214D24360012018E092B2022A69
:100D800002D092B2012A16D109B2002911D54289A6
:100D9000A4B2A2420DD309B24A424368D2184260BB
:100DA00042898A184281028989180181002010BC79
:100DB00070470120FBE70120F9E738B5002801D191
:100DC000002026E0002503E000F04FFD6D1C200010
:100DD00000281CD0C189491EC18189B2002914D1C3
:100DE0000468017B89B2032904D10100052000F0C9
:100DF00056F9EBE789B2012902D089B20229E3D181
:100E00000100042000F04BF9E0E70020E0E72800B3
:100E1000C0B232BD002101E0491C00680028FBD1AE
:100E20000800C0B27047002802D0C189491CC181A6
:100E30007047002801D0002900D10DE004E00289AC
:100E40000B899A18028100680268002AF7D102898A
:100E50000B899A1802810160704710B50C002100BF
:100E6000FFF7E7FF2000FFF7DEFF10BD2DE9F0419F
:100E700004000D0000260027002C05D0002D03D013
:100E800020892989884202D27FF0090044E06089E4
:100E9000B6B2801B6989BFB2C91B884203DB68896F
:100EA000B0EB070802E06089B0EB06081FFA88F88B
:100EB0004246BFB268683918B6B26068301800F0B0
:100EC0008AFA18EB060618EB07076089B6B2864265
:100ED00001D1002624686889BFB2874201D3002768
:100EE0002D68002D09D068892989884205D1286894
:100EF000002802D07FF008000EE0002C09D06089A5
:100F00002189884205D12068002802D07FF008009E
:100F100002E0002DBBD10020BDE8F0812DE9F843AF
:100F200080460C0017000025B8F1000F01D1002009
:100F30003EE0002C01D100203AE00026B8F1000F7D
:100F400001D0002C01D1002032E01DE0B8F80A00E9
:100F5000B0EB0309BFB21FFA89F94F4500D2B94679
:100F60001FFA89F94A469BB2D8F804001918B6B29C
:100F7000301900F030FA19EB050519EB0606B7EB4E
:100F800009070023D8F80080BFB2002F0ED0B8F1B7
:100F9000000F0BD09BB2002BD8D0B8F80A009BB240
:100FA0008342D3D3B8F80A001B1AEBE7280080B2BB
:100FB000BDE8F2832DE9F04104000D0017005FF059
:100FC0000008002C01D1002026E0002D01D10020D6
:100FD00022E0002C05D0002D03D0208992B290424F
:100FE00002D27FF0090017E012E03E006089B6B23D
:100FF000B04200D26689B6B232001FFA88F818EB08
:101000000501606800F0E7F9BF1B16EB08082468CB
:10101000BFB2002FE9D10020BDE8F081002100E03F
:10102000491C89B20629FBD323488008800000218F
:1010300018E089B2214B53F82130036089B21F4B6D
:1010400043F8210089B20FF2780333F811301818F1
:10105000521C89B20FF2740333F8113092B29A42E3
:10106000E7D3491C89B2062906D289B2134A002364
:1010700042F821300022ECE77047C0B2062801D3C5
:1010800000200BE0C0B20D4951F82010002904D017
:10109000C0B20A4A0B6842F82030080070470029A5
:1010A00008D0C0B2054A52F820200A60C0B2034AF4
:1010B00042F82010704700002B000020887C0020A0
:1010C0001C0020002000080010000006040005009D
:1010D00005001E000200060080B2010A51EA00204D
:1010E00080B2704780B580B2FFF7F6FF02BD10F402
:1010F0007F41090251EA0061020A12F47F42114362
:1011000051EA1060704780B5FFF7F1FF02BD10B4DF
:1011100050F8041B81B102681218001D50F8043BFE
:10112000DC0744BFA9F10104E31852F8044B43F86B
:10113000044B091FF9D1EBE710BC704710B40268EB
:10114000D343002B01D0002A01D101201CE091F8EB
:101150002D309B0701D4002016E04B689A4201D144
:10116000002011E000688B6818404B688C682340B1
:10117000984208D1886832EA00008968C9438842E9
:1011800001D1012000E0002010BC704700000000E9
:1011900010B504000120C0B200280ED0206A007AE9
:1011A000012803D3200000F043F809E0200000F0FC
:1011B0002CF8206A6421017202E0200000F038F867
:1011C00010BD38B505000C0095F82B0095F82C10D3
:1011D00050EA01204A490818FFF789FFFFF793FFFB
:1011E000296A497A08184AF6FE1161F31F404449FA
:1011F000884201D210F57E404249884201D3B0F5C1
:101200007E40FFF774FF206031BD00B585B001213D
:101210000391016A02913C490191016A009110F128
:1012200027033A4A10F12701FFF7E0FB05B000BDA4
:1012300070B50400256A0026200000F09BFC002801
:1012400002D0200000F08BFC002060600020A06035
:101250000020E060002D0FD10A2000F094FB050073
:10126000002D02D15FF0FF301FE00A22002128008C
:1012700000F085FC25620CE0002028710020E88049
:101280000020687104220021280000F078FC002072
:10129000287229002000FFF794FF687A401C6872CA
:1012A000200000F003F8300040B270BD10B4016AB5
:1012B00001220A7100224A71026A002A02D0026ADF
:1012C000527A00E0002290F82C3090F82A40240452
:1012D00054EA036390F8294053EA042390F82B0062
:1012E000184310180A22B0FBF2F302FB1300C88067
:1012F000487A0B2802D34FF41670C88010BC704790
:101300000001FEA900FFFEA9780B0008700B000881
:1013100030B585B004000D00206A002859D0206A3D
:101320000079002855D094F827008DF8000094F833
:1013300028008DF8010094F829008DF8020094F837
:101340002A008DF8030094F82B008DF8040094F81F
:101350002C008DF80500042215F10E0102A800F002
:101360003AF8042215F1180103A800F034F8206AB5
:101370000079012807D0206A0079022819D1206A53
:101380004079002815D10298216A096888420CD05A
:101390000398216A096888421BD1062215F10801C9
:1013A00000A800F007FC002813D02000FFF740FF42
:1013B0000FE00298216A096888420AD1062215F1D5
:1013C000080100A800F0F6FB002802D02000FFF77B
:1013D000DFFE05B030BD10B50400200000F002F8BB
:1013E000200010BD4AB38B0707D0521E11F8013BF5
:1013F00000F8013B21D08B07F7D183071ED1103AAB
:1014000007D330B4B1E83810103AA0E83810F9D258
:1014100030BC530724BFB1E80810A0E8081044BF4F
:1014200051F8043B40F8043BD20724BF31F8022BAB
:1014300020F8022B44BF0B7803707047083A07D39B
:10144000B1E80810083A40F8043B40F804CBF7D262
:101450005307E4E738B50400BF48056800E02D688D
:10146000002D0ED0280000F085FB0028F7D0206862
:10147000A96808406968AA6811408842EFD128002D
:101480000DE0B6480068002805D0B448006800F0B8
:1014900071FB002801D1002001E0B048006832BD96
:1014A0002DE9F04104000E0065682888FFF71AFE58
:1014B00080B2000BC0B2042804D02000FFF77DFCEE
:1014C0000020B3E02888FFF70DFEC0F30327BFB26A
:1014D000BF006888FFF706FE01006089BFB2B8420E
:1014E00003D3208989B2884204D22000FFF765FC2B
:1014F00000209BE089B22000FFF7E6FB5FF00108C7
:101500003700380000F036FB002811D0381D0028C5
:101510000ED0786800280BD028697968884206D0F8
:10152000390015F11000FFF709FE002800D00DE08A
:10153000B8F1000F04D05FF000088748076800E0AA
:101540003F68B74200D13F68002FDAD1310015F172
:101550000C00FFF7F3FD00280CD15FF07040FFF79F
:10156000D2FDE96810EA01085FF06040FFF7CBFDAB
:10157000804504D12000FFF720FC002056E0002F1A
:1015800004D12000FFF719FC00204FE0EF8843F65C
:10159000FF70FFF7A1FD074208D0200000F07FFC9C
:1015A0000400002C01D1002040E065686C48066012
:1015B0006C4805603100200000F000FE00282ED1AC
:1015C0002889FFF78FFDC0B2C0B2012806D01128CC
:1015D00009D13100200000F035FE20E0310020006C
:1015E00001F04EF81BE0310015F11000FFF7A6FDE9
:1015F000002811D15FF07040FFF785FD296910EADE
:1016000001065FF06040FFF77EFD864204D0656012
:101610000221200001F0E5F82000FFF7CEFB504842
:10162000002101604F48002101600020BDE8F081E9
:101630002DE9F84F05000E0017009B460B9CDDF8C6
:101640003080002F6DD05FF0140914212800FFF7BF
:101650006BFB002802D07FF001007BE0D5F804A0EE
:10166000BAF80800FFF73EFDC0B25FFA8BFB50EA04
:101670000B2080B2FFF730FDAAF80800BAF8080086
:10168000FFF730FDE4B280B2000A54EA002080B2D5
:10169000FFF722FDAAF80800002F01D1002000E08A
:1016A0003868CAF810001FFA89F9042099FBF0F095
:1016B0009DF8281051EA002050F4804080B2FFF7D6
:1016C0000BFDAAF800002889FFF706FDAAF8020022
:1016D0000020AAF8060024480088FFF7FDFCAAF8BD
:1016E000040021480088401C1F490880002E02D0B9
:1016F000306800280AD118F10400002801D1002028
:1017000001E0D8F80400CAF80C0006E0002E01D170
:10171000002000E03068CAF80C000020AAF80A0097
:1017200003E0D5F804A01AF11007B8F82400002847
:101730000AD0B8F824002989884205D23A004146E7
:10174000280000F07FFC05E03A0029004046D8F868
:1017500014309847BDE8F28F1C7D0020207D0020CA
:10176000E07C0020E47C00204E7D00202DE9FE433B
:1017700006000F00904699460A9D0B9C4046FFF7D5
:1017800069FE002802D17FF003000BE00290E4B272
:101790000194EDB200954B46DBB242463900300071
:1017A000FFF746FFBDE8FE830188B14A1268891839
:1017B000884216D00A79002A13D1AE4A12689142A3
:1017C0000FD0AD4A12688A4201D1AB4A10600A8834
:1017D00002800988A64A12688918A54A1268821AE6
:1017E0004A804188A24A12688918814212D00A7937
:1017F000002A0FD1A04A1268824201D19E4A11608C
:1018000002880A8000889A4A12688018984A1268EA
:10181000891A41807047994880088000944908607F
:10182000934800684FF480510180002141800021DD
:1018300001718F48006810F580508E4908608D480E
:101840000068012101718B4800684FF480510180CC
:10185000884800684FF48051418089480121017017
:101860008548834909680160704780B5002813D016
:101870007F490968884203D37E490968884200D3BA
:101880000AE00838002101717B490968884201D2C9
:1018900079490860FFF788FF01BD70B4C91C4FF695
:1018A000FC72114089B20C2900D20C2141F20102D4
:1018B00089B2914201D3002063E06D4A12689042E0
:1018C00003D36C4A1268904200D35AE0B0F1080288
:1018D000674B1B68D31A14889BB2E41A083CA4B265
:1018E00089B28C4201D200204BE089B2A4B2A1425D
:1018F00047D015885E4E3668AD192E79002E1FD15F
:101900002C88C91808315C4E3668AE4205D189B2C0
:10191000574D2D684D19584E356089B2544D2D687C
:101920004D1900262E712C806B8011802A88B2F50B
:10193000805F26D02A884E4B1B68D218518020E049
:10194000A4B289B211F11405AC421AD3C9180831F6
:1019500089B2474C24680D19474C2468A54201D22E
:10196000454C256000242C7114882C806B801180DC
:101970002A88B2F5805F04D02A883D4B1B68D218B4
:10198000518070BC704710B480B2002801D1002093
:101990006BE0C01C4FF6FC71084080B20C2800D2EE
:1019A0000C2041F2010180B2884201D300205CE0AA
:1019B000314909682E4A1268891A03E089B22C4A13
:1019C0001268895A89B280B2D0F5805291424BDABE
:1019D00089B2274A12688A181379002BEED113882E
:1019E00089B25B1A083B80B28342E7D3138889B27D
:1019F0005B1A083B80B210F11404A34217D34018BD
:101A0000083080B21A4B1B68C31800241C7114885C
:101A10001C8059801080012111711988B1F5805FF7
:101A200007D01988124B1B68C918488001E00120B3
:101A3000107111480068824213D107E00E48006817
:101A400000880B49096840180B4908600A4800687B
:101A50000079002805D008480068064909688842CE
:101A6000ECD112F1080000E0002010BC704700002B
:101A70000C7D0020107D0020147D00207762002066
:101A8000607D0020F8B50400069E079D0898002799
:101A900067600027A7600027E760002784F82D70A3
:101AA00000272762E661214E367884F830601F4EA9
:101AB0003678761C1D4F3E702061200000F00DF836
:101AC0002000A847002801D0002005E01848006841
:101AD0002060174804602000F2BD70B504001500B6
:101AE0001E00200000F009F82900200000F013F883
:101AF0003100200000F008F870BD002901D100215C
:101B000000E0096841607047002901D1002100E030
:101B10000968C1607047002901D1002100E009680F
:101B2000816070470349086070470000617D0020B4
:101B30001C7D0020207D002080B590F82D10C90765
:101B40000CD490F82D1051F0010180F82D1090F870
:101B50002D10890602D5011DFEF7C3FF01BD90F8C7
:101B60002D10C90705D590F82D1011F0FE0180F851
:101B70002D10704790F82D0010F00100704710B53F
:101B8000040010000A000100200000F06DFE20009B
:101B900010BD50F8041B61B150F8042BD30744BFAB
:101BA000A9F101039A18002342F8043B091FFAD156
:101BB000EFE770470300002013F0030F09D0521E17
:101BC00022BF13F8010B11F801CBB0EB0C00F3D0DE
:101BD0007047121F22BF53F8040B51F804CB604525
:101BE000F7D0121D0AD200BA9CFA8CFCB0EB0C00A4
:101BF00038BF6FF0000088BF01207047521E22BF1F
:101C000013F8010B11F801CBB0EB0C00F6D0521C0D
:101C100008BF1046704700002DE9F04104000D0098
:101C20000026002D606840688188002913D167680C
:101C300000686060142214F108017868FFF7CBFB9C
:101C40000121380000F0D4FD3800FFF7E3F88619D1
:101C50003800FFF7B2F8676809E07868B8460768A7
:101C60004046FFF7D7F886194046FFF7A6F8002F41
:101C7000F3D12900200000F073F8DFF83805008860
:101C8000801BDFF8301508803000BDE8F081F8B522
:101C900004000D000026002000210027DFF8102599
:101CA00012680AE0C37F92F81FC0634500D310009A
:101CB0001368002B00D011001268002A18D0536955
:101CC000D4F80CC0634509D19369D4F810C06345BA
:101CD00004D19389B4F804C0634501D0012300E026
:101CE0000023002BE4D07F1C0028DBD11000DFE7AD
:101CF000002802D0FFF790FF8619AE4201DA022FCA
:101D0000C9DA3000F2BD70B504000D000220FFF703
:101D1000B4F90600002E0DD129002000FFF7B7FF0F
:101D2000A84203DB0220FFF7A8F90600002E01D12C
:101D3000002014E0202200213000FFF720FF0320C4
:101D4000F077DFF86C0400683060DFF86404066048
:101D50001422210016F10800FFF73DFB300070BD92
:101D600080B5DFF84C241268824204D1DFF84014B9
:101D700002680A6001E002680A6001000220FFF7C1
:101D80008EF901BD2DE9F84305000C00002601275E
:101D9000D4F80490B9F80200FFF7A4F98046B9F826
:101DA0000000FFF79FF91FFA88F8C0F3032080B204
:101DB000B8EB8008B9F80600FFF794F9C004C00C2E
:101DC00080B2C100606800220260818018EB0101CE
:101DD000C1806A6808E0002E04D0F2888B889A429D
:101DE00000D000270A680E00002A25D05168838899
:101DF000B1F804C063452AD20260002E1BD083884C
:101E0000B6F806C0634503D38988C388994210D2C7
:101E10002000FEF7FFFFDFF89C130988C0B2081A04
:101E2000DFF8901308802000FEF7C7FF0020BDE810
:101E3000F283346000E06C60002A12D1002E0FD0D3
:101E40003460F188828891420BD0002709E08288B3
:101E50008B889A42DCD08288CB889A42BBD2D7E763
:101E60006C60A97FC90718D5002F14D0696849682C
:101E70008988002901D000270DE00600026801E0F2
:101E800006000268002A05D05068F18882889142D5
:101E9000F6D00027002F3800C9E70020C7E72DE95A
:101EA000F0470400002566683088FFF71BF9C0F38F
:101EB000032080B28000142805D02000FEF77DFFAB
:101EC0000020BDE8F087F088FFF70CF9C004C00CD3
:101ED00080B25FEAC0087088FFF704F90700308815
:101EE000FFF700F9BFB2C0F3032080B2B7EB80095F
:101EF0002000FEF78FFF8246AE4800885FFA8AFA1C
:101F00001AEB00000B2810DB5FFA8AFA514630000A
:101F1000FFF7BDFE002807D0A64800885FFA8AFABE
:101F20001AEB00000B2800DBC7E7A148076801E0B7
:101F30003D003F68002F10D07869F168884209D1D0
:101F4000B8693169884205D1B889B188884201D120
:101F5000012000E000200028EAD0002F09D15FFA1C
:101F60008AFA51463000FFF7CEFE0700002F10D14D
:101F7000A3E7F088FFF7B6F8C0040AD1F889FFF7A5
:101F8000B1F8C00405D01422310017F10800FFF7A2
:101F900022FA884800885FFA8AFA1AEB000085491D
:101FA0000880F088FFF79EF8800406D4B87F50F0D0
:101FB0000100B87719EB0800B88321003800FFF75B
:101FC000E1FE00283CD0B88B1430B88378684068B4
:101FD000D0F8008078684668142217F108013000B4
:101FE000FFF7F9F9B88BFFF777F870800020F080E1
:101FF000002070811421300000F08EFC70817C681C
:102000000CE0D8F804607FF013014046FEF78CFE28
:1020100041462000FEF70DFFD6F80080B8F1000F12
:10202000EFD129003800FFF79BFE2000FEF7F2FEFB
:1020300060490988C0B2081A5E490880200040E75C
:1020400000203EE72DE9F74F82B00398808CADF871
:1020500000001425022200210220FEF791FD040059
:10206000002C02D15FF0FF309EE0BDF800006081DF
:1020700020815148800880006060666814220298C0
:1020800041683000FFF7A7F9F088FFF72BF8814689
:102090005FEAC947FF0C19F40050ADF8040002983C
:1020A0000089B0F1140ABDF800001438082190FB33
:1020B000F1F0ADF8020011E021004046FEF7CDFE40
:1020C000049A41460398039B5B6998474046FEF794
:1020D00074FEBAEB0B0ABDF80200C7191FFA8AFAA0
:1020E000BAF1000F5CD0BDF8000014381FFA8AFA6C
:1020F000504502DB5FF0010801E05FF000085FFA85
:1021000088F8BDF80400F904C90C51EA00091FFA67
:1021100088F8B8F1000F01D159F400591FFA88F876
:10212000B8F1000F01D0D34604E0BDF8020080B240
:102130005FEAC00B2B009BB25A4692B216F1140113
:102140000298FEF7EBFE4519484680B2FEF7C4FF41
:10215000F0801BF1140080B2FEF7BEFF70800020FB
:1021600070811421300000F0D7FB70811FFA88F8CD
:10217000B8F1000F05D01AF1140189B22000FEF762
:10218000A3FD002200210220FEF7FAFC8046B8F1F0
:10219000000F91D12000FEF710FE5FF0FF3003E04A
:1021A0002000FEF70AFE002005B0BDE8F08F000019
:1021B000E87C0020507D00208B7200202DE9F84340
:1021C0000400002566683089FEF78CFFC7B25FF017
:1021D00000081B48D0F8009027E099F8100000B2E2
:1021E0003FB2B8421ED1D9F8140000281AD016F117
:1021F0000C0322004946D9F81800D9F814C0E0476A
:1022000000280FD000240125B8F1000F0AD0D9F81A
:102210000C00C8F80C000A480068C9F80C0008480F
:10222000C0F80090C846D9F80C90EDB2002D02D14C
:10223000B9F1000FD1D12800C0B2BDE8F28300008F
:10224000247D00202DE9F84304000E0065682888ED
:10225000FEF748FF2189C0F3032080B280000830D8
:1022600081420EDB2888FEF73DFFC0F3032080B2D9
:10227000800000B2414209B22000FEF755FD00285F
:1022800003D02000FEF799FDBBE0D4F804903100A4
:1022900015F11000FEF752FF0700B9F80000FEF735
:1022A00021FF8046B9F80200FEF71CFF0022002340
:1022B0000021DFF8A4C3DCF8009002E04A46D9F818
:1022C0000C90B9F1000F45D00023B9F812C080B2CC
:1022D00084451CD1FFB2002F07D1B9F1000F0DD0FA
:1022E000D9F800C0BCF1000F08D0D9F800C0D5F86B
:1022F00010E0F44502D0FFB2002F08D001230029DE
:1023000005D199F810C05FEA4C7C00D44946DBB295
:10231000002BD3D0B9F814301FFA88F84345CDD13B
:1023200019F10403002B09D0D9F80430002B05D093
:10233000D9F80430D5F80CC06345BFD1002A09D0C4
:10234000D9F80C00D060C4480068C9F80C00C24835
:10235000C0F80090B9F1000F00D18946B9F1000F23
:1023600003D170682969884248D17FF007012000B5
:10237000FEF7DAFC002803D02000FEF71EFD40E047
:10238000B9F1000F15D0D9F8180000280DD01FFAA8
:1023900088F8CDF8008015F10C0322004946D9F8E1
:1023A0001C00D9F81840A0472BE02000FEF705FDDF
:1023B00027E0FFB2002F1DD15FF07040FEF7A3FEB3
:1023C000296910EA01065FF06040FEF79CFE864234
:1023D00010D02888FEF786FEC0F3032080B280006C
:1023E00010F1080109B22000FEF79EFC0321200035
:1023F00000F0F7F92000FEF7E0FC02E02000FEF715
:10240000DCFCBDE8F18380B5838A021D00F001F891
:1024100002BDF8B504000D0016001F003000FFF7E4
:1024200019F8002802D17FF0030007E000903B007C
:102430009BB232002900200000F001F8F2BD2DE926
:10244000F04784B004000D00160099460C9F608A86
:1024500000280DD1628A2100200000F066F8824633
:102460004FFA8AFABAF1000F02D0504640B259E052
:1024700008212800FEF758FC002810D0002208216F
:102480000120FEF77DFB8046B8F1000F02D15FF01E
:10249000FF3047E029004046FEF7DFFC00E0A84699
:1024A000D8F804A0608AFEF717FEAAF80000484694
:1024B00080B2FEF711FEAAF802000020AAF806007A
:1024C000002C02D02068002802D117F104090EE088
:1024D00020687968884209D0A84504D04046FEF7B4
:1024E0006CFC5FF000087FF008001BE0A146B8F824
:1024F0000800FEF7F1FDAAF80400029711200190F0
:10250000A07A0090E37A320049464046FFF790F8FF
:102510008246A84504D04046FEF74FFC5FF0000815
:10252000504640B204B0BDE8F08710B400244A4BD6
:102530001B6803E0984200D10124DB68002BF9D12D
:10254000002901D1002100E00968016092B2002A4F
:1025500019D14FF4805240490B6802E0521C3E49A9
:102560000B68002B0AD047F6FF7192B28A4205D061
:10257000598A92B29142F1D0DB68F2E7002B02D087
:102580007FF00A0009E04282E4B2002C04D1324913
:102590000968C16030490860002010BC704770B500
:1025A00004000D001600608A002809D1628A21000B
:1025B0002000FFF7BAFF40B2002801D040B21AE075
:1025C000002D01D1002000E028686060A682207CF8
:1025D00050F0040020742048006800E0C068002823
:1025E00003D08442FAD1002005E01B480068E06077
:1025F00019480460002070BD1849002901D100214C
:1026000001E016490968416000218182017C11F0D6
:10261000FB01017470478161C261704780B50E494A
:102620000968814205D10C490968C9680A4A1160E4
:102630000DE00949096808E0CA68002A04D0CA68A0
:10264000824201D1C268CA60C9680029F4D1010080
:102650000120FEF724FD01BD487D00208C110008FB
:1026600010B50120FEF709FD0400002C06D0202241
:1026700000212000FFF783FAFF20E072200010BD48
:102680002DE9FE4304000D0066683088FEF72AFD40
:10269000C0F3032000B287003FB2794209B22000A4
:1026A000FEF742FB002802D12089042803D2200033
:1026B000FEF783FB42E060680078C0B2082840F073
:1026C0008C805FF001085FF07040FEF71CFD3169FF
:1026D00010EA01095FF06040FEF715FD814501D168
:1026E0005FF00008290016F11000FEF727FD002812
:1026F00001D05FF00008B8F1000F03D12000FEF711
:102700005CFB1BE020890828D1D3200000F00BF9E6
:10271000002803D02000FEF750FB0FE0222120000C
:10272000FEF702FB002844D0390009B22000FEF772
:10273000FBFA002804D02000FEF73FFBBDE8F7833A
:10274000002221890220FEF71BFA8046B8F1000F13
:10275000F1D021004046FEF789FB0028EBD1D8F8E4
:1027600004603FB2794209B24046FEF7DDFA002824
:10277000E1D12000FEF721FB44466068F168326930
:10278000F260316100210170002141803089FEF743
:10279000A9FC50F47F4080B2FEF79EFC30810020FF
:1027A0007081390009B22000FEF7BEFA002808D077
:1027B00013E07FF021012000FEF7B6FA0028DCD0FC
:1027C000B9E702950120019000200090FF2300222C
:1027D00016F10C012000FEF72BFF2000FEF7EDFAAA
:1027E000ACE780B50A00D2B2032100F008F801BDC1
:1027F00080B50A00D2B20B2100F001F801BD2DE92D
:10280000F04383B00700884691460022242101202E
:10281000FEF7B6F90400002C24D07D68666886F8BF
:10282000008086F801900020B0800020F0801C22FB
:10283000796860680830FEF7CEFD002070806189FD
:10284000300000F069F870800120019000200090B5
:10285000FF2315F10C0200212000FEF787FF200066
:10286000FEF7ABFABDE8F78362F30F2262F31F4273
:10287000401810F0030308D0C91A1FD3DB0748BF64
:1028800000F8012D28BF20F8022D130030B41446A3
:102890001546103928BF20E93C00FAD8490728BF5F
:1028A00020E90C0048BF40F8042D890028BF20F81B
:1028B000022D48BF00F8012D30BC7047C91818BF61
:1028C00000F8012DCB0728BF00F8012D704710B587
:1028D000002208E003781B02401C04782343401CBC
:1028E0009BB29A18891E89B20229F3D289B20129B2
:1028F00003D3007803029BB29A1890B210EB1242F5
:10290000100C0004002802D090B210EB124210000C
:1029100080B2FEF7E1FB10BD80B589B2FFF7D7FFAB
:10292000C04380B202BD70B505000026002417E048
:1029300069896868FFF7CBFF8619B0B210EB1646BD
:102940006889022190FBF1F202FB1102002A06D0F5
:10295000D4F10104F0B2C6F3072151EA00262D6834
:10296000002DE5D1E4B2002C04D0F0B2C6F307216B
:1029700051EA0026F04380B270BD000001B481B07E
:10298000002000900198009002E00098401E009006
:1029900000980028F9D102B0704780B501215FF09E
:1029A000007000F023FD00215FF0007000F01EFDBC
:1029B00001BD0121016000214160002181600021F1
:1029C000C160002101614FF48041416100218161BA
:1029D0000021C1614FF400610162002141620021C8
:1029E00081620021C1620021016300214163002155
:1029F00081630021C16340210164202141640021E1
:102A000081640021C164002101650021416500212C
:102A100081650021C1650021016680214166002198
:102A200081660021C1660021016700214167002104
:102A300081670021C1675FF08061C0F880105FF09E
:102A40000071C0F884100021C0F888105FF40011F4
:102A5000C0F88C100021C0F890100021C0F894102C
:102A60000021C0F898100021C0F89C100021C0F887
:102A7000A0105FF00071C0F8A4105FF48031C0F8BE
:102A8000A8105FF48001C0F8AC104FF40051C0F8FA
:102A9000B0100021C0F8B4100021C0F8B810704781
:102AA0002DE9F04186B004000D000026002700202B
:102AB0000090DFF8008700200090DFF8FC06006837
:102AC000070037F01C0701A800F0EFFB02988046D2
:102AD000DFF8E806B8EB0000DFF8E416884202D21F
:102AE00057F0080714E0DFF8DC06B8EB0000DFF869
:102AF000D816884202D257F00C0709E0DFF8B40676
:102B0000B8EB0000DFF82417884201D357F0040720
:102B1000DFF8A40607604FF400420021280080B2CD
:102B200000F054FB002801D1002008E1DFF8000785
:102B3000FFF724FF2068002851D00098401C009027
:102B40000121280080B200F005FB400704D4009862
:102B5000DFF8F8168842F0D30098DFF8F0168842C4
:102B600001D10020EBE0002000904FF480520021C2
:102B7000280080B200F02AFB002801D10020DEE00E
:102B80000098401C00900121280080B200F0E2FA79
:102B9000800604D40098DFF8B4168842F0D3009879
:102BA000DFF8A816884201D10020C8E0002000907C
:102BB0001121280080B200F0CDFA0600B00403D540
:102BC0004FF40060206201E000202062700403D511
:102BD0004FF48040606115E00020606112E0206ADF
:102BE0006169490851EAD00292B20021280080B2FE
:102BF00000F0ECFA002801D10020A0E07FF07F4037
:102C0000FFF7BCFEDFF82C060768DFF82C0607404C
:102C10006068A1680843E168084321690843616965
:102C20000843A1690843E1690843216A0843616ACE
:102C30000843A16A0843E16A0843216B0843616BBA
:102C400008430743DFF8EC050760A06BE16B08431E
:102C5000216C0843616C0843A16C0843E16C084394
:102C6000216D0843616D0843DFF8D0150860A06D41
:102C7000DFF8CC150860E06DDFF8C8150860DFF8F4
:102C8000C80507684FF641700740206E616E51EA33
:102C90000040A16E0843E16E0843216F0843616F55
:102CA00008430743DFF8A0050760A06FE16F084302
:102CB000DFF89C150860DFF89C050768DFF89805C9
:102CC0000740D4F88000D4F884100843D4F8881062
:102CD0000843D4F88C100843D4F890100843D4F873
:102CE00094100843D4F898100843D4F89C10084373
:102CF000D4F8A01008430743DFF858050760D4F85C
:102D0000A400D4F8A8100843D4F8AC100843D4F8B1
:102D1000B0100843D4F8B41050EA8100D4F8B810C9
:102D2000084350F40000DFF834150860DFF82C0584
:102D3000006850F08000DFF824150860012006B01C
:102D4000BDE8F08180B5012000F00CF800F0D7F963
:102D5000012000F01CF8012000F0DAF9012000F059
:102D6000E8F901BDC0B2002808D0DFF8C804006847
:102D700050F00800DFF8BC14086007E0DFF8B40486
:102D8000006830F00800DFF8AC1408607047C0B28B
:102D9000002808D0DFF89C04006850F00400DFF839
:102DA0009414086007E0DFF88C04006830F0040039
:102DB000DFF88014086070474A790B7953EA0222E1
:102DC000DFF89C341A50CA788B781B0453EA0262ED
:102DD0004B7852EA032209780A43DFF888140A5034
:102DE00070473EB4002100AA00230024002538C209
:102DF0000C3ADFF8742412681268C2F30D42121FF5
:102E000011000091DFF8641409688968022906D36B
:102E1000DFF85814096809688968019104E0DFF84F
:102E20004814096889680191DFF83C140968029127
:102E3000DFF834140968C968DFF82C24116000A990
:102E40001CC91CC00C390C383EBC704730B4002182
:102E500000240023DFF8182412681268002A01D524
:102E6000002077E0DFF808140A6840F2F55180B2DC
:102E700088420FD380B240F2F45190FBF1F180B25E
:102E800040F2F45390FBF3F403FB1403002B02D045
:102E9000491C00E00121012922D1DFF8D41309687F
:102EA000096851F04051DFF8C82312681160DFF85B
:102EB000C013096880B2C004C00C4860DFF8B003DA
:102EC0000068006850F00040DFF8A413096808604B
:102ED000DFF89C030068C068DFF8941308602BE0FB
:102EE000002324E0002B09D1DFF884432468246800
:102EF00054F08054DFF878532D682C6040F2F4547D
:102F000054604C1EA3420CD1146854F00054146059
:102F100080B24C1E40F2F45505FB1404E404E40CAA
:102F20005460146854F000441460D2685B1C8B42F7
:102F3000D8D3DFF83C030260DFF8380300684007AD
:102F400007D5DFF8300304210160DFF82C030021EE
:102F50000160012030BC704730B40023DFF8084323
:102F600020600024230001E0E0605B1C934214D247
:102F700010EB43145FF00045256044F2F4556560A2
:102F800040F2F45505FB0315A560551EAB42EBD28C
:102F900010EB43152035E560E7E7DFF8E012086045
:102FA000DFF8C802DFF8D812016030BC7047DFF8E4
:102FB000B80200680068002817D4DFF8AC02006887
:102FC0000068C00511D5DFF8A4020068DFF8981288
:102FD00009684160DFF8940200688068401CDFF8EF
:102FE0008C120968886001204DE0DFF87C020068DF
:102FF0000068002824D4DFF87002006800688005AB
:103000001ED5DFF8640200680068C00518D4DFF838
:103010005C020068DFF8501209680160DFF84C02BA
:10302000006800214160DFF84402006801218160EE
:10303000DFF834020068C068DFF82C12086021E075
:10304000DFF824020068006800281BD4DFF81802AB
:1030500000680068800515D4DFF80C02006800687D
:10306000C0050FD4DFF8040200688068401CDFF858
:10307000FC1109688860DFF8F0010068C068DFF8BB
:10308000E81108600020704730B40023DFF8E04109
:1030900020600024230001E0E0605B1C934211D219
:1030A00010EB43145FF48015256040F2F45505FBE6
:1030B0000315A560551EAB42EED210EB431520352B
:1030C000E560EAE7DFF8BC11086030BC70470268D1
:1030D000114301607047DFF88401006850F001007F
:1030E000DFF87811086070470020DFF87011096878
:1030F000C90701D5012000E00020C0B27047DFF809
:103100005401006850F48010DFF8481108607047DF
:10311000C0B2002806D04F48006850F400504D4916
:10312000086005E04B48006830F4005049490860E9
:103130007047C0B2002806D04648006850F0020030
:103140004449086005E04348006830F00200414906
:103150000860704781B0002200230093164B1B6863
:103160001A0012F01C0280B2C00210F47840024330
:1031700089B2880110F4F860024332F0020252F082
:1031800001020D4802600098401C00900A48026845
:10319000D00703D500982D498842F4D300982B49D5
:1031A000884201D1002003E0DFF8DC00006880B233
:1031B00001B070470087930310800240002D310159
:1031C000C0E1E400C00E160240787D0118B400236F
:1031D000002400942D4C2468230013F01C0380B2BB
:1031E000C00210F47840034389B2880110F4F860FB
:1031F000034353F0020353F00103234892B20260E9
:10320000224803600098401C009020480368D807BB
:1032100003D500980D498842F4D300980B498842A1
:1032200001D1002000E0012012BC7047005A620268
:10323000FFFF0F00008002400F8120FF048002404A
:10324000088002400C80024018800240FFFF04000A
:103250001C80024018900240233FDEF8009002409C
:103260004080024044800240307D0020347D0020B8
:103270002C7D002014900240049002400C900240EB
:10328000B87C002010900240148002401080024060
:103290000022DFF878311B681A0032F0EC62084334
:1032A0000243DFF8680102607047F0B40021002299
:1032B0000023022400250226DFF850713F6817F032
:1032C0000C073900002904D0042906D0082908D0A9
:1032D00035E0DFF84011016034E0DFF83C110160B7
:1032E00030E0DFF82C110968C1F38055DFF82011B8
:1032F000096811F03F06002D0BD0DFF81C11B1FB5F
:10330000F6F1DFF80C211268C2F3881202FB01F318
:103310000AE0DFF80011B1FBF6F1DFF8F4201268E3
:10332000C2F3881202FB01F3DFF8E4100968C1F36D
:103330000141491C4C00B3FBF4F1016002E0DFF8ED
:10334000D4100160DFF8C410096811F0F001090918
:10335000DFF8C8208A5C0168D14041602B490968C8
:1033600011F4E051890ADFF8B4208A5C4168D14049
:1033700081602649096811F46041490BDFF89C20FF
:103380008A5C4168D140C160F0BC7047C9B2002975
:1033900005D02349096808432149086005E0204910
:1033A000096831EA00001E4908607047C9B2002967
:1033B00005D01C49096808431A49086005E0194905
:1033C000096831EA0000174908607047C9B200294E
:1033D00005D01549096808431349086005E01249FA
:1033E000096831EA0000104908607047C9B2002935
:1033F00005D00E49096808430C49086005E00B49EF
:10340000096831EA0000094908607047083802403D
:10341000043802400024F40040787D0100000020C0
:1034200030380240403802404438024010380240F0
:103430004181DFF8A81301600021C18081807047BD
:1034400010B4C288521C438992FBF3F403FB14228C
:1034500083889A420BD0C288521C438992FBF3F4B2
:1034600003FB1422C280C288006820F8121010BC2E
:1034700070478188C288914201D100200BE0818889
:10348000491C428991FBF2F302FB13118180818870
:10349000006830F81100704780B56421D048FFF70C
:1034A000C7FF01BD80B5010089B2CD48FFF7C8FF55
:1034B00001BD80B5CA48FFF7DCFF02BD10B4002291
:1034C00000230478AA2C02D14278AA2A01D0002035
:1034D0001DE08279C37952EA032289B28A4201D07F
:1034E000002014E0437A012204E092B21418647AB6
:1034F0006340521C92B289B2B1F10904A242F4DBDA
:10350000007ADBB2834201D0002000E0012010BC31
:10351000704780B5B0F8090041F60171401A06D035
:10352000401E0CD04FF48051401A10D014E0AD482A
:103530000021017049F60170FFF7B4FF0CE0A948C3
:103540000121017049F60270FFF7ACFF04E048F674
:103550000270FFF7A7FFFFE701BD38B504000D00BB
:1035600029882000FFF7AAFF002802D10020288028
:1035700004E02000FFF7CDFF0020288031BD10B40B
:1035800092B2130A5340AA240470AA24447001245E
:1035900084700024C47000240471002444710B243E
:1035A00084710024C4710372427292B2120A827250
:1035B0000B20088010BC704710B40023AA240470AC
:1035C000AA244470022484700024C470002404716E
:1035D00000244471122484710024C471427292B296
:1035E000120A82720B22C2721622027321224273C5
:1035F0002C2282730022C273002202747A4A12784B
:10360000427412220A80427A1300012204E0D2B2EC
:103610001418647A6340521CD2B20C88093CA2424E
:10362000F5DB037210BC704780B5704890F8C80095
:1036300000280FD1FFF73DFF80B2010048F602726B
:10364000891A21D040F6FF72891A012903D9891EEF
:103650000CD001BDFDE7020092B265496548FFF755
:103660008EFF6248012180F8C810F2E7020092B292
:103670005F496048FFF783FF5C48012180F8C8106C
:103680005D4801210170E4E7020092B258495948AF
:10369000FFF792FF5548012180F8C810D9E710B410
:1036A0000023AA240470AA244470022484700024F5
:1036B000C470002404710024447116248471002411
:1036C000C471427292B2120A82724C4A1278C27269
:1036D0004A4A52780273494A92784273474AD278EA
:1036E0008273474A1288C273454A128892B2120AFC
:1036F00002740B224274162282742122C2742C227C
:103700000275394A1278427516220A80427A1300ED
:10371000012204E0D2B21418647A6340521CD2B27F
:103720000C88093CA242F5DB037210BC704770B5EF
:1037300082B00D00140066685FF0FF30FDF7D7FC23
:10374000009061896068FFF7B9FE002802D100206F
:1037500060812AE0B6F8090042F60171884224D15E
:1037600048F6017227492848FFF799FF03222548A8
:1037700001880020FDF704FA0600002E15D021482C
:10378000028821493000FDF715FC2048038800AA73
:1037900031002800FEF73DFE2000FDF70EFB300053
:1037A000FDF70BFB17480021018073BD80B5FEF7C4
:1037B00057FF17490860164800682021018110480A
:1037C0000288144912480068FEF7AFFE0022124931
:1037D0000F480068FEF71FFF01BD0000107A0020AF
:1037E000A07C00205D7D0020627D002068780020A4
:1037F00034790020CC7800205F7D0020FC7C002004
:10380000567D00204C7D00204C7C0020587D0020FF
:10381000DC7C00208C1100082F37000840B2002803
:1038200009D540B210F00F00DFF82C2380180901F1
:1038300000F8041C04E040B2DFF8202309018154A1
:10384000704780B5B0F1807F01D3012013E0000202
:10385000000A401EDFF8081308600F215FF0FF30F8
:10386000FFF7DCFFDFF8FC0200210160DFF8F8025F
:1038700007210160002002BD80B500F003F800F0D0
:1038800025F801BD00B585B000F0CFF9042000F0A7
:10389000CEFA00A8FFF709FD00984FF47A71B0FB4B
:1038A000F1F0FFF7CEFF00215FF0FF30FFF7B6FF2A
:1038B00001217F20FFF76AFD0121AC48FFF776FD6B
:1038C0000121AB48FFF782FD05B000BD00B583B014
:1038D00001208DF8040000208DF8060002208DF8EC
:1038E000050000208DF807004FF40040009000A96B
:1038F000A04800F0B9FA00208DF8040000208DF8EF
:1039000007005020009000A99B4800F0ADFA07BDC9
:103910009A489B490968016098489A49096841603A
:1039200096489949096881609848994909880180B1
:103930009248006891494968890811EB50008F4905
:10394000896810EBD10093490860704780B5FFF794
:10395000DFFF07229049914800F03AF91A22904976
:10396000904800F035F990489049097801709048E6
:103970008949097801708E488749497841708C4897
:103980008549897881708A488349C978C170884897
:1039900081490979017186487F4949794171844893
:1039A0007D498979817182480078602810D18148E9
:1039B0007B49097801707F487949497841707D4891
:1039C0007749897881707B487549C978C1700BE067
:1039D00078480A21017077483021417075480A21E2
:1039E000817074486E21C17071484078612810D18F
:1039F0006B480079704908706F486949497941708E
:103A00006D486749897981706B486549C979C1708A
:103A10000BE069480A21017067483021417066480F
:103A20000A2181706448D221C1706148807862287F
:103A300010D15B48007A6149087060485849497A5A
:103A400041705E485649897A81705C485449C97A08
:103A5000C1700BE05948FF2101705848FF214170A7
:103A60005648FF21817055480021C1705048C078E8
:103A7000632810D14A48007B514908705048484992
:103A8000497B41704E484649897B81704C48444986
:103A9000C97BC1700BE04A480A21017048483021B7
:103AA000417047480A21817045480121C170404852
:103AB000007964281BD13A48007C4249087041488B
:103AC0003749497C417033480068000E3D49887091
:103AD00030480068000C3B49C8702E480068000A56
:103AE0003849087137482B490968417118E0354851
:103AF0000121017033480021417026480068000E02
:103B00003049887023480068000C2E49C87021484D
:103B10000068000A2B4908712A481E49096841714A
:103B200023484079652804D11D48C08A2649088069
:103B300003E0254842F2283101801D48807966283B
:103B400004D11748008B2149088003E01F484FF437
:103B5000FA51018001BD000018ED00E000E400E032
:103B600014E000E018E000E010E000E005000E10B6
:103B7000034004000018024000000240AC7C00201A
:103B8000107AFF1F147AFF1F187AFF1F5A7D00203A
:103B9000227AFF1F287D0020D47C002000A00E0880
:103BA0006C7C002008A00E08627D002022A00E0878
:103BB000CC7C0020FC7C0020087D0020007D0020C3
:103BC000047D0020C47C0020567D0020587D00200C
:103BD00010B4002302E01C5C5C545B1C9342FAD3DB
:103BE00010BC704780B56848006850F00100664915
:103BF0000860664800210160634800686449084025
:103C0000614908606348644901605F48006830F4B6
:103C100080205D49086061480021016000F058F88B
:103C20005F485FF00061016001BD30B400200021F9
:103C3000022200230224554D2D6815F00C052800A2
:103C4000002804D0042806D0082808D02FE05548C2
:103C5000554901602EE05348544901602AE04D481F
:103C60000068C0F380534B48006810F03F04002BFD
:103C700009D04E48B0FBF4F046490968C1F38811F9
:103C800001FB00F108E04848B0FBF4F04149096845
:103C9000C1F3881101FB00F13E480068C0F3014008
:103CA000401C4200B1FBF2F03E49086002E03D4892
:103CB0003D49016035480068C0F303103C49405C51
:103CC0003849096831FA00F03649086030BC70475D
:103CD00082B000200190002000902B48006850F432
:103CE0008030294908602848006810F400300090AE
:103CF0000198401C01900098002803D10198B0F56C
:103D0000A06FF0D120480068800302D50120009008
:103D100001E0002000900098012832D11B481B4987
:103D2000096801601948006850F4004017490860AC
:103D30001648006850F4A0501449086015481D4901
:103D400001601148006850F080700F4908600E480B
:103D500000688001FBD5184840F2037101600B48F0
:103D6000006880088000094908600848006850F031
:103D70000200064908600548006810F00C00082899
:103D8000F9D102B070470000003802400838024004
:103D9000FFFFF6FE04380240103000240C380240C9
:103DA00008ED00E0200000200024F40040787D01B0
:103DB00010000020193C4005003C02402449084303
:103DC00024490860704710B4002100220F23C478F2
:103DD000002C1FD01F49096811F4E061D1F5E061A2
:103DE000090AD1F10402DBB20B414178914082789B
:103DF0001A40114309010278174BD1540178491137
:103E0000164A0123007810F01F0013FA00F042F860
:103E100021000AE001784911114A0123007810F0CD
:103E20001F0013FA00F042F8210010BC704704286C
:103E300006D10C48006850F004000A49086005E00B
:103E40000848006830F00400064908607047000028
:103E50000000FA050CED00E000E400E000E100E005
:103E600080E100E010E000E030B4002200230024F4
:103E700000252A0047E0012393400C681C409C4227
:103E800040D1036803241500EDB26D00AC40A3439C
:103E9000036003680C791500EDB26D00AC4023435C
:103EA00003600B79012B02D00B79022B1AD18368A6
:103EB00003241500EDB26D00AC40A343836083681A
:103EC0004C791500EDB26D00AC402343836043682C
:103ED00001249440A343436043688C799440A4B286
:103EE00023434360C36803241500EDB26D00AC406A
:103EF000A343C360C368CC791500EDB26D00AC403C
:103F00002343C360521C102AB5D330BC7047002233
:103F1000006980B2084201D0012200E000221000B6
:103F2000C0B270470022406980B2084201D001222D
:103F300000E000221000C0B2704701837047418347
:103F40007047F0B400230024D2B211F00705EDB29F
:103F5000AD00AA40130089B2CA1010EB820289B2E8
:103F6000CD1010EB85052D6A0F2611F00707FFB263
:103F7000BF00BE40B543156289B2CA1010EB820281
:103F8000126A1A43140089B2C91010EB810004624E
:103F9000F0BC7047DFF88403006810F4E060DFF8DD
:103FA00080130843DFF874130860BFF34F8FFEE7F8
:103FB00010B50400FEF754FBE4B2E021DFF86423FF
:103FC00001FB0421C1F8D400E4B2E020DFF854136F
:103FD00000FB0410002180F8CE10E4B2E020DFF8EE
:103FE000441300FB0410D0F8D400002821D0E4B220
:103FF000E020DFF8301300FB0410012180F8DE1010
:10400000E4B2E020DFF81C1300FB0410002180F86C
:10401000DF10E4B2E020C34900FB0410002180F867
:10402000C810E4B2E020BF4900FB04100021A0F852
:10403000CC1010BD10B582B004002000C0B200F05A
:104040003CF9E4B2E020B74900FB041090F8D80036
:10405000E4B2E021B34A01FB042191F8D91009042C
:1040600051EA0060E4B2E021AE4A01FB042191F87C
:10407000DA1050EA0120E4B2E021AA4A01FB04214F
:1040800091F8DB100843FDF732F80090A64802884B
:10409000A649E4B2E020A34B00FB0430D0F8D400E2
:1040A000FEF743FAE4B2E0209E4900FB0410B0F8AA
:1040B000DC2000A9E4B2E0209A4B00FB0430D0F8E9
:1040C000D400FEF76CFA40B200281AD100229849B9
:1040D000E4B2E020934B00FB0430D0F8D400FEF7AC
:1040E0009AFAE4B2E0208F4900FB0410012180F825
:1040F000CE10E4B2E0208B4900FB0410002180F8D0
:10410000DF1013BDF8B5002330E0DBB2E025854EAB
:1041100005FB0365B5F8CA50C0B24519DBB2E0260D
:10412000804F06FB0376C0B2075DAF55401C05000B
:10413000EDB21689ADB2B542E7D3DBB2E024794DDA
:1041400004FB0354B4F8CA40C0B20419DBB2E02542
:10415000744E05FB0365A5F8CA40DBB2E024714D3F
:1041600004FB0354022584F8CE505B1CDBB2012B08
:1041700031D28C8ADBB2E0256A4E05FB0365B5F8C7
:10418000DC50AC42F1D1002400E0641CE4B2042C09
:104190000FD24D68E4B2E600F540E4B2DBB2E026AF
:1041A000604F06FB0376A61996F8D860EDB2AE42D2
:1041B000EBD0DBB2E0255B4E05FB036595F8CE50F6
:1041C000012DD2D1E4B2042CCFD11489652CB4D204
:1041D00054680020ABE71000FCF7EFFDF1BD38B5E7
:1041E00004000322E4B2E0204E4900FB0410B0F8C2
:1041F000CC100020FCF7C4FC0500002D1DD0E4B25B
:10420000E020484900FB0410B0F8CC20E4B2E020E4
:10421000444900FB041010F164012800FCF7CAFEB9
:104220002900E4B2E0203F4A00FB0420D0F8D4008B
:10423000FEF7E9F82800FCF7C0FD31BD80B539482C
:1042400090F8CE00022807D13A493648FFF785F9A1
:104250003448012180F8CE10324890F8DE00002862
:1042600003D10020FFF7A4FE26E02E4890F8CE00F0
:10427000002803D10020FFF7DDFE1DE0294890F85B
:10428000CE00012818D1274890F8C800012813D182
:104290000020FFF7A4FF2348002180F8C81026481B
:1042A0000078012808D124480021017041F28830AB
:1042B00000F0FDF8FFF76EFE01BDC0B200282CD162
:1042C000C0B2E021174A01FB00211C4A1288A1F864
:1042D000DC20C0B2E021134A01FB0021184A127809
:1042E00081F8D820C0B2E0210E4A01FB0021144A17
:1042F000527881F8D920C0B2E0210A4A01FB00219E
:104300000F4A927881F8DA20C0B2E021054A01FB19
:1043100000200B49C97880F8DB1070470CED00E0F5
:104320000400FA0568780020567D00208C110008F2
:1043300005410008327900205F7D0020587D002073
:10434000087D00207C48006810F4E0607B49084349
:1043500079490860BFF34F8FFEE780B5FFF78CFA0D
:104360001EE0774800881A2818D300F00DF9F320D2
:1043700000F0CCF90221202000F01FF902212820B2
:1043800000F01BF90221502000F017F902215820FB
:1043900000F013F900F008F9FFF7D4FF00F093F8EC
:1043A00040216848FFF7B3FDC007DAD5FFF7CEFA22
:1043B000654866490978017063480078FF2802D192
:1043C00061480021017060480078AA2802D000F0FE
:1043D0002FF801E000F002F8002002BD80B55C4833
:1043E00000685C490840B0F1005F20D100200CE07B
:1043F000C0B259495FF0FF3241F82020C0B257499E
:104400005FF0FF3241F82020401CC0B20828EFD3F3
:10441000534854490968016053485149096801608B
:104420004B48006800F0AAF94F480068804701BD7A
:1044300080B5FFF731F800F0A5F900F019FBFFF7A0
:10444000B5F900F0AAFCFEF7B2FD002801D000F09B
:104450005CFB4648006800F05DFB45480078012899
:104460001ED143480021017042480078012817D12D
:1044700040480021017000F087F8F32000F046F971
:104480000221502000F099F8082803D1AA212F48D2
:1044900000F015F900F088F849F60370FFF702F80C
:1044A000FFF7CCFEFFF7C0F800F00DF8CBE72F497F
:1044B00009684018304908602C4800682E4909688E
:1044C0008842F9D3704780B52C480088012819D15B
:1044D0002A48002101804FF400412948FFF722FDBE
:1044E000002805D04FF400412548FFF728FD04E0DF
:1044F0004FF400412248FFF720FD11480088401C7E
:104500000F49088001BD19480068401C1749086020
:104510001C48008800280ED01A480088401E1949FF
:10452000088018480088002805D11648C821018055
:1045300012480121018070470CED00E00400FA05EB
:10454000547D0020000002405E7D002000000C0829
:10455000000001080000FE2F80E100E080E200E0A2
:10456000F87C002004000108F47C0020EC7C002092
:10457000647D00205D7D0020F07C0020527D0020C5
:104580000018024024000020DFF8B4010068002871
:1045900009D5DFF8B001DFF8B0110160DFF8A40140
:1045A000DFF8A81101607047DFF89401006850F04F
:1045B0000040DFF88C110860704738B50400002512
:1045C0000820C9B2002901D100250DE0C9B2012996
:1045D00002D14FF4807507E0C9B2022902D14FF42D
:1045E000007501E04FF4407500F0B4F8C0B208283F
:1045F00039D1DFF84C01006830F44070DFF8401129
:104600000860DFF83C0100682843DFF834110860D7
:10461000DFF82C01006830F0F800DFF824110860A2
:10462000DFF81C01006854F002010843DFF81011A4
:104630000860DFF80C01006850F48030DFF80011EA
:10464000086000F087F8DFF8F810096831F002011F
:10465000DFF8EC201160DFF8E810096831F0F801AC
:10466000DFF8DC201160C0B232BD70B504000D006F
:10467000082600F06FF80600F6B2082E1CD130486C
:10468000006830F440702E4908602D4800684FF4EF
:10469000007108432A4908602948006850F0010069
:1046A00027490860256000F055F806002448006896
:1046B00040084000224908603000C0B270BD70B5AB
:1046C00004000D00082600F045F80600F6B2082E9A
:1046D00019D11B48006830F4407019490860184827
:1046E0001749096801601648006850F00100144934
:1046F0000860257000F02EF8060011480068400898
:1047000040000F4908603000C0B270BD1049086019
:10471000704708200E490968C90301D501200CE043
:104720000B480068C00601D5052006E0084800686F
:10473000800701D5072000E00820C0B270470000C4
:10474000103C0240043C024023016745AB89EFCD99
:104750000C3C024080B508208DF80000FFF7D9FF1F
:104760008DF8000003E0FFF7D4FF8DF800009DF8FE
:1047700000000128F7D09DF8000002BD80F30888F2
:104780007047704780B500F055F800F006F8032038
:1047900000F0DFF800F014F901BD00B5AFB0012161
:1047A0005FF06060FEF7F2FDFEF7F7F8FEF793FCAE
:1047B000FEF79AFC0128FBD000A8FEF7FAF80120CA
:1047C0000090002007904FF400700A9000200B909A
:1047D00000200E90002011900020139000201490D3
:1047E000002015904FF480600990002020905FF029
:1047F000007021905FF4001023900020259000208D
:104800002690042028905FF0007029905FF480309B
:104810002A905FF480002B904FF400502C904FF4BE
:1048200080402E90032100A8FEF73AF98B490860DA
:104830002FB000BD00B583B001210720FEF7A6FD13
:1048400001214FF48040FEF7C1FD4FF480700090CD
:1048500003208DF8050002208DF8040000208DF85B
:10486000060000208DF8070000A97D48FFF7FCFA3C
:1048700000215FF48000FEF70BFD002000F0E0FA5D
:104880008F20009000A97648FFF7EEFA0B22002156
:104890007348FFF756FB0B2201217148FFF751FBCC
:1048A0000B2202216E48FFF74CFB0B2203216C48C0
:1048B000FFF747FB0B2207216948FFF742FB43F64E
:1048C0000350009000A96748FFF7CEFA0B220021A1
:1048D0006448FFF736FB0B2201216248FFF731FBEA
:1048E0000B2208215F48FFF72CFB0B220A215D48B1
:1048F000FFF727FB0B220B215A48FFF722FB0B2265
:104900000C215848FFF71DFB0B220D215548FFF7DE
:1049100018FB3E20009000A95348FFF7A5FA0B2290
:1049200001215148FFF70DFB0B2202214E48FFF7F2
:1049300008FB0B2203214C48FFF703FB0B22042149
:104940004948FFF7FEFA0B2205214748FFF7F9FA1D
:1049500007BD38B5040000250221200080B2FEF713
:10496000F9FB05000321200080B2FEF7F3FB0500F0
:104970001221200080B2FEF7EDFB050055F0030583
:104980002A0092B21221200080B2FEF71FFC0028FC
:1049900001D1002013E01321200080B2FEF7DAFBE2
:1049A000050055F020052A0092B21321200080B2A4
:1049B000FEF70CFC002801D1002000E0012032BDF0
:1049C00000B585B001210220FEF7E0FC01214FF483
:1049D0008040FEF7FBFC00208DF8100000208DF8D1
:1049E00013004FF48040039003A91E48FFF73CFAE0
:1049F0000E21012000F0FCF94FF4804001900020CE
:104A00008DF808000C208DF8090001208DF80A00AF
:104A100001A800F01DFA4FF4A060FFF7CFF928209D
:104A20008DF8000000208DF8010000208DF80200B4
:104A300001208DF8030000A8FFF7C5F905B000BDFF
:104A400080B5132180B2FEF785FB800404D50748AA
:104A50000078C0430549087001BD0000387D002082
:104A6000000002400004024000080240637D002074
:104A700000B587B0FCF7CFFEFCF7D0FA2D480078E0
:104A80002C494978090451EA00602A49897850EA9A
:104A900001202849C9780843FCF729FB05902648DE
:104AA000007825494978090451EA0060224989784B
:104AB00050EA01202049C9780843FCF718FB04900C
:104AC0001E4800781D494978090451EA00601B49D5
:104AD000897850EA01201949C9780843FCF707FB97
:104AE000039017480290174801900020009003ABF4
:104AF00004AA05A91448FCF7C5FF1348FDF712F8EE
:104B00001148FDF719F807B000BD80B50E4800F058
:104B10009DFA01BD01B500980C490968401A41F29F
:104B20008831884204D3094800990160FBF739FBBA
:104B300001BD0000FC7C0020007D0020047D0020E1
:104B40000B0B000881500008187C0020187D002005
:104B50004078704780B54088FCF7C4FA02BD002257
:104B600002704170704710B50400080080B2FCF775
:104B7000B3FA608010BDF8B504000D0016001F00E8
:104B8000042100A8FFF7EBFF390089B200A8FFF766
:104B9000EAFF032204210020FBF7F2FF0700002FA9
:104BA00002D15FF0FF3011E0042200A97868FCF721
:104BB00012FC33009BB22A0039002000FDF729FCCB
:104BC00004003800FCF7F9F8200040B2F2BD2DE9EE
:104BD000F041ADF5007D80460D0016001F00869C5B
:104BE000002270893189884264D17089052837D3C1
:104BF0007068FFF7AFFFD8F81412491C88422FD114
:104C000004237089021F92B200A93000FCF786F9D4
:104C10006F4800687189091F08186D49086070891C
:104C2000001F042190FBF1F27089001F042190FB0A
:104C3000F1F303FB1103002B00D0521C92B200A928
:104C4000644800F057FAD8F81402401CC8F814025F
:104C5000D8F818027189091F0818C8F818020CE062
:104C60007068FFF777FFD8F81412491C884204D106
:104C7000D8F81402401CC8F81402D8F81432A4B2B0
:104C8000220039002800FFF776FF70894FF4017188
:104C900088420CD24146280000F06DF83000FCF745
:104CA0008CF84D4801210170FFF77EFC02E03000D6
:104CB000FCF783F80DF5007DBDE8F081F8B5040040
:104CC0000D00160000274FF40A70FCF75CFE070089
:104CD000002F05D13900200000F04DF8002024E01D
:104CE000022038602868C7F80C02C7F8106200205C
:104CF000C7F814020020C7F818023A00374920000C
:104D0000FDF789FC32480021016000F0DFF93448EA
:104D100000F0E0F92F4832490160D7F81432320030
:104D200029002000FFF727FF0020F2BDF8B515008D
:104D30001E00069CFDF794FC0700002F1AD00022ED
:104D400028493800FDF7F1FB40B2002812D168680D
:104D5000FFF7FEFEC0B2022803D03800FDF75EFC6C
:104D600005E0A4B2220031003800FFF7A7FF2800B9
:104D7000FCF723F8F1BD10B504000800FCF775FD41
:104D80002000FDF739FC2000FDF748FC0022164901
:104D900016480068FDF73FFC10BD10B54524FDF72F
:104DA0005FFC124908601148006800280FD02200FB
:104DB00092B20C490D480068FDF7B7FB40B20028DD
:104DC00005D10022084909480068FDF724FC10BD00
:104DD000447D00203C7D0020647D0020CF4B0008F6
:104DE000000001088C1100082D4D0008407D0020B6
:104DF00010B400220F2311F00304E4B2A400A34076
:104E00001A00C9B28B10104C54F8233033EA020256
:104E1000C9B28B100C4C44F82320C9B28A100A4B3B
:104E200053F82220C0B211F00303DBB29B0098407C
:104E30001043C9B28910044A42F8210010BC7047DF
:104E4000024908607047000008380140DC00274232
:104E500000212C4A11008279002A35D0294A126893
:104E600003689A43274B1A60274A126803689A43DB
:104E7000254B1A60027951180A6803681A430A60C0
:104E80002249096802689143204A11602049096853
:104E9000026891431E4A1160417910290CD11B49C7
:104EA000096802681143194A1160194909680068C4
:104EB0000843174908600EE01249427951180A6800
:104EC00000681043086006E0027951180A6800681B
:104ED00032EA00000860704700210022094B1B687D
:104EE00003401A000B4B1B68034203D0002A01D079
:104EF000012100E000210800C0B2704705490860A8
:104F000070470000003C0140043C0140083C014067
:104F10000C3C0140143C014010B50400062084F80C
:104F20002600002084F827005D48407884F8280097
:104F30005B48807884F829005948C07884F82A00B2
:104F40005748007984F82B005548407984F82C00A4
:104F500014F127010020FDF72FFF40F2DC50A08460
:104F6000322084F82D0005224E494F48FEF78CF878
:104F700005224E494E48FDF7EFFF002407E05FF49D
:104F80004001494810EB4410FEF7A1F8641C052CC1
:104F9000F5DBFDF7D7FE10BD70B50C0000254548C8
:104FA0000068866807E062896168A819FCF713FA4F
:104FB000608945192468002CF5D1280080B2FDF7DE
:104FC00045FF002070BDFEB500260025002400A886
:104FD000FDF707FF0099019F032289B20320FBF729
:104FE000CFFD0400002C0BD0250007E06A89F119E1
:104FF0006868FCF7F0F9688986192D68002DF5D1ED
:105000002D4800688068022803D32B480068006898
:1050100000E00298002504E05FF000410160C068F4
:105020006D1C2549096889688D42F5D322480068BE
:105030000021816021480068000605D51F488021B5
:1050400001601F48002101602000FEBD38B504004A
:105050002000FFF7B8FF0500002D02D15FF0FF3000
:105060000DE02100280022699047040064B2002C62
:1050700003D02800FBF7A1FE0025200040B232BD7E
:1050800080B5732180F82E10742180F82F100D49FF
:1050900041610D498161FFF73FFF002002BD000023
:1050A000C47C0020B0440020787B0020EC26002047
:1050B000D87A00202C7D0020347D002014900240FE
:1050C00008900240A1070008994F000880B5FFF73B
:1050D0005BFA01BD80B51A49884209D2022120201D
:1050E000FFF76BFA02212820FFF767FA002000E0A3
:1050F000012002BDF8B504000D00160000270020B5
:10510000070003E02068001D20607F1CB6B2B74294
:1051100014D220680B49884210D255F82710206815
:10512000FFF7A3FA082807D12068006855F8271070
:105130008842E7D0022002E0012000E00020F2BD1A
:1051400001000208FCFF0B0870477047704770476A
:10515000704770477047704780B5FFF7D4F901BDBD
:1051600080B54FF48040FFF7B7FE002806D003203B
:10517000FFF766FC4FF48040FFF7C0FE01BD000062
:1051800010B5084979441C31074C7C441A34A142BB
:1051900006D0081D0A68511888470146A142F8D177
:1051A00010BD00BF0800000028000000E7C9FFFF95
:1051B000407D0000280000200000000053BFFFFFDA
:1051C00028000000D40100000000002000000000C2
:1051D00000F009F8002801D0FFF7D2FF0020FFF708
:1051E000BCF800F002F80120704780B500F002B86A
:1051F00000BF00000746384600F002F8FBE7000059
:1052000080B5C046C046024A11001820ABBEFBE77D
:10521000260002000148804701480047E53B00089E
:1052200025520008C046C046C046C046FFF7D0FF22
:10523000FFF78ABFFFF789BFFFF788BFFFF787BF78
:10524000FFF786BFFFF785BFFFF784BFFFF783BF78
:10525000FFF782BFFFF7FEBFFFF7FEBFFFF7FEBFFE
:10526000FFF7FEBFFFF7FEBFFFF7FEBFFFF7FEBF72
:10527000FFF7FEBFFFF7FEBFFFF7FEBFFFF7FEBF62
:10528000FFF7FEBFFFF7FEBFFFF7FEBFFFF7FEBF52
:10529000FFF7FEBFFFF7FEBFFFF7FEBFFFF7FEBF42
:1052A000FFF7FEBFFFF7FEBFFFF7FEBFFFF7FEBF32
:1052B000FFF7FEBFFFF7FEBFFFF7FEBFFFF7FEBF22
:1052C000FFF7FEBFFFF7FEBFFFF7FEBFFFF7FEBF12
:1052D000FFF7FEBFFFF7FEBFFFF7FEBFFFF7FEBF02
:1052E000FFF7FEBFFFF7FEBFFFF7FEBFFFF7FEBFF2
:1052F000FFF7FEBFFFF734BFFFF7FEBFFFF7FEBFAC
:10530000FFF7FEBFFFF7FEBFFFF7FEBFFFF7FEBFD1
:10531000FFF7FEBFFFF7FEBFFFF7FEBFFFF7FEBFC1
:10532000FFF7FEBFFFF7FEBFFFF7FEBFFFF7FEBFB1
:10533000FFF7FEBFFFF7FEBFFFF7FEBFFFF7FEBFA1
:10534000FFF7FEBFFFF7FEBFFFF7FEBFFFF7FEBF91
:10535000FFF7FEBFFFF7FEBFFFF7FEBFFFF7FEBF81
:10536000FFF7FEBFFFF7FEBFFFF7FEBFFFF7FEBF71
:10537000FFF7FEBFFFF7FEBFFFF7FEBFFFF7FEBF61
:10538000FFF7FEBFFFF7FEBFFFF7FEBFFFF7FEBF51
:10539000FFF7FEBFFFF7FEBF00000000010203049D
:1053A00001020304060708090000000000000000D5
:1053B0000102030406070809000E2707C8000000C1
:040000050800522578
:00000001FF
